:100000000C9436000C945E000C945E000C945E0020
:100010000C945E000C945E000C945E000C945E00E8
:100020000C945E000C945E000C945E000C945E00D8
:100030000C945E000C945E000C945E000C945E00C8
:100040000C9489020C945E000C9457020C943102BB
:100050000C945E000C945E000C945E000C945E00A8
:100060000C945E000C945E00D302830511241FBE25
:10007000CFEFD8E0DEBFCDBF11E0A0E0B1E0E2EC11
:10008000FDE002C005900D92A432B107D9F722E03D
:10009000A4E2B1E001C01D92AA30B207E1F710E07E
:1000A000C5E3D0E004C02197FE010E94A905C43336
:1000B000D107C9F70E9465030C94D4060C94000084
:1000C000AF92BF92CF92DF92EF92FF920F931F9366
:1000D000CF93DF936C017B018B01040F151FEB01A4
:1000E0005E01AE18BF08C017D10759F06991D6015B
:1000F000ED91FC910190F081E02DC6010995892BCD
:1001000079F7C501DF91CF911F910F91FF90EF908B
:10011000DF90CF90BF90AF900895FC01538D448D38
:10012000252F30E0842F90E0821B930B541710F0A2
:10013000CF96089501970895FC01918D828D9817AF
:1001400061F0A28DAE0FBF2FB11D5D968C91928D87
:100150009F5F9F73928F90E008958FEF9FEF0895B8
:10016000FC01918D828D981731F0828DE80FF11D81
:10017000858D90E008958FEF9FEF0895FC01918D9C
:10018000228D892F90E0805C9F4F821B91098F7395
:10019000992708958AE291E00E94BE0021E0892B10
:1001A00009F420E0822F089580E090E0892B29F067
:1001B0000E94CA0081110C9400000895FC01A48DD6
:1001C000A80FB92FB11DA35ABF4F2C91848D90E079
:1001D00001968F739927848FA689B7892C93A0895C
:1001E000B1898C91837080648C93938D848D9813E6
:1001F00006C00288F389E02D80818F7D8083089579
:10020000EF92FF920F931F93CF93DF93EC0181E066
:10021000888F9B8D8C8D98131AC0E889F98980810D
:1002200085FF15C09FB7F894EE89FF896083E88940
:10023000F98980818370806480839FBF81E090E032
:10024000DF91CF911F910F91FF90EF900895F62EBF
:100250000B8D10E00F5F1F4F0F731127E02E8C8D59
:100260008E110CC00FB607FCFACFE889F98980819E
:1002700085FFF5CFCE010E94DE00F1CFEB8DEC0FB4
:10028000FD2FF11DE35AFF4FF0829FB7F8940B8FBB
:10029000EA89FB8980818062CFCFCF93DF93EC0125
:1002A000888D8823B9F0AA89BB89E889F9898C915E
:1002B00085FD03C0808186FD0DC00FB607FCF7CF1A
:1002C0008C9185FFF2CF808185FFEDCFCE010E941A
:1002D000DE00E9CFDF91CF9108950F931F93CF9365
:1002E000DF93DC015F96ED91FC91309781F0EC019A
:1002F000ADA1BEA114960D911C91159715969C93D6
:100300008E9314970995EDA1FEA115830483DF91C7
:10031000CF911F910F910895CF93DF93EC018CE162
:1003200091E0998388838A8180FF0CC09A818A81B9
:100330008E7F8A838A818D7F8A8390FF03C0CE015E
:100340000E946D01EDA1FEA1309789F017821EA2D7
:100350001DA2A9A1BAA18BA19CA1109799F4009705
:1003600049F4118210821382128281E08783DF9127
:10037000CF910895DC0192961C921E9291979183E1
:100380008083F3CF009739F494961C921E92939732
:10039000B383A283EACF94969C938E9393970BA0FA
:1003A000DCA1C02DBAA3A9A3E0CFCF92DF92EF9238
:1003B000FF920F931F93CF93DF93CDB7DEB7A19733
:1003C0000FB6F894DEBF0FBECDBF2091290130E0FB
:1003D00050E040E019A28E010F5D1F4F8AE0C82E49
:1003E000D12CE12CF12CCA01B901A70196010E9480
:1003F0008705605DF80162938F0121153105410584
:10040000510589F7309761F001900020E9F73197A5
:10041000AF01401B510BB8018AE291E00E946000DD
:1004200042E050E060E271E08AE291E00E94600008
:10043000A1960FB6F894DEBF0FBECDBFDF91CF916E
:100440001F910F91FF90EF90DF90CF900895CF9381
:10045000DF93EC010E948C01CE01DF91CF910C94CF
:100460004B061F920F920FB60F9211242F933F93BA
:100470004F935F936F937F938F939F93AF93BF93AC
:10048000EF93FF938AE291E00E94DE00FF91EF91EB
:10049000BF91AF919F918F917F916F915F914F919C
:1004A0003F912F910F900FBE0F901F9018951F92A4
:1004B0000F920FB60F9211242F938F939F93EF9368
:1004C000FF93E0913A01F0913B018081E09140017E
:1004D000F091410182FD1BC09081809143018F5FAB
:1004E0008F7320914401821741F0E0914301F0E0C5
:1004F000E65DFE4F958F80934301FF91EF919F91B1
:100500008F912F910F900FBE0F901F9018958081A3
:10051000F4CF1F920F920FB60F9211242F933F9397
:100520008F939F93AF93BF938091C7019091C80120
:10053000A091C901B091CA013091280123E0230F95
:100540002D3758F50196A11DB11D209328018093E8
:10055000C7019093C801A093C901B093CA018091CB
:10056000240190912501A0912601B09127010196C7
:10057000A11DB11D8093240190932501A093260114
:10058000B0932701BF91AF919F918F913F912F9190
:100590000F900FBE0F901F90189526E8230F02961C
:1005A000A11DB11DD2CFEAE2F1E01382128288EEE2
:1005B00093E0A0E0B0E084839583A683B7838AE0CC
:1005C00091E09183808385EC90E09587848784EC2B
:1005D00090E09787868780EC90E0918B808B81EC10
:1005E00090E0938B828B82EC90E0958B848B86ECF1
:1005F00090E0978B868B118E128E138E148EE2EF05
:10060000F1E0178211821082138212821582148205
:10061000168281E08783EBECF1E08CE191E091833D
:100620008083ADECB1E08C918E7F8C938C918D7F2B
:100630008C938C918B7F8C931386148615861686EB
:1006400013821482158216821782108611861286F2
:1006500012A211A214A213A216A215A2178A108E1A
:10066000118E128E85ED91E0948F838F168E158EEC
:1006700010A2178E80E29EE4A0E0B0E08383948312
:10068000A583B68383819481A581B6818783908772
:10069000A187B2872FB7F8948091C7019091C801C4
:1006A000A091C901B091CA012FBF83879487A58704
:1006B000B6878FEF9FEFDC018787908BA18BB28B82
:1006C000838B948BA58BB68B0895789484B58260C8
:1006D00084BD84B5816084BD85B5826085BD85B5E6
:1006E000816085BD80916E00816080936E00109264
:1006F00081008091810082608093810080918100DF
:10070000816080938100809180008160809380006F
:100710008091B10084608093B1008091B0008160CD
:100720008093B00080917A00846080937A008091F9
:100730007A00826080937A0080917A008160809351
:100740007A0080917A00806880937A001092C100CC
:10075000E0913A01F0913B0182E08083E091360123
:10076000F09137011082E0913801F091390180E178
:10077000808310924201E0913E01F0913F0186E0BA
:100780008083E0913C01F0913D0180818061808314
:10079000E0913C01F0913D01808188608083E0918F
:1007A0003C01F0913D01808180688083E0913C01B3
:1007B000F0913D0180818F7D80838BEC91E02091D1
:1007C000F0013091F101232B21F51092F90122EF74
:1007D00031E03093F1012093F0012091F20130914A
:1007E000F301232B09F0FCC09093F3018093F201F5
:1007F0001092ED011092EC011092EF011092EE01B7
:100800008BEC91E09093F5018093F40181E080936B
:10081000F901A091F001B091F101109709F46AC0BB
:100820001092E2011092E3011092E4011092E501AE
:100830008091CD018B7F8093CD01E091E801F09113
:10084000E901309709F4D7C08091CD0181FDD3C073
:100850001496CD91DC9115978BEC91E015969C93B5
:100860008E9314978091CD0182608093CD0109957C
:100870009091CD0180FB90F99093CD018091CD01B5
:100880008D7F8093CD01E091F001F091F101D5834E
:10089000C4838091CE019091CF01A091D001B091FD
:1008A000D1018093D2019093D301A093D401B0934E
:1008B000D5012FB7F8948091C7019091C801A091FC
:1008C000C901B091CA012FBF4091D2015091D3010B
:1008D0006091D4017091D501841B950BA60BB70BC9
:1008E0008093D6019093D701A093D801B093D901FA
:1008F0008091CD01C0E0D0E08091F2019091F301B0
:100900009093F7018093F6011092FA011092FB0187
:100910001092FC011092FD011092FE011092FF0155
:100920001092000210920102109202021092030231
:1009300010920402109205028091F901882309F4B3
:10094000D2C08091F8018111CEC0E091F601F09102
:10095000F701309709F4C7C08091FE019091FF0123
:10096000A0910002B09101020196A11DB11D8093DA
:10097000FE019093FF01A0930002B093010203A136
:1009800014A1828180FF27C08091FA019091FB0120
:10099000A091FC01B091FD010196A11DB11D8093B4
:1009A000FA019093FB01A093FC01B093FD018785B0
:1009B0009089A189B289892B8A2B8B2B11F5928181
:1009C00082818E7F828382818D7F828390FF03C0AC
:1009D000CF010E946D011093F7010093F601B1CF92
:1009E000E091F401F091F501F093ED01E093EC0159
:1009F00094A383A301CF8091CD0181608093CD0129
:100A000048CF2FB7F8948091C7019091C801A09169
:100A1000C901B091CA012FBFE091F601F091F70131
:100A2000438154816581768183849484A584B684CE
:100A3000C780D084E184F28488199909AA09BB0986
:100A40008C159D05AE05BF0530F287859089A1897B
:100A5000B289181619061A061B065CF48785908958
:100A6000A189B2890197A109B1098787908BA18BD0
:100A7000B28B8789908DA18DB28D0196A11DB11D7C
:100A8000878B908FA18FB28F83859485A585B6853E
:100A9000C780D084E184F2848C0D9D1DAE1DBF1DE6
:100AA00083879487A587B687478350876187728736
:100AB000038CF48DE02D309709F48DCF099580914A
:100AC000020290910302A0910402B09105020196E6
:100AD000A11DB11D8093020290930302A093040212
:100AE000B093050278CF809129018F5F809329010F
:100AF000209709F401CF0E94CA00882309F4FCCE94
:100B00000E940000F9CE8BEC91E00C948C01A1E2E4
:100B10001A2EAA1BBB1BFD010DC0AA1FBB1FEE1F77
:100B2000FF1FA217B307E407F50720F0A21BB30BC2
:100B3000E40BF50B661F771F881F991F1A9469F73E
:100B400060957095809590959B01AC01BD01CF019A
:100B50000895EE0FFF1F0590F491E02D09940F9377
:100B60001F93CF93DF938230910510F482E090E0E1
:100B7000E0910802F091090230E020E0B0E0A0E04E
:100B8000309799F42115310509F44AC0281B390B17
:100B900024303105D8F58A819B816115710589F171
:100BA000FB0193838283FE0111C040815181028148
:100BB000138148175907E0F04817590799F410971F
:100BC00061F012960C93129713961C933296CF01F4
:100BD000DF91CF911F910F91089500930802109318
:100BE0000902F4CF2115310551F04217530738F0AF
:100BF000A901DB019A01BD01DF01F801C1CFEF01BD
:100C0000F9CF9093090280930802CDCFFE01E20F45
:100C1000F31F819391932250310939832883D7CFD1
:100C20002091060230910702232B41F4209102010A
:100C300030910301309307022093060220910001B6
:100C4000309101012115310541F42DB73EB7409196
:100C5000040150910501241B350BE0910602F0912F
:100C60000702E217F307A0F42E1B3F0B28173907E2
:100C700078F0AC014E5F5F4F2417350748F04E0FF8
:100C80005F1F5093070240930602819391939FCF79
:100C9000F0E0E0E09CCFCF93DF930097E9F0FC0118
:100CA000329713821282A0910802B0910902ED01DD
:100CB00030E020E01097A1F420813181820F931F52
:100CC00020910602309107022817390709F061C008
:100CD000F0930702E0930602DF91CF910895EA01B5
:100CE000CE17DF07E8F54A815B819E01411551056A
:100CF000B1F7E901FB83EA8349915991C40FD51FEC
:100D0000EC17FD0761F4808191810296840F951F95
:100D1000E90199838883828193819B838A83F0E0B0
:100D2000E0E012968D919C9113970097B9F52D9163
:100D30003C911197CD010296820F931F20910602DC
:100D4000309107022817390739F6309751F510927C
:100D5000090210920802B0930702A0930602BCCFCA
:100D6000D383C28340815181840F951FC817D9074F
:100D700061F44E5F5F4F88819981480F591F5183FD
:100D800040838A819B81938382832115310509F0F9
:100D9000B0CFF0930902E09308029ECFFD01DC0181
:100DA000C0CF13821282D7CF10E0C5E3D0E004C0D9
:100DB000FE010E94A9052196C633D107C9F7F89410
:020DC000FFCF63
:100DC20000000A02800000000000000160008D00A7
:100DD2004D01BE009C00B000000000008C01270203
:040DE2000D0A0000F6
:00000001FF
