:100000000C9463000C948B000C948B000C948B006C
:100010000C948B000C948B000C948B000C948B0034
:100020000C948B000C948B000C948B000C9461044A
:100030000C948B000C948B000C948B000C948B0014
:100040000C9417040C948B000C94E5030C94BF03E0
:100050000C948B000C948B000C948B000C948B00F4
:100060000C948B000C948B000000000023002600F1
:10007000290000000000240027002A0000000000E2
:10008000250028002B0004040404040404040202D4
:100090000202020203030303030301020408102007
:1000A0004080010204081020010204081020000012
:1000B0000008000201000003040700000000000027
:1000C000000062054C0B11241FBECFEFD8E0DEBF4D
:1000D000CDBF11E0A0E0B1E0E4E0F1E202C00590A4
:1000E0000D92A633B107D9F722E0A6E3B1E001C033
:1000F0001D92A535B207E1F710E0C2E6D0E004C0DA
:100100002197FE010E947D0EC136D107C9F70E94DA
:100110008C060C9475100C9400000895AF92BF9259
:10012000CF92DF92EF92FF920F931F93CF93DF93C3
:100130006C017B018B01040F151FEB015E01AE18F2
:10014000BF08C017D10759F06991D601ED91FC9114
:100150000190F081E02DC6010995892B79F7C50141
:10016000DF91CF911F910F91FF90EF90DF90CF9093
:10017000BF90AF900895FC01538D448D252F30E042
:10018000842F90E0821B930B541710F0CF960895A4
:1001900001970895FC01918D828D981761F0A28DD1
:1001A000AE0FBF2FB11D5D968C91928D9F5F9F7397
:1001B000928F90E008958FEF9FEF0895FC01918D4D
:1001C000828D981731F0828DE80FF11D858D90E0BA
:1001D00008958FEF9FEF0895FC01918D228D892F57
:1001E00090E0805C9F4F821B91098F73992708953F
:1001F00081E491E00E94EC0021E0892B09F420E0E9
:10020000822F089580E090E0892B29F00E94F80069
:1002100081110C9400000895FC01A48DA80FB92F42
:10022000B11DA35ABF4F2C91848D90E001968F731E
:100230009927848FA689B7892C93A089B1898C913D
:10024000837080648C93938D848D981306C002888C
:10025000F389E02D80818F7D80830895EF92FF9256
:100260000F931F93CF93DF93EC0181E0888F9B8DD9
:100270008C8D98131AC0E889F989808185FF15C093
:100280009FB7F894EE89FF896083E889F9898081B6
:100290008370806480839FBF81E090E0DF91CF9185
:1002A0001F910F91FF90EF900895F62E0B8D10E0A7
:1002B0000F5F1F4F0F731127E02E8C8D8E110CC016
:1002C0000FB607FCFACFE889F989808185FFF5CF61
:1002D000CE010E940C01F1CFEB8DEC0FFD2FF11D33
:1002E000E35AFF4FF0829FB7F8940B8FEA89FB899E
:1002F00080818062CFCFCF93DF93EC01888D8823FC
:10030000B9F0AA89BB89E889F9898C9185FD03C078
:10031000808186FD0DC00FB607FCF7CF8C9185FF5D
:10032000F2CF808185FFEDCFCE010E940C01E9CF95
:10033000DF91CF91089590E0FC01E255FF4F2491A9
:10034000FC01E656FF4F3491FC01EA57FF4FE49160
:10035000EE23C9F0222339F0233001F1A8F4213033
:1003600019F1223029F1F0E0EE0FFF1FE458FF4FA2
:10037000A591B4918FB7F894EC91611126C0309596
:100380003E233C938FBF08952730A9F02830C9F051
:10039000243049F7809180008F7D03C080918000D8
:1003A0008F7780938000DFCF84B58F7784BDDBCFDC
:1003B00084B58F7DFBCF8091B0008F778093B000A4
:1003C000D2CF8091B0008F7DF9CF3E2BDACFCF9383
:1003D000DF9390E0FC01E656FF4F24918A579F4F30
:1003E000FC0184918823D1F090E0880F991FFC01D3
:1003F000EE58FF4FA591B491FC01E458FF4FC59111
:10040000D49161110EC09FB7F8948C91E22FE095C2
:100410008E238C932881E223E8839FBFDF91CF91C5
:1004200008958FB7F894EC91E22BEC938FBFF6CF41
:100430003FB7F8948091380190913901A0913A0129
:10044000B0913B0126B5A89B05C02F3F19F001963E
:10045000A11DB11D3FBFBA2FA92F982F8827BC011E
:10046000CD01620F711D811D911D42E0660F771F46
:10047000881F991F4A95D1F708950F931F93CF9323
:10048000DF93DC015F96ED91FC91309781F0EC01F8
:10049000ADA1BEA114960D911C91159715969C9334
:1004A0008E9314970995EDA1FEA115830483DF9126
:1004B000CF911F910F910895CF93DF93EC018CE1C1
:1004C00091E0998388838A8180FF0CC09A818A8118
:1004D0008E7F8A838A818D7F8A8390FF03C0CE01BD
:1004E0000E943D02EDA1FEA1309789F017821EA265
:1004F0001DA2A9A1BAA18BA19CA1109799F4009764
:1005000049F4118210821382128281E08783DF9185
:10051000CF910895DC0192961C921E92919791833F
:100520008083F3CF009739F494961C921E92939790
:10053000B383A283EACF94969C938E9393970BA058
:10054000DCA1C02DBAA3A9A3E0CFFC01019000203B
:10055000E9F73197AF01481B590BBC0181E491E0E9
:100560000C948E008F929F92AF92BF920F931F9325
:10057000CF93DF93CDB7DEB7A1970FB6F894DEBF68
:100580000FBECDBF19A2423008F44AE08E010F5DC4
:100590001F4F842E912CB12CA12CA50194010E94F7
:1005A000210DE62FB901CA01EA30F4F4E05DD8016B
:1005B000EE938D01232B242B252B79F790E080E0FF
:1005C000109719F0CD010E94A502A1960FB6F894DC
:1005D000DEBF0FBECDBFDF91CF911F910F91BF90B6
:1005E000AF909F908F900895E95CE1CFFC018081EE
:1005F0009181009711F00C941F0F0895CF93DF9312
:10060000EC010E945C02CE01DF91CF910C941F0F90
:100610000F931F93CF93DF93EC018881998100970B
:1006200059F02A813B812617370730F081E0DF91AE
:10063000CF911F910F9108958B016F5F7F4F0E94A3
:10064000A80F009759F0998388831B830A832C8114
:100650003D81232B59F7FC011082E8CF80E0E7CFE2
:10066000EF92FF920F931F93CF93DF93EC017B01E7
:100670008A01BA010E94080328813981811114C0BE
:100680002115310519F0C9010E941F0F1982188226
:100690001D821C821B821A82CE01DF91CF911F9195
:1006A0000F91FF90EF9008951D830C83B701C9014E
:1006B0000E946E10F1CFCF92DF92EF92FF920F93D4
:1006C0001F9360E083E00E949B018FE090E0019720
:1006D000F1F761E083E00E949B0183E290E00197E3
:1006E000F1F760E083E00E949B01EEE9F0E06491A5
:1006F000EAE8F0E0E491F0E0EE0FFF1FE859FF4F69
:100700008591949100E412E42FE030E0462F0E949E
:100710001D05611571058105910529F06F5F7F4FFA
:100720008F4F9F4F9F7095958795779567950E94FE
:100730009B0B2DEC3CEC48EE51E40E94BF0D0E9457
:10074000310E6B017C014AE0F7FE0DC06DE281E4E1
:1007500091E00E942E0166277727CB016C197D0955
:100760008E099F094AE00E94B20280E291E01F9147
:100770000F91FF90EF90DF90CF900C94A5021F9205
:100780000F920FB60F9211242F933F934F935F93C5
:100790006F937F938F939F93AF93BF93EF93FF9349
:1007A00081E491E00E940C01FF91EF91BF91AF9124
:1007B0009F918F917F916F915F914F913F912F9179
:1007C0000F900FBE0F901F9018951F920F920FB6AB
:1007D0000F9211242F938F939F93EF93FF93E091A8
:1007E0005101F09152018081E0915701F09158013F
:1007F00082FD1BC0908180915A018F5F8F73209181
:100800005B01821741F0E0915A01F0E0EF5BFE4F8F
:10081000958F80935A01FF91EF919F918F912F9126
:100820000F900FBE0F901F9018958081F4CF1F92EC
:100830000F920FB60F9211242F933F938F939F9394
:10084000AF93BF938091DE019091DF01A091E00111
:10085000B091E1013091370123E0230F2D3758F596
:100860000196A11DB11D209337018093DE01909365
:10087000DF01A093E001B093E101809138019091F4
:100880003901A0913A01B0913B010196A11DB11D22
:100890008093380190933901A0933A01B0933B01C2
:1008A000BF91AF919F918F913F912F910F900FBE6C
:1008B0000F901F90189526E8230F0296A11DB11DD9
:1008C000D2CF1F920F920FB60F9211242F933F9306
:1008D0004F935F936F937F938F939F93AF93BF9348
:1008E000CF93DF93EF93FF9380913601C09106027F
:1008F000D0E087FF24C01092850010928400809180
:1009000036018F5F8093360180913601082E000CEE
:10091000990B8C179D0724F4809136018C30C4F11B
:100920008091840090918500049680349C4908F45D
:100930007AC08091840090918500049676C0809161
:100940003601082E000C990B8C179D07C4F6E09118
:1009500036018E2FEE0F990BFC01EE0FFF1FE80FF3
:10096000F91FEE51FE4F808186FFC9CFE09136011D
:100970008E2FEE0F990BFC01EE0FFF1FE80FF91FF2
:10098000EE51FE4F808160E08F730E949B01B7CFD4
:100990002091840030918500E09136018E2FEE0F7A
:1009A000990BFC01EE0FFF1FE80FF91FEE51FE4FF0
:1009B00081819281820F931F909389008093880098
:1009C000E09136018E2FEE0F990BFC01EE0FFF1F09
:1009D000E80FF91FEE51FE4F808186FF11C0E091B4
:1009E00036018E2FEE0F990BFC01EE0FFF1FE80F63
:1009F000F91FEE51FE4F808161E08F730E949B01D1
:100A0000FF91EF91DF91CF91BF91AF919F918F9126
:100A10007F916F915F914F913F912F910F900FBEFA
:100A20000F901F90189580E49CE990938900809323
:100A300088008FEF80933601E3CFCF92DF92EF9261
:100A4000FF920F931F93E82FF92F05C00150110952
:100A50002109310961F1908196239417B9F305C0FA
:100A6000015011092109310911F190819623941344
:100A7000F7CFC12CD12CE12CF12C0AC08FEFC81A72
:100A8000D80AE80AF80A0C151D052E053F0579F06D
:100A900080818623841791F36C2D7D2D8E2D9F2DC3
:100AA0001F910F91FF90EF90DF90CF90089560E03D
:100AB00070E080E090E01F910F91FF90EF90DF9049
:100AC000CF900895109244011092430188EE93E074
:100AD000A0E0B0E08093450190934601A0934701C8
:100AE000B09348018AE091E09093420180934101E4
:100AF00085EC90E090934E0180934D0184EC90E062
:100B00009093500180934F0180EC90E090935201BC
:100B10008093510181EC90E09093540180935301B4
:100B200082EC90E0909356018093550186EC90E022
:100B3000909358018093570110925A0110925B01D3
:100B400010925C0110925D01809106028C3008F0D9
:100B5000DFC091E0980F9093060280934E0290E0E0
:100B6000FC01EE0FFF1FE80FF91FEE51FE4F88EB5F
:100B70009BE0928381831092490210924802109266
:100B80004B0210924A0210924D0210924C0250E019
:100B900040E062E271E088E492E00E94300310924B
:100BA00043021092420210924502109244021092A7
:100BB00047021092460250E040E062E271E082E4B7
:100BC00092E00E9430031092350210922F02109290
:100BD0002E021092310210923002109233021092C3
:100BE00032021092340281E0809335028CE191E070
:100BF0009093080280930702809109028E7F809370
:100C00000902809109028D7F809309028091090277
:100C10008B7F80930902109212021092130210929D
:100C200014021092150210920A0210920B021092F6
:100C30000C0210920D0210920E0210920F021092EE
:100C400010021092110210922902109228021092A2
:100C50002B0210922A0210922D0210922C02109256
:100C60001E0210921F0210922002109221028BE5A8
:100C700093E0909323028093220210922502109217
:100C80002402109227021092260284EF91E0A0E045
:100C9000B0E080930A0290930B02A0930C02B093F1
:100CA0000D0280910A0290910B02A0910C02B0916A
:100CB0000D0280930E0290930F02A0931002B09346
:100CC00011022FB7F8948091DE019091DF01A0917D
:100CD000E001B091E1012FBF8093120290931302C3
:100CE000A0931402B09315028FEF9FEFDC01809365
:100CF000160290931702A0931802B09319028093E2
:100D00001A0290931B02A0931C02B0931D02089537
:100D10008FEF80934E022FCFCF93DF9300D000D080
:100D200000D0CDB7DEB7789484B5826084BD84B539
:100D3000816084BD85B5826085BD85B5816085BDD6
:100D400080916E00816080936E001092810080918E
:100D50008100826080938100809181008160809316
:100D60008100809180008160809380008091B1003B
:100D700084608093B1008091B00081608093B00066
:100D800080917A00846080937A0080917A008260FA
:100D900080937A0080917A00816080937A008091BC
:100DA0007A00806880937A001092C100E09151012E
:100DB000F091520182E08083E0914D01F0914E016B
:100DC0001082E0914F01F09150018FEC80831092DE
:100DD0005901E0915501F091560186E08083E09140
:100DE0005301F0915401808180618083E09153012F
:100DF000F0915401808188608083E0915301F091EB
:100E00005401808180688083E0915301F091540106
:100E100080818F7D808361E083E00E94E70160E054
:100E200084E00E94E70180914E028C3008F053C0AC
:100E300061E089E00E94E70180914E02282F30E0B6
:100E4000F901EE0FFF1FE20FF31FEE51FE4F9081ED
:100E5000907C996090839EE890934F0294E69093E3
:100E600050022CE0622F0E94710E829FB00111246B
:100E700030E020E0AB01420F531FFA01EE0FFF1FDD
:100E8000E40FF51FEE51FE4F908196FD16C02F5FC7
:100E90003F4F2C30310571F781110FC01092800047
:100EA00082E0809381001092850010928400B19AB4
:100EB00080916F00826080936F00E0914E028E2FD0
:100EC00090E0FC01EE0FFF1FE80FF91FEE51FE4FFF
:100ED00080818064808387E092E020912C023091B1
:100EE0002D02232B21F5109235022EE232E03093B1
:100EF0002D0220932C0220912E0230912F02232BC1
:100F000009F0FFC090932F0280932E0210922902C5
:100F10001092280210922B0210922A0287E092E08F
:100F2000909331028093300281E080933502A0914A
:100F30002C02B0912D02109709F46AC010921E0283
:100F400010921F0210922002109221028091090239
:100F50008B7F80930902E0912402F0912502309763
:100F600009F4DAC08091090281FDD6C014960D9172
:100F70001C91159787E092E015969C938E93149799
:100F8000809109028260809309020995909109027B
:100F900080FB90F990930902809109028D7F8093E4
:100FA0000902E0912C02F0912D02158304838091B7
:100FB0000A0290910B02A0910C02B0910D02809355
:100FC0000E0290930F02A0931002B09311022FB75C
:100FD000F8948091DE019091DF01A091E001B09141
:100FE000E1012FBF40910E0250910F02609110025B
:100FF00070911102841B950BA60BB70B8093120204
:1010000090931302A0931402B093150280910902E9
:1010100018E8212E312C08E512E080912E029091E3
:101020002F02909333028093320210923602109274
:101030003702109238021092390210923A0210923E
:101040003B0210923C0210923D0210923E0210921E
:101050003F02109240021092410280913502882393
:1010600009F4D2C0809134028111CEC0E0913202E5
:10107000F0913302309709F4C7C080913A02909101
:101080003B02A0913C02B0913D020196A11DB11D11
:1010900080933A0290933B02A0933C02B0933D02AE
:1010A000E3A0F4A0828180FF27C080913602909156
:1010B0003702A0913802B09139020196A11DB11DED
:1010C0008093360290933702A0933802B09339028E
:1010D00087859089A189B289892B8A2B8B2B11F561
:1010E000928182818E7F828382818D7F828390FF35
:1010F00003C0CF010E943D02F0923302E09232021F
:10110000B1CFE0913002F0913102F0932902E093E7
:10111000280294A383A3FECE80910902816080936C
:10112000090245CF2FB7F8948091DE019091DF013D
:10113000A091E001B091E1012FBFE0913202F09166
:10114000330243815481658176814384548465846C
:10115000768487809084A184B28484199509A60935
:10116000B70988159905AA05BB0530F287859089CE
:10117000A189B289181619061A061B065CF4878520
:101180009089A189B2890197A109B1098787908BBC
:10119000A18BB28B8789908DA18DB28D0196A11DF7
:1011A000B11D878B908FA18FB28F83859485A58584
:1011B000B68587809084A184B284880D991DAA1D6C
:1011C000BB1D83879487A587B68747835087618730
:1011D0007287038CF48DE02D309709F48DCF09953B
:1011E00080913E0290913F02A0914002B091410255
:1011F0000196A11DB11D80933E0290933F02A093E2
:101200004002B093410278CF81E491E00E94EC006B
:10121000181619060CF05FC050E040E062E271E081
:1012200082E492E00E94300381E491E00E94EC00AD
:10123000181619060CF04CC081E491E00E94CA0017
:1012400089831A82E0904602F09047022FEFE21A5B
:10125000F20AB70182E492E00E940803882399F021
:1012600020914202309143028091460290914702C0
:10127000BE016F5F7F4F820F931F0E946E10F0922E
:101280004702E09246020E9418026B017C01B2E024
:101290008B2E912CA12CB12C0E9418026C197D0967
:1012A0008E099F09683E734081059105A8F348EEB9
:1012B000C40E43E0D41EE11CF11C8A9489288A28BC
:1012C0008B2809F4B1CF812C912C54018394E4CF65
:1012D00081E080933C0180913C01882309F41CC18A
:1012E00010923C011A8219821C821B821E821D826E
:1012F0006091420270914302409146025091470230
:101300006115710509F012C180914802909149025E
:10131000009709F412C169817A816115710509F498
:101320000AC140914A0250914B022D813E814217E1
:10133000530708F400C10E946E108D819E81909326
:101340004D0280934C021E821D82CE0101960E94A6
:10135000F60280914C0290914D02892B09F4CFC086
:101360008091480290914902FC012081222309F4D6
:10137000C6C0009709F4F8C00E94580B0E949B0B4E
:1013800060933D0170933E0180933F019093400133
:1013900083E291E00E94A50280E291E00E94A50212
:1013A00020E030E044EB52E460913D0170913E0159
:1013B00080913F01909140010E94FA0B20E030E8BB
:1013C0004FEF53E40E94BF0D6B017C014B015C01A8
:1013D000AC019B010E946C0E882309F4C9C08AE20B
:1013E00091E00E94A50280E291E00E94A50220E027
:1013F00030E044EB52E460913D0170913E018091F8
:101400003F01909140010E94FA0B20E030E84FEF3D
:1014100053E40E94BF0D0E94310E9B016032F2E046
:101420007F07CCF520914F026101C21AD10827FD38
:10143000D394CC0CDD1CCC0CDD1C0D2C000CEE0868
:10144000FF0820915002A801421B510927FD539526
:101450009A01220F331F220F331F032E000C440B5F
:10146000550B2C193D094E095F09DB01653B7105E0
:1014700014F0A4EBB0E0B7FF02C0B0E0A0E00E941F
:10148000E20C24EB30E040E050E00E94B80C2C0D60
:101490003D1D4E1D5F1DE0914E02EC3080F58091A8
:1014A0004F02A101481B510987FD5395CA01880FBE
:1014B000991F880F991F2817390784F080915002CF
:1014C000A801481B510987FD5395CA01880F991F30
:1014D000880F991F281739070CF4C9010297880F44
:1014E000991F4FB7F8942E2F30E0F901EE0FFF1F30
:1014F000E20FF31FEE51FE4F928381834FBF80E0D6
:1015000090E0892B09F489CD0E94F800882309F422
:1015100082CD0E9400007FCD1A8219821C821B821C
:101520001E821D8250E040E062E271E0CE01019631
:101530000E943003E9CE0E941F0F89819A81909307
:101540004902809348028B819C8190934B02809347
:101550004A028D819E8190934D0280934C021A82A3
:1015600019821C821B82EFCE60E070E0CB0106CFB7
:1015700026013701E89477F82FEF3FEF4FE75FE759
:10158000C301B2010E946C0E81110DC02FEF3FEF1D
:101590004FE75FE7C301B2010E94940B18161CF4D9
:1015A0008EE291E01ECF2FEF3FEF4FE75FE4C701E0
:1015B000B6010E94670E18161CF482E391E011CF69
:1015C0002FEF3FEF4FE75FECC701B6010E94940B8E
:1015D00087FDF3CF20E030E0A901C701B6010E94EA
:1015E000940B87FF0BC06DE281E491E00E942E0115
:1015F00046015701B7FAB094B7F8B0942AE037ED36
:1016000043EA5BE3C501B4010E94530D4B015C0149
:101610000E94380E6B017C010E94990B9B01AC016A
:10162000C501B4010E94520D4B015C014AE0C701A3
:10163000B6010E94B2026EE281E491E00E942E01A6
:1016400020E030E040E251E4C501B4010E94FA0B11
:101650004B015C010E94380E6B01F12CE12C4AE039
:10166000C701B6010E94B202C701B6010E94990BE0
:101670009B01AC01C501B4010E94520D20E030E095
:1016800040E251E40E94FA0B0E94380E90E080E0A4
:101690004AE00E94B202A7CE87E092E00E945C027C
:1016A00082E492E00E94F60288E492E00C94F60252
:1016B0001F93FC0199278827BC01E89411911032EF
:1016C000E9F3193010F01E30C8F31B3251F01D320F
:1016D00049F4689406C00E947F0B610F711D811D43
:1016E000911D119110531A30B0F33EF490958095EE
:1016F000709561957F4F8F4F9F4F1F910895592F80
:10170000482F372F262F660F771F881F991F660FC8
:10171000771F881F991F620F731F841F951F660F05
:10172000771F881F991F08950E94D60B08F481E047
:101730000895E89409C097FB3EF4909580957095C4
:1017400061957F4F8F4F9F4F9923A9F0F92F96E90D
:10175000BB279395F695879577956795B795F11182
:10176000F8CFFAF4BB0F11F460FF1BC06F5F7F4F1F
:101770008F4F9F4F16C0882311F096E911C0772331
:1017800021F09EE8872F762F05C0662371F096E83A
:10179000862F70E060E02AF09A95660F771F881F09
:1017A000DAF7880F9695879597F90895990F0008AD
:1017B000550FAA0BE0E8FEEF16161706E807F90723
:1017C000C0F012161306E407F50798F0621B730BBE
:1017D000840B950B39F40A2661F0232B242B252B3F
:1017E00021F408950A2609F4A140A6958FEF811DE2
:1017F000811D08950E940D0C0C947E0C0E94700CAB
:1018000038F00E94770C20F0952311F00C94670CAF
:101810000C946D0C11240C94B20C0E948F0C70F37C
:10182000959FC1F3950F50E0551F629FF001729F85
:10183000BB27F00DB11D639FAA27F00DB11DAA1F94
:10184000649F6627B00DA11D661F829F2227B00DE1
:10185000A11D621F739FB00DA11D621F839FA00D6C
:10186000611D221F749F3327A00D611D231F849FBC
:10187000600D211D822F762F6A2F11249F57504013
:101880009AF0F1F088234AF0EE0FFF1FBB1F661F8E
:10189000771F881F91505040A9F79E3F510580F057
:1018A0000C94670C0C94B20C5F3FE4F3983ED4F3B5
:1018B000869577956795B795F795E7959F5FC1F7FB
:1018C000FE2B880F911D9695879597F9089597F9A6
:1018D0009F6780E870E060E008959FEF80EC0895D6
:1018E00000240A94161617061806090608950024FF
:1018F0000A9412161306140605060895092E039479
:10190000000C11F4882352F0BB0F40F4BF2B11F4EC
:1019100060FF04C06F5F7F4F8F4F9F4F089557FD4B
:101920009058440F551F59F05F3F71F04795880F4D
:1019300097FB991F61F09F3F79F0879508951216E4
:1019400013061406551FF2CF4695F1DF08C0161690
:1019500017061806991FF1CF869571056105089441
:101960000895E894BB2766277727CB0197F9089558
:10197000052E97FB1EF400940E94CF0C57FD07D054
:101980000E94210D07FC03D04EF40C94CF0C50950F
:101990004095309521953F4F4F4F5F4F089590955B
:1019A0008095709561957F4F8F4F9F4F08950E944E
:1019B000430DA59F900DB49F900DA49F800D911D88
:1019C00011240895B7FF0C94D70C0E94D70C821BEA
:1019D000930B08952F923F924F925F926F927F9256
:1019E0008F929F92AF92BF92CF92DF92EF92FF922F
:1019F0000F931F93CF93DF93CDB7DEB7CA1BDB0BDB
:101A00000FB6F894DEBF0FBECDBF09942A8839887F
:101A100048885F846E847D848C849B84AA84B98486
:101A2000C884DF80EE80FD800C811B81AA81B98192
:101A3000CE0FD11D0FB6F894DEBF0FBECDBFED01A6
:101A40000895A1E21A2EAA1BBB1BFD010DC0AA1FFF
:101A5000BB1FEE1FFF1FA217B307E407F50720F017
:101A6000A21BB30BE40BF50B661F771F881F991F92
:101A70001A9469F760957095809590959B01AC01DB
:101A8000BD01CF010895A29FB001B39FC001A39FE4
:101A9000700D811D1124911DB29F700D811D1124A7
:101AA000911D08955058BB27AA270E946A0D0C94D7
:101AB0007E0C0E94700C38F00E94770C20F039F4F4
:101AC0009F3F19F426F40C946D0C0EF4E095E7FB9F
:101AD0000C94670CE92F0E948F0C58F3BA17620719
:101AE00073078407950720F079F4A6F50C94B10CE0
:101AF0000EF4E0950B2EBA2FA02D0B01B901900129
:101B00000C01CA01A0011124FF27591B99F0593F6C
:101B100050F4503E68F11A16F040A22F232F342FB4
:101B20004427585FF3CF469537952795A795F04002
:101B30005395C9F77EF41F16BA0B620B730B840B17
:101B4000BAF09150A1F0FF0FBB1F661F771F881FCF
:101B5000C2F70EC0BA0F621F731F841F48F4879527
:101B600077956795B795F7959E3F08F0B0CF939519
:101B7000880F08F09927EE0F9795879508950E9492
:101B8000D30D0C947E0C0E94770C58F00E94700CC0
:101B900040F029F45F3F29F00C94670C51110C942C
:101BA000B20C0C946D0C0E948F0C68F39923B1F366
:101BB000552391F3951B550BBB27AA276217730773
:101BC000840738F09F5F5F4F220F331F441FAA1F07
:101BD000A9F335D00E2E3AF0E0E832D091505040C3
:101BE000E695001CCAF72BD0FE2F29D0660F771F71
:101BF000881FBB1F261737074807AB07B0E809F057
:101C0000BB0B802DBF01FF2793585F4F3AF09E3FDB
:101C1000510578F00C94670C0C94B20C5F3FE4F320
:101C2000983ED4F3869577956795B795F7959F5F1E
:101C3000C9F7880F911D9695879597F90895E1E06A
:101C4000660F771F881FBB1F621773078407BA07C9
:101C500020F0621B730B840BBA0BEE1F88F7E09524
:101C600008950E94380E6894B1110C94B20C089536
:101C70000E94970C88F09F5798F0B92F9927B75179
:101C8000B0F0E1F0660F771F881F991F1AF0BA9520
:101C9000C9F714C0B13091F00E94B10CB1E00895C1
:101CA0000C94B10C672F782F8827B85F39F0B93FB3
:101CB000CCF3869577956795B395D9F73EF49095D3
:101CC0008095709561957F4F8F4F9F4F08950E942B
:101CD000D60B08F48FEF08950E94D60B880B990B52
:101CE0000895991B79E004C0991F961708F0961B78
:101CF000881F7A95C9F780950895EE0FFF1F05900C
:101D0000F491E02D09940F931F93CF93DF938230CA
:101D1000910510F482E090E0E0915302F0915402BA
:101D200030E020E0B0E0A0E0309799F421153105D3
:101D300009F44AC0281B390B24303105D8F58A81B3
:101D40009B816115710589F1FB0193838283FE01FB
:101D500011C0408151810281138148175907E0F079
:101D60004817590799F4109761F012960C9312973F
:101D700013961C933296CF01DF91CF911F910F9153
:101D800008950093530210935402F4CF21153105A6
:101D900051F04217530738F0A901DB019A01BD0148
:101DA000DF01F801C1CFEF01F9CF90935402809386
:101DB0005302CDCFFE01E20FF31F81939193225086
:101DC000310939832883D7CF2091510230915202B3
:101DD000232B41F4209102013091030130935202F0
:101DE000209351022091000130910101211531050C
:101DF00041F42DB73EB74091040150910501241BD9
:101E0000350BE0915102F0915202E217F307A0F472
:101E10002E1B3F0B2817390778F0AC014E5F5F4F40
:101E20002417350748F04E0F5F1F5093520240931E
:101E30005102819391939FCFF0E0E0E09CCFCF934C
:101E4000DF930097E9F0FC01329713821282A09190
:101E50005302B0915402ED0130E020E01097A1F45C
:101E600020813181820F931F2091510230915202C3
:101E70002817390709F061C0F0935202E09351022C
:101E8000DF91CF910895EA01CE17DF07E8F54A8187
:101E90005B819E0141155105B1F7E901FB83EA839E
:101EA00049915991C40FD51FEC17FD0761F480814A
:101EB00091810296840F951FE9019983888382811D
:101EC00093819B838A83F0E0E0E012968D919C9150
:101ED00013970097B9F52D913C911197CD0102967A
:101EE000820F931F20915102309152022817390717
:101EF00039F6309751F51092540210925302B09374
:101F00005202A0935102BCCFD383C283408151813E
:101F1000840F951FC817D90761F44E5F5F4F888102
:101F20009981480F591F518340838A819B819383F4
:101F300082832115310509F0B0CFF0935402E0936C
:101F400053029ECFFD01DC01C0CF13821282D7CF96
:101F5000B0E0A0E0EEEAFFE00C94EC0C8C010097FE
:101F600051F4CB010E94830E8C01C801CDB7DEB7BE
:101F7000E0E10C94080DFC01E60FF71F9C012250D4
:101F80003109E217F30708F49DC0D901CD91DC9126
:101F90001197C617D70798F0C530D10530F3CE0199
:101FA00004978617970708F3C61BD70B2297C19390
:101FB000D1936D937C93CF010E941F0FD6CF5B010D
:101FC000AC1ABD0A4C018C0E9D1EA0915302B0911B
:101FD0005402512C412CF12CE12C109731F58091B9
:101FE0005102909152028815990509F05CC046167D
:101FF000570608F058C080910001909101010097A8
:1020000041F48DB79EB74091040150910501841BA6
:10201000950BE817F90708F055C0F0935202E093CA
:102020005102F90171836083A0CF8D919C9111972A
:1020300012966C90129713967C901397A815B90579
:1020400059F56C0142E0C40ED11CCA14DB0420F126
:10205000AC014A195B09DA011296159780F0628289
:10206000738251834083D9016D937C93E114F10411
:1020700071F0D7011396FC93EE93129776CF2296C8
:102080008C0F9D1FF90191838083F301EFCFF093B3
:102090005402E093530269CF4816590608F42C0104
:1020A0007D01D3019ACFCB010E94830E7C01009762
:1020B00049F0AE01B8010E946510C8010E941F0FCF
:1020C000870153CF10E000E050CFFB01DC0102C0DC
:1020D00001900D9241505040D8F70895FB01DC016A
:1020E00001900D920020E1F7089510E0C2E6D0E0E3
:1020F00004C0FE010E947D0E2196C336D107C9F7A8
:04210000F894FFCF81
:10210400000055028000000000002E018E00BB007C
:102114007B01EC00CA00DE00000000005C02FE024D
:102124000D0A00616E676C653D006E616E00696E3C
:0621340066006F766600F4
:00000001FF
