:100000000C9463000C948B000C948B000C948B006C
:100010000C948B000C948B000C948B000C948B0034
:100020000C948B000C948B000C948B000C94620449
:100030000C948B000C948B000C948B000C948B0014
:100040000C9418040C948B000C94E6030C94C003DD
:100050000C948B000C948B000C948B000C948B00F4
:100060000C948B000C948B000000000023002600F1
:10007000290000000000240027002A0000000000E2
:10008000250028002B0004040404040404040202D4
:100090000202020203030303030301020408102007
:1000A0004080010204081020010204081020000012
:1000B0000008000201000003040700000000000027
:1000C000000063057E0A11241FBECFEFD8E0DEBF1B
:1000D000CDBF11E0A0E0B1E0E8E2FEE102C0059092
:1000E0000D92A432B107D9F722E0A4E2B1E001C039
:1000F0001D92AF33B207E1F710E0C2E6D0E004C0D2
:100100002197FE010E940F0DC136D107C9F70E9449
:100110008D060C94070F0C9400000895AF92BF92C7
:10012000CF92DF92EF92FF920F931F93CF93DF93C3
:100130006C017B018B01040F151FEB015E01AE18F2
:10014000BF08C017D10759F06991D601ED91FC9114
:100150000190F081E02DC6010995892B79F7C50141
:10016000DF91CF911F910F91FF90EF90DF90CF9093
:10017000BF90AF900895FC01538D448D252F30E042
:10018000842F90E0821B930B541710F0CF960895A4
:1001900001970895FC01918D828D981761F0A28DD1
:1001A000AE0FBF2FB11D5D968C91928D9F5F9F7397
:1001B000928F90E008958FEF9FEF0895FC01918D4D
:1001C000828D981731F0828DE80FF11D858D90E0BA
:1001D00008958FEF9FEF0895FC01918D228D892F57
:1001E00090E0805C9F4F821B91098F73992708953F
:1001F0008BE291E00E94EC0021E0892B09F420E0E1
:10020000822F089580E090E0892B29F00E94F80069
:1002100081110C9400000895FC01A48DA80FB92F42
:10022000B11DA35ABF4F2C91848D90E001968F731E
:100230009927848FA689B7892C93A089B1898C913D
:10024000837080648C93938D848D981306C002888C
:10025000F389E02D80818F7D80830895EF92FF9256
:100260000F931F93CF93DF93EC0181E0888F9B8DD9
:100270008C8D98131AC0E889F989808185FF15C093
:100280009FB7F894EE89FF896083E889F9898081B6
:100290008370806480839FBF81E090E0DF91CF9185
:1002A0001F910F91FF90EF900895F62E0B8D10E0A7
:1002B0000F5F1F4F0F731127E02E8C8D8E110CC016
:1002C0000FB607FCFACFE889F989808185FFF5CF61
:1002D000CE010E940C01F1CFEB8DEC0FFD2FF11D33
:1002E000E35AFF4FF0829FB7F8940B8FEA89FB899E
:1002F00080818062CFCFCF93DF93EC01888D8823FC
:10030000B9F0AA89BB89E889F9898C9185FD03C078
:10031000808186FD0DC00FB607FCF7CF8C9185FF5D
:10032000F2CF808185FFEDCFCE010E940C01E9CF95
:10033000DF91CF91089590E0FC01E255FF4F2491A9
:10034000FC01E656FF4F3491FC01EA57FF4FE49160
:10035000EE23C9F0222339F0233001F1A8F4213033
:1003600019F1223029F1F0E0EE0FFF1FE458FF4FA2
:10037000A591B4918FB7F894EC91611126C0309596
:100380003E233C938FBF08952730A9F02830C9F051
:10039000243049F7809180008F7D03C080918000D8
:1003A0008F7780938000DFCF84B58F7784BDDBCFDC
:1003B00084B58F7DFBCF8091B0008F778093B000A4
:1003C000D2CF8091B0008F7DF9CF3E2BDACFCF9383
:1003D000DF9390E0FC01E656FF4F24918A579F4F30
:1003E000FC0184918823D1F090E0880F991FFC01D3
:1003F000EE58FF4FA591B491FC01E458FF4FC59111
:10040000D49161110EC09FB7F8948C91E22FE095C2
:100410008E238C932881E223E8839FBFDF91CF91C5
:1004200008958FB7F894EC91E22BEC938FBFF6CF41
:100430003FB7F8948091260190912701A09128015F
:10044000B091290126B5A89B05C02F3F19F0019650
:10045000A11DB11D3FBFBA2FA92F982F8827BC011E
:10046000CD01620F711D811D911D42E0660F771F46
:10047000881F991F4A95D1F708950F931F93CF9323
:10048000DF93DC015F96ED91FC91309781F0EC01F8
:10049000ADA1BEA114960D911C91159715969C9334
:1004A0008E9314970995EDA1FEA115830483DF9126
:1004B000CF911F910F910895CF93DF93EC018CE1C1
:1004C00091E0998388838A8180FF0CC09A818A8118
:1004D0008E7F8A838A818D7F8A8390FF03C0CE01BD
:1004E0000E943D02EDA1FEA1309789F017821EA265
:1004F0001DA2A9A1BAA18BA19CA1109799F4009764
:1005000049F4118210821382128281E08783DF9185
:10051000CF910895DC0192961C921E92919791833F
:100520008083F3CF009739F494961C921E92939790
:10053000B383A283EACF94969C938E9393970BA058
:10054000DCA1C02DBAA3A9A3E0CF8F929F92AF9256
:10055000BF920F931F93CF93DF93CDB7DEB7A197D1
:100560000FB6F894DEBF0FBECDBF19A2423008F41B
:100570004AE08E010F5D1F4F842E912CB12CA12CCF
:10058000A50194010E942A0CE62FB901CA01EA30A4
:1005900044F5E05DD801EE938D01232B242B252B10
:1005A00079F790E080E0109769F0FD01019000205C
:1005B000E9F73197AF014A1B5B0BBD018BE291E07C
:1005C0000E948E00A1960FB6F894DEBF0FBECDBF7D
:1005D000DF91CF911F910F91BF90AF909F908F901F
:1005E0000895E95CD7CFFC0180819181009711F0DB
:1005F0000C94B10D0895CF93DF93EC010E945C023F
:10060000CE01DF91CF910C94B10D0F931F93CF9337
:10061000DF93EC0188819981009759F02A813B8111
:100620002617370730F081E0DF91CF911F910F91AE
:1006300008958B016F5F7F4F0E943A0E009759F02B
:10064000998388831B830A832C813D81232B59F74F
:10065000FC011082E8CF80E0E7CFEF92FF920F938A
:100660001F93CF93DF93EC017B018A01BA010E94B3
:10067000050328813981811114C02115310519F034
:10068000C9010E94B10D198218821D821C821B8231
:100690001A82CE01DF91CF911F910F91FF90EF90C1
:1006A00008951D830C83B701C9010E94000FF1CF8B
:1006B000CF92DF92EF92FF920F931F9360E083E05F
:1006C0000E949B018FE090E00197F1F761E083E0E9
:1006D0000E949B0183E290E00197F1F760E083E0E4
:1006E0000E949B01EEE9F0E06491EAE8F0E0E49119
:1006F000F0E0EE0FFF1FE859FF4F8591949100E461
:1007000012E42FE030E0462F0E941E0561157105AE
:100710008105910529F06F5F7F4F8F4F9F4F9F702D
:1007200095958795779567950E94C80A2DEC3CECC6
:1007300048EE51E40E945B0C0E94CD0C6B017C01E1
:100740004AE0F7FE0DC06DE28BE291E00E942E01BF
:1007500066277727CB016C197D098E099F094AE02E
:100760000E94A50242E050E060E271E08BE291E07D
:100770001F910F91FF90EF90DF90CF900C948E001F
:100780001F920F920FB60F9211242F933F934F9306
:100790005F936F937F938F939F93AF93BF93EF93E9
:1007A000FF938BE291E00E940C01FF91EF91BF91CA
:1007B000AF919F918F917F916F915F914F913F91F9
:1007C0002F910F900FBE0F901F9018951F920F92B0
:1007D0000FB60F9211242F938F939F93EF93FF9354
:1007E000E0913B01F0913C018081E0914101F09169
:1007F000420182FD1BC09081809144018F5F8F7305
:1008000020914501821741F0E0914401F0E0E55D5F
:10081000FE4F958F80934401FF91EF919F918F91AF
:100820002F910F900FBE0F901F9018958081F4CFDD
:100830001F920F920FB60F9211242F933F938F9315
:100840009F93AF93BF938091C8019091C901A091EC
:10085000CA01B091CB013091250123E0230F2D3740
:1008600058F50196A11DB11D209325018093C80163
:100870009093C901A093CA01B093CB018091260146
:1008800090912701A0912801B09129010196A11D05
:10089000B11D8093260190932701A0932801B09366
:1008A0002901BF91AF919F918F913F912F910F900F
:1008B0000FBE0F901F90189526E8230F0296A11DDA
:1008C000B11DD2CF1F920F920FB60F9211242F930A
:1008D0003F934F935F936F937F938F939F93AF93C8
:1008E000BF93CF93DF93EF93FF9380912401C09147
:1008F000F001D0E087FF24C01092850010928400A0
:10090000809124018F5F8093240180912401082E1F
:10091000000C990B8C179D0724F4809124018C30D6
:10092000C4F18091840090918500049680349C49A4
:1009300008F47AC08091840090918500049676C076
:1009400080912401082E000C990B8C179D07C4F68A
:10095000E09124018E2FEE0F990BFC01EE0FFF1F8B
:10096000E80FF91FE453FE4F808186FFC9CFE09165
:1009700024018E2FEE0F990BFC01EE0FFF1FE80FE5
:10098000F91FE453FE4F808160E08F730E949B014A
:10099000B7CF2091840030918500E09124018E2F03
:1009A000EE0F990BFC01EE0FFF1FE80FF91FE45348
:1009B000FE4F81819281820F931F909389008093D3
:1009C0008800E09124018E2FEE0F990BFC01EE0FB1
:1009D000FF1FE80FF91FE453FE4F808186FF11C00F
:1009E000E09124018E2FEE0F990BFC01EE0FFF1FFB
:1009F000E80FF91FE453FE4F808161E08F730E947E
:100A00009B01FF91EF91DF91CF91BF91AF919F91AA
:100A10008F917F916F915F914F913F912F910F90A7
:100A20000FBE0F901F90189580E49CE99093890069
:100A3000809388008FEF80932401E3CFCF92DF92E1
:100A4000EF92FF920F931F93E82FF92F05C00150EB
:100A500011092109310961F1908196239417B9F3A5
:100A600005C0015011092109310911F19081962326
:100A70009413F7CFC12CD12CE12CF12C0AC08FEFAD
:100A8000C81AD80AE80AF80A0C151D052E053F05F4
:100A900079F080818623841791F36C2D7D2D8E2D26
:100AA0009F2D1F910F91FF90EF90DF90CF900895B1
:100AB00060E070E080E090E01F910F91FF90EF9078
:100AC000DF90CF90089510922E0110922D0188EEA4
:100AD00093E0A0E0B0E080932F0190933001A093C9
:100AE0003101B09332018AE091E090932C01809320
:100AF0002B0185EC90E0909338018093370184ECD2
:100B000090E090933A018093390180EC90E09093CB
:100B10003C0180933B0181EC90E090933E018093F7
:100B20003D0182EC90E09093400180933F0186EC80
:100B300090E0909342018093410110924401109201
:100B4000450110924601109247018091F0018C30CE
:100B500008F0DFC091E0980F9093F0018093380285
:100B600090E0FC01EE0FFF1FE80FF91FE453FE4F6A
:100B700088EB9BE0928381831092330210923202C1
:100B800010923502109234021092370210923602FF
:100B900050E040E062E271E082E392E00E942D03C7
:100BA00010922D0210922C0210922F0210922E02FF
:100BB000109231021092300250E040E062E271E0A7
:100BC0008CE292E00E942D0310921F0210921902F3
:100BD0001092180210921B0210921A0210921D021B
:100BE00010921C0210921E0281E080931F028CE181
:100BF00091E09093F2018093F1018091F3018E7F57
:100C00008093F3018091F3018D7F8093F3018091B4
:100C1000F3018B7F8093F3011092FC011092FD0190
:100C20001092FE011092FF011092F4011092F50152
:100C30001092F6011092F7011092F8011092F9014A
:100C40001092FA011092FB011092130210921202FC
:100C500010921502109214021092170210921602AE
:100C6000109208021092090210920A0210920B02CE
:100C700088E593E090930D0280930C0210920F028E
:100C800010920E02109211021092100284EF91E065
:100C9000A0E0B0E08093F4019093F501A093F601F9
:100CA000B093F7018091F4019091F501A091F601C4
:100CB000B091F7018093F8019093F901A093FA01A4
:100CC000B093FB012FB7F8948091C8019091C901AE
:100CD000A091CA01B091CB012FBF8093FC019093EA
:100CE000FD01A093FE01B093FF018FEF9FEFDC01A8
:100CF0008093000290930102A0930202B09303023A
:100D00008093040290930502A0930602B093070219
:100D100008958FEF809338022FCFCF93DF9300D0C9
:100D200000D000D0CDB7DEB7789484B5826084BDA2
:100D300084B5816084BD85B5826085BD85B58160DF
:100D400085BD80916E00816080936E00109281005D
:100D50008091810082608093810080918100816018
:100D600080938100809180008160809380008091D9
:100D7000B10084608093B1008091B0008160809365
:100D8000B00080917A00846080937A0080917A002C
:100D9000826080937A0080917A00816080937A00EB
:100DA00080917A00806880937A001092C100E0916F
:100DB0003B01F0913C0182E08083E0913701F091AA
:100DC00038011082E0913901F0913A018FEC808373
:100DD00010924301E0913F01F091400186E0808351
:100DE000E0913D01F0913E01808180618083E0913E
:100DF0003D01F0913E01808188608083E0913D015A
:100E0000F0913E01808180688083E0913D01F09106
:100E10003E0180818F7D808361E083E00E94E70155
:100E200060E084E00E94E701809138028C3008F095
:100E300053C061E089E00E94E70180913802282FC9
:100E400030E0F901EE0FFF1FE20FF31FE453FE4FF6
:100E50009081907C996090839EE89093390294E60B
:100E600090933A022CE0622F0E94030D829FB00102
:100E7000112430E020E0AB01420F531FFA01EE0FC6
:100E8000FF1FE40FF51FE453FE4F908196FD16C03F
:100E90002F5F3F4F2C30310571F781110FC0109239
:100EA000800082E08093810010928500109284007F
:100EB000B19A80916F00826080936F00E091380258
:100EC0008E2F90E0FC01EE0FFF1FE80FF91FE45397
:100ED000FE4F80818064808381EF91E02091160233
:100EE00030911702232B21F510921F0228E132E0E6
:100EF00030931702209316022091180230911902A4
:100F0000232B09F005C190931902809318021092C7
:100F1000130210921202109215021092140281EF25
:100F200091E090931B0280931A0281E080931F024C
:100F3000A0911602B0911702109709F46AC010929E
:100F400008021092090210920A0210920B0280917C
:100F5000F3018B7F8093F301E0910E02F0910F0279
:100F6000309709F4E0C08091F30181FDDCC0149654
:100F70000D911C91159781EF91E015969C938E939E
:100F800014978091F30182608093F3010995909109
:100F9000F30180FB90F99093F3018091F3018D7F31
:100FA0008093F301E0911602F091170215830483F8
:100FB0008091F4019091F501A091F601B091F701B3
:100FC0008093F8019093F901A093FA01B093FB018B
:100FD0002FB7F8948091C8019091C901A091CA01DE
:100FE000B091CB012FBF4091F8015091F901609170
:100FF000FA017091FB01841B950BA60BB70B809334
:10100000FC019093FD01A093FE01B093FF0180913C
:10101000F30188E8882E912C18E5A12E12E0B12E5C
:1010200000E0202E00E0302E8091180290911902ED
:1010300090931D0280931C021092200210922102B4
:101040001092220210922302109224021092250282
:101050001092260210922702109228021092290262
:1010600010922A0210922B0280911F02882309F409
:10107000D2C080911E028111CEC0E0911C02F0917D
:101080001D02309709F4C7C0809124029091250277
:10109000A0912602B09127020196A11DB11D809357
:1010A000240290932502A0932602B093270203A165
:1010B00014A1828180FF27C080912002909121029B
:1010C000A0912202B09123020196A11DB11D80932F
:1010D000200290932102A0932202B09323028785DD
:1010E0009089A189B289892B8A2B8B2B11F592814A
:1010F00082818E7F828382818D7F828390FF03C075
:10110000CF010E943D0210931D0200931C02B1CF3B
:10111000E0911A02F0911B02F0931302E093120285
:1011200094A383A3F8CE8091F30181608093F301AF
:101130003FCF2FB7F8948091C8019091C901A09139
:10114000CA01B091CB012FBFE0911C02F0911D02AA
:101150004381548165817681438454846584768497
:10116000C780D084E184F28484199509A609B7095F
:101170008C159D05AE05BF0530F287859089A18944
:10118000B289181619061A061B065CF48785908921
:10119000A189B2890197A109B1098787908BA18B99
:1011A000B28B8789908DA18DB28D0196A11DB11D45
:1011B000878B908FA18FB28F83859485A585B68507
:1011C000C780D084E184F2848C0D9D1DAE1DBF1DAF
:1011D00083879487A587B6874783508761877287FF
:1011E000038CF48DE02D309709F48DCF0995809113
:1011F000280290912902A0912A02B0912B02019617
:10120000A11DB11D8093280290932902A0932A0268
:10121000B0932B0278CF8BE291E00E94EC0018167D
:1012200019060CF05EC050E040E062E271E08CE232
:1012300092E00E942D038BE291E00E94EC001816D0
:1012400019060CF04BC08BE291E00E94CA00898322
:101250001A8200913002109131020F5F1F4FB801C6
:101260008CE292E00E940503882399F020912C02E1
:1012700030912D028091300290913102BE016F5F5A
:101280007F4F820F931F0E94000F10933102009333
:1012900030020E9418026B017C01B2E04B2E512CEF
:1012A000612C712C0E9418026C197D098E099F090E
:1012B000683E734081059105A8F328EEC20E23E035
:1012C000D21EE11CF11C4A9445284628472809F4FF
:1012D000B2CF412C512C32014394E4CF81E0809372
:1012E0002A0180912A01882309F4DCC010922A0186
:1012F0001A8219821C821B821E821D8260912C021E
:1013000070912D02409130025091310261157105AA
:1013100009F0D2C08091320290913302009709F413
:10132000D2C069817A816115710509F4CAC0409102
:101330003402509135022D813E814217530708F443
:10134000C0C00E94000F8D819E81909337028093D0
:1013500036021E821D82CE0101960E94F302809108
:10136000360290913702892B09F490C080913202A5
:1013700090913302FC012081222309F487C0009759
:1013800009F4B8C00E948A0A0E94C80A20E030E02E
:1013900044EB52E40E94030B20E030E84FEF53E4AB
:1013A0000E945B0C0E94CD0C9B016032F2E07F0733
:1013B000CCF5209139026401C21AD10827FDD394DB
:1013C000CC0CDD1CCC0CDD1C0D2C000CEE08FF0839
:1013D00020913A02A501421B510927FD53959A011C
:1013E000220F331F220F331F032E000C440B550B0B
:1013F0002C193D094E095F09DB01653B710514F0AD
:10140000A4EBB0E0B7FF02C0B0E0A0E00E94EB0B9D
:1014100024EB30E040E050E00E94C10B2C0D3D1D5C
:101420004E1D5F1DE0913802EC3080F5809139024D
:10143000A401481B510987FD5395CA01880F991FC4
:10144000880F991F2817390784F080913A02A50167
:10145000481B510987FD5395CA01880F991F880FB2
:10146000991F281739070CF4C9010297880F991F93
:101470004FB7F8942E2F30E0F901EE0FFF1FE20F67
:10148000F31FE453FE4F928381834FBF2114310435
:1014900009F4CACD0E94F800882309F4BDCD0E944A
:1014A0000000BACD1A8219821C821B821E821D8204
:1014B00050E040E062E271E0CE0101960E942D030F
:1014C00029CF0E94B10D89819A8190933302809334
:1014D00032028B819C8190933502809334028D81FE
:1014E0009E8190933702809336021A8219821C8261
:1014F0001B822FCF60E070E0CB0146CF81EF91E0FF
:101500000E945C028CE292E00E94F30282E392E08D
:101510000C94F3021F93FC0199278827BC01E894DF
:1015200011911032E9F3193010F01E30C8F31B325C
:1015300051F01D3249F4689406C00E94B10A610F4F
:10154000711D811D911D119110531A30B0F33EF49D
:1015500090958095709561957F4F8F4F9F4F1F910C
:101560000895592F482F372F262F660F771F881F72
:10157000991F660F771F881F991F620F731F841FA3
:10158000951F660F771F881F991F0895E89409C05B
:1015900097FB3EF490958095709561957F4F8F4FA6
:1015A0009F4F9923A9F0F92F96E9BB279395F695BC
:1015B000879577956795B795F111F8CFFAF4BB0F3A
:1015C00011F460FF1BC06F5F7F4F8F4F9F4F16C09E
:1015D000882311F096E911C0772321F09EE8872F28
:1015E000762F05C0662371F096E8862F70E060E0E4
:1015F0002AF09A95660F771F881FDAF7880F96955D
:10160000879597F908950E94160B0C94870B0E94FA
:10161000790B38F00E94800B20F0952311F00C9488
:10162000700B0C94760B11240C94BB0B0E94980B3E
:1016300070F3959FC1F3950F50E0551F629FF00125
:10164000729FBB27F00DB11D639FAA27F00DB11D3E
:10165000AA1F649F6627B00DA11D661F829F2227C7
:10166000B00DA11D621F739FB00DA11D621F839F4E
:10167000A00D611D221F749F3327A00D611D231F24
:10168000849F600D211D822F762F6A2F11249F5772
:1016900050409AF0F1F088234AF0EE0FFF1FBB1F75
:1016A000661F771F881F91505040A9F79E3F510534
:1016B00080F00C94700B0C94BB0B5F3FE4F3983EEE
:1016C000D4F3869577956795B795F795E7959F5FDE
:1016D000C1F7FE2B880F911D9695879597F9089570
:1016E00097F99F6780E870E060E008959FEF80ECD5
:1016F000089500240A941616170618060906089578
:1017000000240A9412161306140605060895092EDD
:101710000394000C11F4882352F0BB0F40F4BF2B4C
:1017200011F460FF04C06F5F7F4F8F4F9F4F08958C
:1017300057FD9058440F551F59F05F3F71F0479582
:10174000880F97FB991F61F09F3F79F08795089567
:10175000121613061406551FF2CF4695F1DF08C086
:10176000161617061806991FF1CF869571056105A3
:1017700008940895E894BB2766277727CB0197F94B
:101780000895052E97FB1EF400940E94D80B57FD78
:1017900007D00E942A0C07FC03D04EF40C94D80BFF
:1017A00050954095309521953F4F4F4F5F4F08958D
:1017B00090958095709561957F4F8F4F9F4F0895BD
:1017C0000E944C0CA59F900DB49F900DA49F800D7E
:1017D000911D11240895B7FF0C94E00B0E94E00BBB
:1017E000821B930B08952F923F924F925F926F92BC
:1017F0007F928F929F92AF92BF92CF92DF92EF92A1
:10180000FF920F931F93CF93DF93CDB7DEB7CA1B21
:10181000DB0B0FB6F894DEBF0FBECDBF09942A884C
:10182000398848885F846E847D848C849B84AA84F4
:10183000B984C884DF80EE80FD800C811B81AA8181
:10184000B981CE0FD11D0FB6F894DEBF0FBECDBF4C
:10185000ED010895A1E21A2EAA1BBB1BFD010DC0CC
:10186000AA1FBB1FEE1FFF1FA217B307E407F50750
:1018700020F0A21BB30BE40BF50B661F771F881F2C
:10188000991F1A9469F760957095809590959B01C2
:10189000AC01BD01CF010895A29FB001B39FC0016B
:1018A000A39F700D811D1124911DB29F700D811D8C
:1018B0001124911D08950E946F0C0C94870B0E94B7
:1018C000800B58F00E94790B40F029F45F3F29F01B
:1018D0000C94700B51110C94BB0B0C94760B0E9462
:1018E000980B68F39923B1F3552391F3951B550B8E
:1018F000BB27AA2762177307840738F09F5F5F4FE3
:10190000220F331F441FAA1FA9F335D00E2E3AF021
:10191000E0E832D091505040E695001CCAF72BD039
:10192000FE2F29D0660F771F881FBB1F261737078A
:101930004807AB07B0E809F0BB0B802DBF01FF27BC
:1019400093585F4F3AF09E3F510578F00C94700B1E
:101950000C94BB0B5F3FE4F3983ED4F386957795E8
:101960006795B795F7959F5FC9F7880F911D969575
:10197000879597F90895E1E0660F771F881FBB1FD1
:10198000621773078407BA0720F0621B730B840B7E
:10199000BA0BEE1F88F7E09508950E94D40C689466
:1019A000B1110C94BB0B08950E94A00B88F09F57B7
:1019B00098F0B92F9927B751B0F0E1F0660F771F73
:1019C000881F991F1AF0BA95C9F714C0B13091F069
:1019D0000E94BA0BB1E008950C94BA0B672F782FD0
:1019E0008827B85F39F0B93FCCF38695779567952E
:1019F000B395D9F73EF490958095709561957F4F9A
:101A00008F4F9F4F0895991B79E004C0991F961737
:101A100008F0961B881F7A95C9F780950895EE0FF8
:101A2000FF1F0590F491E02D09940F931F93CF931E
:101A3000DF938230910510F482E090E0E0913D0266
:101A4000F0913E0230E020E0B0E0A0E0309799F461
:101A50002115310509F44AC0281B390B2430310502
:101A6000D8F58A819B816115710589F1FB0193830A
:101A70008283FE0111C04081518102811381481788
:101A80005907E0F04817590799F4109761F012963A
:101A90000C93129713961C933296CF01DF91CF913E
:101AA0001F910F91089500933D0210933E02F4CFD1
:101AB0002115310551F04217530738F0A901DB0118
:101AC0009A01BD01DF01F801C1CFEF01F9CF909379
:101AD0003E0280933D02CDCFFE01E20FF31F8193C2
:101AE00091932250310939832883D7CF20913B022B
:101AF00030913C02232B41F42091020130910301EB
:101B000030933C0220933B0220910001309101016F
:101B10002115310541F42DB73EB740910401509194
:101B20000501241B350BE0913B02F0913C02E217CA
:101B3000F307A0F42E1B3F0B2817390778F0AC01F0
:101B40004E5F5F4F2417350748F04E0F5F1F5093CD
:101B50003C0240933B02819391939FCFF0E0E0E001
:101B60009CCFCF93DF930097E9F0FC01329713826B
:101B70001282A0913D02B0913E02ED0130E020E0E2
:101B80001097A1F420813181820F931F20913B0295
:101B900030913C022817390709F061C0F0933C02EC
:101BA000E0933B02DF91CF910895EA01CE17DF0762
:101BB000E8F54A815B819E0141155105B1F7E901C4
:101BC000FB83EA8349915991C40FD51FEC17FD0798
:101BD00061F4808191810296840F951FE9019983B8
:101BE0008883828193819B838A83F0E0E0E0129670
:101BF0008D919C9113970097B9F52D913C91119778
:101C0000CD010296820F931F20913B0230913C023E
:101C10002817390739F6309751F510923E02109285
:101C20003D02B0933C02A0933B02BCCFD383C2835E
:101C300040815181840F951FC817D90761F44E5F09
:101C40005F4F88819981480F591F518340838A8152
:101C50009B81938382832115310509F0B0CFF093E6
:101C60003E02E0933D029ECFFD01DC01C0CF138216
:101C70001282D7CFB0E0A0E0E0E4FEE00C94F50BD8
:101C80008C01009751F4CB010E94150D8C01C80105
:101C9000CDB7DEB7E0E10C94110CFC01E60FF71FA5
:101CA0009C0122503109E217F30708F49DC0D901C5
:101CB000CD91DC911197C617D70798F0C530D105A3
:101CC00030F3CE0104978617970708F3C61BD70B8E
:101CD0002297C193D1936D937C93CF010E94B10D54
:101CE000D6CF5B01AC1ABD0A4C018C0E9D1EA09193
:101CF0003D02B0913E02512C412CF12CE12C109769
:101D000031F580913B0290913C028815990509F0CC
:101D10005CC04616570608F058C0809100019091AB
:101D20000101009741F48DB79EB740910401509195
:101D30000501841B950BE817F90708F055C0F093CF
:101D40003C02E0933B02F90171836083A0CF8D9147
:101D50009C91119712966C90129713967C90139702
:101D6000A815B90559F56C0142E0C40ED11CCA147E
:101D7000DB0420F1AC014A195B09DA0112961597D0
:101D800080F06282738251834083D9016D937C938A
:101D9000E114F10471F0D7011396FC93EE931297BE
:101DA00076CF22968C0F9D1FF90191838083F301DA
:101DB000EFCFF0933E02E0933D0269CF48165906FB
:101DC00008F42C017D01D3019ACFCB010E94150D9F
:101DD0007C01009749F0AE01B8010E94F70EC801DE
:101DE0000E94B10D870153CF10E000E050CFFB01FE
:101DF000DC0102C001900D9241505040D8F7089587
:101E0000FB01DC0101900D920020E1F7089510E044
:101E1000C2E6D0E004C0FE010E940F0D2196C33639
:081E2000D107C9F7F894FFCFC8
:101E280000003F028000000000002E018E00BB0071
:101E38007B01EC00CA00DE00000000005C02FB022F
:041E48000D0A00007F
:00000001FF
