:100000000C945E000C9486000C9486000C94860080
:100010000C9486000C9486000C9486000C94860048
:100020000C9486000C9486000C9486000C94860038
:100030000C9486000C9486000C9486000C94860028
:100040000C944C040C9486000C941A040C94F40345
:100050000C9486000C9486000C9486000C94860008
:100060000C9486000C9486000000000024002700F9
:100070002A0000000000250028002B0004040404CE
:100080000404040402020202020203030303030342
:10009000010204081020408001020408102001021F
:1000A00004081020000000080002010000030407FB
:1000B00000000000000000009604780711241FBE15
:1000C000CFEFD8E0DEBFCDBF11E0A0E0B1E0E0E4CB
:1000D000F5E102C005900D92A033B107D9F722E0F7
:1000E000A0E3B1E001C01D92AF31B207E1F710E02B
:1000F000CDE5D0E004C02197FE010E946809CC350F
:10010000D107C9F70E9424050C94930A0C940000AF
:10011000E7EAF0E02491E3E9F0E09491EFE7F0E022
:10012000E491EE23C9F0222339F0233001F1A8F441
:10013000213019F1223029F1F0E0EE0FFF1FEE58C7
:10014000FF4FA591B4912FB7F894EC91811126C07F
:1001500090959E239C932FBF08952730A9F02830B7
:10016000C9F0243049F7209180002F7D03C02091F1
:1001700080002F7720938000DFCF24B52F7724BD18
:10018000DBCF24B52F7DFBCF2091B0002F772093BC
:10019000B000D2CF2091B0002F7DF9CF9E2BDACFC7
:1001A000AF92BF92CF92DF92EF92FF920F931F9385
:1001B000CF93DF936C017B018B01040F151FEB01C3
:1001C0005E01AE18BF08C017D10759F06991D6017A
:1001D000ED91FC910190F081E02DC6010995892BEC
:1001E00079F7C501DF91CF911F910F91FF90EF90AB
:1001F000DF90CF90BF90AF900895FC01538D448D58
:10020000252F30E0842F90E0821B930B541710F0C1
:10021000CF96089501970895FC01918D828D9817CE
:1002200061F0A28DAE0FBF2FB11D5D968C91928DA6
:100230009F5F9F73928F90E008958FEF9FEF0895D7
:10024000FC01918D828D981731F0828DE80FF11DA0
:10025000858D90E008958FEF9FEF0895FC01918DBB
:10026000228D892F90E0805C9F4F821B91098F73B4
:10027000992708958FE391E00E942E0121E0892BB8
:1002800009F420E0822F089580E090E0892B29F086
:100290000E943A0181110C9400000895FC01A48D84
:1002A000A80FB92FB11DA35ABF4F2C91848D90E098
:1002B00001968F739927848FA689B7892C93A0897B
:1002C000B1898C91837080648C93938D848D981305
:1002D00006C00288F389E02D80818F7D8083089598
:1002E000EF92FF920F931F93CF93DF93EC0181E086
:1002F000888F9B8D8C8D98131AC0E889F98980812D
:1003000085FF15C09FB7F894EE89FF896083E8895F
:10031000F98980818370806480839FBF81E090E051
:10032000DF91CF911F910F91FF90EF900895F62EDE
:100330000B8D10E00F5F1F4F0F731127E02E8C8D78
:100340008E110CC00FB607FCFACFE889F9898081BD
:1003500085FFF5CFCE010E944E01F1CFEB8DEC0F62
:10036000FD2FF11DE35AFF4FF0829FB7F8940B8FDA
:10037000EA89FB8980818062CFCFCF93DF93EC0144
:10038000888D8823B9F0AA89BB89E889F9898C917D
:1003900085FD03C0808186FD0DC00FB607FCF7CF39
:1003A0008C9185FFF2CF808185FFEDCFCE010E9439
:1003B0004E01E9CFDF91CF9108953FB7F894809136
:1003C0003B0190913C01A0913D01B0913E0126B5C9
:1003D000A89B05C02F3F19F00196A11DB11D3FBF7D
:1003E000BA2FA92F982F8827BC01CD01620F711D4C
:1003F000811D911D42E0660F771F881F991F4A9546
:10040000D1F708950F931F93CF93DF93DC015F968D
:10041000ED91FC91309781F0EC01ADA1BEA1149655
:100420000D911C91159715969C938E931497099591
:10043000EDA1FEA115830483DF91CF911F910F9150
:100440000895CF93DF93EC018CE191E09983888349
:100450008A8180FF0CC09A818A818E7F8A838A81FB
:100460008D7F8A8390FF03C0CE010E940202EDA11E
:10047000FEA1309789F017821EA21DA2A9A1BAA1E0
:100480008BA19CA1109799F4009749F411821082D6
:100490001382128281E08783DF91CF910895DC017E
:1004A00092961C921E92919791838083F3CF00972E
:1004B00039F494961C921E929397B383A283EACF49
:1004C00094969C938E9393970BA0DCA1C02DBAA316
:1004D000A9A3E0CFFC0101900020E9F73197AF011B
:1004E000481B590BBC018FE391E00C94D0008F9214
:1004F0009F92AF92BF920F931F93CF93DF93CDB78D
:10050000DEB7A1970FB6F894DEBF0FBECDBF19A21C
:10051000423008F44AE08E010F5D1F4F842E912C6B
:10052000B12CA12CA50194010E944609E62FB90126
:10053000CA01EA30F4F4E05DD801EE938D01232B7B
:10054000242B252B79F790E080E0109719F0CD014E
:100550000E946A02A1960FB6F894DEBF0FBECDBF0F
:10056000DF91CF911F910F91BF90AF909F908F908F
:100570000895E95CE1CF4F925F926F927F928F92E4
:100580009F92AF92BF92CF92DF92EF92FF9280E064
:100590000E94880083E090E00197F1F781E00E94DB
:1005A000880083E290E00197F1F780E00E948800E4
:1005B00010923601109237011092380110923901D1
:1005C00010923501109234018091340190913501DF
:1005D00001979093350180933401892B61F0199B29
:1005E000F3CF0E94DD01609330017093310180935D
:1005F00032019093330110923501109234018091B1
:100600003401909135010197909335018093340125
:10061000892BD1F01999F3CF0E94DD01C0903001F0
:10062000D0903101E0903201F09033016C197D09D6
:100630008E099F090E941D0860933601709337014F
:10064000809338019093390120E030E040E05FE38F
:100650006091360170913701809138019091390194
:100660000E94D40824E037EE4CE05DE30E94D408F9
:100670006B017C014B015C01AC019B010E944109B3
:100680008823A1F080E291E00E946A028CE291E06E
:10069000FF90EF90DF90CF90BF90AF909F908F90A2
:1006A0007F906F905F904F900C946A022601370103
:1006B000E89477F82FEF3FEF4FE75FE7C301B20110
:1006C0000E94410981110DC02FEF3FEF4FE75FE717
:1006D000C301B2010E94E90718161CF484E291E0FC
:1006E000D3CF2FEF3FEF4FE75FE4C701B6010E9482
:1006F000CF0818161CF488E291E0C6CF2FEF3FEF29
:100700004FE75FECC701B6010E94E90787FDF3CF11
:1007100020E030E0A901C701B6010E94E90787FF88
:100720000BC06DE28FE391E00E947001460157011A
:10073000B7FAB094B7F8B0942AE037ED43EA5BE338
:10074000C501B4010E947D074B015C010E94EE07C8
:100750006B017C010E941D089B01AC01C501B40125
:100760000E947C074B015C014AE0C701B6010E9470
:1007700077026EE28FE391E00E94700120E030E0AA
:1007800040E251E4C501B4010E94D4084B015C0170
:100790000E94EE076B01F12CE12C4AE0C701B60183
:1007A0000E947702C701B6010E941D089B01AC019F
:1007B000C501B4010E947C0720E030E040E251E432
:1007C0000E94D4080E94EE0790E080E04AE00E9478
:1007D00077025CCFCF93DF93EC010E942102CE0120
:1007E000DF91CF910C940A0A1F920F920FB60F92CD
:1007F00011242F933F934F935F936F937F938F9326
:100800009F93AF93BF93EF93FF938FE391E00E9489
:100810004E01FF91EF91BF91AF919F918F917F9189
:100820006F915F914F913F912F910F900FBE0F905D
:100830001F9018951F920F920FB60F9211242F93AD
:100840008F939F93EF93FF93E0914F01F0915001AD
:100850008081E0915501F091560182FD1BC090818D
:10086000809158018F5F8F7320915901821741F059
:10087000E0915801F0E0E15CFE4F958F80935801C4
:10088000FF91EF919F918F912F910F900FBE0F903D
:100890001F9018958081F4CF1F920F920FB60F9280
:1008A00011242F933F938F939F93AF93BF93809186
:1008B000DC019091DD01A091DE01B091DF0130916A
:1008C0003A0123E0230F2D3758F50196A11DB11DE4
:1008D00020933A018093DC019093DD01A093DE0127
:1008E000B093DF0180913B0190913C01A0913D01CB
:1008F000B0913E010196A11DB11D80933B019093E3
:100900003C01A0933D01B0933E01BF91AF919F91F7
:100910008F913F912F910F900FBE0F901F901895C0
:1009200026E8230F0296A11DB11DD2CFEFE3F1E01F
:100930001382128248EE53E060E070E044835583F6
:10094000668377838AE091E09183808385EC90E0F1
:100950009587848784EC90E09787868780EC90E089
:10096000918B808B81EC90E0938B828B82EC90E07A
:10097000958B848B86EC90E0978B868B118E128EF4
:10098000138E148EE7E0F2E0178211821082138238
:10099000128215821482168281E08783E0EEF1E0F4
:1009A0008CE191E091838083A2EEB1E08C918E7F07
:1009B0008C938C918D7F8C938C918B7F8C931386F1
:1009C0001486158616861382148215821682178263
:1009D00010861186128612A211A214A213A216A2C8
:1009E00015A2178A108E118E128E8BEB92E0948FC7
:1009F000838F168E158E10A2178E438354836583C2
:100A0000768383819481A581B68187839087A1872E
:100A1000B2872FB7F8948091DC019091DD01A0910D
:100A2000DE01B091DF012FBF83879487A587B6874A
:100A30008FEF9FEFDC018787908BA18BB28B838B2D
:100A4000948BA58BB68B0895789484B5826084BD11
:100A500084B5816084BD85B5826085BD85B58160C2
:100A600085BD80916E00816080936E001092810040
:100A700080918100826080938100809181008160FB
:100A800080938100809180008160809380008091BC
:100A9000B10084608093B1008091B0008160809348
:100AA000B00080917A00846080937A0080917A000F
:100AB000826080937A0080917A00816080937A00CE
:100AC00080917A00806880937A001092C100E09152
:100AD0004F01F091500182E08083E0914B01F09151
:100AE0004C011082E0914D01F0914E018FEC80831A
:100AF00010925701E0915301F091540186E08083F8
:100B0000E0915101F0915201808180618083E091F8
:100B10005101F0915201808188608083E091510100
:100B2000F0915201808180688083E0915101F091C1
:100B3000520180818F7D8083E3E9F0E02491EFE72B
:100B4000F0E08491882399F090E0880F991FFC01D0
:100B5000E859FF4FA591B491FC01EE58FF4F8591E4
:100B600094918FB7F894EC91E22BEC938FBFE4E96A
:100B7000F0E02491E0E8F0E084918823C1F090E077
:100B8000880F991FFC01E859FF4FC591D491FC01D2
:100B9000EE58FF4FA591B4919FB7F8948881E22F4A
:100BA000E0958E2388838C91E823EC939FBF80EEA1
:100BB00091E02091050230910602232B21F510923D
:100BC0000E0227E032E030930602209305022091C6
:100BD000070230910802232B09F0FCC09093080211
:100BE00080930702109202021092010210920402F6
:100BF0001092030280EE91E090930A028093090222
:100C000081E080930E02A0910502B0910602109738
:100C100009F46AC01092F7011092F8011092F901DC
:100C20001092FA018091E2018B7F8093E201E091C2
:100C3000FD01F091FE01309709F4D7C08091E201E7
:100C400081FDD3C01496CD91DC91159780EE91E093
:100C500015969C938E9314978091E2018260809305
:100C6000E20109959091E20180FB90F99093E201F5
:100C70008091E2018D7F8093E201E0910502F09185
:100C80000602D583C4838091E3019091E401A09191
:100C9000E501B091E6018093E7019093E801A0930C
:100CA000E901B093EA012FB7F8948091DC019091AB
:100CB000DD01A091DE01B091DF012FBF4091E7017E
:100CC0005091E8016091E9017091EA01841B950B54
:100CD000A60BB70B8093EB019093EC01A093ED0171
:100CE000B093EE018091E201C0E0D0E08091070274
:100CF0009091080290930C0280930B0210920F02C5
:100D0000109210021092110210921202109213020D
:100D100010921402109215021092160210921702ED
:100D2000109218021092190210921A0280910E026B
:100D3000882309F4D2C080910D028111CEC0E091C8
:100D40000B02F0910C02309709F4C7C08091130296
:100D500090911402A0911502B09116020196A11D66
:100D6000B11D8093130290931402A0931502B093C7
:100D7000160203A114A1828180FF27C080910F0277
:100D800090911002A0911102B09112020196A11D42
:100D9000B11D80930F0290931002A0931102B093A3
:100DA000120287859089A189B289892B8A2B8B2B86
:100DB00011F5928182818E7F828382818D7F8283F1
:100DC00090FF03C0CF010E94020210930C02009317
:100DD0000B02B1CFE0910902F0910A02F0930202F6
:100DE000E093010294A383A301CF8091E20181608B
:100DF0008093E20148CF2FB7F8948091DC01909165
:100E0000DD01A091DE01B091DF012FBFE0910B0267
:100E1000F0910C02438154816581768183849484AE
:100E2000A584B684C780D084E184F28488199909A6
:100E3000AA09BB098C159D05AE05BF0530F2878553
:100E40009089A189B289181619061A061B065CF446
:100E500087859089A189B2890197A109B1098787FE
:100E6000908BA18BB28B8789908DA18DB28D0196CD
:100E7000A11DB11D878B908FA18FB28F8385948523
:100E8000A585B685C780D084E184F2848C0D9D1D34
:100E9000AE1DBF1D83879487A587B687478350877C
:100EA00061877287038CF48DE02D309709F48DCF24
:100EB00009958091170290911802A0911902B091A2
:100EC0001A020196A11DB11D80931702909318027A
:100ED000A0931902B0931A0278CF209709F406CF95
:100EE0000E943A01882309F401CF0E940000FECE3F
:100EF00080EE91E00C9421025058BB27AA270E9453
:100F000094070C9495080E94870838F00E948E0878
:100F100020F039F49F3F19F426F40C9484080EF461
:100F2000E095E7FB0C947E08E92F0E94A60858F391
:100F3000BA17620773078407950720F079F4A6F5BE
:100F40000C94C8080EF4E0950B2EBA2FA02D0B01BF
:100F5000B90190010C01CA01A0011124FF27591BFE
:100F600099F0593F50F4503E68F11A16F040A22F04
:100F7000232F342F4427585FF3CF46953795279575
:100F8000A795F0405395C9F77EF41F16BA0B620B74
:100F9000730B840BBAF09150A1F0FF0FBB1F661FBB
:100FA000771F881FC2F70EC0BA0F621F731F841FFE
:100FB00048F4879577956795B795F7959E3F08F024
:100FC000B0CF9395880F08F09927EE0F97958795E6
:100FD00008950E945A0808F481E008950E94AE081E
:100FE00088F09F5798F0B92F9927B751B0F0E1F0EA
:100FF000660F771F881F991F1AF0BA95C9F714C09A
:10100000B13091F00E94C808B1E008950C94C8086E
:10101000672F782F8827B85F39F0B93FCCF38695D2
:1010200077956795B395D9F73EF49095809570952F
:1010300061957F4F8F4F9F4F0895E89409C097FBAC
:101040003EF490958095709561957F4F8F4F9F4F9F
:101050009923A9F0F92F96E9BB279395F6958795E3
:1010600077956795B795F111F8CFFAF4BB0F11F4A6
:1010700060FF1BC06F5F7F4F8F4F9F4F16C088234D
:1010800011F096E911C0772321F09EE8872F762F83
:1010900005C0662371F096E8862F70E060E02AF0C4
:1010A0009A95660F771F881FDAF7880F96958795B0
:1010B00097F90895990F0008550FAA0BE0E8FEEF85
:1010C00016161706E807F907C0F012161306E4070C
:1010D000F50798F0621B730B840B950B39F40A2605
:1010E00061F0232B242B252B21F408950A2609F4E3
:1010F000A140A6958FEF811D811D089597F99F67E7
:1011000080E870E060E008959FEF80EC089500248F
:101110000A941616170618060906089500240A945C
:1011200012161306140605060895092E0394000CE2
:1011300011F4882352F0BB0F40F4BF2B11F460FF71
:1011400004C06F5F7F4F8F4F9F4F089557FD90589A
:10115000440F551F59F05F3F71F04795880F97FB7B
:10116000991F61F09F3F79F0879508951216130635
:101170001406551FF2CF4695F1DF08C01616170664
:101180001806991FF1CF8695710561050894089599
:10119000E894BB2766277727CB0197F908950E942B
:1011A0005A0808F48FEF08950E94E7080C949508F8
:1011B0000E94870838F00E948E0820F0952311F0D5
:1011C0000C947E080C94840811240C94C9080E9485
:1011D000A60870F3959FC1F3950F50E0551F629FCD
:1011E000F001729FBB27F00DB11D639FAA27F00D80
:1011F000B11DAA1F649F6627B00DA11D661F829FA7
:101200002227B00DA11D621F739FB00DA11D621F8B
:10121000839FA00D611D221F749F3327A00D611DA8
:10122000231F849F600D211D822F762F6A2F11248A
:101230009F5750409AF0F1F088234AF0EE0FFF1FBD
:10124000BB1F661F771F881F91505040A9F79E3F14
:10125000510580F00C947E080C94C9085F3FE4F3BC
:10126000983ED4F3869577956795B795F795E7956A
:101270009F5FC1F7FE2B880F911D9695879597F973
:1012800008950E945A08880B990B0895A1E21A2E1E
:10129000AA1BBB1BFD010DC0AA1FBB1FEE1FFF1F1A
:1012A000A217B307E407F50720F0A21BB30BE40B6A
:1012B000F50B661F771F881F991F1A9469F76095B1
:1012C0007095809590959B01AC01BD01CF0108956B
:1012D000EE0FFF1F0590F491E02D09940F931F93DB
:1012E000CF93DF938230910510F482E090E0E0919B
:1012F0001D02F0911E0230E020E0B0E0A0E0309747
:1013000099F42115310509F44AC0281B390B243002
:101310003105D8F58A819B816115710589F1FB0141
:1013200093838283FE0111C0408151810281138128
:1013300048175907E0F04817590799F4109761F0DA
:1013400012960C93129713961C933296CF01DF914D
:10135000CF911F910F91089500931D0210931E02CB
:10136000F4CF2115310551F04217530738F0A90188
:10137000DB019A01BD01DF01F801C1CFEF01F9CF17
:1013800090931E0280931D02CDCFFE01E20FF31F4A
:10139000819391932250310939832883D7CF2091AB
:1013A0001B0230911C02232B41F420910201309149
:1013B000030130931C0220931B0220910001309105
:1013C00001012115310541F42DB73EB740910401CB
:1013D00050910501241B350BE0911B02F0911C027A
:1013E000E217F307A0F42E1B3F0B2817390778F0FC
:1013F000AC014E5F5F4F2417350748F04E0F5F1F5B
:1014000050931C0240931B02819391939FCFF0E075
:10141000E0E09CCFCF93DF930097E9F0FC01329797
:1014200013821282A0911D02B0911E02ED0130E0E4
:1014300020E01097A1F420813181820F931F209129
:101440001B0230911C022817390709F061C0F09384
:101450001C02E0931B02DF91CF910895EA01CE17A1
:10146000DF07E8F54A815B819E0141155105B1F71F
:10147000E901FB83EA8349915991C40FD51FEC1709
:10148000FD0761F4808191810296840F951FE90127
:1014900099838883828193819B838A83F0E0E0E053
:1014A00012968D919C9113970097B9F52D913C91CF
:1014B0001197CD010296820F931F20911B0230914C
:1014C0001C022817390739F6309751F510921E0281
:1014D00010921D02B0931C02A0931B02BCCFD383B9
:1014E000C28340815181840F951FC817D90761F4C9
:1014F0004E5F5F4F88819981480F591F5183408308
:101500008A819B81938382832115310509F0B0CFB5
:10151000F0931E02E0931D029ECFFD01DC01C0CFBF
:1015200013821282D7CF10E0CDE5D0E004C0FE01D7
:101530000E9468092196CE35D107C9F7F894FFCFEC
:1015400000001F028000000000007001D000FD00BC
:10155000BD012E010C012001000000002102EA0360
:101560006E616E00696E66006F7666000D0A00009F
:00000001FF
