:100000000C9463000C948B000C948B000C948B006C
:100010000C948B000C948B000C948B000C948B0034
:100020000C948B000C948B000C948B000C948B0024
:100030000C948B000C948B000C948B000C948B0014
:100040000C94E0030C948B000C94AE030C94880386
:100050000C948B000C948B000C948B000C948B00F4
:100060000C948B000C948B000000000023002600F1
:10007000290000000000240027002A0000000000E2
:10008000250028002B0004040404040404040202D4
:100090000202020203030303030301020408102007
:1000A0004080010204081020010204081020000012
:1000B0000008000201000003040700000000000027
:1000C00000006F04470811241FBECFEFD8E0DEBF49
:1000D000CDBF22E0A4E2B1E001C01D92A631B2077B
:1000E000E1F711E0A0E0B1E0EEECF7E102C005902D
:1000F0000D92A432B107D9F710E0C2E6D0E004C0F7
:100100002197FE010E94E209C136D107C9F70E947A
:100110001F050C94DA0B0C940000E1EBF0E0249145
:10012000EDE9F0E09491E9E8F0E0E491EE23C9F024
:10013000222339F0233001F1A8F4213019F12230C3
:1001400029F1F0E0EE0FFF1FE458FF4FA591B491A5
:100150002FB7F894EC91811126C090959E239C9323
:100160002FBF08952730A9F02830C9F0243049F76F
:10017000209180002F7D03C0209180002F77209355
:100180008000DFCF24B52F7724BDDBCF24B52F7DB2
:10019000FBCF2091B0002F772093B000D2CF2091D9
:1001A000B0002F7DF9CF9E2BDACF0895AF92BF928A
:1001B000CF92DF92EF92FF920F931F93CF93DF9333
:1001C0006C017B018B01040F151FEB015E01AE1862
:1001D000BF08C017D10759F06991D601ED91FC9184
:1001E0000190F081E02DC6010995892B79F7C501B1
:1001F000DF91CF911F910F91FF90EF90DF90CF9003
:10020000BF90AF900895FC01538D448D252F30E0B1
:10021000842F90E0821B930B541710F0CF96089513
:1002200001970895FC01918D828D981761F0A28D40
:10023000AE0FBF2FB11D5D968C91928D9F5F9F7306
:10024000928F90E008958FEF9FEF0895FC01918DBC
:10025000828D981731F0828DE80FF11D858D90E029
:1002600008958FEF9FEF0895FC01918D228D892FC6
:1002700090E0805C9F4F821B91098F7399270895AE
:100280008AE291E00E94340121E0892B09F420E008
:10029000822F089580E090E0892B29F00E94400190
:1002A00081110C9400000895FC01A48DA80FB92FB2
:1002B000B11DA35ABF4F2C91848D90E001968F738E
:1002C0009927848FA689B7892C93A089B1898C91AD
:1002D000837080648C93938D848D981306C00288FC
:1002E000F389E02D80818F7D80830895EF92FF92C6
:1002F0000F931F93CF93DF93EC0181E0888F9B8D49
:100300008C8D98131AC0E889F989808185FF15C002
:100310009FB7F894EE89FF896083E889F989808125
:100320008370806480839FBF81E090E0DF91CF91F4
:100330001F910F91FF90EF900895F62E0B8D10E016
:100340000F5F1F4F0F731127E02E8C8D8E110CC085
:100350000FB607FCFACFE889F989808185FFF5CFD0
:10036000CE010E945401F1CFEB8DEC0FFD2FF11D5A
:10037000E35AFF4FF0829FB7F8940B8FEA89FB890D
:1003800080818062CFCFCF93DF93EC01888D88236B
:10039000B9F0AA89BB89E889F9898C9185FD03C0E8
:1003A000808186FD0DC00FB607FCF7CF8C9185FFCD
:1003B000F2CF808185FFEDCFCE010E945401E9CFBD
:1003C000DF91CF9108953FB7F894809125019091E6
:1003D0002601A0912701B091280126B5A89B05C050
:1003E0002F3F19F00196A11DB11D3FBFBA2FA92FB4
:1003F000982F8827BC01CD01620F711D811D911DB1
:1004000042E0660F771F881F991F4A95D1F708951C
:100410000F931F93CF93DF93DC015F96ED91FC91D7
:10042000309781F0EC01ADA1BEA114960D911C9105
:10043000159715969C938E9314970995EDA1FEA19F
:1004400015830483DF91CF911F910F910895CF936E
:10045000DF93EC018CE191E0998388838A8180FFAE
:100460000CC09A818A818E7F8A838A818D7F8A835C
:1004700090FF03C0CE010E940802EDA1FEA13097BB
:1004800089F017821EA21DA2A9A1BAA18BA19CA1CD
:10049000109799F4009749F4118210821382128206
:1004A00081E08783DF91CF910895DC0192961C92C1
:1004B0001E92919791838083F3CF009739F494969D
:1004C0001C921E929397B383A283EACF94969C9337
:1004D0008E9393970BA0DCA1C02DBAA3A9A3E0CF64
:1004E0008F929F92AF92BF920F931F93CF93DF9300
:1004F000CDB7DEB7A1970FB6F894DEBF0FBECDBF64
:1005000019A2423008F44AE08E010F5D1F4F842E7D
:10051000912CB12CA12CA50194010E94C009E62FB9
:10052000B901CA01EA3044F5E05DD801EE938D01CE
:10053000232B242B252B79F790E080E0109769F08E
:10054000FD0101900020E9F73197AF014A1B5B0BD9
:10055000BD018AE291E00E94D600A1960FB6F89400
:10056000DEBF0FBECDBFDF91CF911F910F91BF9026
:10057000AF909F908F900895E95CD7CFFC01808168
:100580009181009711F00C94840A0895CF93DF9322
:10059000EC010E942702CE01DF91CF910C94840AD6
:1005A0000F931F93CF93DF93EC018881998100977C
:1005B00059F02A813B812617370730F081E0DF911F
:1005C000CF911F910F9108958B016F5F7F4F0E9414
:1005D0000D0B009759F0998388831B830A832C8124
:1005E0003D81232B59F7FC011082E8CF80E0E7CF53
:1005F000EF92FF920F931F93CF93DF93EC017B0158
:100600008A01BA010E94D00228813981811114C067
:100610002115310519F0C9010E94840A1982188236
:100620001D821C821B821A82CE01DF91CF911F9105
:100630000F91FF90EF9008951D830C83B701C901BE
:100640000E94D30BF1CFCF92DF92EF92FF920F93E4
:100650001F9380E00E948D008FE090E00197F1F7FA
:1006600081E00E948D0083E290E00197F1F780E045
:100670000E948D00EEE9F0E06491EAE8F0E0E49198
:10068000F0E0EE0FFF1FE859FF4F8591949100E4D1
:1006900012E42FE030E0462F0E942A046115710514
:1006A0008105910529F06F5F7F4F8F4F9F4F9F709E
:1006B00095958795779567950E9455082DEC3CECAC
:1006C00048EE51E40E9418090E948A096B017C01DE
:1006D0004AE0F7FE0DC06DE28AE291E00E947601E9
:1006E00066277727CB016C197D098E099F094AE09F
:1006F0000E94700242E050E060E271E08AE291E024
:100700001F910F91FF90EF90DF90CF900C94D60047
:100710001F920F920FB60F9211242F933F934F9376
:100720005F936F937F938F939F93AF93BF93EF9359
:10073000FF938AE291E00E945401FF91EF91BF91F3
:10074000AF919F918F917F916F915F914F913F9169
:100750002F910F900FBE0F901F9018951F920F9220
:100760000FB60F9211242F938F939F93EF93FF93C4
:10077000E0913A01F0913B018081E0914001F091DC
:10078000410182FD1BC09081809143018F5F8F7377
:1007900020914401821741F0E0914301F0E0E65DD1
:1007A000FE4F958F80934301FF91EF919F918F9121
:1007B0002F910F900FBE0F901F9018958081F4CF4E
:1007C0001F920F920FB60F9211242F933F938F9386
:1007D0009F93AF93BF938091C7019091C801A0915F
:1007E000C901B091CA013091240123E0230F2D37B4
:1007F00058F50196A11DB11D209324018093C701D6
:100800009093C801A093C901B093CA0180912501BA
:1008100090912601A0912701B09128010196A11D78
:10082000B11D8093250190932601A0932701B093D9
:100830002801BF91AF919F918F913F912F910F9080
:100840000FBE0F901F90189526E8230F0296A11D4A
:10085000B11DD2CFCF92DF92EF92FF920F931F93F1
:10086000E82FF92F05C0015011092109310961F163
:10087000908196239417B9F305C0015011092109FD
:10088000310911F1908196239413F7CFC12CD12C0B
:10089000E12CF12C0AC08FEFC81AD80AE80AF80A2E
:1008A0000C151D052E053F0579F0808186238417E0
:1008B00091F36C2D7D2D8E2D9F2D1F910F91FF900B
:1008C000EF90DF90CF90089560E070E080E090E0DE
:1008D0001F910F91FF90EF90DF90CF900895EAE283
:1008E000F1E01382128288EE93E0A0E0B0E084830E
:1008F0009583A683B7838AE091E09183808385EC1A
:1009000090E09587848784EC90E09787868780ECD9
:1009100090E0918B808B81EC90E0938B828B82ECCA
:1009200090E0958B848B86EC90E0978B868B118E74
:10093000128E138E148EECE0F2E01182108213827C
:1009400012821582148250E040E062E271E0CF0131
:100950000E94F802E6E0F2E0118210821382128215
:100960001582148250E040E062E271E0CF010E9403
:10097000F802E2EFF1E017821182108213821282F4
:1009800015821482168281E08783EBECF1E08CE122
:1009900091E091838083ADECB1E08C918E7F8C935C
:1009A0008C918D7F8C938C918B7F8C931386148686
:1009B0001586168613821482158216821782108677
:1009C0001186128612A211A214A213A216A215A2B7
:1009D000178A108E118E128E83E293E0948F838F8C
:1009E000168E158E10A2178E84EF91E0A0E0B0E075
:1009F00083839483A583B68383819481A581B68103
:100A000087839087A187B2872FB7F8948091C70119
:100A10009091C801A091C901B091CA012FBF8387ED
:100A20009487A587B6878FEF9FEFDC018787908B30
:100A3000A18BB28B838B948BA58BB68B0895CF93B0
:100A4000DF9300D000D000D0CDB7DEB7789484B566
:100A5000826084BD84B5816084BD85B5826085BDBA
:100A600085B5816085BD80916E00816080936E0048
:100A7000109281008091810082608093810080913A
:100A800081008160809381008091800081608093EB
:100A900080008091B10084608093B1008091B000AB
:100AA00081608093B00080917A00846080937A00A6
:100AB00080917A00826080937A0080917A008160D0
:100AC00080937A0080917A00806880937A001092F7
:100AD000C100E0913A01F0913B0182E08083E09116
:100AE0003601F09137011082E0913801F09139011F
:100AF0008FEC808310924201E0913E01F0913F0122
:100B000086E08083E0913C01F0913D01808180612D
:100B10008083E0913C01F0913D0180818860808379
:100B2000E0913C01F0913D01808180688083E091FB
:100B30003C01F0913D0180818F7D8083EDE9F0E003
:100B40002491E9E8F0E08491882399F090E0880FFF
:100B5000991FFC01EE58FF4FA591B491FC01E45898
:100B6000FF4F859194918FB7F894EC91E22BEC9321
:100B70008FBFEEE9F0E02491EAE8F0E08491882369
:100B8000C9F090E0880F991FFC01EE58FF4F459186
:100B90005491FC01E458FF4FA591B4919FB7F8948C
:100BA000FA0180812095822380838C91E22FE823B3
:100BB000EC939FBF8BEC91E02091F0013091F1011B
:100BC000232B21F51092F90122EF31E03093F1014E
:100BD0002093F0012091F2013091F301232B09F0D1
:100BE00000C19093F3018093F2011092ED011092F5
:100BF000EC011092EF011092EE018BEC91E09093DA
:100C0000F5018093F40181E08093F901A091F00156
:100C1000B091F101109709F46AC01092E2011092AC
:100C2000E3011092E4011092E5018091CD018B7FE8
:100C30008093CD01E091E801F091E901309709F44A
:100C4000DBC08091CD0181FDD7C014960D911C9120
:100C500015978BEC91E015969C938E931497809149
:100C6000CD0182608093CD0109959091CD0180FBEB
:100C700090F99093CD018091CD018D7F8093CD012E
:100C8000E091F001F091F101158304838091CE0190
:100C90009091CF01A091D001B091D1018093D20168
:100CA0009093D301A093D401B093D5012FB7F894BA
:100CB0008091C7019091C801A091C901B091CA016A
:100CC0002FBF4091D2015091D3016091D401709116
:100CD000D501841B950BA60BB70B8093D60190937F
:100CE000D701A093D801B093D9018091CD0120E024
:100CF000E22E20E0F22EDD24D3948091F201909137
:100D0000F3019093F7018093F6011092FA0110928B
:100D1000FB011092FC011092FD011092FE01109255
:100D2000FF01109200021092010210920202109232
:100D3000030210920402109205028091F9018823A7
:100D400009F4D2C08091F8018111CEC0E091F60182
:100D5000F091F701309709F4C7C08091FE0190919E
:100D6000FF01A0910002B09101020196A11DB11DE9
:100D70008093FE019093FF01A0930002B0930102C3
:100D800003A114A1828180FF27C08091FA01909174
:100D9000FB01A091FC01B091FD010196A11DB11DC7
:100DA0008093FA019093FB01A093FC01B093FD01A5
:100DB00087859089A189B289892B8A2B8B2B11F584
:100DC000928182818E7F828382818D7F828390FF58
:100DD00003C0CF010E9408021093F7010093F601AF
:100DE000B1CFE091F401F091F501F093ED01E093C2
:100DF000EC0194A383A3FDCE8091CD01816080930B
:100E0000CD0144CF2FB7F8948091C7019091C801CC
:100E1000A091C901B091CA012FBFE091F601F091F4
:100E2000F7014381548165817681438454846584CC
:100E3000768487809084A184B28484199509A60958
:100E4000B70988159905AA05BB0530F287859089F1
:100E5000A189B289181619061A061B065CF4878543
:100E60009089A189B2890197A109B1098787908BDF
:100E7000A18BB28B8789908DA18DB28D0196A11D1A
:100E8000B11D878B908FA18FB28F83859485A585A7
:100E9000B68587809084A184B284880D991DAA1D8F
:100EA000BB1D83879487A587B68747835087618753
:100EB0007287038CF48DE02D309709F48DCF09955E
:100EC0008091020290910302A0910402B091050268
:100ED0000196A11DB11D8093020290930302A0937D
:100EE0000402B093050278CF8AE291E00E943401B7
:100EF000181619060CF05DC050E040E062E271E0A7
:100F000086E092E00E94F8028AE291E00E943401B9
:100F1000181619060CF04BC08AE291E00E941201EB
:100F200089831A8200910A0210910B020F5F1F4FF2
:100F3000B80186E092E00E94D002882399F02091C7
:100F400006023091070280910A0290910B02BE01C5
:100F50006F5F7F4F820F931F0E94D30B10930B0282
:100F600000930A020E94E3014B015C0192E0492ECA
:100F7000512C612C712C0E94E301681979098A09AE
:100F80009B09683E734081059105A8F3F8EE8F0E2A
:100F9000F3E09F1EA11CB11C4A944528462847280F
:100FA00009F4B2CF412C512C32014394E4CFD092BA
:100FB000290180912901882309F441C01092290157
:100FC0001A8219821C821B821E821D826091060277
:100FD0007091070240910A0250910B026115710550
:100FE000C1F580910C0290910D020097C9F16981C1
:100FF0007A816115710591F140910E0250910F02B5
:101000002D813E814217530748F10E94D30B8D81F9
:101010009E8190931102809310021E821D82CE0148
:1010200001960E94BE02E114F10409F466CE0E940A
:101030004001882309F461CE0E9400005ECE1A822E
:1010400019821C821B821E821D8250E040E062E2F7
:1010500071E0CE0101960E94F802C3CF0E94840A7B
:1010600089819A8190930D0280930C028B819C81DF
:1010700090930F0280930E028D819E8190931102B6
:10108000809310021A8219821C821B82C6CF8BECBD
:1010900091E00E94270286E092E00E94BE028CE06E
:1010A00092E00C94BE02E89409C097FB3EF4909540
:1010B0008095709561957F4F8F4F9F4F9923A9F031
:1010C000F92F96E9BB279395F695879577956795C0
:1010D000B795F111F8CFFAF4BB0F11F460FF1BC004
:1010E0006F5F7F4F8F4F9F4F16C0882311F096E997
:1010F00011C0772321F09EE8872F762F05C0662345
:1011000071F096E8862F70E060E02AF09A95660FFD
:10111000771F881FDAF7880F9695879597F90895B6
:1011200097F99F6780E870E060E008959FEF80EC9A
:10113000089500240A94161617061806090608953D
:1011400000240A9412161306140605060895092EA3
:101150000394000C11F4882352F0BB0F40F4BF2B12
:1011600011F460FF04C06F5F7F4F8F4F9F4F089552
:1011700057FD9058440F551F59F05F3F71F0479548
:10118000880F97FB991F61F09F3F79F0879508952D
:10119000121613061406551FF2CF4695F1DF08C04C
:1011A000161617061806991FF1CF86957105610569
:1011B00008940895E894BB2766277727CB0197F911
:1011C00008952F923F924F925F926F927F928F92EB
:1011D0009F92AF92BF92CF92DF92EF92FF920F93C6
:1011E0001F93CF93DF93CDB7DEB7CA1BDB0B0FB6D0
:1011F000F894DEBF0FBECDBF09942A88398848888D
:101200005F846E847D848C849B84AA84B984C88422
:10121000DF80EE80FD800C811B81AA81B981CE0F19
:10122000D11D0FB6F894DEBF0FBECDBFED010895FE
:101230000E942C090C94A7080E94A00858F00E9454
:10124000990840F029F45F3F29F00C94900851115F
:101250000C94DB080C9496080E94B80868F3992354
:10126000B1F3552391F3951B550BBB27AA276217A2
:101270007307840738F09F5F5F4F220F331F441FAF
:10128000AA1FA9F335D00E2E3AF0E0E832D09150E3
:101290005040E695001CCAF72BD0FE2F29D0660FD0
:1012A000771F881FBB1F261737074807AB07B0E813
:1012B00009F0BB0B802DBF01FF2793585F4F3AF019
:1012C0009E3F510578F00C9490080C94DB085F3F2A
:1012D000E4F3983ED4F3869577956795B795F7959F
:1012E0009F5FC9F7880F911D9695879597F9089587
:1012F000E1E0660F771F881FBB1F62177307840723
:10130000BA0720F0621B730B840BBA0BEE1F88F731
:10131000E09508950E9491096894B1110C94DB083E
:1013200008950E94C00888F09F5798F0B92F992718
:10133000B751B0F0E1F0660F771F881F991F1AF0C0
:10134000BA95C9F714C0B13091F00E94DA08B1E043
:1013500008950C94DA08672F782F8827B85F39F042
:10136000B93FCCF3869577956795B395D9F73EF459
:1013700090958095709561957F4F8F4F9F4F089501
:10138000A1E21A2EAA1BBB1BFD010DC0AA1FBB1F89
:10139000EE1FFF1FA217B307E407F50720F0A21BFB
:1013A000B30BE40BF50B661F771F881F991F1A9468
:1013B00069F760957095809590959B01AC01BD0192
:1013C000CF010895EE0FFF1F0590F491E02D0994D1
:1013D0000F931F93CF93DF938230910510F482E037
:1013E00090E0E0911402F091150230E020E0B0E0CE
:1013F000A0E0309799F42115310509F44AC0281B63
:10140000390B24303105D8F58A819B81611571052E
:1014100089F1FB0193838283FE0111C040815181D8
:101420000281138148175907E0F04817590799F4CA
:10143000109761F012960C93129713961C933296A4
:10144000CF01DF91CF911F910F9108950093140266
:1014500010931502F4CF2115310551F042175307AF
:1014600038F0A901DB019A01BD01DF01F801C1CF0C
:10147000EF01F9CF9093150280931402CDCFFE01B6
:10148000E20FF31F8193919322503109398328830E
:10149000D7CF2091120230911302232B41F42091D7
:1014A0000201309103013093130220931202209124
:1014B0000001309101012115310541F42DB73EB7EE
:1014C0004091040150910501241B350BE09112025B
:1014D000F0911302E217F307A0F42E1B3F0B28171D
:1014E000390778F0AC014E5F5F4F2417350748F09D
:1014F0004E0F5F1F509313024093120281939193FA
:101500009FCFF0E0E0E09CCFCF93DF930097E9F02E
:10151000FC01329713821282A0911402B09115023D
:10152000ED0130E020E01097A1F420813181820F9D
:10153000931F20911202309113022817390709F0E6
:1015400061C0F0931302E0931202DF91CF910895EE
:10155000EA01CE17DF07E8F54A815B819E0141155C
:101560005105B1F7E901FB83EA8349915991C40F11
:10157000D51FEC17FD0761F4808191810296840FDD
:10158000951FE90199838883828193819B838A8354
:10159000F0E0E0E012968D919C9113970097B9F5D9
:1015A0002D913C911197CD010296820F931F2091AE
:1015B0001202309113022817390739F6309751F586
:1015C0001092150210921402B0931302A09312020B
:1015D000BCCFD383C28340815181840F951FC8172C
:1015E000D90761F44E5F5F4F88819981480F591F79
:1015F000518340838A819B819383828321153105A6
:1016000009F0B0CFF0931502E09314029ECFFD01D4
:10161000DC01C0CF13821282D7CFB0E0A0E0E3E1BB
:10162000FBE00C94E3088C01009751F4CB010E947D
:10163000E8098C01C801CDB7DEB7E0E10C94FF08E2
:10164000FC01E60FF71F9C0122503109E217F30756
:1016500008F49DC0D901CD91DC911197C617D70729
:1016600098F0C530D10530F3CE010497861797075F
:1016700008F3C61BD70B2297C193D1936D937C932C
:10168000CF010E94840AD6CF5B01AC1ABD0A4C017F
:101690008C0E9D1EA0911402B0911502512C412C6C
:1016A000F12CE12C109731F58091120290911302E8
:1016B0008815990509F05CC04616570608F058C011
:1016C0008091000190910101009741F48DB79EB780
:1016D0004091040150910501841B950BE817F9070F
:1016E00008F055C0F0931302E0931202F9017183E0
:1016F0006083A0CF8D919C91119712966C90129758
:1017000013967C901397A815B90559F56C0142E022
:10171000C40ED11CCA14DB0420F1AC014A195B09C8
:10172000DA011296159780F06282738251834083AA
:10173000D9016D937C93E114F10471F0D7011396F4
:10174000FC93EE93129776CF22968C0F9D1FF90192
:1017500091838083F301EFCFF0931502E09314029D
:1017600069CF4816590608F42C017D01D3019ACFA0
:10177000CB010E94E8097C01009749F0AE01B80155
:101780000E94CA0BC8010E94840A870153CF10E04F
:1017900000E050CFFB01DC0102C001900D924150EE
:1017A0005040D8F70895FB01DC0101900D92002014
:1017B000E1F7089510E0C2E6D0E004C0FE010E9407
:0E17C000E2092196C336D107C9F7F894FFCF8E
:1017CE00000016028000000000007601D600030122
:1017DE00C301340112012601000000002702C602D7
:0417EE000D0A0000E0
:00000001FF
