:100000000C9463000C948B000C948B000C948B006C
:100010000C948B000C948B000C948B000C948B0034
:100020000C948B000C948B000C948B000C948B0024
:100030000C948B000C948B000C948B000C948B0014
:100040000C945F030C948B000C942D030C94070309
:100050000C948B000C948B000C948B000C948B00F4
:100060000C948B000C948B000000000023002600F1
:10007000290000000000240027002A0000000000E2
:10008000250028002B0004040404040404040202D4
:100090000202020203030303030301020408102007
:1000A0004080010204081020010204081020000012
:1000B0000008000201000003040700000000000027
:1000C0000000EE03D40611241FBECFEFD8E0DEBF40
:1000D000CDBF11E0A0E0B1E0E0EDF2E102C005909B
:1000E0000D92A432B107D9F722E0A4E2B1E001C039
:1000F0001D92A930B207E1F710E0C2E6D0E004C0DB
:100100002197FE010E943008C136D107C9F70E942D
:1001100080040C945B090C940000E1EBF0E0249166
:10012000EDE9F0E09491E9E8F0E0E491EE23C9F024
:10013000222339F0233001F1A8F4213019F12230C3
:1001400029F1F0E0EE0FFF1FE458FF4FA591B491A5
:100150002FB7F894EC91811126C090959E239C9323
:100160002FBF08952730A9F02830C9F0243049F76F
:10017000209180002F7D03C0209180002F77209355
:100180008000DFCF24B52F7724BDDBCF24B52F7DB2
:10019000FBCF2091B0002F772093B000D2CF2091D9
:1001A000B0002F7DF9CF9E2BDACFAF92BF92CF92C6
:1001B000DF92EF92FF920F931F93CF93DF936C0127
:1001C0007B018B01040F151FEB015E01AE18BF0808
:1001D000C017D10759F06991D601ED91FC910190BA
:1001E000F081E02DC6010995892B79F7C501DF91D2
:1001F000CF911F910F91FF90EF90DF90CF90BF9024
:10020000AF900895FC01538D448D252F30E0842F4D
:1002100090E0821B930B541710F0CF96089501972E
:100220000895FC01918D828D981761F0A28DAE0F1B
:10023000BF2FB11D5D968C91928D9F5F9F73928FA2
:1002400090E008958FEF9FEF0895FC01918D828DCE
:10025000981731F0828DE80FF11D858D90E008959B
:100260008FEF9FEF0895FC01918D228D892F90E0F3
:10027000805C9F4F821B91098F739927089589E2B3
:1002800091E00E94330121E0892B09F420E0822FC4
:10029000089580E090E0892B29F00E943F018111B0
:1002A0000C9400000895FC01A48DA80FB92FB11D76
:1002B000A35ABF4F2C91848D90E001968F7399279C
:1002C000848FA689B7892C93A089B1898C9183707A
:1002D00080648C93938D848D981306C00288F38973
:1002E000E02D80818F7D80830895EF92FF920F93A0
:1002F0001F93CF93DF93EC0181E0888F9B8D8C8DD2
:1003000098131AC0E889F989808185FF15C09FB7C5
:10031000F894EE89FF896083E889F9898081837088
:10032000806480839FBF81E090E0DF91CF911F9137
:100330000F91FF90EF900895F62E0B8D10E00F5F58
:100340001F4F0F731127E02E8C8D8E110CC00FB62E
:1003500007FCFACFE889F989808185FFF5CFCE01C6
:100360000E945301F1CFEB8DEC0FFD2FF11DE35AED
:10037000FF4FF0829FB7F8940B8FEA89FB89808149
:100380008062CFCFCF93DF93EC01888D8823B9F0C3
:10039000AA89BB89E889F9898C9185FD03C0808190
:1003A00086FD0DC00FB607FCF7CF8C9185FFF2CF0D
:1003B000808185FFEDCFCE010E945301E9CFDF910F
:1003C000CF9108950F931F93CF93DF93DC015F9636
:1003D000ED91FC91309781F0EC01ADA1BEA1149696
:1003E0000D911C91159715969C938E9314970995D2
:1003F000EDA1FEA115830483DF91CF911F910F9191
:100400000895CF93DF93EC018CE191E09983888389
:100410008A8180FF0CC09A818A818E7F8A838A813B
:100420008D7F8A8390FF03C0CE010E94E201EDA17F
:10043000FEA1309789F017821EA21DA2A9A1BAA120
:100440008BA19CA1109799F4009749F41182108216
:100450001382128281E08783DF91CF910895DC01BE
:1004600092961C921E92919791838083F3CF00976E
:1004700039F494961C921E929397B383A283EACF89
:1004800094969C938E9393970BA0DCA1C02DBAA356
:10049000A9A3E0CF8F929F92AF92BF920F931F9329
:1004A000CF93DF93CDB7DEB7A1970FB6F894DEBF39
:1004B0000FBECDBF19A2423008F44AE08E010F5D95
:1004C0001F4F842E912CB12CA12CA50194010E94C8
:1004D0000E08E62FB901CA01EA3044F5E05DD80103
:1004E000EE938D01232B242B252B79F790E080E0D0
:1004F000109769F0FD0101900020E9F73197AF01F5
:100500004A1B5B0BBD0189E291E00E94D500A196D8
:100510000FB6F894DEBF0FBECDBFDF91CF911F9114
:100520000F91BF90AF909F908F900895E95CD7CFC7
:10053000CF92DF92EF92FF920F931F9380E00E9481
:100540008D008FE090E00197F1F781E00E948D002F
:1005500083E290E00197F1F780E00E948D00EEE9E0
:10056000F0E06491EAE8F0E0E491F0E0EE0FFF1FC4
:10057000E859FF4F8591949100E412E42FE030E0B8
:10058000462F0E94A903611571058105910529F087
:100590006F5F7F4F8F4F9F4F9F7095958795779592
:1005A00067950E9482072DEC3CEC48EE51E40E94D6
:1005B000D8060E944A076B017C014AE0F7FE0DC095
:1005C0006DE289E291E00E94750166277727CB01F1
:1005D0006C197D098E099F094AE00E944A0242E097
:1005E00050E060E271E089E291E01F910F91FF908D
:1005F000EF90DF90CF900C94D500CF93DF93EC0178
:100600000E940102CE01DF91CF910C94D2081F927B
:100610000F920FB60F9211242F933F934F935F9336
:100620006F937F938F939F93AF93BF93EF93FF93BA
:1006300089E291E00E945301FF91EF91BF91AF9148
:100640009F918F917F916F915F914F913F912F91EA
:100650000F900FBE0F901F9018951F920F920FB61C
:100660000F9211242F938F939F93EF93FF93E09119
:100670003901F0913A018081E0913F01F091400110
:1006800082FD1BC09081809142018F5F8F7320910A
:100690004301821741F0E0914201F0E0E75DFE4F37
:1006A000958F80934201FF91EF919F918F912F91B0
:1006B0000F900FBE0F901F9018958081F4CF1F925E
:1006C0000F920FB60F9211242F933F938F939F9306
:1006D000AF93BF938091C6019091C701A091C801CB
:1006E000B091C9013091280123E0230F2D3758F52F
:1006F0000196A11DB11D209328018093C6019093FE
:10070000C701A093C801B093C901809124019091C1
:100710002501A0912601B09127010196A11DB11DCF
:100720008093240190932501A0932601B093270183
:10073000BF91AF919F918F913F912F910F900FBEDD
:100740000F901F90189526E8230F0296A11DB11D4A
:10075000D2CFCF92DF92EF92FF920F931F93E82FA9
:10076000F92F05C0015011092109310961F190816A
:1007700096239417B9F305C00150110921093109D5
:1007800011F1908196239413F7CFC12CD12CE12C39
:10079000F12C0AC08FEFC81AD80AE80AF80A0C151B
:1007A0001D052E053F0579F080818623841791F37E
:1007B0006C2D7D2D8E2D9F2D1F910F91FF90EF9011
:1007C000DF90CF90089560E070E080E090E01F91AE
:1007D0000F91FF90EF90DF90CF900895E9E2F1E064
:1007E0001382128288EE93E0A0E0B0E084839583C8
:1007F000A683B7838AE091E09183808385EC90E0C3
:100800009587848784EC90E09787868780EC90E0DA
:10081000918B808B81EC90E0938B828B82EC90E0CB
:10082000958B848B86EC90E0978B868B118E128E45
:10083000138E148EE1EFF1E0178211821082138281
:10084000128215821482168281E08783EAECF1E03D
:100850008CE191E091838083ACECB1E08C918E7F50
:100860008C938C918D7F8C938C918B7F8C93138642
:1008700014861586168613821482158216821782B4
:1008800010861186128612A211A214A213A216A219
:1008900015A2178A108E118E128E88E992E0948F1D
:1008A000838F168E158E10A2178E84EF91E0A0E034
:1008B000B0E083839483A583B68383819481A581EB
:1008C000B68187839087A187B2872FB7F8948091EC
:1008D000C6019091C701A091C801B091C9012FBF75
:1008E00083879487A587B6878FEF9FEFDC01878783
:1008F000908BA18BB28B838B948BA58BB68B089539
:10090000789484B5826084BD84B5816084BD85B5EA
:10091000826085BD85B5816085BD80916E008160F6
:1009200080936E001092810080918100826080939C
:10093000810080918100816080938100809180009E
:100940008160809380008091B10084608093B100C9
:100950008091B00081608093B00080917A008460C3
:1009600080937A0080917A00826080937A008091EF
:100970007A00816080937A0080917A008068809309
:100980007A001092C100E0913901F0913A0182E0C1
:100990008083E0913501F09136011082E0913701BA
:1009A000F09138018FEC808310924101E0913D017C
:1009B000F0913E0186E08083E0913B01F0913C01A3
:1009C000808180618083E0913B01F0913C018081D6
:1009D00088608083E0913B01F0913C0180818068D8
:1009E0008083E0913B01F0913C0180818F7D808389
:1009F000EDE9F0E02491E9E8F0E08491882399F0B2
:100A000090E0880F991FFC01EE58FF4FA591B4911B
:100A1000FC01E458FF4F859194918FB7F894EC91C5
:100A2000E22BEC938FBFEEE9F0E02491EAE8F0E0EE
:100A300084918823C1F090E0880F991FFC01EE5843
:100A4000FF4FC591D491FC01E458FF4FA591B4919B
:100A50009FB7F8948881E22FE0958E2388838C914C
:100A6000E823EC939FBF8AEC91E02091EF01309155
:100A7000F001232B21F51092F80121EF31E03093A2
:100A8000F0012093EF012091F1013091F201232B2D
:100A900009F0FCC09093F2018093F1011092EC01F7
:100AA0001092EB011092EE011092ED018AEC91E0B0
:100AB0009093F4018093F30181E08093F801A09179
:100AC000EF01B091F001109709F46AC01092E101B2
:100AD0001092E2011092E3011092E4018091CC01A6
:100AE0008B7F8093CC01E091E701F091E801309792
:100AF00009F4D7C08091CC0181FDD3C01496CD916B
:100B0000DC9115978AEC91E015969C938E9314973F
:100B10008091CC0182608093CC0109959091CC01A9
:100B200080FB90F99093CC018091CC018D7F8093D4
:100B3000CC01E091EF01F091F001D583C483809165
:100B4000CD019091CE01A091CF01B091D0018093C1
:100B5000D1019093D201A093D301B093D4012FB7C8
:100B6000F8948091C6019091C701A091C801B091FD
:100B7000C9012FBF4091D1015091D2016091D301A1
:100B80007091D401841B950BA60BB70B8093D501F4
:100B90009093D601A093D701B093D8018091CC0156
:100BA000C0E0D0E08091F1019091F2019093F601C4
:100BB0008093F5011092F9011092FA011092FB0155
:100BC0001092FC011092FD011092FE011092FF01A3
:100BD000109200021092010210920202109203027F
:100BE000109204028091F801882309F4D2C0809108
:100BF000F7018111CEC0E091F501F091F601309737
:100C000009F4C7C08091FD019091FE01A091FF0100
:100C1000B09100020196A11DB11D8093FD0190933A
:100C2000FE01A093FF01B093000203A114A18281F1
:100C300080FF27C08091F9019091FA01A091FB01FA
:100C4000B091FC010196A11DB11D8093F901909313
:100C5000FA01A093FB01B093FC0187859089A189DB
:100C6000B289892B8A2B8B2B11F5928182818E7F01
:100C7000828382818D7F828390FF03C0CF010E9497
:100C8000E2011093F6010093F501B1CFE091F30179
:100C9000F091F401F093EC01E093EB0194A383A3B2
:100CA00001CF8091CC0181608093CC0148CF2FB7D8
:100CB000F8948091C6019091C701A091C801B091AC
:100CC000C9012FBFE091F501F091F60143815481F4
:100CD0006581768183849484A584B684C780D0841A
:100CE000E184F28488199909AA09BB098C159D052C
:100CF000AE05BF0530F287859089A189B2891816A3
:100D000019061A061B065CF487859089A189B289A9
:100D10000197A109B1098787908BA18BB28B878935
:100D2000908DA18DB28D0196A11DB11D878B908FE5
:100D3000A18FB28F83859485A585B685C780D08421
:100D4000E184F2848C0D9D1DAE1DBF1D83879487A9
:100D5000A587B6874783508761877287038CF48D98
:100D6000E02D309709F48DCF099580910102909183
:100D70000202A0910302B09104020196A11DB11DCF
:100D80008093010290930202A0930302B0930402A5
:100D900078CF209709F406CF0E943F01882309F4F9
:100DA00001CF0E940000FECE8AEC91E00C9401027B
:100DB0000E94EC060C94D4070E94CD0758F00E94C4
:100DC000C60740F029F45F3F29F00C94BD0751118C
:100DD0000C9408080C94C3070E94E50768F3992354
:100DE000B1F3552391F3951B550BBB27AA27621727
:100DF0007307840738F09F5F5F4F220F331F441F34
:100E0000AA1FA9F335D00E2E3AF0E0E832D0915067
:100E10005040E695001CCAF72BD0FE2F29D0660F54
:100E2000771F881FBB1F261737074807AB07B0E897
:100E300009F0BB0B802DBF01FF2793585F4F3AF09D
:100E40009E3F510578F00C94BD070C9408085F3F55
:100E5000E4F3983ED4F3869577956795B795F79523
:100E60009F5FC9F7880F911D9695879597F908950B
:100E7000E1E0660F771F881FBB1F621773078407A7
:100E8000BA0720F0621B730B840BBA0BEE1F88F7B6
:100E9000E09508950E9451076894B1110C940808D8
:100EA00008950E94ED0788F09F5798F0B92F992771
:100EB000B751B0F0E1F0660F771F881F991F1AF045
:100EC000BA95C9F714C0B13091F00E940708B1E09B
:100ED00008950C940708672F782F8827B85F39F09A
:100EE000B93FCCF3869577956795B395D9F73EF4DE
:100EF00090958095709561957F4F8F4F9F4F089586
:100F0000E89409C097FB3EF49095809570956195A3
:100F10007F4F8F4F9F4F9923A9F0F92F96E9BB2759
:100F20009395F695879577956795B795F111F8CFD5
:100F3000FAF4BB0F11F460FF1BC06F5F7F4F8F4F40
:100F40009F4F16C0882311F096E911C0772321F036
:100F50009EE8872F762F05C0662371F096E8862FCE
:100F600070E060E02AF09A95660F771F881FDAF725
:100F7000880F9695879597F9089597F99F6780E868
:100F800070E060E008959FEF80EC089500240A94DB
:100F90001616170618060906089500240A94121654
:100FA0001306140605060895092E0394000C11F487
:100FB000882352F0BB0F40F4BF2B11F460FF04C034
:100FC0006F5F7F4F8F4F9F4F089557FD9058440F8D
:100FD000551F59F05F3F71F04795880F97FB991F98
:100FE00061F09F3F79F08795089512161306140655
:100FF000551FF2CF4695F1DF08C0161617061806E2
:10100000991FF1CF86957105610508940895E894BC
:10101000BB2766277727CB0197F90895A1E21A2EFF
:10102000AA1BBB1BFD010DC0AA1FBB1FEE1FFF1F8C
:10103000A217B307E407F50720F0A21BB30BE40BDC
:10104000F50B661F771F881F991F1A9469F7609523
:101050007095809590959B01AC01BD01CF010895DD
:10106000EE0FFF1F0590F491E02D09940F931F934D
:10107000CF93DF938230910510F482E090E0E0910D
:101080000702F091080230E020E0B0E0A0E03097E5
:1010900099F42115310509F44AC0281B390B243075
:1010A0003105D8F58A819B816115710589F1FB01B4
:1010B00093838283FE0111C040815181028113819B
:1010C00048175907E0F04817590799F4109761F04D
:1010D00012960C93129713961C933296CF01DF91C0
:1010E000CF911F910F91089500930702109308026A
:1010F000F4CF2115310551F04217530738F0A901FB
:10110000DB019A01BD01DF01F801C1CFEF01F9CF89
:101110009093080280930702CDCFFE01E20FF31FE8
:10112000819391932250310939832883D7CF20911D
:10113000050230910602232B41F4209102013091E7
:1011400003013093060220930502209100013091A3
:1011500001012115310541F42DB73EB7409104013D
:1011600050910501241B350BE0910502F091060218
:10117000E217F307A0F42E1B3F0B2817390778F06E
:10118000AC014E5F5F4F2417350748F04E0F5F1FCD
:101190005093060240930502819391939FCFF0E014
:1011A000E0E09CCFCF93DF930097E9F0FC0132970A
:1011B00013821282A0910702B0910802ED0130E083
:1011C00020E01097A1F420813181820F931F20919C
:1011D0000502309106022817390709F061C0F09323
:1011E0000602E0930502DF91CF910895EA01CE1740
:1011F000DF07E8F54A815B819E0141155105B1F792
:10120000E901FB83EA8349915991C40FD51FEC177B
:10121000FD0761F4808191810296840F951FE90199
:1012200099838883828193819B838A83F0E0E0E0C5
:1012300012968D919C9113970097B9F52D913C9141
:101240001197CD010296820F931F209105023091D4
:1012500006022817390739F6309751F5109208021F
:1012600010920702B0930602A0930502BCCFD3836D
:10127000C28340815181840F951FC817D90761F43B
:101280004E5F5F4F88819981480F591F518340837A
:101290008A819B81938382832115310509F0B0CF28
:1012A000F0930802E09307029ECFFD01DC01C0CF5E
:1012B00013821282D7CF10E0C2E6D0E004C0FE0154
:1012C0000E9430082196C336D107C9F7F894FFCFA2
:1012D000000009028000000000007501D500020135
:1012E000C201330111012501000000000102FD02CD
:0412F0000D0A0000E3
:00000001FF
