:100000000C944D050C9475050C9475050C947505B0
:100010000C9475050C9475050C9475050C94750578
:100020000C9475050C9475050C9475050C94750568
:100030000C9475050C9475050C9475050C94750558
:100040000C9473140C9475050C9475050C9475053B
:100050000C9475050C9475050C9475050C94750538
:100060000C94BD140C94750500000000003E5B4F1D
:100070005B3E3E6B4F6B3E1C3E7C3E1C183C7E3C08
:10008000181C577D571C1C5E7F5E1C00183C180016
:10009000FFE7C3E7FF0018241800FFE7DBE7FF30A6
:1000A000483A060E2629792926407F050507407F14
:1000B00005253F5A3CE73C5A7F3E1C1C08081C1C87
:1000C0003E7F14227F22145F5F005F5F06097F017D
:1000D0007F006689956A606060606094A2FFA29468
:1000E00008047E040810207E201008082A1C080836
:1000F0001C2A08081E101010100C1E0C1E0C303884
:100100003E3830060E3E0E06000000000000005F84
:1001100000000007000700147F147F14242A7F2AA0
:100120001223130864623649562050000807030062
:10013000001C2241000041221C002A1C7F1C2A08AE
:10014000083E080800807030000808080808000011
:1001500060600020100804023E5149453E00427F85
:10016000400072494949462141494D331814127FD4
:100170001027454545393C4A494931412111090774
:100180003649494936464949291E000014000000F5
:1001900040340000000814224114141414140041C7
:1001A00022140802015909063E415D594E7C121184
:1001B000127C7F494949363E414141227F414141BC
:1001C0003E7F494949417F090909013E4141517337
:1001D0007F0808087F00417F41002040413F017FA8
:1001E000081422417F404040407F021C027F7F0470
:1001F00008107F3E4141413E7F090909063E4151B9
:10020000215E7F09192946264949493203017F01A8
:10021000033F4040403F1F2040201F3F4038403FA9
:10022000631408146303047804036159494D4300BF
:100230007F4141410204081020004141417F0402F6
:10024000010204404040404000030708002054548D
:1002500078407F284444383844444428384444286B
:100260007F385454541800087E090218A4A49C78BE
:100270007F0804047800447D40002040403D007F1A
:100280001028440000417F40007C047804787C08FA
:100290000404783844444438FC18242418182424CE
:1002A00018FC7C08040408485454542404043F44B3
:1002B000243C4040207C1C2040201C3C4030403CE2
:1002C00044281028444C9090907C4464544C440042
:1002D00008364100000077000000413608000201A6
:1002E0000204023C2623263C1EA1A161123A404092
:1002F000207A38545455592155557941225454780F
:1003000042215554784020545579400C1E527212A7
:100310003955555559395454545939555454580030
:1003200000457C410002457D420001457C407D1234
:1003300011127DF0282528F07C5455450020545496
:100340007C547C0A097F4932494949323A44444441
:100350003A324A4848303A4141217A3A424020787C
:10036000009DA0A07D3D4242423D3D4040403D3C7D
:1003700024FF2424487E4943662B2FFC2F2BFF09A2
:1003800029F620C0887E0903205454794100004496
:100390007D413048484A32384040227A007A0A0A81
:1003A000727D0D19317D2629292F282629292926F4
:1003B00030484D4020380808080808080808382F39
:1003C00010C8ACBA2F102834FA00007B00000814C3
:1003D0002A142222142A14085500550055AA55AA99
:1003E00055AAFF55FF55FF000000FF00101010FF39
:1003F00000141414FF001010FF00FF1010F010F094
:10040000141414FC001414F700FF0000FF00FF1484
:1004100014F404FC141417101F10101F101F1414D0
:10042000141F00101010F0000000001F101010101A
:100430001F10101010F010000000FF10101010100E
:1004400010101010FF10000000FF140000FF00FF4C
:1004500000001F10170000FC04F4141417101714E8
:1004600014F404F40000FF00F7141414141414140A
:10047000F700F7141414171410101F101F1414147D
:10048000F4141010F010F000001F101F0000001FE7
:1004900014000000FC140000F010F01010FF10FF1A
:1004A000141414FF141010101F00000000F010FFAF
:1004B000FFFFFFFFF0F0F0F0F0FFFFFF0000000093
:1004C00000FFFF0F0F0F0F0F3844443844FC4A4A17
:1004D0004A347E02020606027E027E0263554941CC
:1004E000633844443C04407E201E2006027E020203
:1004F00099A5E7A5991C2A492A1C4C7201724C3017
:100500004A4D4D303048784830BC625A463D3E49ED
:100510004949007E0101017E2A2A2A2A2A44445F91
:10052000444440514A444040444A51400000FF0185
:1005300003E080FF000008086B6B08361236243693
:10054000060F090F060000181800000010100030F8
:1005500040FF0101001F01011E00191D1712003C80
:100560003C3C3C0000000000000103070F1F3F7FE0
:100570000080C0E0F0F8FCFE00000008000201006E
:10058000000304070000000000000000DB40A4A6F8
:100590002EAF2000A1C8D300408DAED580A80000AA
:1005A000600000000000000000000000000000E00B
:1005B0000000000000000000000000000001E0005A
:1005C00000000000000000000000000001F000003A
:1005D000000000000000000000000003F000000028
:1005E0000000000000000000000007F00000000014
:1005F00000000000000000000007F80000000000FC
:1006000000000000000000000FF800000003C00020
:100610007E000001E0007F0FF800000003C000FE34
:10062000000001E000FFEFF800000003C000FE0042
:100630000001E000FFFFF800000003C000F0000030
:10064000000F007FFE7FC0000003C000F00000002C
:100650000F003FFE7FF83FF1FBCFFCFEF3BC3DEF08
:10066000E01FFE7FFF7FFBFFDFFEFEFFBC3DEFE0F4
:100670001FC6FFFF7FFBFFDFFEFEFFBC3DEFE00F6D
:10068000E3C7FE787BC3DE1EF0FFBC3DEF0007FF33
:1006900087FC787BC3DE1EF0F83C3DEF0001FFFFD6
:1006A000F0007BC3C01EF0F03C3DEF0001F37FE0A3
:1006B0003FFBC3CFFEF0F03C3DEF0003E33F807F04
:1006C000FBC3DFFEF0F03C3DEF0007E73C00787B2A
:1006D000C3DE1EF0F03C3DEF0007FFBE00787BC399
:1006E000DE1EF0F03C3DEF0007FFFE00787BC3DE2E
:1006F0001EF0F03C3DEF000FFFFE007FFBFFDFFE32
:10070000F0F03FFDEFE00FFFFF007FFBFFDFFEF0AB
:10071000F03FFDEFE00FF9FF003E79F9CF9EF0F0DA
:100720001F3DE7E01FF1FF00000000000000000097
:100730000000001F80FF007FFFFFFFFFFFFFFFFFA4
:10074000FFE01C007F007FFFFFFFFEB46D888D1867
:10075000E000001F007FFFFFFFFE95AD7DB577E055
:1007600000000F007FFFFFFFFEA5AD9D8D19E0008B
:100770000006007FFFFFFFFEB5ADEDB57EE0000097
:100780000000000180000000000000000000038065
:1007900000000000000000000007C0000000000092
:1007A0000000000007C00000000000000000000F73
:1007B000C00000000000000000001FE0000000007A
:1007C00000000000001FE00000000000000000002A
:1007D0003FE00000000000000000003FF0000000CB
:1007E0000000000000007FF0000000000000001F7B
:1007F000F87FF0000000000000003FFE7FF00000E6
:1008000000000000003FFF7FF0000000000000003B
:100810001FFFFBE0000000000000000FFFF9FFC019
:100820000000000000000FFFF9FFF80000000000CA
:100830000007FFF1FFFF00000000000003FC73FF52
:10084000FF80000000000001FE3FFFFF800000006D
:10085000000000FF1E0FFF000000000000007FFEF0
:100860001FFC000000000000003FFFFFF800000038
:10087000000000000FDFFFE0000000000000001F8C
:1008800019FFC0000000000000003F3CFF00000016
:1008900000000000007E7CF8000000000000000066
:1008A0007FFE7C0000000000000000FFFFFC000055
:1008B000000000000000FFFFFE000000000000003C
:1008C00000FFFFFE0000000000000001FFEFFE003F
:1008D00000000000000001FFCFFE0000000000004B
:1008E0000003FF07FE0000000000000003FC07FEFD
:1008F0000000000000000003F003FE000000000004
:100900000000018000FE0000000000000000000068
:100910007E000000000000000000003E000000001B
:100920000000000000000C00000000000007800034
:10093000FC000003C0000000078001FC000003C0B1
:10094000000000078001FC000003C00000000780D9
:1009500001E00000001E000000078001E000000030
:100960001E007FE3F79FF9FDE7787BDFC0FFF7FF0D
:10097000BFFDFDFF787BDFC0FFF7FFBFFDFDFF7808
:100980007BDFC0F0F787BC3DE1FF787BDE00F0F74E
:1009900087BC3DE1F0787BDE0000F787803DE1E039
:1009A000787BDE007FF7879FFDE1E0787BDE00FF4C
:1009B000F787BFFDE1E0787BDE00F0F787BC3DE123
:1009C000E0787BDE00F0F787BC3DE1E0787BDE007D
:1009D000F0F787BC3DE1E0787BDE00FFF7FFBFFD6D
:1009E000E1E07FFBDFC0FFF7FFBFFDE1E07FFBDF62
:1009F000C07CF3F39F3DE1E03E7BCFC000000000F0
:100A000000000000000000FFFFFFFFFFFFFFFFFFEF
:100A1000FFC0FFFFFFFFFD68DB111A31C0FFFFFFC2
:100A2000FFFD2B5AFB6AEFC0FFFFFFFFFD4B5B3B57
:100A30001A33C0FFFFFFFFFD6B5BDB6AFDC000FFE9
:100A40002F2700012F2900A300012F2A00A3000057
:100A5000000000250028002B0000000000240027D3
:100A6000002A000404040404040404020202020232
:100A70000203030303030301020408102040800162
:100A800002040810200102040810202200FF2100A7
:100A900000FF2F260000DC15F41A11241FBECFEF33
:100AA000D8E0DEBFCDBF11E0A0E0B1E0E2EDF8E3B9
:100AB00002C005900D92A43AB107D9F722E0A4EA4A
:100AC000B1E001C01D92A83BB207E1F715E0CCE40C
:100AD000D5E004C02197FE010E94251BCB34D1072D
:100AE000C9F70E9427160C945C1C0C94000090E03F
:100AF000FC01E958F54F24918D59954FFC018491E3
:100B0000882399F090E0880F991FFC01E75AF54F70
:100B1000A591B491FC01E15BF54F859194918FB75C
:100B2000F894EC91E22BEC938FBF0895089508950B
:100B30000895AF92BF92CF92DF92EF92FF920F9300
:100B40001F93CF93DF936C017B018B01040F151F63
:100B5000EB015E01AE18BF08C017D10759F06991CB
:100B6000D601ED91FC910190F081E02DC60109952F
:100B7000892B79F7C501DF91CF911F910F91FF90DC
:100B8000EF90DF90CF90BF90AF90089590E0FC0180
:100B9000E858FA4F2491FC01E958F54F3491FC01D3
:100BA000ED59F54FE491EE23C9F0222339F02330BB
:100BB00001F1A8F4213019F1223029F1F0E0EE0F13
:100BC000FF1FE15BF54FA591B4918FB7F894EC91BD
:100BD000611126C030953E233C938FBF0895273086
:100BE000A9F02830C9F0243049F7809180008F7D2A
:100BF00003C0809180008F7780938000DFCF84B521
:100C00008F7784BDDBCF84B58F7DFBCF8091B00023
:100C10008F778093B000D2CF8091B0008F7DF9CFD5
:100C20003E2BDACF3FB7F8948091590290915A0247
:100C3000A0915B02B0915C0226B5A89B05C02F3F36
:100C400019F00196A11DB11D3FBFBA2FA92F982FF2
:100C50008827BC01CD01620F711D811D911D42E0ED
:100C6000660F771F881F991F4A95D1F708958F92B5
:100C70009F92AF92BF92CF92DF92EF92FF924B0181
:100C80005C010E9412066B017C010E9412066C1925
:100C90007D098E099F09683E734081059105A8F37F
:100CA00021E0821A9108A108B10888EEC80E83E0FD
:100CB000D81EE11CF11C81149104A104B10429F790
:100CC000FF90EF90DF90CF90BF90AF909F908F906C
:100CD0000895EF92FF920F931F93CF93DF93EC0150
:100CE000EC80FD806E157F050CF070C057FF04C0CE
:100CF000240F351F50E040E08E819F81FA01E20F02
:100D0000F31F8E179F071CF49C01241B350B121632
:100D100013060CF05BC0922F842F869586958695DE
:100D20008E9DD0018F9DB00D11246A0F7B1FAF8D5A
:100D3000B8A1A60FB71F477049F188E0841B482F60
:100D4000682F70E0FB01E059FA4FE491281708F092
:100D500063C0621B71092FEF30E002C03595279503
:100D60006A95E2F7E2230130110539F0B0F1023063
:100D7000110561F58C91E82702C08C91E82BEC936A
:100D8000941720F12C813D81A20FB31FE92FE41BA2
:100D9000E83078F00230110521F58E2F9C91909566
:100DA0009C932C813D81A20FB31F88508830B0F7EF
:100DB000E770EE2359F0F0E0E859FA4FE491013082
:100DC0001105F9F010F10230110519F1DF91CF9101
:100DD0001F910F91FF90EF900895E0958C91E8237B
:100DE000CECF81E00115110509F480E081959E2F99
:100DF0008C932C813D81A20FB31F98509830C0F77F
:100E0000D7CF8C91E82BEC93E1CFE0958C91E82340
:100E1000FACF8C91E827F7CF0130110509F4ADCF57
:100E2000E0F20230110509F4A5CFAE0DBF1DAECF23
:100E30000F931F93CF93DF9377FF04C0260F371FC5
:100E400070E060E0DC011496CD91DC91FB01E20FD3
:100E5000F31FCE17DF071CF49E01261B370B12165B
:100E600013064CF5FA0157FD3796A3E0F595E79583
:100E7000AA95E1F7EC9FD001ED9FB00DFC9FB00D5E
:100E800011246A0F7B1FDC015F96ED91FC91E60F48
:100E9000F71F4770552781E090E001C0880F4A9501
:100EA000EAF7482F0130110559F0A8F02E0F3F1F27
:100EB00002301105E1F0DF91CF911F910F9108955C
:100EC0002E0F3F1FE217F307B1F38191DF01119756
:100ED000842B8C93F7CF80952E0F3F1FE217F307DB
:100EE00051F39191DF01119798239C93F7CFE2176B
:100EF000F30709F38191DF01119784278C93F7CFD2
:100F00000F931F93FA01DC0156964C91569742308D
:100F1000E9F04330A1F1413061F514964D915C91B7
:100F2000DA01AE1BBF0BFD01E21BF30B77FD0BC01B
:100F3000DC0116964D915C916417750724F4AB01A2
:100F4000BF010E9418071F910F91089514964D91AB
:100F50005C91DA01A61BB70BBD0161507109DC0180
:100F600016964D915C91DA01AE1BBF0BFD01E21BA1
:100F7000F30B77FDE8CFAF010E946906E4CF169628
:100F80004D915C91DA01A61BB70BBD01615071094F
:100F9000CDCF0F931F93FA01DC0156964C915697D3
:100FA0004230A9F0433091F1413019F514964D913A
:100FB0005C91DA01AE1BBF0BFD013197F7FD04C058
:100FC000AB01BF010E9469061F910F91089514960D
:100FD0004D915C91DA01A61BB70BBD01DC011696A1
:100FE0004D915C91DA01AE1BBF0BFD013197621B85
:100FF000730BF7FDE9CFDC0116964D915C91E41778
:10100000F50714F7AF010E941807DECF16964D9131
:101010005C91DA01A61BB70BBD01621B730BCECF2F
:10102000FC0177FD64C080859185681779070CF015
:101030005EC057FD5CC082859385481759070CF048
:1010400056C086898230B1F0833029F1813041F475
:1010500084819581841B950BAB01BC0161507109A2
:101060002130310509F108F443C02230310509F47B
:1010700063C0089584819581DC01A61BB70BBD0177
:101080006150710986819781DC01A41BB50BAD010C
:1010900041505109E5CF86819781861B970BBA0194
:1010A000AC0141505109DCCFCA0157FD0796A3E0BE
:1010B00095958795AA95E1F7A481B5818A9F9001BE
:1010C0008B9F300D9A9F300D1124620F731F078C78
:1010D000F0A1E02DE60FF71F4770552721E030E023
:1010E00001C0220F4A95EAF78081822B8083089500
:1010F000CA0157FD079633E0959587953A95E1F734
:10110000A481B5818A9F90018B9F300D9A9F300DED
:101110001124620F731F078CF0A1E02DE60FF71F5B
:101120004770552781E090E001C0880F4A95EAF7A3
:10113000809590818923DACFCA0157FD079623E075
:10114000959587952A95E1F7A481B5818A9F9001AD
:101150008B9F300D9A9F300D1124620F731F078CE7
:10116000F0A1E02DE60FF71F4770552721E030E092
:1011700001C0220F4A95EAF780818227B7CF0895F0
:101180008EBD00000DB407FEFDCF8EB508958CBD59
:101190009DBD08950895FC016370668B84819581DF
:1011A00026813781613039F0633029F0918780875B
:1011B0003387228708953187208793878287089510
:1011C0002F923F924F925F926F927F928F929F9257
:1011D000AF92BF92CF92DF92EF92FF920F931F9345
:1011E000CF93DF93CDB7DEB76A970FB6F894DEBF23
:1011F0000FBECDBF9A8F898F7A8369834A01D22E21
:1012000018870F833701BC2CDC0159962D913C9136
:101210005A972115310509F015C118968D919C91A9
:101220001997681779070CF0D7C11A968D919C9180
:10123000481759070CF0D0C14C2C512CB6E0CB9E6E
:10124000600D711D11247C876B87161617060CF034
:10125000C3C1EA2DF0E0FA87E98793E0EE0FFF1FA4
:101260009A95E1F7F88BEF87CF01840F951F181639
:1012700019060CF0B1C1A98DBA8D58968C918111C7
:1012800004C0BFEABD1508F4D394A98DBA8DED91C1
:10129000FC9111970284F385E02DCD010995B5E00D
:1012A000DB9EC0011124E981FA81FC83EB83312CA0
:1012B000212C9C0128593F4F388F2F8B4A2D50E00D
:1012C0005E8B4D8BEF89F88DE20DF31D44919E826C
:1012D0008D82D12CC12C69817A81620D731D7A8B2C
:1012E000698B842F90E09C8B8B8BE98DFA8DA0818C
:1012F000B18140FF82C0F1E0BF126FC0AF126DC07C
:101300001C96ED91FC912F813885A4014C0D5D1D3B
:1013100069897A89898D9A8D0995EB89FC89F5957A
:10132000E7954E2F5FEFC51AD50A6D817E818D89B5
:101330009E89680F791F7E836D8398E0C916D1045A
:1013400081F6AFEF2A1A3A0AEB81FC81E40DF51D14
:10135000FC83EB83F5E02F16310409F0B3CF2F8126
:10136000388526153705B9F0A98DBA8DED91FC9118
:10137000B1E0BB1257C0AB1255C069817A816B5F77
:101380007F4F0088F189E02D830128E030E0A4013F
:10139000898D9A8D0995A98DBA8DED91FC91119742
:1013A0000688F789E02DCD016A960FB6F894DEBF66
:1013B0000FBECDBFDF91CF911F910F91FF90EF90A6
:1013C000DF90CF90BF90AF909F908F907F906F9065
:1013D0005F904F903F902F9009941E96ED91FC9155
:1013E000EF80F88409851A8592014D815E816B81B9
:1013F0007C81898D9A8D099590CF2F81388526150E
:10140000370509F48ACF31E0B31207C0A31205C033
:101410001C96ED91FC91930178CF1E96ED91FC9175
:101420007301E0CF6B857C85641975090684F785A7
:10143000E02D73010F8518899201A401898D9A8D81
:101440000995A9CFF9013496949132974591549119
:10145000D91AB7E0DB9E400D511D1124F9012591E9
:1014600034913C8B2B8BFA0125903490FA01329603
:10147000749031963491398B3296649031964490C1
:1014800041E04C1518F04A1508F07FC0662D062C77
:10149000000C770B7C836B83842D042C000C990B40
:1014A0009E838D83A98DBA8DED91FC911197028455
:1014B000F385E02DCD010995512CD12CC12CEA2DBD
:1014C000F0E0FA87E9872B2D30E03C872B87A401D9
:1014D000440D511D47FC5A95588F4F8B69817A8175
:1014E000660D711D67FC7A957E876D877989C716B1
:1014F00008F051CF2C2D30E04D815E81420F531FFB
:10150000A985BA854A9FC0014B9F900D5A9F900DA7
:101510001124FC01E80DF91DF88BEF87852D612C56
:101520004F89588D420F531F5E8B4D8B671408F007
:1015300050C044244394480E877041F4C101019681
:10154000EB89FC89E20DF31DD4901C01D7FE19C074
:10155000A98DBA8DED91FC91662D70E0B1E0BB12C2
:1015600019C0AB1217C02D853E85620F731F04840E
:10157000F585E02D2F8138854D895E89898D9A8D7D
:101580000995DD0C6394842DD1CF1E821D821C82AF
:101590001B8288CF4B815C81640F751FAB85BC8536
:1015A0006A9FC0016B9F900D7A9F900D11246981F5
:1015B0007A81680F791F0684F785E02DEF80F88423
:1015C00009851A859D014F855889898D9A8D0995C0
:1015D000D8CF570CC3948ACF6A960FB6F894DEBF63
:1015E0000FBECDBFDF91CF911F910F91FF90EF9074
:1015F000DF90CF90BF90AF909F908F907F906F9033
:101600005F904F903F902F9008958F929F92AF924E
:10161000CF92EF92FF920F931F93CF93DF93EC0142
:10162000262F898D9A8D009709F051C06A30D1F428
:101630001D861C868D8948E0849F900111248E852B
:101640009F85820F931F9F878E8781E090E0DF91B7
:10165000CF911F910F91FF90EF90CF90AF909F90FF
:101660008F9008956D3089F3CC88AD888F89882359
:10167000C1F08C859D8536E0C39E800D911D11249F
:10168000488559854817590764F44E855F851D863E
:101690001C8638E0A39EC0011124840F951F9F87EC
:1016A0008E87EA88FB88088919894E855F856C8555
:1016B0007D85CE010E94E0082C898C859D8546E0C1
:1016C000249F800D911D11249D878C87BECF6A3089
:1016D00069F41D861C86FC013896E4912D898E855F
:1016E0009F85E29F800D911D1124ADCF6D3009F4CF
:1016F000ACCFFC0134963491631708F4A6CF329630
:10170000E491E61708F4A1CFFC01329685909490FD
:10171000462F431B342F47E0349F800C911C11242B
:10172000F401329634913196E4913323A9F1EE23FA
:1017300099F1CC88F4013596E491AD884F89442322
:1017400001F10E2E000CFF0BE30FF11DCE9EA00148
:10175000CF9E500D11246C857D85460F571F6885DF
:101760007985641775076CF44E855F851D861C8628
:10177000FC013896E491AE9E400D511D11245F8707
:101780004E87EA88FB88088919894E855F856C85B4
:101790007D85CE010E94E008F4013496E4912C8905
:1017A0008C859D85E29F800D911D11248DCF6F92B8
:1017B0007F928F929F92AF92BF92CF92DF92EF92E1
:1017C000FF920F931F93CF93DF93EC016B015A01AC
:1017D00039014801E881F9810284F385E02D0995FA
:1017E000E881F9810288F389E02D87019301A50141
:1017F000B601CE010995A501480D591D4150510969
:10180000E881F9810288F389E02D9301B601CE01C8
:101810000995E881F9810088F189E02D9401A501FD
:10182000B601CE010995C60CD71CB60161507109ED
:10183000E881F9810088F189E02D9401A501CE01AC
:101840000995E881F9810688F789E02DCE01DF91BD
:10185000CF911F910F91FF90EF90DF90CF90BF90AD
:10186000AF909F908F907F906F9009946F927F922E
:101870008F929F92AF92BF92CF92DF92EF92FF92A0
:101880000F931F93CF93DF935C01EB016A01490132
:1018900038018701DC01ED91FC916217730719F59E
:1018A000641675062CF0962D872D3A01C92ED82E78
:1018B0009601261937092F5F3F4F048CF58DE02DD7
:1018C000A301BE01C5010995DF91CF911F910F9131
:1018D000FF90EF90DF90CF90BF90AF909F908F9050
:1018E0007F906F9008954615570591F42617370796
:1018F00024F0892D4B01C22FD82F9E0128193909B8
:101900002F5F3F4F068CF78DE02DA601B401DACF93
:101910000284F385E02D0995D501ED91FC910488B1
:10192000F589E02D83019401A601BE01C501099549
:10193000D501ED91FC910688F789E02DC501DF9175
:10194000CF911F910F91FF90EF90DF90CF90BF90BC
:10195000AF909F908F907F906F900994EF92FF923D
:101960000F931F93DC011A960D911C911B971896EB
:101970002D913C911997ED91FC9100A0F1A1E02DE2
:101980007B0150E040E070E060E009951F910F910D
:10199000FF90EF9008954F925F926F927F928F9297
:1019A0009F92AF92BF92CF92DF92EF92FF920F93EE
:1019B0001F93CF93DF936C012B015A01390148012A
:1019C000DC01ED91FC910284F385E02D0995E201A3
:1019D000640C751CD601ED91FC91C615D7055CF41D
:1019E0000088F189E02D87019401A501BE01C6019F
:1019F00009952196EFCF0688F789E02DC601DF9182
:101A0000CF911F910F91FF90EF90DF90CF90BF90FB
:101A1000AF909F908F907F906F905F904F900994C0
:101A20008F929F92AF92BF92CF92DF92EF92FF92EE
:101A30000F931F93CF93DF93EC015B014A01690180
:101A4000E881F9810284F385E02D099595012C0D3B
:101A50003D1D21503109E881F9810488F589E02D87
:101A600078018401A401B501CE010995E881F981CD
:101A70000688F789E02DCE01DF91CF911F910F915C
:101A8000FF90EF90DF90CF90BF90AF909F908F909E
:101A900009948F929F92AF92BF92CF92DF92EF9272
:101AA000FF920F931F93CF93DF93EC015B014A01E9
:101AB00069017801E881F9810284F385E02D0995B7
:101AC000C80CD91C860101501109E881F9810488EC
:101AD000F589E02D9501A401B501CE010995E881B4
:101AE000F9810688F789E02DCE01DF91CF911F9112
:101AF0000F91FF90EF90DF90CF90BF90AF909F90AD
:101B00008F900994EF92FF920F931F93DC01ED9158
:101B1000FC9100A0F1A1E02D09951F910F91FF907C
:101B2000EF9008950F931F93DC01ED91FC91068CCB
:101B3000F78DE02D09951F910F9108950F931F9335
:101B4000DC01ED91FC91048CF58DE02D09951F9140
:101B50000F910895DC01ED91FC910084F185E02D59
:101B600009943F924F925F926F927F928F929F92D1
:101B7000AF92BF92CF92DF92EF92FF920F931F939B
:101B8000CF93DF935C017B014A016901390187E052
:101B9000680E711C93E0759467949A95E1F72B0198
:101BA000400E511E10E000E0312CD0E0C0E0CE012C
:101BB00087709927330C892B59F4FE0183E0F59542
:101BC000E7958A95E1F7E00FF11FE80DF91D3490D4
:101BD00037FE0AC021E030E0A701B5016C0F7D1F80
:101BE00084E792E00E94AA0D2196CC16DD06F9F654
:101BF0008FEFE81AF80A060D171DE414F504A9F68C
:101C0000DF91CF911F910F91FF90EF90DF90CF90D8
:101C1000BF90AF909F908F907F906F905F904F900C
:101C20003F9008952F923F924F925F926F927F92D2
:101C30008F929F92AF92BF92CF92DF92EF92FF92DC
:101C40000F931F93CF93DF9300D000D000D0CDB778
:101C5000DEB73C016A013E832D83FC82EB82580192
:101C6000A41AB50AB7FE03C0B194A194B1088D803F
:101C70009E80861A970A97FE03C0919481949108DA
:101C80008A149B045CF0902F812F0D811E819D830F
:101C90008E839C2D8D2D6B01692F782F0C151D05C2
:101CA0005CF09D818E817E836D83692F782F902FCC
:101CB000812F8601C92ED82E1601201A310A2B0138
:101CC0002D813E81421A530A57FE03C0519441941C
:101CD0005108710137FE03C03FEFE31AF30AF59490
:101CE000E7948D819E81861797075CF5A1E0B0E0AF
:101CF000BA83A983C016D1064CF1D301ED91FC91B2
:101D00000484F585E02D2B813C81A8016D817E81C5
:101D10008A149B041CF04D815E81B801C3010995B2
:101D2000E418F508F7FE0AC02D813E8189819A8169
:101D3000280F391F3E832D83E20CF31C0F5F1F4FCA
:101D4000D9CF2FEF3FEF3A832983D4CF26960FB612
:101D5000F894DEBF0FBECDBFDF91CF911F910F91E1
:101D6000FF90EF90DF90CF90BF90AF909F908F90BB
:101D70007F906F905F904F903F902F9008950895BF
:101D800020910A02260F3327331F21323105ECF44C
:101D900020912E02FC0190E080E0243069F082E086
:101DA0000895A0910A022191AC0146515E4FA40F03
:101DB000B52FB11D2C930196861798F380910A02D6
:101DC000680F60930A0280E0089581E008959B0106
:101DD000AC0160E074E284EF90E00E94031B2051AC
:101DE0003109410951095695479537952795209313
:101DF000B800089510922E0281E080933002109274
:101E00002F0261E082E10E94C60561E083E10E9449
:101E1000C605E9EBF0E080818E7F808380818D7F35
:101E2000808388E48093B80085E48093BC000895A3
:101E3000CF93DF9391E09093E9018823B9F0C091AB
:101E4000B800D091BA008091BC008A7B8093BC001E
:101E500060E082E10E94C60560E083E10E94C60561
:101E60000E94FA0ED093BA00C093B800DF91CF91D0
:101E70000895E091630280916202E81730F4F0E087
:101E8000EC53FE4F808190E008958FEF9FEF08950F
:101E900090916302809162022FEF3FEF981748F410
:101EA000E92FF0E0EC53FE4F208130E09F5F9093EC
:101EB0006302C90108958091620290916302891BB7
:101EC000990B0895CF92DF92EF92FF920F931F9399
:101ED000CF93DF937C01CB018A01209167022223FB
:101EE00089F0EB016B01C40ED51ECC15DD0569F040
:101EF0006991D701ED91FC910190F081E02DC7012E
:101F00000995F3CF642F0E94C00EC801DF91CF91D5
:101F10001F910F91FF90EF90DF90CF900895CF9396
:101F2000DF931F92CDB7DEB769832091670222232A
:101F3000F9F020916402203258F021E030E0FC01F9
:101F40003383228390E080E00F90DF91CF9108955A
:101F500080916502E82FF0E0EC55FE4F9981908367
:101F60008F5F809365028093640281E090E0ECCF04
:101F700061E0CE0101960E94C00EF7CFCF92DF92B2
:101F8000EF92FF920F931F93CF93DF93D091640250
:101F900081E0D13208F09CC0C09166020E94120616
:101FA0006B017C0180912E0281116CC082E08093D4
:101FB0002E0281E0809330028FEF80932D021092E9
:101FC0005202D0935102A4EAB1E0E1E3F2E080E0F2
:101FD000D8138DC01092530280915302CC0FC82B9E
:101FE000C093530280912F02813009F084C0109277
:101FF0002F020E9412066B017C0180915302809394
:10200000BB008091E5019091E601A091E701B091BC
:10201000E801892B8A2B8B2BA1F00E9412060091DC
:10202000E5011091E6012091E7013091E8016C197A
:102030007D098E099F09061717072807390708F435
:1020400042C08091BC0083FDD8CF85EC8093BC005A
:102050000E9412066B017C0180912E02823009F4ED
:102060004CC080912D028F3F09F469C080912D02F0
:10207000803209F466C080912D02803309F463C078
:1020800084E026C08091E5019091E601A091E701EE
:10209000B091E801892B8A2B8B2B09F483CF0E9406
:1020A00012060091E5011091E6012091E7013091BF
:1020B000E8016C197D098E099F0906171707280783
:1020C000390708F06FCF8091E4010E94180F85E076
:1020D000109265021092640210926702DF91CF9114
:1020E0001F910F91FF90EF90DF90CF9008959D91F9
:1020F00091938F5F6DCF85EEA9CF8091E50190918F
:10210000E601A091E701B091E801892B8A2B8B2B86
:1021100009F4A2CF0E9412060091E5011091E60198
:102120002091E7013091E8016C197D098E099F0922
:10213000061717072807390708F08ECFC4CF80E0AD
:10214000C7CF82E0C5CF83E0C3CFEF92FF920F935A
:102150001F93CF93DF937C01C62F809191029091C2
:102160009202009709F459C02091950231E0309312
:102170006702209366021092650210926402DC01ED
:10218000ED91FC910190F081E02D60E009958701CF
:10219000EE24E394F12CD1E0C15080919102909112
:1021A0009202CF3F91F1B0E2EB16F104D8F00E9419
:1021B000BE0F809191029091920220919502D0934E
:1021C0006702209366021092650210926402DC019D
:1021D000ED91FC910190F081E02D60E00995EE24F5
:1021E000E394F12C8091910290919202F801649114
:1021F000DC01ED91FC910190F081E02D0995BFEF9C
:10220000EB1AFB0A0F5F1F4FC7CFDF91CF911F91D2
:102210000F91FF90EF900C94BE0FE091A102F0910E
:10222000A20290818091A7028095892380838701F3
:10223000C15008F438C0F801849120918F02309188
:102240009002232B29F00E94C0080F5F1F4FF0CF90
:1022500028E030E040E8E0919D02F0919E029091EC
:10226000A502582F5423D9F05081952B9083E091EB
:102270009F02F091A00290815091A602952B90832D
:10228000E0919F02F091A00250819091A60290955A
:1022900095239083469521503109E9F6D6CF508198
:1022A00090959523E3CFDF91CF911F910F91FF90F0
:1022B000EF9008951F93CF93DF93EC018D8D9E8D4A
:1022C000009721F1162F29A131E030936702209366
:1022D00066021092650210926402DC01ED91FC919D
:1022E0000190F081E02D60E009958D8D9E8DDC01DF
:1022F000ED91FC910190F081E02D612F09958D8D7C
:102300009E8DDF91CF911F910C94BE0FADA5BEA500
:102310009C918BA9809589238C938B8D9C8D892B87
:1023200031F0862FDF91CF911F910C94C00828E0E7
:1023300030E080E8A9A5BAA599A9462F4823C1F0A5
:102340004C91942B9C93ABA5BCA59C914AA9942B32
:102350009C93ABA5BCA54C919AA9909594239C9372
:1023600086952150310931F7DF91CF911F91089562
:102370004C9190959423E6CFCF93C82F80919102F2
:1023800090919202892BA1F16091A9027091AA0209
:102390008091AB029091AC020E94E70E62E083E96B
:1023A0009AE00E94A51060E084E792E00E945A1132
:1023B00060E084E792E00E945A116C2F84E792E07B
:1023C0000E945A1163E080E99AE00E94A510809172
:1023D000910290919202892B11F16091AD0270915E
:1023E000AE028091AF029091B002CF910C94E70EB3
:1023F00080918F0290919002892B31F08091B202EE
:102400009091B3020E94C708E091A302F091A40248
:1024100090818091A802809589238083BFCFE0912D
:10242000A302F091A40280819091A802892B80835D
:10243000CF910895DF92EF92FF920F931F93CF9366
:10244000DF938091910290919202892B09F48AC0C6
:102450006091A9027091AA028091AB029091AC02A6
:102460000E94E70E65E08BE89AE00E94A51060915B
:102470007802615084E792E00E945A1120917A021A
:1024800030917B02C901079697FD079623E0959549
:1024900087952A95E1F72091780230917902829F01
:1024A0008001839F100D929F100D1124C091930203
:1024B000D091940280919102909192020C0F1D1F75
:1024C000009709F480C02091950231E030936702B3
:1024D000209366021092650210926402DC01ED9175
:1024E000FC910190F081E02D60E40995EE24E394E5
:1024F000F12CDD24D39480919102909192020C17DB
:102500001D0709F446C0B0E2EB16F104D8F00E94B2
:10251000BE0F809191029091920220919502D092EB
:102520006702209366021092650210926402DC0139
:10253000ED91FC910190F081E02D60E40995EE248D
:10254000E394F12C80919102909192026991DC01C7
:10255000ED91FC910190F081E02D0995BFEFEB1A10
:10256000FB0AC9CF80918F0290919002892B31F0A4
:102570008091B2029091B3020E94C708E091A30239
:10258000F091A40290818091A80280958923808394
:1025900069CF0E94BE0F8091910290919202892B87
:1025A00009F452C06091AD027091AE028091AF0209
:1025B0009091B002DF91CF911F910F91FF90EF901A
:1025C000DF900C94E70EE091A102F091A2028081CD
:1025D0009091A702892B80830C171D07E1F2899146
:1025E00020918F0230919002232B19F00E94C00895
:1025F000F3CF28E030E040E8E0919D02F0919E02A8
:102600009091A502582F5423D9F05081952B908397
:10261000E0919F02F091A00290815091A602952B2B
:102620009083E0919F02F091A00250819091A602C8
:10263000909595239083469521503109E9F6CCCFAA
:10264000508190959523E3CFE091A302F091A402ED
:1026500080819091A802892B8083DF91CF911F9177
:102660000F91FF90EF90DF900895809191029091EB
:102670009202892BF9F06091A9027091AA028091CF
:10268000AB029091AC020E94E70E6EE284E792E00A
:102690000E945A118091910290919202892B09F126
:1026A0006091AD027091AE028091AF029091B00244
:1026B0000C94E70E80918F0290919002892B31F05B
:1026C0008091B2029091B3020E94C708E091A302E8
:1026D000F091A40290818091A80280958923808343
:1026E000D4CFE091A302F091A40280819091A8023E
:1026F000892B808308951F93CF93DF93EC01162FCE
:102700008D8D9E8D892BC9F06DA97EA98FA998AD5D
:102710000E94E70E66EA111167EACE010E945A1183
:102720008D8D9E8D892BC9F069AD7AAD8BAD9CAD39
:10273000DF91CF911F910C94E70E8B8D9C8D892B8F
:1027400021F08EAD9FAD0E94C708EFA5F8A990813A
:102750008CA9809589238083DDCFEFA5F8A980819E
:102760009CA9892B8083DF91CF911F91089590E0E0
:1027700080E00895FC0101900020E9F73197AF0156
:10278000481B590BBC0184E792E00C9499058F9289
:102790009F92AF92BF920F931F93CF93DF93CDB7CA
:1027A000DEB7A1970FB6F894DEBF0FBECDBF19A25A
:1027B000423008F44AE08E010F5D1F4F842E912CA9
:1027C000B12CA12CA50194010E94031BE62FB90195
:1027D000CA01EA30F4F4E05DD801EE938D01232BB9
:1027E000242B252B79F790E080E0109719F0CD018C
:1027F0000E94BA13A1960FB6F894DEBF0FBECDBFEC
:10280000DF91CF911F910F91BF90AF909F908F90CC
:102810000895E95CE1CFCF93DF930E94BA13EC01F6
:1028200084E491E00E94BA138C0F9D1FDF91CF9139
:10283000089520917A0230917B02C901079697FD95
:10284000079623E0959587952A95E1F720917802E0
:1028500030917902829FA001839F500D929F500D6D
:10286000112470E060E080919302909194020C94A6
:10287000551C0E94501C85ED8093BC008091E501A1
:102880009091E601A091E701B091E8010796A11DA2
:10289000B11D23E0B695A795979587952A95D1F711
:1028A0002091BC0024FD03C010922E020895409197
:1028B000E5015091E6016091E7017091E801452B37
:1028C000462B472B69F30097A105B10541F025E39D
:1028D0002A95F1F700000197A109B109E1CF809194
:1028E000E4010C94180F1F920F920FB60F9211244F
:1028F0002F933F938F939F93AF93BF9380915502F4
:1029000090915602A0915702B09158023091540212
:1029100023E0230F2D3758F50196A11DB11D2093FB
:1029200054028093550290935602A0935702B0939D
:1029300058028091590290915A02A0915B02B09185
:102940005C020196A11DB11D8093590290935A0219
:10295000A0935B02B0935C02BF91AF919F918F9166
:102960003F912F910F900FBE0F901F90189526E862
:10297000230F0296A11DB11DD2CF1F920F920FB649
:102980000F9211242F933F934F935F936F937F93F5
:102990008F939F93AF93BF93EF93FF938091B90071
:1029A000887F803609F44AC0F0F5883209F4A7C060
:1029B00018F5803109F49BC0B8F4882309F4F9C0F4
:1029C000883009F494C0FF91EF91BF91AF919F912E
:1029D0008F917F916F915F914F913F912F910F90C8
:1029E0000FBE0F901F901895883109F488C080326F
:1029F00051F780932D0214C0803409F49DC040F437
:102A00008033B9F38833F9F680932D0285ECB0C09A
:102A1000803509F485C0883509F496C0883499F664
:102A20000E943B14D0CF883909F48CC038F5883720
:102A300029F050F4883611F0803729F683E080932E
:102A40002E0210922C0257C0883809F47BC08039BE
:102A500019F0803809F0B7CF80912C02803208F04D
:102A600071C0E0912C0281E08E0F80932C02809146
:102A7000BB00F0E0E45FFD4F80833DC0803B39F058
:102A8000E0F4803A09F479C0883A09F09CCF84E0F8
:102A900080932E0210920B0210920A02E0916002C3
:102AA000F0916102099580910A0281110FC081E0C5
:102AB00080930A021092EA0109C0803C09F4A6CF73
:102AC000883C09F4A3CF883B09F07DCFE0910B024D
:102AD00081E08E0F80930B02F0E0E651FE4F808183
:102AE0008093BB0090910B0280910A0229C08091D3
:102AF00053028093BB0085EC8093BC0064CF90911F
:102B0000520280915102981758F5E091520281E0EB
:102B10008E0F80935202F0E0EF5CFD4F8081E9CF91
:102B2000E091520281E08E0F809352028091BB00AF
:102B3000F0E0EF5CFD4F8083909152028091510252
:102B40009817C8F285E8D8CFE091520281E08E0F45
:102B5000809352028091BB00F0E0EF5CFD4F8083D8
:102B60008091300281115CCF81E080932F0284EA52
:102B70008093BC0010922E0226CF85EC8093BC007F
:102B800010922E0280912C02803230F4E0912C02BF
:102B9000F0E0E45FFD4F108260912C0270E0E09164
:102BA0005E02F0915F028CE092E0099510922C0297
:102BB0000ACF10922D0234CFA8E6B2E013961C92F1
:102BC0001E92129748EE53E060E070E014964D9329
:102BD0005D936D937C9317978AE091E011969C9397
:102BE0008E93E4E7F2E01382128220E830E035832E
:102BF000248380E290E097838683318720879387C0
:102C00008287168A158614861786168681E0858B3C
:102C1000848B2FEF3FEF338B228B318B208B878B75
:102C2000108E128E118E8CE191E091838083148E30
:102C3000138EB68FA58F10A2178E8FEF84A385A356
:102C400086A387A380A780E586AF17AE0895789402
:102C500084B5826084BD84B5816084BD85B58260A1
:102C600085BD85B5816085BD80916E008160809352
:102C70006E001092810080918100826080938100BB
:102C800080918100816080938100809180008160CB
:102C9000809380008091B10084608093B100809126
:102CA000B00081608093B00080917A00846080934E
:102CB0007A0080917A00826080937A0080917A0015
:102CC000816080937A0080917A00806880937A0096
:102CD0001092C1008091930290919402892B11F17E
:102CE0000E94191420917A0230917B02809178021F
:102CF00090917902213231050CF042C2B901605243
:102D0000710977FF02C06F5F7F4F75956795835795
:102D1000910997FD019600E210E023E730E04EE9CB
:102D200055E041C220917A0230917B02C901079699
:102D300097FD0796B3E095958795BA95E1F72091B1
:102D4000780230917902AC01429FC001439F900DFF
:102D5000529F900D11240E942B1B909394028093FC
:102D60009302892B09F0BCCF0E941914C1E0C093D3
:102D70008802C093890201E010E01093870200935B
:102D800086021093850200938402109281021092B1
:102D900080028CE1E82EF12CF0928302E092820214
:102DA00087E491E00E940B140E941A1260ED77E014
:102DB00080E090E00E9437060E941914109285026C
:102DC000109284021093870200938602109281026F
:102DD00010928002F0928302E092820287E491E0F6
:102DE0000E940B140E941A1260ED77E080E090E0E0
:102DF0000E9437060E9419141093870200938602DE
:102E00001093850200938402109281021092800236
:102E100098E1C92ED12CD0928302C092820212E096
:102E2000109388021093890284E591E00E940B14AC
:102E30000E941A1260ED77E080E090E00E94370671
:102E40000E941914C0938802C093890210928102D3
:102E500010928002F0928302E09282024AE065E1E1
:102E60007DEC8BE597E00E94C71384E491E00E941B
:102E7000BA130E941A1260ED77E080E090E00E94A1
:102E800037060E9419141092810210928002F0926B
:102E90008302E09282028BE591E00E94BA1340E146
:102EA0006FEF70E080E090E00E94C7138EE591E044
:102EB0000E94BA134AE06FEF70E080E090E00E9459
:102EC000C71387E691E00E940B140E941A1260ED6E
:102ED00077E080E090E00E9437060E94191410927B
:102EE000810210928002D0928302C09282021093DB
:102EF00088021093890263E084E792E00E94050B48
:102F00000E941A1260ED77E080E090E00E943706A0
:102F10000E94191410928102109280021092830272
:102F200010928202C0938802C09389028DE691E0DC
:102F30000E940B1482E791E00E940B1489E791E054
:102F40000E940B140E941A1287E00E94BC1160EDCF
:102F500077E080E090E00E9437060E94351368EE2B
:102F600073E080E090E00E9437068091910290919A
:102F70009202892B09F4D5C26091A9027091AA022C
:102F80008091AB029091AC020E94E70E62E081E476
:102F90009AE00E94A51060E084E792E00E945A1136
:102FA00060E084E792E00E945A1167E084E792E0D3
:102FB0000E945A1163E08EE39AE00E94A51080916E
:102FC000910290919202892B09F4C2C26091AD02E4
:102FD0007091AE028091AF029091B0020E94E70E14
:102FE00060ED77E080E090E00E9437060E943513A4
:102FF00068EE73E080E090E00E94370680919102D5
:1030000090919202892B09F4ADC26091A90270914E
:10301000AA028091AB029091AC020E94E70E62E09E
:1030200087E49AE00E94A51060917A0284E792E01A
:103030000E945A1162E085E49AE00E94A51060E0C7
:1030400084E792E00E945A1160E084E792E00E94D7
:103050005A1167E084E792E00E945A1162E083E42B
:103060009AE00E94A5108091910290919202892B82
:1030700009F48FC26091AD027091AE028091AF02EF
:103080009091B0020E94E70E60ED77E080E090E062
:103090000E9437068091910290919202892B09F447
:1030A00082C26091A9027091AA028091AB029091B4
:1030B000AC020E94E70E62E08DE49AE00E94A51047
:1030C00060917A0284E792E00E945A1162E08BE4F8
:1030D0009AE00E94A51060E084E792E00E945A11F5
:1030E00060E084E792E00E945A1167E084E792E092
:1030F0000E945A1162E089E49AE00E94A510809132
:10310000910290919202892B09F464C26091AD0200
:103110007091AE028091AF029091B0020E94E70ED2
:1031200060ED77E080E090E00E9437060E94351362
:103130000E94191410928102109280021092830250
:103140001092820281E0809388028093890284E851
:1031500091E00E940B148BE891E00E940B1485E92A
:1031600091E00E940B140E941A1280E00E94BC1190
:1031700000E010E001151105E9F30E940000FACF0C
:10318000B9016054710977FF02C06F5F7F4F759579
:1031900067958255910997FD019600E410E022E5BC
:1031A00030E04EE757E0959587950E94B10D82E09B
:1031B000809396028091910290919202892B09F45A
:1031C000C2C08CE380939502109263021092620257
:1031D00010926502109264020E94FA0E87E995E04F
:1031E000909361028093600288E995E090935F027A
:1031F00080935E0280919C0287FD1DC00E9477052E
:1032000061E080919C020E94C60561E070E080E070
:1032100090E00E94370660E080919C020E94C60503
:103220006AE070E080E090E00E94370661E0809103
:103230009C020E94C6058091910290919202892B76
:1032400009F438C16091A9027091AA028091AB0281
:103250009091AC020E94E70E64E08AE995E00E943A
:10326000A51060917A02615084E792E00E945A11A1
:1032700064E086E995E00E94A5108091960264E1E1
:10328000813009F460E184E792E00E945A1164E021
:1032900082E995E00E94A5108FE88093B1028091A9
:1032A0007802909179028038910509F01CC18091D3
:1032B0007A0290917B028034910509F024C18091BB
:1032C0009602813009F40DC18FEC8093B102C2E106
:1032D0006AED84E792E00E945A116C2F84E792E035
:1032E0000E945A1161E884E792E00E945A116091AD
:1032F000B10284E792E00E945A1169ED84E792E0FE
:103300000E945A118091960261EF813009F462E2C5
:1033100084E792E00E945A1166E08CE895E00E94F2
:10332000A5108091910290919202892B09F4EFC02F
:103330006091AD027091AE028091AF029091B002A7
:103340000E94E70E11CD80919A020E94770580912C
:103350009B020E94770580919A02082E000C990B1F
:10336000FC01ED59F54FE491F0E0EE0FFF1FE15B3A
:10337000F54F259134913093A2022093A102FC01D4
:10338000E958F54FE491E093A70280919B02082E43
:10339000000C990BFC01ED59F54FE491F0E0EE0FB4
:1033A000FF1FE15BF54FA591B491B093A402A093E8
:1033B000A302FC01E958F54FE491E093A8028C9137
:1033C000E82BEC9380918F0290919002892B89F1E8
:1033D000CFB7F89480915D02811124C0EDE6FAE048
:1033E0008491E1E8FAE09491E82FF0E0EE0FFF1FFE
:1033F000E75AF54FA591B491EC91E92321F461E0EE
:103400008AE00E94C6058AE00E9477058CB580613B
:103410008CBD8CB580648CBD8DE00E9477058BE0FF
:103420000E94770580915D028F5F80935D02CFBF20
:10343000E1CE809198020E947705809199020E94C6
:10344000770580919802082E000C990BFC01ED592C
:10345000F54FE491F0E0EE0FFF1FE15BF54F259192
:10346000349130939E0220939D02FC01E958F54F60
:10347000E491E093A50280919902082E000C990B2B
:10348000FC01ED59F54FE491F0E0EE0FFF1FE15B19
:10349000F54FA591B491B093A002A0939F02FC01B7
:1034A000E958F54FE491E093A6028C91E095E8236A
:1034B000EC93A0CE80918F0290919002892B31F0F5
:1034C0008091B2029091B3020E94C708E091A302DA
:1034D000F091A40290818091A80280958923808335
:1034E000BBCE8FE9F2CE8036910569F480917A02E5
:1034F00090917B02409739F480919602813029F0B7
:103500008FEA8093B102C2E0E3CE80E1FACFE0918E
:10351000A302F091A40280819091A802892B80835C
:1035200023CC80918F0290919002892B31F0809171
:10353000B2029091B3020E94C708E091A302F091F9
:10354000A40290818091A8028095892380831ECD5A
:10355000E091A302F091A40280819091A802892BAE
:1035600080833ECD80918F0290919002892B31F023
:103570008091B2029091B3020E94C708E091A30229
:10358000F091A40290818091A80280958923808384
:1035900046CDE091A302F091A40280819091A8020F
:1035A000892B808371CD80918F0290919002892B1D
:1035B00031F08091B2029091B3020E94C708E0916D
:1035C000A302F091A40290818091A80280958923A2
:1035D000808371CDE091A302F091A402808190914B
:1035E000A802892B80839CCD8CE191E09093750299
:1035F000809374028091930290919402009711F04D
:103600000C94C71B0895A1E21A2EAA1BBB1BFD0137
:103610000DC0AA1FBB1FEE1FFF1FA217B307E407B1
:10362000F50720F0A21BB30BE40BF50B661F771F09
:10363000881F991F1A9469F76095709580959095E9
:103640009B01AC01BD01CF010895EE0FFF1F059056
:10365000F491E02D09940F931F93CF93DF93823061
:10366000910510F482E090E0E091B602F091B7028B
:1036700030E020E0B0E0A0E0309799F4211531056A
:1036800009F44AC0281B390B24303105D8F58A814A
:103690009B816115710589F1FB0193838283FE0192
:1036A00011C0408151810281138148175907E0F010
:1036B0004817590799F4109761F012960C931297D6
:1036C00013961C933296CF01DF91CF911F910F91EA
:1036D00008950093B6021093B702F4CF2115310577
:1036E00051F04217530738F0A901DB019A01BD01DF
:1036F000DF01F801C1CFEF01F9CF9093B7028093BA
:10370000B602CDCFFE01E20FF31F819391932250B9
:10371000310939832883D7CF2091B4023091B50283
:10372000232B41F420910201309103013093B50223
:103730002093B4022091000130910101211531053F
:1037400041F42DB73EB74091040150910501241B6F
:10375000350BE091B402F091B502E217F307A0F443
:103760002E1B3F0B2817390778F0AC014E5F5F4FD7
:103770002417350748F04E0F5F1F5093B502409352
:10378000B402819391939FCFF0E0E0E09CCFCF9380
:10379000DF930097E9F0FC01329713821282A09127
:1037A000B602B091B702ED0130E020E01097A1F42D
:1037B00020813181820F931F2091B4023091B50294
:1037C0002817390709F061C0F093B502E093B402FD
:1037D000DF91CF910895EA01CE17DF07E8F54A811E
:1037E0005B819E0141155105B1F7E901FB83EA8335
:1037F00049915991C40FD51FEC17FD0761F48081E1
:1038000091810296840F951FE901998388838281B3
:1038100093819B838A83F0E0E0E012968D919C91E6
:1038200013970097B9F52D913C911197CD01029610
:10383000820F931F2091B4023091B50228173907E7
:1038400039F6309751F51092B7021092B602B09344
:10385000B502A093B402BCCFD383C283408151810F
:10386000840F951FC817D90761F44E5F5F4F888199
:103870009981480F591F518340838A819B8193838B
:1038800082832115310509F0B0CFF093B702E093A0
:10389000B6029ECFFD01DC01C0CF13821282D7CFCA
:1038A00081E090E0F8940C945C1CDC0101C06D9305
:1038B00041505040E0F7089515E0CCE4D5E004C055
:1038C000FE010E94251B2196CD34D107C9F7F8943B
:0238D000FFCF28
:1038D2000000B8028000000000008F0F620FB713D3
:1038E20096055B0F480F390F00000000050B990584
:1038F200B713BF0E10089605AA0D820D9E0D920DEC
:10390200120E9605CB087B138007C907CB0CAE0CB1
:10391200360CD70B0D0A0048656C6C6F20776F72FE
:103922006C64210048656C6C6F2100307800284877
:10393200455829203D200028444543290046756CFE
:103942006C0073637265656E007363726F6C6C6991
:103952006E6721005363726F6C6C00736F6D65202C
:1039620070617274006F662074686520736372659B
:04397200656E2E0050
:00000001FF
