:100000000C945D000C9485000C9485000C94850084
:100010000C9485000C9485000C9485000C9485004C
:100020000C9485000C9485000C9485000C9485003C
:100030000C9485000C9485000C9485000C9485002C
:100040000C9486030C9485000C9454030C942E039A
:100050000C9485000C9485000C9485000C9485000C
:100060000C9485000C9485000000000024002700FB
:100070002A0000000000250028002B0004040404CE
:100080000404040402020202020203030303030342
:10009000010204081020408001020408102001021F
:1000A00004081020000000080002010000030407FB
:1000B0000000000000000000780511241FBECFEFF3
:1000C000D8E0DEBFCDBF11E0A0E0B1E0E6E1F0E1B5
:1000D00002C005900D92AA33B107D9F721E0AAE337
:1000E000B1E001C01D92AE3EB207E1F710E0CDE5F0
:1000F000D0E004C02197FE010E940308CC35D1074F
:10010000C9F70E94D0030C9409080C940000E7EA98
:10011000F0E02491E3E9F0E09491EFE7F0E0E4917E
:10012000EE23C9F0222339F0233001F1A8F4213065
:1001300019F1223029F1F0E0EE0FFF1FEE58FF4FCA
:10014000A591B4912FB7F894EC91811126C09095A8
:100150009E239C932FBF08952730A9F02830C9F023
:10016000243049F7209180002F7D03C0209180002A
:100170002F7720938000DFCF24B52F7724BDDBCFEE
:1001800024B52F7DFBCF2091B0002F772093B000B6
:10019000D2CF2091B0002F7DF9CF9E2BDACFAF9236
:1001A000BF92CF92DF92EF92FF920F931F93CF9364
:1001B000DF936C017B018B01040F151FEB015E01C6
:1001C000AE18BF08C017D10759F06991D601ED915B
:1001D000FC910190F081E02DC6010995892B79F7FA
:1001E000C501DF91CF911F910F91FF90EF90DF90AC
:1001F000CF90BF90AF900895FC01538D448D252F73
:1002000030E0842F90E0821B930B541710F0CF96B0
:10021000089501970895FC01918D828D981761F0E2
:10022000A28DAE0FBF2FB11D5D968C91928D9F5FF9
:100230009F73928F90E008958FEF9FEF0895FC01D8
:10024000918D828D981731F0828DE80FF11D858D8B
:1002500090E008958FEF9FEF0895FC01918D228D1E
:10026000892F90E0805C9F4F821B91098F739927A3
:10027000089581E591E00E942D0121E0892B09F488
:1002800020E0822F089580E090E0892B29F00E94E1
:10029000390181110C9400000895FC01A48DA80F70
:1002A000B92FB11DA35ABF4F2C91848D90E00196B8
:1002B0008F739927848FA689B7892C93A089B189D8
:1002C0008C91837080648C93938D848D981306C079
:1002D0000288F389E02D80818F7D80830895EF92DD
:1002E000FF920F931F93CF93DF93EC0181E0888FF0
:1002F0009B8D8C8D98131AC0E889F989808185FFC0
:1003000015C09FB7F894EE89FF896083E889F98961
:1003100080818370806480839FBF81E090E0DF9163
:10032000CF911F910F91FF90EF900895F62E0B8DB6
:1003300010E00F5F1F4F0F731127E02E8C8D8E1171
:100340000CC00FB607FCFACFE889F989808185FFD8
:10035000F5CFCE010E944D01F1CFEB8DEC0FFD2FBB
:10036000F11DE35AFF4FF0829FB7F8940B8FEA8993
:10037000FB8980818062CFCFCF93DF93EC01888DA2
:100380008823B9F0AA89BB89E889F9898C9185FD10
:1003900003C0808186FD0DC00FB607FCF7CF8C919E
:1003A00085FFF2CF808185FFEDCFCE010E944D0108
:1003B000E9CFDF91CF9108953FB7F89480913F0145
:1003C00090914001A0914101B091420126B5A89BB6
:1003D00005C02F3F19F00196A11DB11D3FBFBA2FD7
:1003E000A92F982F8827BC01CD01620F711D811D97
:1003F000911D42E0660F771F881F991F4A95D1F71C
:100400000895FC0101900020E9F73197AF01481BE6
:10041000590BBC0181E591E00C94CF008F929F9223
:10042000AF92BF920F931F93CF93DF93CDB7DEB7F9
:10043000A1970FB6F894DEBF0FBECDBF19A2423010
:1004400008F44AE08E010F5D1F4F842E912CB12CD1
:10045000A12CA50194010E94E107E62FB901CA0170
:10046000EA30F4F4E05DD801EE938D01232B242BC8
:10047000252B79F790E080E0109719F0CD010E94CC
:100480000102A1960FB6F894DEBF0FBECDBFDF917B
:10049000CF911F910F91BF90AF909F908F90089533
:1004A000E95CE1CF4F925F926F927F928F929F9221
:1004B000AF92BF92CF92DF92EF92FF920F931F9372
:1004C000CF936B017C01742EAC019B010E94DC0771
:1004D000882399F082E191E0CF911F910F91FF90D5
:1004E000EF90DF90CF90BF90AF909F908F907F90D4
:1004F0006F905F904F900C94010246015701E89471
:10050000B7F82FEF3FEF4FE75FE7C501B4010E9457
:10051000DC0781110DC02FEF3FEF4FE75FE7C5010B
:10052000B4010E94120618161CF486E191E0D4CFA3
:100530002FEF3FEF4FE75FE4C701B6010E946A0764
:1005400018161CF48AE191E0C7CF2FEF3FEF4FE779
:100550005FECC701B6010E94120687FDF3CF20E0D1
:1005600030E0A901C701B6010E94120610E000E0C8
:1005700087FF0AC06DE281E591E00E946F018C0166
:10058000F7FAF094F7F8F094C0E060E070E080E0F3
:100590009FE37C1641F020E030E040E251E40E940D
:1005A0001706CF5FF6CFA70196010E94A6052B0183
:1005B0003C010E9489064B015C014AE00E940E0248
:1005C0007C01E00EF11ECC23C1F1C501B4010E94F3
:1005D000B8069B01AC01C301B2010E94A5054B0105
:1005E0005C016EE281E591E00E946F01E80EF91E68
:1005F000C15018F120E030E040E251E4C501B401FF
:100600000E946F072B013C010E9489064B01B12C0F
:10061000A12C4AE0C501B4010E940E02E80EF91EA9
:10062000C501B4010E94B8069B01AC01C301B2012F
:100630000E94A5054B015C01DBCFC701CF911F9143
:100640000F91FF90EF90DF90CF90BF90AF909F9071
:100650008F907F906F905F904F9008951F920F92B0
:100660000FB60F9211242F933F934F935F936F9385
:100670007F938F939F93AF93BF93EF93FF9381E506
:1006800091E00E944D01FF91EF91BF91AF919F9139
:100690008F917F916F915F914F913F912F910F902B
:1006A0000FBE0F901F9018951F920F920FB60F92CA
:1006B00011242F938F939F93EF93FF93E091610108
:1006C000F09162018081E0916701F091680182FD03
:1006D0001BC0908180916A018F5F8F7320916B01A5
:1006E000821741F0E0916A01F0E0EF5AFE4F958FDA
:1006F00080936A01FF91EF919F918F912F910F90BD
:100700000FBE0F901F9018958081F4CF1F920F920B
:100710000FB60F9211242F933F938F939F93AF9314
:10072000BF9380913B0190913C01A0913D01B0911C
:100730003E0130913A0123E0230F2D3758F5019601
:10074000A11DB11D20933A0180933B0190933C0180
:10075000A0933D01B0933E0180913F0190914001F3
:10076000A0914101B09142010196A11DB11D80935C
:100770003F0190934001A0934101B0934201BF918A
:10078000AF919F918F913F912F910F900FBE0F903E
:100790001F90189526E8230F0296A11DB11DD2CFF8
:1007A000789484B5826084BD84B5816084BD85B54C
:1007B000826085BD85B5816085BD80916E00816058
:1007C00080936E00109281008091810082608093FE
:1007D0008100809181008160809381008091800000
:1007E0008160809380008091B10084608093B1002B
:1007F0008091B00081608093B00080917A00846025
:1008000080937A0080917A00826080937A00809150
:100810007A00816080937A0080917A00806880936A
:100820007A001092C100E0916101F091620182E0D2
:100830008083E0915D01F0915E011082E0915F01A3
:10084000F09160018FEC808310926901E091650165
:10085000F091660186E08083E0916301F09164018C
:10086000808180618083E0916301F09164018081E7
:1008700088608083E0916301F091640180818068E9
:100880008083E0916301F091640180818F7D80839A
:10089000E3E9F0E02491EFE7F0E08491882399F018
:1008A00090E0880F991FFC01E859FF4FA591B49182
:1008B000FC01EE58FF4F859194918FB7F894EC911D
:1008C000E22BEC938FBFE4E9F0E02491E0E8F0E064
:1008D00084918823C1F090E0880F991FFC01E859AA
:1008E000FF4FC591D491FC01EE58FF4FA591B491F3
:1008F0009FB7F8948881E22FE0958E2388838C91AE
:10090000E823EC939FBFC3E0D0E003E210E090E067
:10091000E92E90E0F92E80E00E948700CE01019739
:10092000F1F781E00E948700C8010197F1F780E0AC
:100930000E94870010924D0110924E0110924F01BB
:100940001092500110924C0110924B0180914B017A
:1009500090914C01019790934C0180934B01892B0E
:1009600061F0199BF3CF0E94DC0160934701709303
:1009700048018093490190934A0110924C011092D2
:100980004B0180914B0190914C01019790934C0148
:1009900080934B01892BD1F01999F3CF0E94DC0190
:1009A0008090470190904801A0904901B0904A0181
:1009B000681979098A099B090E94B80660934D015C
:1009C00070934E0180934F019093500120E030E0EE
:1009D00040E05FE360914D0170914E0180914F01C5
:1009E000909150010E946F0724E037EE4CE05DE3E8
:1009F0000E946F0760934301709344018093450107
:100A0000909346018EE191E00E94010280904301A3
:100A100090904401A0904501B090460120E030E064
:100A200048EC53E4C501B4010E946A0718160CF0A3
:100A30004CC089E291E00E94010283E391E00E94B0
:100A4000010287E391E00E940102609143017091ED
:100A50004401809145019091460142E00E9452027A
:100A600087E391E00E9401020E94DC012B013C011E
:100A700088EE882E83E0982EA12CB12C0E94DC01F8
:100A80006419750986099709683E734081059105C7
:100A9000A8F321E0821A9108A108B10888EE480E57
:100AA00083E0581E611C711C81149104A104B104DF
:100AB00029F7E114F10409F42ECF0E9439018823AB
:100AC00009F429CF0E94000026CF20E030E040E06A
:100AD00050E4C501B4010E94120687FF03C08FE2F3
:100AE00091E0A9CF42E0C501B4010E945202A5CF16
:100AF000E1E5F1E01382128288EE93E0A0E0B0E03D
:100B000084839583A683B78384E091E09183808377
:100B100085EC90E09587848784EC90E097878687C2
:100B200080EC90E0918B808B81EC90E0938B828BBA
:100B300082EC90E0958B848B86EC90E0978B868B93
:100B4000118E128E138E148E08955058BB27AA272B
:100B50000E94BD050C9430070E94220738F00E94C5
:100B6000290720F039F49F3F19F426F40C941F074D
:100B70000EF4E095E7FB0C941907E92F0E9441075A
:100B800058F3BA17620773078407950720F079F4C2
:100B9000A6F50C9463070EF4E0950B2EBA2FA02D4A
:100BA0000B01B90190010C01CA01A0011124FF271A
:100BB000591B99F0593F50F4503E68F11A16F04015
:100BC000A22F232F342F4427585FF3CF4695379514
:100BD0002795A795F0405395C9F77EF41F16BA0BD9
:100BE000620B730B840BBAF09150A1F0FF0FBB1F87
:100BF000661F771F881FC2F70EC0BA0F621F731FD0
:100C0000841F48F4879577956795B795F7959E3F2C
:100C100008F0B0CF9395880F08F09927EE0F9795BD
:100C2000879508950E94F50608F481E008950E94D2
:100C30002B060C9430070E94290758F00E942207C7
:100C400040F029F45F3F29F00C94190751110C94DE
:100C500064070C941F070E94410768F39923B1F3BE
:100C6000552391F3951B550BBB27AA2762177307D2
:100C7000840738F09F5F5F4F220F331F441FAA1F66
:100C8000A9F335D00E2E3AF0E0E832D09150504022
:100C9000E695001CCAF72BD0FE2F29D0660F771FD0
:100CA000881FBB1F261737074807AB07B0E809F0B6
:100CB000BB0B802DBF01FF2793585F4F3AF09E3F3B
:100CC000510578F00C9419070C9464075F3FE4F326
:100CD000983ED4F3869577956795B795F7959F5F7E
:100CE000C9F7880F911D9695879597F90895E1E0CA
:100CF000660F771F881FBB1F621773078407BA0729
:100D000020F0621B730B840BBA0BEE1F88F7E09583
:100D100008950E94490788F09F5798F0B92F9927A6
:100D2000B751B0F0E1F0660F771F881F991F1AF0D6
:100D3000BA95C9F714C0B13091F00E946307B1E0D1
:100D400008950C946307672F782F8827B85F39F0D0
:100D5000B93FCCF3869577956795B395D9F73EF46F
:100D600090958095709561957F4F8F4F9F4F089517
:100D7000E89409C097FB3EF4909580957095619535
:100D80007F4F8F4F9F4F9923A9F0F92F96E9BB27EB
:100D90009395F695879577956795B795F111F8CF67
:100DA000FAF4BB0F11F460FF1BC06F5F7F4F8F4FD2
:100DB0009F4F16C0882311F096E911C0772321F0C8
:100DC0009EE8872F762F05C0662371F096E8862F60
:100DD00070E060E02AF09A95660F771F881FDAF7B7
:100DE000880F9695879597F90895990F0008550FE4
:100DF000AA0BE0E8FEEF16161706E807F907C0F0A1
:100E000012161306E407F50798F0621B730B840BA8
:100E1000950B39F40A2661F0232B242B252B21F482
:100E200008950A2609F4A140A6958FEF811D811D22
:100E3000089597F99F6780E870E060E008959FEF5C
:100E400080EC089500240A94161617061806090661
:100E5000089500240A941216130614060506089530
:100E6000092E0394000C11F4882352F0BB0F40F4B8
:100E7000BF2B11F460FF04C06F5F7F4F8F4F9F4FF8
:100E8000089557FD9058440F551F59F05F3F71F07A
:100E90004795880F97FB991F61F09F3F79F08795E1
:100EA0000895121613061406551FF2CF4695F1DF6A
:100EB00008C0161617061806991FF1CF86957105FA
:100EC000610508940895E894BB2766277727CB012E
:100ED00097F908950E94F50608F48FEF08950E948F
:100EE00082070C9430070E94220738F00E942907DD
:100EF00020F0952311F00C9419070C941F0711246E
:100F00000C9464070E94410770F3959FC1F3950FFD
:100F100050E0551F629FF001729FBB27F00DB11D7D
:100F2000639FAA27F00DB11DAA1F649F6627B00D0D
:100F3000A11D661F829F2227B00DA11D621F739FF6
:100F4000B00DA11D621F839FA00D611D221F749F04
:100F50003327A00D611D231F849F600D211D822F4B
:100F6000762F6A2F11249F5750409AF0F1F0882372
:100F70004AF0EE0FFF1FBB1F661F771F881F91509F
:100F80005040A9F79E3F510580F00C9419070C942E
:100F900064075F3FE4F3983ED4F3869577956795B1
:100FA000B795F795E7959F5FC1F7FE2B880F911DC9
:100FB0009695879597F908950E94F506880B990BE9
:100FC0000895A1E21A2EAA1BBB1BFD010DC0AA1F8A
:100FD000BB1FEE1FFF1FA217B307E407F50720F0A2
:100FE000A21BB30BE40BF50B661F771F881F991F1D
:100FF0001A9469F760957095809590959B01AC0166
:10100000BD01CF010895EE0FFF1F0590F491E02D73
:061010000994F894FFCFE3
:10101600000000006F01CF00FC00BC012D010B0198
:101026001F016E616E00696E66006F766600446928
:101036007374616E63653A20003E20343030003CA4
:0A10460020320020636D000D0A0047
:00000001FF
