:100000000C9454050C947C050C947C050C947C0594
:100010000C947C050C947C050C947C050C947C055C
:100020000C947C050C947C050C947C050C947C054C
:100030000C947C050C947C050C947C050C947C053C
:100040000C949B150C947C050C9469150C94431529
:100050000C947C050C947C050C947C050C947C051C
:100060000C94E5150C947C0500000000230026008C
:10007000290000000000003E5B4F5B3E3E6B4F6B73
:100080003E1C3E7C3E1C183C7E3C181C577D571C79
:100090001C5E7F5E1C00183C1800FFE7C3E7FF00F2
:1000A00018241800FFE7DBE7FF30483A060E262940
:1000B000792926407F050507407F05253F5A3CE703
:1000C0003C5A7F3E1C1C08081C1C3E7F14227F22C9
:1000D000145F5F005F5F06097F017F006689956A94
:1000E000606060606094A2FFA29408047E0408101F
:1000F000207E201008082A1C08081C2A08081E1048
:100100001010100C1E0C1E0C30383E3830060E3EFF
:100110000E06000000000000005F0000000700075E
:1001200000147F147F14242A7F2A12231308646288
:1001300036495620500008070300001C22410000E9
:1001400041221C002A1C7F1C2A08083E0808008047
:1001500070300008080808080000606000201008DF
:1001600004023E5149453E00427F400072494949E0
:10017000462141494D331814127F10274545453912
:100180003C4A494931412111090736494949364616
:100190004949291E000014000000403400000008F6
:1001A0001422411414141414004122140802015999
:1001B00009063E415D594E7C1211127C7F49494926
:1001C000363E414141227F4141413E7F49494941BB
:1001D0007F090909013E414151737F0808087F00EA
:1001E000417F41002040413F017F081422417F4070
:1001F0004040407F021C027F7F0408107F3E414147
:10020000413E7F090909063E4151215E7F091929B6
:1002100046264949493203017F01033F4040403FA0
:100220001F2040201F3F4038403F631408146303E1
:10023000047804036159494D43007F414141020460
:10024000081020004141417F040201020440404067
:100250004040000307080020545478407F2844445D
:10026000383844444428384444287F385454541877
:1002700000087E090218A4A49C787F080404780072
:10028000447D40002040403D007F10284400004154
:100290007F40007C047804787C0804047838444467
:1002A0004438FC1824241818242418FC7C0804045E
:1002B00008485454542404043F44243C4040207CC7
:1002C0001C2040201C3C4030403C44281028444C1A
:1002D0009090907C4464544C4400083641000000E7
:1002E000770000004136080002010204023C262388
:1002F000263C1EA1A161123A4040207A3854545540
:100300005921555579412254547842215554784009
:1003100020545579400C1E52721239555555593991
:100320005454545939555454580000457C410002E6
:10033000457D420001457C407D1211127DF028254B
:1003400028F07C545545002054547C547C0A097F85
:100350004932494949323A4444443A324A48483099
:100360003A4141217A3A42402078009DA0A07D3D4B
:100370004242423D3D4040403D3C24FF2424487ED3
:100380004943662B2FFC2F2BFF0929F620C0887EBE
:10039000090320545479410000447D413048484AC3
:1003A00032384040227A007A0A0A727D0D19317D76
:1003B0002629292F28262929292630484D4020384A
:1003C0000808080808080808382F10C8ACBA2F1009
:1003D0002834FA00007B000008142A142222142A70
:1003E00014085500550055AA55AA55AAFF55FF55A2
:1003F000FF000000FF00101010FF00141414FF0095
:100400001010FF00FF1010F010F0141414FC001472
:1004100014F700FF0000FF00FF1414F404FC141490
:1004200017101F10101F101F1414141F001010108D
:10043000F0000000001F101010101F10101010F01E
:1004400010000000FF101010101010101010FF10FE
:10045000000000FF140000FF00FF00001F10170045
:1004600000FC04F414141710171414F404F400001E
:10047000FF00F714141414141414F700F7141414D0
:10048000171410101F101F141414F4141010F0106F
:10049000F000001F101F0000001F14000000FC14DB
:1004A0000000F010F01010FF10FF141414FF1410CF
:1004B00010101F00000000F010FFFFFFFFFFF0F022
:1004C000F0F0F0FFFFFF0000000000FFFF0F0F0F34
:1004D0000F0F3844443844FC4A4A4A347E0202062C
:1004E00006027E027E0263554941633844443C045F
:1004F000407E201E2006027E020299A5E7A5991CD7
:100500002A492A1C4C7201724C304A4D4D303048F9
:10051000784830BC625A463D3E494949007E010157
:10052000017E2A2A2A2A2A44445F444440514A44EC
:100530004040444A51400000FF0103E080FF0000BA
:1005400008086B6B083612362436060F090F0600B2
:100550000018180000001010003040FF0101001FBB
:1005600001011E00191D1712003C3C3C3C0000001C
:100570000000000103070F1F3F7F0080C0E0F0F87C
:10058000FCFE000000080002010000030407000058
:1005900000000000000000000000240027002A00E6
:1005A000DB40A4A62EAF2000A1C8D300408DAED55D
:1005B00080A80102040810204080010204081020D5
:1005C00001020408102000000000250028002B0074
:1005D00004040404040404040202020202020303E9
:1005E000030303030000600000000000000000009F
:1005F0000000000000E0000000000000000000001B
:1006000000000001E0000000000000000000000009
:10061000000001F0000000000000000000000000E9
:100620000003F000000000000000000000000000D7
:1006300007F00000000000000000000000000007BC
:10064000F8000000000000000000000000000FF8AB
:1006500000000003C0007E000001E0007F0FF800F2
:10066000000003C000FE000001E000FFEFF8000002
:100670000003C000FE000001E000FFFFF8000000E2
:1006800003C000F00000000F007FFE7FC0000003E9
:10069000C000F00000000F003FFE7FF83FF1FBCFED
:1006A000FCFEF3BC3DEFE01FFE7FFF7FFBFFDFFEA4
:1006B000FEFFBC3DEFE01FC6FFFF7FFBFFDFFEFE3E
:1006C000FFBC3DEFE00FE3C7FE787BC3DE1EF0FF0B
:1006D000BC3DEF0007FF87FC787BC3DE1EF0F83CD3
:1006E0003DEF0001FFFFF0007BC3C01EF0F03C3D7A
:1006F000EF0001F37FE03FFBC3CFFEF0F03C3DEFA6
:100700000003E33F807FFBC3DFFEF0F03C3DEF00E2
:1007100007E73C00787BC3DE1EF0F03C3DEF0007AE
:10072000FFBE00787BC3DE1EF0F03C3DEF0007FF0C
:10073000FE00787BC3DE1EF0F03C3DEF000FFFFEB5
:10074000007FFBFFDFFEF0F03FFDEFE00FFFFF005B
:100750007FFBFFDFFEF0F03FFDEFE00FF9FF003E13
:1007600079F9CF9EF0F01F3DE7E01FF1FF00000098
:100770000000000000000000001F80FF007FFFFF5E
:10078000FFFFFFFFFFFFFFE01C007F007FFFFFFF79
:10079000FEB46D888D18E000001F007FFFFFFFFE94
:1007A00095AD7DB577E000000F007FFFFFFFFEA550
:1007B000AD9D8D19E0000006007FFFFFFFFEB5AD87
:1007C000EDB57EE0000000000001800000000000A8
:1007D000000000000380000000000000000000078F
:1007E000C000000000000000000007C00000000082
:1007F00000000000000FC00000000000000000002A
:100800001FE00000000000000000001FE0000000EA
:100810000000000000003FE00000000000000000B9
:10082000003FF00000000000000000007FF000002A
:1008300000000000001FF87FF00000000000000032
:100840003FFE7FF0000000000000003FFF7FF0004F
:100850000000000000001FFFFBE00000000000009F
:10086000000FFFF9FFC00000000000000FFFF9FFBC
:10087000F800000000000007FFF1FFFF000000008B
:10088000000003FC73FFFF80000000000001FE3F3A
:10089000FFFF80000000000000FF1E0FFF000000AF
:1008A000000000007FFE1FFC000000000000003F71
:1008B000FFFFF8000000000000000FDFFFE0000075
:1008C00000000000001F19FFC00000000000000031
:1008D0003F3CFF00000000000000007E7CF80000AC
:1008E0000000000000007FFE7C000000000000000F
:1008F00000FFFFFC0000000000000000FFFFFE0002
:1009000000000000000000FFFFFE000000000000EB
:100910000001FFEFFE0000000000000001FFCFFE1D
:100920000000000000000003FF07FE0000000000C0
:10093000000003FC07FE0000000000000003F003BD
:10094000FE00000000000000018000FE000000002A
:100950000000000000007E00000000000000000019
:10096000003E000000000000000000000C0000003D
:10097000000000078000FC000003C00000000780AA
:1009800001FC000003C0000000078001FC00000320
:10099000C0000000078001E00000001E000000070A
:1009A0008001E00000001E007FE3F79FF9FDE7787B
:1009B0007BDFC0FFF7FFBFFDFDFF787BDFC0FFF7E8
:1009C000FFBFFDFDFF787BDFC0F0F787BC3DE1FF97
:1009D000787BDE00F0F787BC3DE1F0787BDE00003D
:1009E000F787803DE1E0787BDE007FF7879FFDE1C0
:1009F000E0787BDE00FFF787BFFDE1E0787BDE007B
:100A0000F0F787BC3DE1E0787BDE00F0F787BC3D86
:100A1000E1E0787BDE00F0F787BC3DE1E0787BDE4B
:100A200000FFF7FFBFFDE1E07FFBDFC0FFF7FFBF87
:100A3000FDE1E07FFBDFC07CF3F39F3DE1E03E7B27
:100A4000CFC00000000000000000000000FFFFFF1A
:100A5000FFFFFFFFFFFFFFC0FFFFFFFFFD68DB1190
:100A60001A31C0FFFFFFFFFD2B5AFB6AEFC0FFFFEB
:100A7000FFFFFD4B5B3B1A33C0FFFFFFFFFD6B5BCE
:100A8000DB6AFDC05353443133303620616C6C6FE8
:100A9000636174696F6E206661696C656400220031
:100AA000FF2100000417881D11241FBECFEFD8E0DE
:100AB000DEBFCDBF11E0A0E0B1E0EAE0FEE302C09E
:100AC00005900D92AC36B107D9F723E0ACE6B1E062
:100AD00001C01D92A738B207E1F715E0C3E5D5E0E4
:100AE00004C02197FE010E94C11DC235D107C9F77C
:100AF0000E943F180C94F81E0C94000080912C0268
:100B00008F5F80932C020895FC0185A196A1892B0B
:100B1000D9F4109276038FE693E096A385A3809193
:100B20006F0390917003892B81F4F0937003E0932D
:100B30006F0312A211A214A213A2F0937203E09306
:100B4000710381E0809376030895A0917103B091C1
:100B50007203B2A3A1A39496FC93EE939397EBCF69
:100B6000089508950895AF92BF92CF92DF92EF92C9
:100B7000FF920F931F93CF93DF936C017B018B0147
:100B8000040F151FEB015E01AE18BF08C017D10797
:100B900059F06991D601ED91FC910190F081E02D21
:100BA000C6010995892B79F7C501DF91CF911F9176
:100BB0000F91FF90EF90DF90CF90BF90AF9008958E
:100BC000FC01538D448D252F30E0842F90E0821B53
:100BD000930B541710F0CF96089501970895FC01D8
:100BE000918D828D981761F0A28DAE0FBF2FB11D30
:100BF0005D968C91928D9F5F9F73928F90E0089588
:100C00008FEF9FEF0895FC01918D828D981731F041
:100C1000828DE80FF11D858D90E008958FEF9FEF95
:100C20000895FC01918D228D892F90E0805C9F4F6B
:100C3000821B91098F739927089584E392E00E94A3
:100C4000110621E0892B09F420E0822F089580E02D
:100C500090E0892B29F00E941D0681110C94000060
:100C60000895FC01A48DA80FB92FB11DA35ABF4F41
:100C70002C91848D90E001968F739927848FA6899B
:100C8000B7892C93A089B1898C91837080648C93EF
:100C9000938D848D981306C00288F389E02D80819E
:100CA0008F7D80830895EF92FF920F931F93CF93D0
:100CB000DF93EC0181E0888F9B8D8C8D98131AC097
:100CC000E889F989808185FF15C09FB7F894EE897E
:100CD000FF896083E889F9898081837080648083DB
:100CE0009FBF81E090E0DF91CF911F910F91FF9026
:100CF000EF900895F62E0B8D10E00F5F1F4F0F73CE
:100D00001127E02E8C8D8E110CC00FB607FCFACF88
:100D1000E889F989808185FFF5CFCE010E943106EF
:100D2000F1CFEB8DEC0FFD2FF11DE35AFF4FF08259
:100D30009FB7F8940B8FEA89FB8980818062CFCFBF
:100D4000CF93DF93EC01888D8823B9F0AA89BB8902
:100D5000E889F9898C9185FD03C0808186FD0DC0ED
:100D60000FB607FCF7CF8C9185FFF2CF808185FF0E
:100D7000EDCFCE010E943106E9CFDF91CF910895EA
:100D8000833081F028F4813099F08230A9F0089501
:100D90008730A9F08830C9F08430B1F480918000A8
:100DA0008F7D03C0809180008F77809380000895AD
:100DB00084B58F7784BD089584B58F7DFBCF8091F6
:100DC000B0008F778093B00008958091B0008F7D40
:100DD000F9CF1F93CF93DF93282F30E0F901EE571F
:100DE000FA4F8491F901EE54FA4FD491F901E0538E
:100DF000FA4FC491CC23A9F0162F81110E94C0068E
:100E0000EC2FF0E0EE0FFF1FEA53FA4FA591B491DB
:100E10008FB7F894EC91111108C0D095DE23DC93C4
:100E20008FBFDF91CF911F910895DE2BF8CFCF9325
:100E3000DF9390E0FC01EE54FA4F249180539A4FD7
:100E4000FC0184918823D1F090E0880F991FFC0168
:100E5000EA56FA4FA591B491FC01EA53FA4FC591B5
:100E6000D491623071F49FB7F8943C91822F8095B1
:100E700083238C93E8812E2B28839FBFDF91CF9112
:100E800008958FB7F894EC912E2B2C938FBFF6CF4B
:100E90003FB7F8948091210290912202A091230201
:100EA000B091240226B5A89B05C02F3F19F00196EA
:100EB000A11DB11D3FBFBA2FA92F982F8827BC01B4
:100EC000CD01620F711D811D911D42E0660F771FDC
:100ED000881F991F4A95D1F708958F929F92AF92DC
:100EE000BF92CF92DF92EF92FF924B015C010E9482
:100EF00048076B017C010E9448076C197D098E0927
:100F00009F09683E734081059105A8F321E0821A8C
:100F10009108A108B10888EEC80E83E0D81EE11C34
:100F2000F11C81149104A104B10429F7FF90EF9002
:100F3000DF90CF90BF90AF909F908F900895EF92E9
:100F4000FF920F931F93CF93DF93EC01EC80FD8012
:100F50006E157F050CF070C057FF04C0240F351FBD
:100F600050E040E08E819F81FA01E20FF31F8E175F
:100F70009F071CF49C01241B350B121613060CF062
:100F80005BC0922F842F8695869586958E9DD00185
:100F90008F9DB00D11246A0F7B1FAF8DB8A1A60FD6
:100FA000B71F477049F188E0841B482F682F70E015
:100FB000FB01E658FA4FE491281708F063C0621B62
:100FC00071092FEF30E002C0359527956A95E2F759
:100FD000E2230130110539F0B0F10230110561F55D
:100FE0008C91E82702C08C91E82BEC93941720F1A8
:100FF0002C813D81A20FB31FE92FE41BE83078F06C
:101000000230110521F58E2F9C9190959C932C8197
:101010003D81A20FB31F88508830B0F7E770EE23F0
:1010200059F0F0E0EE58FA4FE49101301105F9F073
:1010300010F10230110519F1DF91CF911F910F913D
:10104000FF90EF900895E0958C91E823CECF81E05A
:101050000115110509F480E081959E2F8C932C8158
:101060003D81A20FB31F98509830C0F7D7CF8C9115
:10107000E82BEC93E1CFE0958C91E823FACF8C91AB
:10108000E827F7CF0130110509F4ADCFE0F20230C7
:10109000110509F4A5CFAE0DBF1DAECF0F931F9361
:1010A000CF93DF9377FF04C0260F371F70E060E017
:1010B000DC011496CD91DC91FB01E20FF31FCE17FA
:1010C000DF071CF49E01261B370B121613064CF586
:1010D000FA0157FD3796A3E0F595E795AA95E1F754
:1010E000EC9FD001ED9FB00DFC9FB00D11246A0F55
:1010F0007B1FDC015F96ED91FC91E60FF71F4770B7
:10110000552781E090E001C0880F4A95EAF7482F03
:101110000130110559F0A8F02E0F3F1F02301105C4
:10112000E1F0DF91CF911F910F9108952E0F3F1F96
:10113000E217F307B1F38191DF011197842B8C93B0
:10114000F7CF80952E0F3F1FE217F30751F39191D0
:10115000DF01119798239C93F7CFE217F30709F368
:101160008191DF01119784278C93F7CF0F931F9301
:10117000FA01DC0156964C9156974230E9F0433023
:10118000A1F1413061F514964D915C91DA01AE1BED
:10119000BF0BFD01E21BF30B77FD0BC0DC011696C4
:1011A0004D915C916417750724F4AB01BF010E9457
:1011B0004E081F910F91089514964D915C91DA019C
:1011C000A61BB70BBD0161507109DC0116964D914C
:1011D0005C91DA01AE1BBF0BFD01E21BF30B77FD47
:1011E000E8CFAF010E949F07E4CF16964D915C9126
:1011F000DA01A61BB70BBD0161507109CDCF0F936A
:101200001F93FA01DC0156964C9156974230A9F093
:10121000433091F1413019F514964D915C91DA010A
:10122000AE1BBF0BFD013197F7FD04C0AB01BF0141
:101230000E949F071F910F91089514964D915C9104
:10124000DA01A61BB70BBD01DC0116964D915C912E
:10125000DA01AE1BBF0BFD013197621B730BF7FD6B
:10126000E9CFDC0116964D915C91E417F50714F770
:10127000AF010E944E08DECF16964D915C91DA01C7
:10128000A61BB70BBD01621B730BCECFFC0177FD14
:1012900064C080859185681779070CF05EC057FDA2
:1012A0005CC082859385481759070CF056C0868923
:1012B0008230B1F0833029F1813041F4848195810D
:1012C000841B950BAB01BC016150710921303105C4
:1012D00009F108F443C02230310509F463C00895D0
:1012E00084819581DC01A61BB70BBD01615071099A
:1012F00086819781DC01A41BB50BAD0141505109DA
:10130000E5CF86819781861B970BBA01AC014150CE
:101310005109DCCFCA0157FD0796A3E09595879543
:10132000AA95E1F7A481B5818A9F90018B9F300D2A
:101330009A9F300D1124620F731F078CF0A1E02DCE
:10134000E60FF71F4770552721E030E001C0220F5C
:101350004A95EAF78081822B80830895CA0157FD60
:10136000079633E0959587953A95E1F7A481B58185
:101370008A9F90018B9F300D9A9F300D1124620F30
:10138000731F078CF0A1E02DE60FF71F477055275C
:1013900081E090E001C0880F4A95EAF7809590813E
:1013A0008923DACFCA0157FD079623E095958795E3
:1013B0002A95E1F7A481B5818A9F90018B9F300D1A
:1013C0009A9F300D1124620F731F078CF0A1E02D3E
:1013D000E60FF71F4770552721E030E001C0220FCC
:1013E0004A95EAF780818227B7CF08958EBD000025
:1013F0000DB407FEFDCF8EB508958CBD9DBD08953B
:101400000895FC016370668B848195812681378104
:10141000613039F0633029F09187808733872287E4
:101420000895318720879387828708952F923F926E
:101430004F925F926F927F928F929F92AF92BF92E4
:10144000CF92DF92EF92FF920F931F93CF93DF9390
:10145000CDB7DEB76A970FB6F894DEBF0FBECDBF2B
:101460009A8F898F7A8369834A01D22E18870F83D6
:101470003701BC2CDC0159962D913C915A972115CE
:10148000310509F015C118968D919C91199768172F
:1014900079070CF0D7C11A968D919C91481759077E
:1014A0000CF0D0C14C2C512CB6E0CB9E600D711DC0
:1014B00011247C876B87161617060CF0C3C1EA2D22
:1014C000F0E0FA87E98793E0EE0FFF1F9A95E1F7C6
:1014D000F88BEF87CF01840F951F181619060CF0B3
:1014E000B1C1A98DBA8D58968C91811104C0BFEA03
:1014F000BD1508F4D394A98DBA8DED91FC91119787
:101500000284F385E02DCD010995B5E0DB9EC00195
:101510001124E981FA81FC83EB83312C212C9C017D
:101520002E583F4F388F2F8B4A2D50E05E8B4D8BBE
:10153000EF89F88DE20DF31D44919E828D82D12CAE
:10154000C12C69817A81620D731D7A8B698B842F1E
:1015500090E09C8B8B8BE98DFA8DA081B18140FF4F
:1015600082C0F1E0BF126FC0AF126DC01C96ED914A
:10157000FC912F813885A4014C0D5D1D69897A8904
:10158000898D9A8D0995EB89FC89F595E7954E2F04
:101590005FEFC51AD50A6D817E818D899E89680F9E
:1015A000791F7E836D8398E0C916D10481F6AFEF71
:1015B0002A1A3A0AEB81FC81E40DF51DFC83EB83CA
:1015C000F5E02F16310409F0B3CF2F8138852615A9
:1015D0003705B9F0A98DBA8DED91FC91B1E0BB1240
:1015E00057C0AB1255C069817A816B5F7F4F00880D
:1015F000F189E02D830128E030E0A401898D9A8DE6
:101600000995A98DBA8DED91FC9111970688F789FE
:10161000E02DCD016A960FB6F894DEBF0FBECDBFA8
:10162000DF91CF911F910F91FF90EF90DF90CF90BE
:10163000BF90AF909F908F907F906F905F904F90F2
:101640003F902F9009941E96ED91FC91EF80F884C5
:1016500009851A8592014D815E816B817C81898D1E
:101660009A8D099590CF2F8138852615370509F475
:101670008ACF31E0B31207C0A31205C01C96ED91CA
:10168000FC91930178CF1E96ED91FC917301E0CF10
:101690006B857C85641975090684F785E02D7301D7
:1016A0000F8518899201A401898D9A8D0995A9CF7A
:1016B000F90134969491329745915491D91AB7E033
:1016C000DB9E400D511D1124F901259134913C8B75
:1016D0002B8BFA0125903490FA0132967490319652
:1016E0003491398B329664903196449041E04C1598
:1016F00018F04A1508F07FC0662D062C000C770BF9
:101700007C836B83842D042C000C990B9E838D832A
:10171000A98DBA8DED91FC9111970284F385E02D8E
:10172000CD010995512CD12CC12CEA2DF0E0FA877E
:10173000E9872B2D30E03C872B87A401440D511DF8
:1017400047FC5A95588F4F8B69817A81660D711DC0
:1017500067FC7A957E876D877989C71608F051CF27
:101760002C2D30E04D815E81420F531FA985BA8533
:101770004A9FC0014B9F900D5A9F900D1124FC0170
:10178000E80DF91DF88BEF87852D612C4F89588D59
:10179000420F531F5E8B4D8B671408F050C04424DA
:1017A0004394480E877041F4C1010196EB89FC898E
:1017B000E20DF31DD4901C01D7FE19C0A98DBA8D7E
:1017C000ED91FC91662D70E0B1E0BB1219C0AB1237
:1017D00017C02D853E85620F731F0484F585E02DAB
:1017E0002F8138854D895E89898D9A8D0995DD0C0B
:1017F0006394842DD1CF1E821D821C821B8288CFD0
:101800004B815C81640F751FAB85BC856A9FC001ED
:101810006B9F900D7A9F900D112469817A81680FDA
:10182000791F0684F785E02DEF80F88409851A85F5
:101830009D014F855889898D9A8D0995D8CF570C70
:10184000C3948ACF6A960FB6F894DEBF0FBECDBFA1
:10185000DF91CF911F910F91FF90EF90DF90CF908C
:10186000BF90AF909F908F907F906F905F904F90C0
:101870003F902F9008958F929F92AF92CF92EF92C8
:10188000FF920F931F93CF93DF93EC01262F898D47
:101890009A8D009709F051C06A30D1F41D861C86DC
:1018A0008D8948E0849F900111248E859F85820F49
:1018B000931F9F878E8781E090E0DF91CF911F91EA
:1018C0000F91FF90EF90CF90AF909F908F900895E1
:1018D0006D3089F3CC88AD888F898823C1F08C85E1
:1018E0009D8536E0C39E800D911D11244885598544
:1018F0004817590764F44E855F851D861C8638E0BD
:10190000A39EC0011124840F951F9F878E87EA88AC
:10191000FB88088919894E855F856C857D85CE0198
:101920000E94160A2C898C859D8546E0249F800D97
:10193000911D11249D878C87BECF6A3069F41D8666
:101940001C86FC013896E4912D898E859F85E29F47
:10195000800D911D1124ADCF6D3009F4ACCFFC0189
:1019600034963491631708F4A6CF3296E491E617C3
:1019700008F4A1CFFC01329685909490462F431B2A
:10198000342F47E0349F800C911C1124F4013296CF
:1019900034913196E4913323A9F1EE2399F1CC8867
:1019A000F4013596E491AD884F89442301F10E2E60
:1019B000000CFF0BE30FF11DCE9EA001CF9E500D3A
:1019C00011246C857D85460F571F688579856417BE
:1019D00075076CF44E855F851D861C86FC01389664
:1019E000E491AE9E400D511D11245F874E87EA8819
:1019F000FB88088919894E855F856C857D85CE01B8
:101A00000E94160AF4013496E4912C898C859D85F8
:101A1000E29F800D911D11248DCF6F927F928F9246
:101A20009F92AF92BF92CF92DF92EF92FF920F936D
:101A30001F93CF93DF93EC016B015A0139014801E9
:101A4000E881F9810284F385E02D0995E881F98127
:101A50000288F389E02D87019301A501B601CE012B
:101A60000995A501480D591D41505109E881F98199
:101A70000288F389E02D9301B601CE010995E88132
:101A8000F9810088F189E02D9401A501B601CE010C
:101A90000995C60CD71CB60161507109E881F9811E
:101AA0000088F189E02D9401A501CE010995E88116
:101AB000F9810688F789E02DCE01DF91CF911F9142
:101AC0000F91FF90EF90DF90CF90BF90AF909F90DD
:101AD0008F907F906F9009946F927F928F929F92D8
:101AE000AF92BF92CF92DF92EF92FF920F931F932C
:101AF000CF93DF935C01EB016A0149013801870153
:101B0000DC01ED91FC916217730719F564167506F7
:101B10002CF0962D872D3A01C92ED82E9601261924
:101B200037092F5F3F4F048CF58DE02DA301BE01D7
:101B3000C5010995DF91CF911F910F91FF90EF9013
:101B4000DF90CF90BF90AF909F908F907F906F90DD
:101B500008954615570591F42617370724F0892D67
:101B60004B01C22FD82F9E01281939092F5F3F4FF3
:101B7000068CF78DE02DA601B401DACF0284F3853F
:101B8000E02D0995D501ED91FC910488F589E02DB2
:101B900083019401A601BE01C5010995D501ED910E
:101BA000FC910688F789E02DC501DF91CF911F9147
:101BB0000F91FF90EF90DF90CF90BF90AF909F90EC
:101BC0008F907F906F900994EF92FF920F931F93E5
:101BD000DC011A960D911C911B9718962D913C9142
:101BE0001997ED91FC9100A0F1A1E02D7B0150E04F
:101BF00040E070E060E009951F910F91FF90EF9039
:101C000008954F925F926F927F928F929F92AF92C0
:101C1000BF92CF92DF92EF92FF920F931F93CF93D9
:101C2000DF936C012B015A0139014801DC01ED9170
:101C3000FC910284F385E02D0995E201640C751C8A
:101C4000D601ED91FC91C615D7055CF40088F189A9
:101C5000E02D87019401A501BE01C60109952196D9
:101C6000EFCF0688F789E02DC601DF91CF911F9154
:101C70000F91FF90EF90DF90CF90BF90AF909F902B
:101C80008F907F906F905F904F9009948F929F926A
:101C9000AF92BF92CF92DF92EF92FF920F931F937A
:101CA000CF93DF93EC015B014A016901E881F9817F
:101CB0000284F385E02D099595012C0D3D1D2150E1
:101CC0003109E881F9810488F589E02D78018401E2
:101CD000A401B501CE010995E881F9810688F7894B
:101CE000E02DCE01DF91CF911F910F91FF90EF90EA
:101CF000DF90CF90BF90AF909F908F9009948F927C
:101D00009F92AF92BF92CF92DF92EF92FF920F938A
:101D10001F93CF93DF93EC015B014A0169017801C6
:101D2000E881F9810284F385E02D0995C80CD91C5E
:101D3000860101501109E881F9810488F589E02DB7
:101D40009501A401B501CE010995E881F9810688C4
:101D5000F789E02DCE01DF91CF911F910F91FF9078
:101D6000EF90DF90CF90BF90AF909F908F900994AD
:101D7000EF92FF920F931F93DC01ED91FC9100A075
:101D8000F1A1E02D09951F910F91FF90EF9008951B
:101D90000F931F93DC01ED91FC91068CF78DE02DE4
:101DA00009951F910F9108950F931F93DC01ED91F9
:101DB000FC91048CF58DE02D09951F910F910895EC
:101DC000DC01ED91FC910084F185E02D09943F92B6
:101DD0004F925F926F927F928F929F92AF92BF923B
:101DE000CF92DF92EF92FF920F931F93CF93DF93E7
:101DF0005C017B014A016901390187E0680E711CB1
:101E000093E0759467949A95E1F72B01400E511E6B
:101E100010E000E0312CD0E0C0E0CE0187709927BF
:101E2000330C892B59F4FE0183E0F595E7958A95EB
:101E3000E1F7E00FF11FE80DF91D349037FE0AC0FD
:101E400021E030E0A701B5016C0F7D1F8FE293E028
:101E50000E94E00E2196CC16DD06F9F68FEFE81A07
:101E6000F80A060D171DE414F504A9F6DF91CF91C9
:101E70001F910F91FF90EF90DF90CF90BF90AF90A8
:101E80009F908F907F906F905F904F903F900895BC
:101E90002F923F924F925F926F927F928F929F927A
:101EA000AF92BF92CF92DF92EF92FF920F931F9368
:101EB000CF93DF9300D000D000D0CDB7DEB73C0188
:101EC0006A013E832D83FC82EB825801A41AB50A75
:101ED000B7FE03C0B194A194B1088D809E80861A8C
:101EE000970A97FE03C09194819491088A149B04E9
:101EF0005CF0902F812F0D811E819D838E839C2D00
:101F00008D2D6B01692F782F0C151D055CF09D81BF
:101F10008E817E836D83692F782F902F812F86018C
:101F2000C92ED82E1601201A310A2B012D813E818F
:101F3000421A530A57FE03C051944194510871014B
:101F400037FE03C03FEFE31AF30AF594E7948D815F
:101F50009E81861797075CF5A1E0B0E0BA83A9835C
:101F6000C016D1064CF1D301ED91FC910484F585A6
:101F7000E02D2B813C81A8016D817E818A149B0418
:101F80001CF04D815E81B801C3010995E418F50884
:101F9000F7FE0AC02D813E8189819A81280F391F61
:101FA0003E832D83E20CF31C0F5F1F4FD9CF2FEF21
:101FB0003FEF3A832983D4CF26960FB6F894DEBF3D
:101FC0000FBECDBFDF91CF911F910F91FF90EF908A
:101FD000DF90CF90BF90AF909F908F907F906F9049
:101FE0005F904F903F902F90089508952091D601D3
:101FF000260F3327331F21323105ECF42091FA01EB
:10200000FC0190E080E0243069F082E00895A09126
:10201000D6012191AC014A545E4FA40FB52FB11DDA
:102020002C930196861798F38091D601680F6093E0
:10203000D60180E0089581E008951092FA0181E0D0
:102040008093FC011092FB0161E082E10E94E906AD
:1020500061E083E10E94E906E9EBF0E080818E7F98
:10206000808380818D7F808388E48093B80085E4BD
:102070008093BC000895CF93DF9391E09093B501D6
:102080008823B9F0C091B800D091BA008091BC000B
:102090008A7B8093BC0060E082E10E94E90660E0F8
:1020A00083E10E94E9060E941D10D093BA00C093FC
:1020B000B800DF91CF910895E0912B0280912A0220
:1020C000E81730F4F0E0E057FE4F808190E008958B
:1020D0008FEF9FEF089590912B0280912A022FEFAE
:1020E0003FEF981748F4E92FF0E0E057FE4F2081CA
:1020F00030E09F5F90932B02C901089580912A02DE
:1021000090912B02891B990B0895CF92DF92EF9249
:10211000FF920F931F93CF93DF937C01CB018A0132
:1021200020913302222389F0EB016B01C40ED51EEE
:10213000CC15DD0569F06991D701ED91FC91019015
:10214000F081E02DC7010995F3CF642F0E94F60FAF
:10215000C801DF91CF911F910F91FF90EF90DF9019
:10216000CF900895CF93DF931F92CDB7DEB76983E9
:10217000209133022223F9F020913002203258F0CE
:1021800021E030E0FC013383228390E080E00F9077
:10219000DF91CF91089580913102E82FF0E0E0596E
:1021A000FE4F998190838F5F80933102809330023C
:1021B00081E090E0ECCF61E0CE0101960E94F60F45
:1021C000F7CFCF92DF92EF92FF920F931F93CF93AF
:1021D000DF93D091300281E0D13208F09CC0C091F1
:1021E00032020E9448076B017C018091FA01811143
:1021F0006CC082E08093FA0181E08093FC018FEF54
:102200008093F90110921E02D0931D02A0E7B1E065
:10221000EDEFF1E080E0D8138DC010921F028091A5
:102220001F02CC0FC82BC0931F028091FB0181308D
:1022300009F084C01092FB010E9448076B017C01E9
:1022400080911F028093BB008091B1019091B201F7
:10225000A091B301B091B401892B8A2B8B2BA1F0F3
:102260000E9448070091B1011091B2012091B30181
:102270003091B4016C197D098E099F090617170763
:102280002807390708F442C08091BC0083FDD8CFED
:1022900085EC8093BC000E9448076B017C01809113
:1022A000FA01823009F44CC08091F9018F3F09F4A2
:1022B00069C08091F901803209F466C08091F9010A
:1022C000803309F463C084E026C08091B10190910D
:1022D000B201A091B301B091B401892B8A2B8B2B51
:1022E00009F483CF0E9448070091B1011091B20117
:1022F0002091B3013091B4016C197D098E099F09B9
:10230000061717072807390708F06FCF8091B0012B
:102310000E943B1085E01092310210923002109220
:102320003302DF91CF911F910F91FF90EF90DF90DB
:10233000CF9008959D9191938F5F6DCF85EEA9CF3A
:102340008091B1019091B201A091B301B091B4011B
:10235000892B8A2B8B2B09F4A2CF0E94480700916E
:10236000B1011091B2012091B3013091B4016C1907
:102370007D098E099F09061717072807390708F0F6
:102380008ECFC4CF80E0C7CF82E0C5CF83E0C3CF7C
:10239000EF92FF920F931F93CF93DF937C01C62F91
:1023A00080914C0390914D03009709F459C02091FE
:1023B000500331E030933302209332021092310205
:1023C00010923002DC01ED91FC910190F081E02D42
:1023D00060E009958701EE24E394F12CD1E0C1502F
:1023E00080914C0390914D03CF3F91F1B0E2EB16F9
:1023F000F104D8F00E94E11080914C0390914D03BC
:1024000020915003D0933302209332021092310274
:1024100010923002DC01ED91FC910190F081E02DF1
:1024200060E00995EE24E394F12C80914C039091A7
:102430004D03F8016491DC01ED91FC910190F08174
:10244000E02D0995BFEFEB1AFB0A0F5F1F4FC7CFB7
:10245000DF91CF911F910F91FF90EF900C94E110BD
:10246000E0915C03F0915D0390818091620380951F
:10247000892380838701C15008F438C0F801849112
:1024800020914A0330914B03232B29F00E94F60937
:102490000F5F1F4FF0CF28E030E040E8E091580395
:1024A000F091590390916003582F5423D9F0508133
:1024B000952B9083E0915A03F0915B0390815091AA
:1024C0006103952B9083E0915A03F0915B03508157
:1024D0009091610390959523908346952150310901
:1024E000E9F6D6CF508190959523E3CFDF91CF9138
:1024F0001F910F91FF90EF9008951F93CF93DF935B
:10250000EC018D8D9E8D009721F1162F29A131E0D0
:102510003093330220933202109231021092300233
:10252000DC01ED91FC910190F081E02D60E00995D6
:102530008D8D9E8DDC01ED91FC910190F081E02D5F
:10254000612F09958D8D9E8DDF91CF911F910C94F8
:10255000E110ADA5BEA59C918BA9809589238C9394
:102560008B8D9C8D892B31F0862FDF91CF911F9120
:102570000C94F60928E030E080E8A9A5BAA599A94D
:10258000462F4823C1F04C91942B9C93ABA5BCA53E
:102590009C914AA9942B9C93ABA5BCA54C919AA95C
:1025A000909594239C9386952150310931F7DF91C2
:1025B000CF911F9108954C9190959423E6CF1F934E
:1025C000CF93DF93EC01162F8D8D9E8D892BB1F16A
:1025D0002DA93EA94FA958AD60E074E284EF90E0C8
:1025E0000E949F1D20513109410951095695479577
:1025F000379527952093B80066EA111167EACE0156
:102600000E947D128D8D9E8D892B41F129AD3AADB1
:102610004BAD5CAD60E074E284EF90E00E949F1DE2
:10262000205131094109510956954795379527950C
:102630002093B800DF91CF911F9108958B8D9C8DD1
:10264000892B21F08EAD9FAD0E94FD09EFA5F8A961
:1026500090818CA9809589238083CECFEFA5F8A99E
:1026600080819CA9892B8083E5CF90E080E008954C
:10267000EF92FF921F93CF93DF93EC018A819A81AF
:102680009E7F9A839A819D7F9A83182F117080FF75
:1026900013C0EF8DF8A1309779F0ADA1BEA11496CB
:1026A000ED90FC9015971596DC93CE9314970995B1
:1026B000EDA1FEA1F582E482812FDF91CF911F91E0
:1026C000FF90EF9008950F931F93CF93DF93FC013A
:1026D000A5A1B6A1109709F452C0EC01178A108E7B
:1026E000118E128E82818B7F8283058CF68DE02D78
:1026F000309709F440C08A8181FD3DC014960D9148
:102700001C9115971596DC93CE9314978A8182605D
:102710008A8309959A8180FB90F99A838A818D7FBB
:102720008A83EDA1FEA1158304838B819C81AD81F9
:10273000BE818F839887A987BA872FB7F894809135
:10274000D1029091D202A091D302B091D4022FBFB6
:102750004F81588569857A85841B950BA60BB70B2D
:102760008B879C87AD87BE878A818170DF91CF91EF
:102770001F910F9108958A8181608A83D6CF80E06E
:10278000F5CFCF93DF93EC0184E691E099838883C2
:102790008A8180FF03C0CE010E943813EDA1FEA103
:1027A000309789F017821EA21DA2A9A1BAA18BA100
:1027B0009CA1109799F4009749F41182108213821A
:1027C000128281E08783DF91CF910895DC01929698
:1027D0001C921E92919791838083F3CF009739F4D6
:1027E00094961C921E929397B383A283EACF9496F9
:1027F0009C938E9393970BA0DCA1C02DBAA3A9A3A1
:10280000E0CF8F929F92AF92BF920F931F93CF937F
:10281000DF93CDB7DEB7A1970FB6F894DEBF0FBE3A
:10282000CDBF19A2423008F44AE08E010F5D1F4F60
:10283000842E912CB12CA12CA50194010E949F1DE6
:10284000E62FB901CA01EA3044F5E05DD801EE9304
:102850008D01232B242B252B79F790E080E0109716
:1028600069F0FD0101900020E9F73197AF014A1BA3
:102870005B0BBD0184E392E00E94B305A1960FB605
:10288000F894DEBF0FBECDBFDF91CF911F910F91A6
:10289000BF90AF909F908F900895E95CD7CF42E0B2
:1028A00050E068E671E084E392E00C94B305CF92C7
:1028B000DF92EF92FF92CF93F0906F01E6E8F5E0A0
:1028C0008491E6EBF5E0E490E4EDF5E0C491CC23EF
:1028D00009F45EC081110E94C006EC2FF0E0EE0FFB
:1028E000FF1FE859FF4FA591B491EC91EE2131E023
:1028F00020E009F430E0832F922F21E082278170BD
:10290000F81249C010926E0180916D018823D1F1B7
:10291000C0902E02D0902F028FEFC81AD80AD09202
:102920002F02C0922E020D2C000CEE08FF084AE088
:10293000C701B601F7FE0DC06DE284E392E00E948C
:10294000530666277727CB016C197D098E099F09ED
:102950004AE00E9401140E944F1410926D01609190
:102960006C0181E0682760936C0189E00E94E906B0
:1029700080912E0290912F02039721F410922F0242
:1029800010922E02CF91FF90EF90DF90CF9008959C
:1029900090E080E0B2CF80916E018F5F80936E01F6
:1029A0008C3008F4B1CF81E0F826F0926F011092DC
:1029B0006E01FF2009F4A8CF80936D01A5CF20916F
:1029C000350330913603C901079697FD079623E03A
:1029D000959587952A95E1F720913303309134033B
:1029E000829FA001839F500D929F500D112470E093
:1029F00060E080914E0390914F030C94F11E0E9471
:102A0000EC1E85ED8093BC008091B1019091B201E4
:102A1000A091B301B091B4010796A11DB11D23E0AF
:102A2000B695A795979587952A95D1F72091BC00E3
:102A300024FD03C01092FA0108954091B101509114
:102A4000B2016091B3017091B401452B462B472B25
:102A500069F30097A105B10541F025E32A95F1F747
:102A600000000197A109B109E1CF8091B0010C9458
:102A70003B10CF93DF93EC010E94C113CE01DF9195
:102A8000CF910C94631E1F920F920FB60F921124D8
:102A90002F933F934F935F936F937F938F939F9366
:102AA000AF93BF93EF93FF9384E392E00E943106CC
:102AB000FF91EF91BF91AF919F918F917F916F9116
:102AC0005F914F913F912F910F900FBE0F901F90EC
:102AD00018951F920F920FB60F9211242F938F9378
:102AE0009F93EF93FF93E0914402F0914502808120
:102AF000E0914A02F0914B0282FD1BC090818091CF
:102B00004D028F5F8F7320914E02821741F0E0914A
:102B10004D02F0E0EC5CFD4F958F80934D02FF91EC
:102B2000EF919F918F912F910F900FBE0F901F905B
:102B300018958081F4CF1F920F920FB60F92112437
:102B40002F933F938F939F93AF93BF938091D10225
:102B50009091D202A091D302B091D4023091200280
:102B600023E0230F2D3758F50196A11DB11D2093A9
:102B700020028093D1029093D202A093D302B0930B
:102B8000D4028091210290912202A0912302B0915F
:102B900024020196A11DB11D80932102909322026F
:102BA000A0932302B0932402BF91AF919F918F9184
:102BB0003F912F910F900FBE0F901F90189526E810
:102BC000230F0296A11DB11DD2CF1F920F920FB6F7
:102BD0000F9211242F933F934F935F936F937F93A3
:102BE0008F939F93AF93BF93EF93FF938091B9001F
:102BF000887F803609F44AC0F0F5883209F4A7C00E
:102C000018F5803109F49BC0B8F4882309F4F9C0A1
:102C1000883009F494C0FF91EF91BF91AF919F91DB
:102C20008F917F916F915F914F913F912F910F9075
:102C30000FBE0F901F901895883109F488C080321C
:102C400051F78093F90114C0803409F49DC040F419
:102C50008033B9F38833F9F68093F90185ECB0C07D
:102C6000803509F485C0883509F496C0883499F612
:102C70000E940115D0CF883909F48CC038F5883707
:102C800029F050F4883611F0803729F683E08093DC
:102C9000FA011092F80157C0883809F47BC08039D6
:102CA00019F0803809F0B7CF8091F801803208F030
:102CB00071C0E091F80181E08E0F8093F80180915E
:102CC000BB00F0E0E852FE4F80833DC0803B39F00E
:102CD000E0F4803A09F479C0883A09F09CCF84E0A6
:102CE0008093FA011092D7011092D601E091280248
:102CF000F091290209958091D60181110FC081E0E0
:102D00008093D6011092B60109C0803C09F4A6CF89
:102D1000883C09F4A3CF883B09F07DCFE091D7012F
:102D200081E08E0F8093D701F0E0EA54FE4F80815E
:102D30008093BB009091D7018091D60129C08091EA
:102D40001F028093BB0085EC8093BC0064CF909100
:102D50001E0280911D02981758F5E0911E0281E035
:102D60008E0F80931E02F0E0E350FE4F8081E9CF8A
:102D7000E0911E0281E08E0F80931E028091BB00C5
:102D8000F0E0E350FE4F808390911E0280911D027F
:102D90009817C8F285E8D8CFE0911E0281E08E0F27
:102DA00080931E028091BB00F0E0E350FE4F8083D1
:102DB0008091FC0181115CCF81E08093FB0184EA6A
:102DC0008093BC001092FA0126CF85EC8093BC0062
:102DD0001092FA018091F801803230F4E091F8010C
:102DE000F0E0E852FE4F10826091F80170E0E0914F
:102DF0002602F091270288ED91E009951092F801E2
:102E00000ACF1092F90134CFCF93DF93E4E3F2E0DD
:102E10001382128248EE53E060E070E044835583F1
:102E20006683778384E191E09183808385EC90E0F1
:102E30009587848784EC90E09787868780EC90E084
:102E4000918B808B81EC90E0938B828B82EC90E075
:102E5000958B848B86EC90E0978B868B118E128EEF
:102E6000138E148EA3E2B3E013961C921E92129757
:102E700014964D935D936D937C93179786E291E042
:102E800011969C938E93EFE6F3E0178211821082E5
:102E90001382128215821482168281E08783EFE208
:102EA000F3E013821282C0E8D0E0D583C48320E42B
:102EB00030E037832683D187C08733872287168AFD
:102EC0001586148617861686858B848B2FEF3FEF29
:102ED000338B228B318B208B878B108E128E118E31
:102EE00088E391E091838083148E138EB68FA58F33
:102EF00010A2178E8FEF84A385A386A387A380A734
:102F000080E89AE1A6E0B0E085AB96ABA7ABB0AFA6
:102F100080EA96E8A1E0B0E081AF92AFA3AFB4AF92
:102F200080E586AF17AEECEFF2E084E691E09183A6
:102F30008083AEEFB2E02C912E7F2C932C912D7FCD
:102F40002C932C912B7F2C93138614861586168632
:102F500013821482158216821782108611861286B9
:102F600012A211A214A213A216A215A2178A108EE1
:102F7000118E128E2EE735E0348F238F168E158E2C
:102F800010A2178E438354836583768343815481D3
:102F90006581768147835087618772872FB7F89460
:102FA0004091D1025091D2026091D3027091D4022B
:102FB0002FBF43875487658776874FEF5FEFBA014E
:102FC0004787508B618B728B438B548B658B768BD1
:102FD000E5EDF2E091838083A7EDB2E08C918E7FE6
:102FE0008C938C918D7F8C938C918B7F8C9313869B
:102FF000148615861686138214821582168217820D
:1030000010861186128612A211A214A213A216A271
:1030100015A2178A108E118E128E87E594E1948F77
:10302000838F168E158E10A2178E82E090E0A0E09E
:10303000B0E083839483A583B68383819481A58143
:10304000B68187839087A187B2872FB7F894809144
:10305000D1029091D202A091D302B091D4022FBF9D
:1030600083879487A587B6874787508B618B728B40
:10307000438B548B658B768BDF91CF910895789439
:1030800084B5826084BD84B5816084BD85B582606D
:1030900085BD85B5816085BD80916E00816080931E
:1030A0006E00109281008091810082608093810087
:1030B0008091810081608093810080918000816097
:1030C000809380008091B10084608093B1008091F2
:1030D000B00081608093B00080917A00846080931A
:1030E0007A0080917A00826080937A0080917A00E1
:1030F000816080937A0080917A00806880937A0062
:103100001092C100E0914402F091450282E0808378
:10311000E0914002F09141021082E0914202F09170
:10312000430280E1808310924C02E0914802F091CA
:10313000490286E08083E0914602F0914702808157
:1031400080618083E0914602F0914702808188602F
:103150008083E0914602F0914702808180688083FD
:10316000E0914602F091470280818F7D80838091BB
:103170004E0390914F03892B11F10E94DF1420918F
:10318000350330913603809133039091340321321B
:1031900031050CF046C0B9016052710977FF02C0D9
:1031A0006F5F7F4F759567958357910997FD0196DE
:1031B00000E210E023E730E044EE55E045C0209106
:1031C000350330913603C901079697FD0796B3E0A2
:1031D00095958795BA95E1F72091330330913403A3
:1031E000AC01429FC001439F900D529F900D11244E
:1031F0000E94C71D90934F0380934E03892B09F0C3
:10320000BCCFC4E8DAE0FE016491662339F084E3C0
:1032100092E00E9453062196892BA9F70E944F1431
:10322000FFCFB9016054710977FF02C06F5F7F4F14
:10323000759567958255910997FD019600E410E018
:1032400022E530E044EC57E0959587950E94E70E23
:1032500082E08093510380914C0390914D03892B20
:1032600009F46BC18CE38093500310922B021092EF
:103270002A0210923102109230020E941D1081EB3E
:1032800095E0909329028093280282EB95E0909339
:103290002702809326028091570387FD1EC061E0BC
:1032A0000E94170761E0809157030E94E90661E0E0
:1032B00070E080E090E00E946D0760E0809157032D
:1032C0000E94E9066AE070E080E090E00E946D07ED
:1032D00061E0809157030E94E90680914C03909130
:1032E0004D03892B09F4E8C12091640330916503F3
:1032F000409166035091670360E074E284EF90E0D0
:103300000E949F1D20513109410951095695479549
:10331000379527952093B80064E08EEA95E00E94E7
:10332000C8116091350361508FE293E00E947D12D5
:1033300064E08AEA95E00E94C8118091510360E13F
:10334000813009F064E18FE293E00E947D1264E035
:1033500086EA95E00E94C8118FE880936C03809103
:103360003303909134038038910509F0BEC18091F8
:103370003503909136038034910509F0C6C18091E0
:103380005103813009F0AFC18FE980936C03C2E132
:103390006AED8FE293E00E947D126C2F8FE293E042
:1033A0000E947D1261E88FE293E00E947D1260919D
:1033B0006C038FE293E00E947D1269ED8FE293E04F
:1033C0000E947D128091510362E2813009F061EF29
:1033D0008FE293E00E947D1266E080EA95E00E9411
:1033E000C81180914C0390914D03892B09F491C130
:1033F000209168033091690340916A0350916B03F7
:1034000060E074E284EF90E00E949F1D205131093A
:103410004109510956954795379527952093B8004E
:103420000E94DF1462E084E00E94170761E089E0F7
:103430000E9417078CEF92E00E94840585ED92E0D0
:103440000E94840585ED92E00E946313412C74E292
:10345000572E74EF672E712CE0E02E2EE0E03E2E0A
:1034600011E080916F0390917003909374038093A7
:1034700073031092770310927803109279031092DD
:103480007A0310927B0310927C0310927D031092BA
:103490007E0310927F03109280031092810310929A
:1034A000820380917603882309F4B0C1809175036B
:1034B0008111ACC1E0917303F0917403309709F46A
:1034C000A5C180917B0390917C03A0917D03B09175
:1034D0007E030196A11DB11D80937B0390937C0315
:1034E000A0937D03B0937E03C3A1D4A1828180FF0A
:1034F0001FC08091770390917803A0917903B091D8
:103500007A030196A11DB11D8093770390937803F0
:10351000A0937903B0937A0387859089A189B289B2
:10352000892B8A2B8B2B09F0FEC0CF010E94381308
:10353000D0937403C0937303B9CF61E080915503B6
:103540000E94170761E0809156030E94170780913F
:103550005503082E000C990BFC01E053FA4FE4913F
:10356000F0E0EE0FFF1FEA53FA4F259134913093AC
:103570005D0320935C03FC01EE54FA4FE491E09369
:10358000620380915603082E000C990BFC01E05356
:10359000FA4FE491F0E0EE0FFF1FEA53FA4FA591C6
:1035A000B491B0935F03A0935E03FC01EE54FA4F15
:1035B000E491E09363038C91E82BEC9380914A03B0
:1035C00090914B03892B09F434C0CFB7F8948091C4
:1035D0002502811127C0EAEDF5E08491ECEBF5E0DE
:1035E0009491E82FF0E0EE0FFF1FEA56FA4FA591F5
:1035F000B491EC91E92321F461E08AE00E94E906AC
:1036000061E08AE00E9417078CB580618CBD8CB5A3
:1036100080648CBD61E08DE00E94170761E08BE063
:103620000E941707809125028F5F80932502CFBFEC
:1036300032CE61E0809153030E94170761E08091D0
:1036400054030E94170780915303082E000C990B16
:10365000FC01E053FA4FE491F0E0EE0FFF1FEA5354
:10366000FA4F259134913093590320935803FC016C
:10367000EE54FA4FE491E093600380915403082ED6
:10368000000C990BFC01E053FA4FE491F0E0EE0FCF
:10369000FF1FEA53FA4FA591B491B0935B03A09337
:1036A0005A03FC01EE54FA4FE491E09361038C91CC
:1036B000E095E823EC93EFCD80914A0390914B0382
:1036C000892B31F080916D0390916E030E94FD096A
:1036D000E0915E03F0915F03908180916303809598
:1036E0008923808319CE8FEC50CE8036910569F402
:1036F0008091350390913603409739F480915103BE
:10370000813029F480E180936C03C2E041CE8FEADE
:10371000FACFE0915E03F0915F03808190916303A3
:10372000892B80837DCE2FB7F8948091D102909120
:10373000D202A091D302B091D4022FBFE0917303C3
:10374000F0917403438154816581768183849484EC
:10375000A584B684C780D084E184F284881999094D
:10376000AA09BB098C159D05AE05BF0508F4E0CE7E
:1037700087859089A189B289181619061A061B0631
:103780005CF487859089A189B2890197A109B10963
:103790008787908BA18BB28B8789908DA18DB28DFD
:1037A0000196A11DB11D878B908FA18FB28F83854C
:1037B0009485A585B685C780D084E184F2848C0D7C
:1037C0009D1DAE1DBF1D83879487A587B687478340
:1037D000508761877287038CF48DE02D309709F450
:1037E000A7CE099580917F0390918003A0918103DA
:1037F000B09182030196A11DB11D80937F03909328
:103800008003A0938103B093820392CEC0912E02D5
:10381000D0912F02C130D10579F0239709F475C1F9
:103820002114310409F41DCE0E941D06882309F4D9
:1038300018CE0E94000015CE80912D0281112AC061
:103840008CEF92E00E9463130E94DF1410934303F5
:1038500010934403D0934203C0934103D093400399
:10386000C0933F0310923C0310923B0310923E031F
:1038700010923D0310934703C6E0D1E06881229681
:103880008FE293E00E943B0CF1E0C031DF07B1F71B
:1038900010932D0280914C0390914D03892B09F4D4
:1038A00093C0209164033091650340916603509169
:1038B0006703C301B2010E949F1D205131094109D4
:1038C000510956954795379527952093B80065E09F
:1038D0008EE99AE00E94C8116091330361508FE233
:1038E00093E00E947D122091350330913603C90187
:1038F000079697FD079633E0959587953A95E1F7FA
:103900002091330330913403829F7001839FF00C28
:10391000929FF00C1124C0914E03D0914F038091DF
:103920004C0390914D03EC0EFD1E009709F4A1C0CD
:1039300020915003109333022093320210923102EF
:1039400010923002DC01ED91FC910190F081E02DAC
:1039500060E40995CC24C394D12C80914C039091C0
:103960004D03EC16FD0609F446C0B0E2CB16D104B7
:10397000D8F00E94E11080914C0390914D0320916A
:1039800050031093330220933202109231021092AE
:103990003002DC01ED91FC910190F081E02D60E4BA
:1039A0000995CC24C394D12C80914C0390914D0364
:1039B0006991DC01ED91FC910190F081E02D099578
:1039C000BFEFCB1ADB0AC9CF80914A0390914B031A
:1039D000892B31F080916D0390916E030E94FD0957
:1039E000E0915E03F0915F03908180916303809585
:1039F000892380836CCF0E94E11080914C039091C9
:103A00004D03892B09F477C0209168033091690335
:103A100040916A0350916B03C301B2010E949F1D44
:103A200020513109410951095695479537952795F8
:103A30002093B80060912C0270E090E080E04AE0B2
:103A40000E9401140E944F1480912C02833008F4CC
:103A5000E7CE8CEF92E00E94381310922C028091F6
:103A60002E0290912F02019709F0DACE0E94DF1406
:103A7000D7CEE0915C03F0915D0380819091620369
:103A8000892B8083CE15DF0509F4B7CF899120916A
:103A90004A0330914B03232B19F00E94F609F2CF11
:103AA00028E030E040E8E0915803F091590390910C
:103AB0006003582F5423D9F05081952B9083E091C7
:103AC0005A03F0915B03908150916103952B908391
:103AD000E0915A03F0915B035081909161039095BE
:103AE00095239083469521503109E9F6CBCF50813B
:103AF00090959523E3CFE0915E03F0915F03808181
:103B000090916303892B808395CF10922D0288CEEC
:103B100085ED92E00E94C1138CEF92E00E94C113E8
:103B200088E391E09093300380932F0380914E03BC
:103B300090914F03009711F00C94631E0895A1E239
:103B40001A2EAA1BBB1BFD010DC0AA1FBB1FEE1F17
:103B5000FF1FA217B307E407F50720F0A21BB30B62
:103B6000E40BF50B661F771F881F991F1A9469F7DE
:103B700060957095809590959B01AC01BD01CF013A
:103B80000895EE0FFF1F0590F491E02D09940F9317
:103B90001F93CF93DF938230910510F482E090E081
:103BA000E0918503F091860330E020E0B0E0A0E0F2
:103BB000309799F42115310509F44AC0281B390BB7
:103BC00024303105D8F58A819B816115710589F111
:103BD000FB0193838283FE0111C0408151810281E8
:103BE000138148175907E0F04817590799F41097BF
:103BF00061F012960C93129713961C933296CF0194
:103C0000DF91CF911F910F91089500938503109339
:103C10008603F4CF2115310551F04217530738F0D0
:103C2000A901DB019A01BD01DF01F801C1CFEF015C
:103C3000F9CF9093860380938503CDCFFE01E20FE9
:103C4000F31F819391932250310939832883D7CF71
:103C50002091830330918403232B41F420910201AE
:103C6000309103013093840320938303209100015A
:103C7000309101012115310541F42DB73EB7409136
:103C8000040150910501241B350BE0918303F09151
:103C90008403E217F307A0F42E1B3F0B2817390704
:103CA00078F0AC014E5F5F4F2417350748F04E0F98
:103CB0005F1F5093840340938303819391939FCF1D
:103CC000F0E0E0E09CCFCF93DF930097E9F0FC01B8
:103CD000329713821282A0918503B0918603ED0181
:103CE00030E020E01097A1F420813181820F931FF2
:103CF00020918303309184032817390709F061C0AC
:103D0000F0938403E0938303DF91CF910895EA0158
:103D1000CE17DF07E8F54A815B819E014115510509
:103D2000B1F7E901FB83EA8349915991C40FD51F8B
:103D3000EC17FD0761F4808191810296840F951F35
:103D4000E90199838883828193819B838A83F0E050
:103D5000E0E012968D919C9113970097B9F52D9103
:103D60003C911197CD010296820F931F20918303FE
:103D7000309184032817390739F6309751F510929E
:103D8000860310928503B0938403A0938303BCCF72
:103D9000D383C28340815181840F951FC817D907EF
:103DA00061F44E5F5F4F88819981480F591F51839D
:103DB00040838A819B81938382832115310509F099
:103DC000B0CFF0938603E09385039ECFFD01DC0125
:103DD000C0CF13821282D7CF81E090E0F8940C9488
:103DE000F81EDC0101C06D9341505040E0F708958A
:103DF00015E0C3E5D5E004C0FE010E94C11D219677
:0A3E0000C435D107C9F7F894FFCFCD
:103E0A000000870380005300540041005200540010
:103E1A00000000005306B305E005A0061106EF05F1
:103E2A00030600000000B21085103513B0057E109D
:103E3A006B105C10000000003B0CB3053513F50F46
:103E4A004609B005E00EB80ED40EC80E480FB005EC
:103E5A00010ADF12B608FF08010EE40D6C0D0D0D04
:0C3E6A0000000000C11339150D0A000013
:00000001FF
