:100000000C9447050C946F050C946F050C946F05C8
:100010000C946F050C946F050C946F050C946F0590
:100020000C946F050C946F050C946F050C946F0580
:100030000C946F050C946F050C946F050C946F0570
:100040000C9407180C946F050C94D5170C94AF17EB
:100050000C946F050C946F050C946F050C946F0550
:100060000C9451180C946F0500000000230026002A
:10007000290000000000003E5B4F5B3E3E6B4F6B73
:100080003E1C3E7C3E1C183C7E3C181C577D571C79
:100090001C5E7F5E1C00183C1800FFE7C3E7FF00F2
:1000A00018241800FFE7DBE7FF30483A060E262940
:1000B000792926407F050507407F05253F5A3CE703
:1000C0003C5A7F3E1C1C08081C1C3E7F14227F22C9
:1000D000145F5F005F5F06097F017F006689956A94
:1000E000606060606094A2FFA29408047E0408101F
:1000F000207E201008082A1C08081C2A08081E1048
:100100001010100C1E0C1E0C30383E3830060E3EFF
:100110000E06000000000000005F0000000700075E
:1001200000147F147F14242A7F2A12231308646288
:1001300036495620500008070300001C22410000E9
:1001400041221C002A1C7F1C2A08083E0808008047
:1001500070300008080808080000606000201008DF
:1001600004023E5149453E00427F400072494949E0
:10017000462141494D331814127F10274545453912
:100180003C4A494931412111090736494949364616
:100190004949291E000014000000403400000008F6
:1001A0001422411414141414004122140802015999
:1001B00009063E415D594E7C1211127C7F49494926
:1001C000363E414141227F4141413E7F49494941BB
:1001D0007F090909013E414151737F0808087F00EA
:1001E000417F41002040413F017F081422417F4070
:1001F0004040407F021C027F7F0408107F3E414147
:10020000413E7F090909063E4151215E7F091929B6
:1002100046264949493203017F01033F4040403FA0
:100220001F2040201F3F4038403F631408146303E1
:10023000047804036159494D43007F414141020460
:10024000081020004141417F040201020440404067
:100250004040000307080020545478407F2844445D
:10026000383844444428384444287F385454541877
:1002700000087E090218A4A49C787F080404780072
:10028000447D40002040403D007F10284400004154
:100290007F40007C047804787C0804047838444467
:1002A0004438FC1824241818242418FC7C0804045E
:1002B00008485454542404043F44243C4040207CC7
:1002C0001C2040201C3C4030403C44281028444C1A
:1002D0009090907C4464544C4400083641000000E7
:1002E000770000004136080002010204023C262388
:1002F000263C1EA1A161123A4040207A3854545540
:100300005921555579412254547842215554784009
:1003100020545579400C1E52721239555555593991
:100320005454545939555454580000457C410002E6
:10033000457D420001457C407D1211127DF028254B
:1003400028F07C545545002054547C547C0A097F85
:100350004932494949323A4444443A324A48483099
:100360003A4141217A3A42402078009DA0A07D3D4B
:100370004242423D3D4040403D3C24FF2424487ED3
:100380004943662B2FFC2F2BFF0929F620C0887EBE
:10039000090320545479410000447D413048484AC3
:1003A00032384040227A007A0A0A727D0D19317D76
:1003B0002629292F28262929292630484D4020384A
:1003C0000808080808080808382F10C8ACBA2F1009
:1003D0002834FA00007B000008142A142222142A70
:1003E00014085500550055AA55AA55AAFF55FF55A2
:1003F000FF000000FF00101010FF00141414FF0095
:100400001010FF00FF1010F010F0141414FC001472
:1004100014F700FF0000FF00FF1414F404FC141490
:1004200017101F10101F101F1414141F001010108D
:10043000F0000000001F101010101F10101010F01E
:1004400010000000FF101010101010101010FF10FE
:10045000000000FF140000FF00FF00001F10170045
:1004600000FC04F414141710171414F404F400001E
:10047000FF00F714141414141414F700F7141414D0
:10048000171410101F101F141414F4141010F0106F
:10049000F000001F101F0000001F14000000FC14DB
:1004A0000000F010F01010FF10FF141414FF1410CF
:1004B00010101F00000000F010FFFFFFFFFFF0F022
:1004C000F0F0F0FFFFFF0000000000FFFF0F0F0F34
:1004D0000F0F3844443844FC4A4A4A347E0202062C
:1004E00006027E027E0263554941633844443C045F
:1004F000407E201E2006027E020299A5E7A5991CD7
:100500002A492A1C4C7201724C304A4D4D303048F9
:10051000784830BC625A463D3E494949007E010157
:10052000017E2A2A2A2A2A44445F444440514A44EC
:100530004040444A51400000FF0103E080FF0000BA
:1005400008086B6B083612362436060F090F0600B2
:100550000018180000001010003040FF0101001FBB
:1005600001011E00191D1712003C3C3C3C0000001C
:100570000000000103070F1F3F7F0080C0E0F0F87C
:10058000FCFE000000080002010000030407000058
:1005900000000000000000000000240027002A00E6
:1005A000DB40A4A62EAF2000A1C8D300408DAED55D
:1005B00080A80102040810204080010204081020D5
:1005C00001020408102000000000250028002B0074
:1005D00004040404040404040202020202020303E9
:1005E000030303030000600000000000000000009F
:1005F0000000000000E0000000000000000000001B
:1006000000000001E0000000000000000000000009
:10061000000001F0000000000000000000000000E9
:100620000003F000000000000000000000000000D7
:1006300007F00000000000000000000000000007BC
:10064000F8000000000000000000000000000FF8AB
:1006500000000003C0007E000001E0007F0FF800F2
:10066000000003C000FE000001E000FFEFF8000002
:100670000003C000FE000001E000FFFFF8000000E2
:1006800003C000F00000000F007FFE7FC0000003E9
:10069000C000F00000000F003FFE7FF83FF1FBCFED
:1006A000FCFEF3BC3DEFE01FFE7FFF7FFBFFDFFEA4
:1006B000FEFFBC3DEFE01FC6FFFF7FFBFFDFFEFE3E
:1006C000FFBC3DEFE00FE3C7FE787BC3DE1EF0FF0B
:1006D000BC3DEF0007FF87FC787BC3DE1EF0F83CD3
:1006E0003DEF0001FFFFF0007BC3C01EF0F03C3D7A
:1006F000EF0001F37FE03FFBC3CFFEF0F03C3DEFA6
:100700000003E33F807FFBC3DFFEF0F03C3DEF00E2
:1007100007E73C00787BC3DE1EF0F03C3DEF0007AE
:10072000FFBE00787BC3DE1EF0F03C3DEF0007FF0C
:10073000FE00787BC3DE1EF0F03C3DEF000FFFFEB5
:10074000007FFBFFDFFEF0F03FFDEFE00FFFFF005B
:100750007FFBFFDFFEF0F03FFDEFE00FF9FF003E13
:1007600079F9CF9EF0F01F3DE7E01FF1FF00000098
:100770000000000000000000001F80FF007FFFFF5E
:10078000FFFFFFFFFFFFFFE01C007F007FFFFFFF79
:10079000FEB46D888D18E000001F007FFFFFFFFE94
:1007A00095AD7DB577E000000F007FFFFFFFFEA550
:1007B000AD9D8D19E0000006007FFFFFFFFEB5AD87
:1007C000EDB57EE0000000000001800000000000A8
:1007D000000000000380000000000000000000078F
:1007E000C000000000000000000007C00000000082
:1007F00000000000000FC00000000000000000002A
:100800001FE00000000000000000001FE0000000EA
:100810000000000000003FE00000000000000000B9
:10082000003FF00000000000000000007FF000002A
:1008300000000000001FF87FF00000000000000032
:100840003FFE7FF0000000000000003FFF7FF0004F
:100850000000000000001FFFFBE00000000000009F
:10086000000FFFF9FFC00000000000000FFFF9FFBC
:10087000F800000000000007FFF1FFFF000000008B
:10088000000003FC73FFFF80000000000001FE3F3A
:10089000FFFF80000000000000FF1E0FFF000000AF
:1008A000000000007FFE1FFC000000000000003F71
:1008B000FFFFF8000000000000000FDFFFE0000075
:1008C00000000000001F19FFC00000000000000031
:1008D0003F3CFF00000000000000007E7CF80000AC
:1008E0000000000000007FFE7C000000000000000F
:1008F00000FFFFFC0000000000000000FFFFFE0002
:1009000000000000000000FFFFFE000000000000EB
:100910000001FFEFFE0000000000000001FFCFFE1D
:100920000000000000000003FF07FE0000000000C0
:10093000000003FC07FE0000000000000003F003BD
:10094000FE00000000000000018000FE000000002A
:100950000000000000007E00000000000000000019
:10096000003E000000000000000000000C0000003D
:10097000000000078000FC000003C00000000780AA
:1009800001FC000003C0000000078001FC00000320
:10099000C0000000078001E00000001E000000070A
:1009A0008001E00000001E007FE3F79FF9FDE7787B
:1009B0007BDFC0FFF7FFBFFDFDFF787BDFC0FFF7E8
:1009C000FFBFFDFDFF787BDFC0F0F787BC3DE1FF97
:1009D000787BDE00F0F787BC3DE1F0787BDE00003D
:1009E000F787803DE1E0787BDE007FF7879FFDE1C0
:1009F000E0787BDE00FFF787BFFDE1E0787BDE007B
:100A0000F0F787BC3DE1E0787BDE00F0F787BC3D86
:100A1000E1E0787BDE00F0F787BC3DE1E0787BDE4B
:100A200000FFF7FFBFFDE1E07FFBDFC0FFF7FFBF87
:100A3000FDE1E07FFBDFC07CF3F39F3DE1E03E7B27
:100A4000CFC00000000000000000000000FFFFFF1A
:100A5000FFFFFFFFFFFFFFC0FFFFFFFFFD68DB1190
:100A60001A31C0FFFFFFFFFD2B5AFB6AEFC0FFFFEB
:100A7000FFFFFD4B5B3B1A33C0FFFFFFFFFD6B5BCE
:100A8000DB6AFDC02200FF2100009C19CF1F11244A
:100A90001FBECFEFD8E0DEBFCDBF23E0AEE8B1E0B0
:100AA00001C01D92AF3BB207E1F711E0A0E0B1E059
:100AB000E8E2F5E402C005900D92AE38B107D9F72F
:100AC00015E0C6E4D5E004C02197FE010E94832012
:100AD000C534D107C9F70E94E51A0C9487220C94FB
:100AE0000000809158028F5F809358020895809192
:100AF000530390915403892B59F0E0914F03F091E7
:100B0000500381E09081911180E091E08927089560
:100B100081E0FBCF0895089508950895AF92BF92A4
:100B2000CF92DF92EF92FF920F931F93CF93DF93B9
:100B30006C017B018B01040F151FEB015E01AE18E8
:100B4000BF08C017D10759F06991D601ED91FC910A
:100B50000190F081E02DC6010995892B79F7C50137
:100B6000DF91CF911F910F91FF90EF90DF90CF9089
:100B7000BF90AF900895FC01538D448D252F30E038
:100B8000842F90E0821B930B541710F0CF9608959A
:100B900001970895FC01918D828D981761F0A28DC7
:100BA000AE0FBF2FB11D5D968C91928D9F5F9F738D
:100BB000928F90E008958FEF9FEF0895FC01918D43
:100BC000828D981731F0828DE80FF11D858D90E0B0
:100BD00008958FEF9FEF0895FC01918D228D892F4D
:100BE00090E0805C9F4F821B91098F739927089535
:100BF00080E692E00E94EC0521E0892B09F420E0D8
:100C0000822F089580E090E0892B29F00E94F8055A
:100C100081110C9400000895FC01A48DA80FB92F38
:100C2000B11DA35ABF4F2C91848D90E001968F7314
:100C30009927848FA689B7892C93A089B1898C9133
:100C4000837080648C93938D848D981306C0028882
:100C5000F389E02D80818F7D80830895EF92FF924C
:100C60000F931F93CF93DF93EC0181E0888F9B8DCF
:100C70008C8D98131AC0E889F989808185FF15C089
:100C80009FB7F894EE89FF896083E889F9898081AC
:100C90008370806480839FBF81E090E0DF91CF917B
:100CA0001F910F91FF90EF900895F62E0B8D10E09D
:100CB0000F5F1F4F0F731127E02E8C8D8E110CC00C
:100CC0000FB607FCFACFE889F989808185FFF5CF57
:100CD000CE010E940C06F1CFEB8DEC0FFD2FF11D24
:100CE000E35AFF4FF0829FB7F8940B8FEA89FB8994
:100CF00080818062CFCFCF93DF93EC01888D8823F2
:100D0000B9F0AA89BB89E889F9898C9185FD03C06E
:100D1000808186FD0DC00FB607FCF7CF8C9185FF53
:100D2000F2CF808185FFEDCFCE010E940C06E9CF86
:100D3000DF91CF910895833081F028F4813099F0CC
:100D40008230A9F008958730A9F08830C9F0843046
:100D5000B1F4809180008F7D03C0809180008F77F7
:100D600080938000089584B58F7784BD089584B5FD
:100D70008F7DFBCF8091B0008F778093B000089576
:100D80008091B0008F7DF9CF1F93CF93DF93282FF1
:100D900030E0F901EE57FA4F8491F901EE54FA4F21
:100DA000D491F901E053FA4FC491CC23A9F0162F46
:100DB00081110E949B06EC2FF0E0EE0FFF1FEA531B
:100DC000FA4FA591B4918FB7F894EC91111108C026
:100DD000D095DE23DC938FBFDF91CF911F910895D3
:100DE000DE2BF8CFCF93DF9390E0FC01EE54FA4F67
:100DF000249180539A4FFC0184918823D1F090E094
:100E0000880F991FFC01EA56FA4FA591B491FC0195
:100E1000EA53FA4FC591D491623071F49FB7F894B8
:100E20003C91822F809583238C93E8812E2B2883FD
:100E30009FBFDF91CF9108958FB7F894EC912E2B3F
:100E40002C938FBFF6CF3FB7F894809144029091D6
:100E50004502A0914602B091470226B5A89B05C065
:100E60002F3F19F00196A11DB11D3FBFBA2FA92F29
:100E7000982F8827BC01CD01620F711D811D911D26
:100E800042E0660F771F881F991F4A95D1F7089592
:100E90008F929F92AF92BF92CF92DF92EF92FF928A
:100EA0004B015C010E9423076B017C010E94230718
:100EB0006C197D098E099F09683E73408105910573
:100EC000A8F321E0821A9108A108B10888EEC80EA3
:100ED00083E0D81EE11CF11C81149104A104B1042B
:100EE00029F7FF90EF90DF90CF90BF90AF909F9049
:100EF0008F900895EF92FF920F931F93CF93DF93FC
:100F0000EC01EC80FD806E157F050CF070C057FF82
:100F100004C0240F351F50E040E08E819F81FA010C
:100F2000E20FF31F8E179F071CF49C01241B350B47
:100F3000121613060CF05BC0922F842F86958695AF
:100F400086958E9DD0018F9DB00D11246A0F7B1F59
:100F5000AF8DB8A1A60FB71F477049F188E0841B79
:100F6000482F682F70E0FB01E658FA4FE4912817EC
:100F700008F063C0621B71092FEF30E002C03595A5
:100F800027956A95E2F7E2230130110539F0B0F1B7
:100F90000230110561F58C91E82702C08C91E82B95
:100FA000EC93941720F12C813D81A20FB31FE92F00
:100FB000E41BE83078F00230110521F58E2F9C916A
:100FC00090959C932C813D81A20FB31F885088304F
:100FD000B0F7E770EE2359F0F0E0EE58FA4FE491E5
:100FE00001301105F9F010F10230110519F1DF910E
:100FF000CF911F910F91FF90EF900895E0958C9104
:10100000E823CECF81E00115110509F480E0819538
:101010009E2F8C932C813D81A20FB31F9850983046
:10102000C0F7D7CF8C91E82BEC93E1CFE0958C9172
:10103000E823FACF8C91E827F7CF0130110509F4A6
:10104000ADCFE0F20230110509F4A5CFAE0DBF1D02
:10105000AECF0F931F93CF93DF9377FF04C0260F7C
:10106000371F70E060E0DC011496CD91DC91FB014C
:10107000E20FF31FCE17DF071CF49E01261B370B70
:10108000121613064CF5FA0157FD3796A3E0F595B5
:10109000E795AA95E1F7EC9FD001ED9FB00DFC9F7D
:1010A000B00D11246A0F7B1FDC015F96ED91FC915E
:1010B000E60FF71F4770552781E090E001C0880FC9
:1010C0004A95EAF7482F0130110559F0A8F02E0F84
:1010D0003F1F02301105E1F0DF91CF911F910F9179
:1010E00008952E0F3F1FE217F307B1F38191DF013F
:1010F0001197842B8C93F7CF80952E0F3F1FE2170B
:10110000F30751F39191DF01119798239C93F7CF47
:10111000E217F30709F38191DF01119784278C937C
:10112000F7CF0F931F93FA01DC0156964C91569717
:101130004230E9F04330A1F1413061F514964D9110
:101140005C91DA01AE1BBF0BFD01E21BF30B77FDD7
:101150000BC0DC0116964D915C916417750724F461
:10116000AB01BF010E9429081F910F9108951496A9
:101170004D915C91DA01A61BB70BBD01615071095D
:10118000DC0116964D915C91DA01AE1BBF0BFD019F
:10119000E21BF30B77FDE8CFAF010E947A07E4CFA3
:1011A00016964D915C91DA01A61BB70BBD016150FB
:1011B0007109CDCF0F931F93FA01DC0156964C9124
:1011C00056974230A9F0433091F1413019F5149609
:1011D0004D915C91DA01AE1BBF0BFD013197F7FD1C
:1011E00004C0AB01BF010E947A071F910F910895BF
:1011F00014964D915C91DA01A61BB70BBD01DC0181
:1012000016964D915C91DA01AE1BBF0BFD01319733
:10121000621B730BF7FDE9CFDC0116964D915C91D3
:10122000E417F50714F7AF010E942908DECF1696E0
:101230004D915C91DA01A61BB70BBD01621B730BCC
:10124000CECFFC0177FD64C0808591856817790752
:101250000CF05EC057FD5CC0828593854817590726
:101260000CF056C086898230B1F0833029F181308C
:1012700041F484819581841B950BAB01BC016150C5
:1012800071092130310509F108F443C022303105DC
:1012900009F463C0089584819581DC01A61BB70B16
:1012A000BD016150710986819781DC01A41BB50BDA
:1012B000AD0141505109E5CF86819781861B970B7F
:1012C000BA01AC0141505109DCCFCA0157FD079664
:1012D000A3E095958795AA95E1F7A481B5818A9FAA
:1012E00090018B9F300D9A9F300D1124620F731F58
:1012F000078CF0A1E02DE60FF71F4770552721E07E
:1013000030E001C0220F4A95EAF78081822B80836A
:101310000895CA0157FD079633E0959587953A954C
:10132000E1F7A481B5818A9F90018B9F300D9A9F30
:10133000300D1124620F731F078CF0A1E02DE60F12
:10134000F71F4770552781E090E001C0880F4A954C
:10135000EAF7809590818923DACFCA0157FD079675
:1013600023E0959587952A95E1F7A481B5818A9F19
:1013700090018B9F300D9A9F300D1124620F731FC7
:10138000078CF0A1E02DE60FF71F4770552721E0ED
:1013900030E001C0220F4A95EAF780818227B7CF5B
:1013A00008958EBD00000DB407FEFDCF8EB50895E3
:1013B0008CBD9DBD08950895FC016370668B84818A
:1013C000958126813781613039F0633029F091872A
:1013D0008087338722870895318720879387828784
:1013E00008952F923F924F925F926F927F928F92C9
:1013F0009F92AF92BF92CF92DF92EF92FF920F93A4
:101400001F93CF93DF93CDB7DEB76A970FB6F894EB
:10141000DEBF0FBECDBF9A8F898F7A8369834A0161
:10142000D22E18870F833701BC2CDC0159962D91E1
:101430003C915A972115310509F015C118968D91E7
:101440009C911997681779070CF0D7C11A968D915E
:101450009C91481759070CF0D0C14C2C512CB6E088
:10146000CB9E600D711D11247C876B8716161706A5
:101470000CF0C3C1EA2DF0E0FA87E98793E0EE0FA4
:10148000FF1F9A95E1F7F88BEF87CF01840F951F27
:10149000181619060CF0B1C1A98DBA8D58968C9109
:1014A000811104C0BFEABD1508F4D394A98DBA8D8B
:1014B000ED91FC9111970284F385E02DCD01099502
:1014C000B5E0DB9EC0011124E981FA81FC83EB8346
:1014D000312C212C9C012E583F4F388F2F8B4A2DB9
:1014E00050E05E8B4D8BEF89F88DE20DF31D44913A
:1014F0009E828D82D12CC12C69817A81620D731DEF
:101500007A8B698B842F90E09C8B8B8BE98DFA8D85
:10151000A081B18140FF82C0F1E0BF126FC0AF1265
:101520006DC01C96ED91FC912F813885A4014C0D66
:101530005D1D69897A89898D9A8D0995EB89FC8968
:10154000F595E7954E2F5FEFC51AD50A6D817E811F
:101550008D899E89680F791F7E836D8398E0C916F7
:10156000D10481F6AFEF2A1A3A0AEB81FC81E40D2F
:10157000F51DFC83EB83F5E02F16310409F0B3CFA2
:101580002F81388526153705B9F0A98DBA8DED91D3
:10159000FC91B1E0BB1257C0AB1255C069817A8192
:1015A0006B5F7F4F0088F189E02D830128E030E0F8
:1015B000A401898D9A8D0995A98DBA8DED91FC9123
:1015C00011970688F789E02DCD016A960FB6F89439
:1015D000DEBF0FBECDBFDF91CF911F910F91FF9066
:1015E000EF90DF90CF90BF90AF909F908F907F90C3
:1015F0006F905F904F903F902F9009941E96ED91C1
:10160000FC91EF80F88409851A8592014D815E81F5
:101610006B817C81898D9A8D099590CF2F8138853A
:101620002615370509F48ACF31E0B31207C0A3129B
:1016300005C01C96ED91FC91930178CF1E96ED911B
:10164000FC917301E0CF6B857C8564197509068474
:10165000F785E02D73010F8518899201A401898D0A
:101660009A8D0995A9CFF9013496949132974591B5
:101670005491D91AB7E0DB9E400D511D1124F90198
:10168000259134913C8B2B8BFA0125903490FA01F3
:101690003296749031963491398B329664903196AB
:1016A000449041E04C1518F04A1508F07FC0662DB3
:1016B000062C000C770B7C836B83842D042C000C90
:1016C000990B9E838D83A98DBA8DED91FC91119715
:1016D0000284F385E02DCD010995512CD12CC12C2C
:1016E000EA2DF0E0FA87E9872B2D30E03C872B8745
:1016F000A401440D511D47FC5A95588F4F8B6981A9
:101700007A81660D711D67FC7A957E876D87798970
:10171000C71608F051CF2C2D30E04D815E81420F6D
:10172000531FA985BA854A9FC0014B9F900D5A9FB0
:10173000900D1124FC01E80DF91DF88BEF87852D24
:10174000612C4F89588D420F531F5E8B4D8B671450
:1017500008F050C044244394480E877041F4C101FE
:101760000196EB89FC89E20DF31DD4901C01D7FE94
:1017700019C0A98DBA8DED91FC91662D70E0B1E094
:10178000BB1219C0AB1217C02D853E85620F731FA7
:101790000484F585E02D2F8138854D895E89898DFA
:1017A0009A8D0995DD0C6394842DD1CF1E821D8204
:1017B0001C821B8288CF4B815C81640F751FAB85B7
:1017C000BC856A9FC0016B9F900D7A9F900D11247C
:1017D00069817A81680F791F0684F785E02DEF8093
:1017E000F88409851A859D014F855889898D9A8DC0
:1017F0000995D8CF570CC3948ACF6A960FB6F89440
:10180000DEBF0FBECDBFDF91CF911F910F91FF9033
:10181000EF90DF90CF90BF90AF909F908F907F9090
:101820006F905F904F903F902F9008958F929F926E
:10183000AF92CF92EF92FF920F931F93CF93DF93CC
:10184000EC01262F898D9A8D009709F051C06A30DE
:10185000D1F41D861C868D8948E0849F9001112457
:101860008E859F85820F931F9F878E8781E090E0F2
:10187000DF91CF911F910F91FF90EF90CF90AF909C
:101880009F908F9008956D3089F3CC88AD888F89B3
:101890008823C1F08C859D8536E0C39E800D911D07
:1018A0001124488559854817590764F44E855F858A
:1018B0001D861C8638E0A39EC0011124840F951F4D
:1018C0009F878E87EA88FB88088919894E855F85FE
:1018D0006C857D85CE010E94F1092C898C859D85C2
:1018E00046E0249F800D911D11249D878C87BECFDB
:1018F0006A3069F41D861C86FC013896E4912D89B6
:101900008E859F85E29F800D911D1124ADCF6D3096
:1019100009F4ACCFFC0134963491631708F4A6CFD8
:101920003296E491E61708F4A1CFFC013296859037
:101930009490462F431B342F47E0349F800C911C1A
:101940001124F401329634913196E4913323A9F1B4
:10195000EE2399F1CC88F4013596E491AD884F8956
:10196000442301F10E2E000CFF0BE30FF11DCE9E60
:10197000A001CF9E500D11246C857D85460F571F09
:1019800068857985641775076CF44E855F851D86BB
:101990001C86FC013896E491AE9E400D511D112429
:1019A0005F874E87EA88FB88088919894E855F859D
:1019B0006C857D85CE010E94F109F4013496E49195
:1019C0002C898C859D85E29F800D911D11248DCFE2
:1019D0006F927F928F929F92AF92BF92CF92DF923F
:1019E000EF92FF920F931F93CF93DF93EC016B0164
:1019F0005A0139014801E881F9810284F385E02D1B
:101A00000995E881F9810288F389E02D8701930126
:101A1000A501B601CE010995A501480D591D4150FA
:101A20005109E881F9810288F389E02D9301B6011B
:101A3000CE010995E881F9810088F189E02D9401B2
:101A4000A501B601CE010995C60CD71CB60161509F
:101A50007109E881F9810088F189E02D9401A501DF
:101A6000CE010995E881F9810688F789E02DCE013C
:101A7000DF91CF911F910F91FF90EF90DF90CF906A
:101A8000BF90AF909F908F907F906F9009946F92CE
:101A90007F928F929F92AF92BF92CF92DF92EF92FE
:101AA000FF920F931F93CF93DF935C01EB016A01C9
:101AB000490138018701DC01ED91FC916217730740
:101AC00019F5641675062CF0962D872D3A01C92E4E
:101AD000D82E9601261937092F5F3F4F048CF58DBC
:101AE000E02DA301BE01C5010995DF91CF911F91A2
:101AF0000F91FF90EF90DF90CF90BF90AF909F90AD
:101B00008F907F906F9008954615570591F4261792
:101B1000370724F0892D4B01C22FD82F9E01281999
:101B200039092F5F3F4F068CF78DE02DA601B401D8
:101B3000DACF0284F385E02D0995D501ED91FC9172
:101B40000488F589E02D83019401A601BE01C50139
:101B50000995D501ED91FC910688F789E02DC50125
:101B6000DF91CF911F910F91FF90EF90DF90CF9079
:101B7000BF90AF909F908F907F906F900994EF925D
:101B8000FF920F931F93DC011A960D911C911B97E6
:101B900018962D913C911997ED91FC9100A0F1A11F
:101BA000E02D7B0150E040E070E060E009951F917E
:101BB0000F91FF90EF9008954F925F926F927F92F6
:101BC0008F929F92AF92BF92CF92DF92EF92FF924D
:101BD0000F931F93CF93DF936C012B015A013901AF
:101BE0004801DC01ED91FC910284F385E02D09951B
:101BF000E201640C751CD601ED91FC91C615D70568
:101C00005CF40088F189E02D87019401A501BE01F3
:101C1000C60109952196EFCF0688F789E02DC60108
:101C2000DF91CF911F910F91FF90EF90DF90CF90B8
:101C3000BF90AF909F908F907F906F905F904F90EC
:101C400009948F929F92AF92BF92CF92DF92EF92C0
:101C5000FF920F931F93CF93DF93EC015B014A0137
:101C60006901E881F9810284F385E02D09959501E8
:101C70002C0D3D1D21503109E881F9810488F58939
:101C8000E02D78018401A401B501CE010995E88118
:101C9000F9810688F789E02DCE01DF91CF911F9160
:101CA0000F91FF90EF90DF90CF90BF90AF909F90FB
:101CB0008F9009948F929F92AF92BF92CF92DF92B2
:101CC000EF92FF920F931F93CF93DF93EC015B0191
:101CD0004A0169017801E881F9810284F385E02DE8
:101CE0000995C80CD91C860101501109E881F981B8
:101CF0000488F589E02D9501A401B501CE0109956F
:101D0000E881F9810688F789E02DCE01DF91CF9136
:101D10001F910F91FF90EF90DF90CF90BF90AF9009
:101D20009F908F900994EF92FF920F931F93DC0185
:101D3000ED91FC9100A0F1A1E02D09951F910F916B
:101D4000FF90EF9008950F931F93DC01ED91FC91AC
:101D5000068CF78DE02D09951F910F9108950F9333
:101D60001F93DC01ED91FC91048CF58DE02D09951C
:101D70001F910F910895DC01ED91FC910084F18594
:101D8000E02D09943F924F925F926F927F928F92D3
:101D90009F92AF92BF92CF92DF92EF92FF920F93FA
:101DA0001F93CF93DF935C017B014A0169013901E5
:101DB00087E0680E711C93E0759467949A95E1F73B
:101DC0002B01400E511E10E000E0312CD0E0C0E0AD
:101DD000CE0187709927330C892B59F4FE0183E0DB
:101DE000F595E7958A95E1F7E00FF11FE80DF91DEC
:101DF000349037FE0AC021E030E0A701B5016C0F36
:101E00007D1F87E693E00E94BB0E2196CC16DD066F
:101E1000F9F68FEFE81AF80A060D171DE414F50419
:101E2000A9F6DF91CF911F910F91FF90EF90DF9076
:101E3000CF90BF90AF909F908F907F906F905F906A
:101E40004F903F9008952F923F924F925F926F92E2
:101E50007F928F929F92AF92BF92CF92DF92EF923A
:101E6000FF920F931F93CF93DF9300D000D000D049
:101E7000CDB7DEB73C016A013E832D83FC82EB8245
:101E80005801A41AB50AB7FE03C0B194A194B108D1
:101E90008D809E80861A970A97FE03C09194819444
:101EA00091088A149B045CF0902F812F0D811E8174
:101EB0009D838E839C2D8D2D6B01692F782F0C15A2
:101EC0001D055CF09D818E817E836D83692F782F47
:101ED000902F812F8601C92ED82E1601201A310A83
:101EE0002B012D813E81421A530A57FE03C05194A3
:101EF00041945108710137FE03C03FEFE31AF30A22
:101F0000F594E7948D819E81861797075CF5A1E093
:101F1000B0E0BA83A983C016D1064CF1D301ED918C
:101F2000FC910484F585E02D2B813C81A8016D8115
:101F30007E818A149B041CF04D815E81B801C3012F
:101F40000995E418F508F7FE0AC02D813E818981C4
:101F50009A81280F391F3E832D83E20CF31C0F5FFB
:101F60001F4FD9CF2FEF3FEF3A832983D4CF269647
:101F70000FB6F894DEBF0FBECDBFDF91CF911F919A
:101F80000F91FF90EF90DF90CF90BF90AF909F9018
:101F90008F907F906F905F904F903F902F9008951B
:101FA0002091F901260F3327331F21323105ECF43C
:101FB00020911D02FC0190E080E0243069F082E075
:101FC0000895A091F9012191AC0147525E4FA40FF1
:101FD000B52FB11D2C930196861798F38091F901C6
:101FE000680F6093F90180E0089581E008951092F0
:101FF0001D0281E080931F0210921E0261E082E1C7
:102000000E94C40661E083E10E94C406E9EBF0E0AF
:1020100080818E7F808380818D7F808388E4809320
:10202000B80085E48093BC000895CF93DF9391E0DE
:102030009093D8018823B9F0C091B800D091BA002C
:102040008091BC008A7B8093BC0060E082E10E94AA
:10205000C40660E083E10E94C4060E94F70FD0939B
:10206000BA00C093B800DF91CF910895E0914E027D
:1020700080914D02E81730F4F0E0ED54FE4F80817E
:1020800090E008958FEF9FEF089590914E02809118
:102090004D022FEF3FEF981748F4E92FF0E0ED5491
:1020A000FE4F208130E09F5F90934E02C90108955A
:1020B00080914D0290914E02891B990B0895CF9209
:1020C000DF92EF92FF920F931F93CF93DF937C01E8
:1020D000CB018A0120915F02222389F0EB016B0181
:1020E000C40ED51ECC15DD0569F06991D701ED91BF
:1020F000FC910190F081E02DC7010995F3CF642F89
:102100000E94D00FC801DF91CF911F910F91FF90D6
:10211000EF90DF90CF900895CF93DF931F92CDB7CC
:10212000DEB7698320915F022223F9F020915C02DF
:10213000203258F021E030E0FC013383228390E02C
:1021400080E00F90DF91CF91089580915D02E82F9C
:10215000F0E0ED56FE4F998190838F5F80935D0292
:1021600080935C0281E090E0ECCF61E0CE010196CB
:102170000E94D00FF7CFCF92DF92EF92FF920F9392
:102180001F93CF93DF93D0915C0281E0D13208F0AE
:102190009CC0C0915E020E9423076B017C0180916C
:1021A0001D0281116CC082E080931D0281E080934A
:1021B0001F028FEF80931C0210924102D0934002C5
:1021C000A3E9B1E0E0E2F2E080E0D8138DC0109224
:1021D000420280914202CC0FC82BC09342028091F0
:1021E0001E02813009F084C010921E020E94230753
:1021F0006B017C01809142028093BB008091D401ED
:102200009091D501A091D601B091D701892B8A2B4D
:102210008B2BA1F00E9423070091D4011091D501CE
:102220002091D6013091D7016C197D098E099F0943
:10223000061717072807390708F442C08091BC0029
:1022400083FDD8CF85EC8093BC000E9423076B01EF
:102250007C0180911D02823009F44CC080911C02E7
:102260008F3F09F469C080911C02803209F466C076
:1022700080911C02803309F463C084E026C0809101
:10228000D4019091D501A091D601B091D701892BAD
:102290008A2B8B2B09F483CF0E9423070091D40152
:1022A0001091D5012091D6013091D7016C197D098B
:1022B0008E099F09061717072807390708F06FCFFF
:1022C0008091D3010E94151085E010925D0210925A
:1022D0005C0210925F02DF91CF911F910F91FF90EE
:1022E000EF90DF90CF9008959D9191938F5F6DCF88
:1022F00085EEA9CF8091D4019091D501A091D6010E
:10230000B091D701892B8A2B8B2B09F4A2CF0E9485
:1023100023070091D4011091D5012091D60130916D
:10232000D7016C197D098E099F0906171707280721
:10233000390708F08ECFC4CF80E0C7CF82E0C5CF89
:1023400083E0C3CFEF92FF920F931F93CF93DF935E
:102350007C01C62F8091840390918503009709F436
:1023600059C02091880331E030935F0220935E02D0
:1023700010925D0210925C02DC01ED91FC910190E3
:10238000F081E02D60E009958701EE24E394F12CC3
:10239000D1E0C1508091840390918503CF3F91F1AA
:1023A000B0E2EB16F104D8F00E94BB1080918403D8
:1023B0009091850320918803D0935F0220935E0261
:1023C00010925D0210925C02DC01ED91FC91019093
:1023D000F081E02D60E00995EE24E394F12C8091EA
:1023E000840390918503F8016491DC01ED91FC91E7
:1023F0000190F081E02D0995BFEFEB1AFB0A0F5F0A
:102400001F4FC7CFDF91CF911F910F91FF90EF909A
:102410000C94BB10E0919403F0919503908180910E
:102420009A038095892380838701C15008F438C0BE
:10243000F80184912091820330918303232B29F0AA
:102440000E94D1090F5F1F4FF0CF28E030E040E835
:10245000E0919003F091910390919803582F5423A9
:10246000D9F05081952B9083E0919203F0919303E2
:10247000908150919903952B9083E0919203F09174
:10248000930350819091990390959523908346955D
:1024900021503109E9F6D6CF508190959523E3CFAD
:1024A000DF91CF911F910F91FF90EF9008951F93AF
:1024B000CF93DF93EC018D8D9E8D009721F1162F28
:1024C00029A131E030935F0220935E0210925D02F9
:1024D00010925C02DC01ED91FC910190F081E02D05
:1024E00060E009958D8D9E8DDC01ED91FC91019050
:1024F000F081E02D612F09958D8D9E8DDF91CF911B
:102500001F910C94BB10ADA5BEA59C918BA9809585
:1025100089238C938B8D9C8D892B31F0862FDF91B5
:10252000CF911F910C94D10928E030E080E8A9A553
:10253000BAA599A9462F4823C1F04C91942B9C939E
:10254000ABA5BCA59C914AA9942B9C93ABA5BCA51B
:102550004C919AA9909594239C938695215031098A
:1025600031F7DF91CF911F9108954C91909594236D
:10257000E6CFDF92EF92FF920F931F93CF93DF93FB
:102580008091840390918503892B09F498C0209150
:102590009C0330919D0340919E0350919F0360E006
:1025A00074E284EF90E00E946120205131094109DA
:1025B000510956954795379527952093B80065E0C2
:1025C00084E89AE00E94A21160916B03615087E653
:1025D00093E00E94571220916D0330916E03C90160
:1025E000079697FD079633E0959587953A95E1F71D
:1025F00020916B0330916C03829F8001839F100DAB
:10260000929F100D1124C0918603D0918703809171
:102610008403909185030C0F1D1F009709F48FC050
:102620002091880331E030935F0220935E02109284
:102630005D0210925C02DC01ED91FC910190F08151
:10264000E02D60E40995EE24E394F12CDD24D3948D
:1026500080918403909185030C171D0709F446C0EF
:10266000B0E2EB16F104D8F00E94BB108091840315
:102670009091850320918803D0925F0220935E029F
:1026800010925D0210925C02DC01ED91FC910190D0
:10269000F081E02D60E40995EE24E394F12C809123
:1026A0008403909185036991DC01ED91FC91019087
:1026B000F081E02D0995BFEFEB1AFB0AC9CF80919D
:1026C000820390918303892B31F08091A50390912F
:1026D000A6030E94D809E0919603F0919703908198
:1026E00080919B0380958923808369CF0E94BB10D2
:1026F0008091840390918503892B09F461C0209116
:10270000A0033091A1034091A2035091A30360E084
:1027100074E284EF90E00E94612020513109410968
:10272000510956954795379527952093B800DF9125
:10273000CF911F910F91FF90EF90DF900895E0915E
:102740009403F0919503808190919A03892B808363
:102750000C171D0769F28991209182033091830340
:10276000232B19F00E94D109F3CF28E030E040E894
:10277000E0919003F091910390919803582F542386
:10278000D9F05081952B9083E0919203F0919303BF
:10279000908150919903952B9083E0919203F09151
:1027A000930350819091990390959523908346953A
:1027B00021503109E9F6CCCF508190959523E3CF94
:1027C000E0919603F0919703808190919B03892B70
:1027D0008083ADCF1F93CF93DF93EC01162F8D8DA8
:1027E0009E8D892BB1F12DA93EA94FA958AD60E06E
:1027F00074E284EF90E00E94612020513109410988
:10280000510956954795379527952093B80066EA64
:10281000111167EACE010E9457128D8D9E8D892B72
:1028200041F129AD3AAD4BAD5CAD60E074E284EFAF
:1028300090E00E94612020513109410951095695CB
:102840004795379527952093B800DF91CF911F9139
:1028500008958B8D9C8D892B21F08EAD9FAD0E94AC
:10286000D809EFA5F8A990818CA980958923808348
:10287000CECFEFA5F8A980819CA9892B8083E5CFD5
:1028800090E080E00895EF92FF921F93CF93DF9343
:10289000EC018A819A819E7F9A839A819D7F9A8397
:1028A000182F117080FF13C0EF8DF8A1309779F0C9
:1028B000ADA1BEA11496ED90FC9015971596DC93F2
:1028C000CE9314970995EDA1FEA1F582E482812FA4
:1028D000DF91CF911F91FF90EF9008950F931F9379
:1028E000CF93DF93FC01A5A1B6A1109709F452C0C4
:1028F000EC01178A108E118E128E82818B7F82835B
:10290000058CF68DE02D309709F440C08A8181FD59
:102910003DC014960D911C9115971596DC93CE939E
:1029200014978A8182608A8309959A8180FB90F945
:102930009A838A818D7F8A83EDA1FEA1158304830A
:102940008B819C81AD81BE818F839887A987BA874F
:102950002FB7F8948091FD029091FE02A091FF02A2
:10296000B09100032FBF4F81588569857A85841BFC
:10297000950BA60BB70B8B879C87AD87BE878A818B
:102980008170DF91CF911F910F9108958A818160AD
:102990008A83D6CF80E0F5CFCF93DF93EC018AE531
:1029A00091E0998388838A8180FF03C0CE010E94D1
:1029B0004314EDA1FEA1309789F017821EA21DA23B
:1029C000A9A1BAA18BA19CA1109799F4009749F4F1
:1029D000118210821382128281E08783DF91CF916E
:1029E0000895DC0192961C921E92919791838083A8
:1029F000F3CF009739F494961C921E929397B38369
:102A0000A283EACF94969C938E9393970BA0DCA11C
:102A1000C02DBAA3A9A3E0CFFB0101900020E9F7E4
:102A20003197AF01461B570BDC01ED91FC91028001
:102A3000F381E02D09948F929F92AF92BF92EF9213
:102A4000FF920F931F93CF93DF93CDB7DEB7A1977C
:102A50000FB6F894DEBF0FBECDBF7C01FA01CB01EB
:102A600019A2223008F42AE08E010F5D1F4F822E3A
:102A7000912CB12CA12CBF01A50194010E946120D1
:102A8000F901CA016A300CF5605DD8016E938D01C1
:102A9000232B242B252B79F790E080E0109721F051
:102AA000BD01C7010E940C15A1960FB6F894DEBFB8
:102AB0000FBECDBFDF91CF911F910F91FF90EF908F
:102AC000BF90AF909F908F900895695CDECFCF92BA
:102AD000DF92EF92FF92CF93DF936B017C01F7FEC1
:102AE00023C06DE287E693E00E94160CEC014427B8
:102AF0005527BA014C195D096E097F092AE087E65E
:102B000093E00E941B15C80FD91F6EE571E087E6A0
:102B100093E00E940C158C0F9D1FDF91CF91FF90C9
:102B2000EF90DF90CF9008952AE0BC01A60187E6E0
:102B300093E00E941B15EC01E8CFCF93DF93BC011B
:102B400087E693E00E940C15EC016EE571E087E6E4
:102B500093E00E940C158C0F9D1FDF91CF9108957B
:102B60001F93CF93DF93D0919101E6E8F5E0849134
:102B7000E6EBF5E01491E4EDF5E0C491CC2309F423
:102B80004AC081110E949B06EC2FF0E0EE0FFF1F60
:102B9000E859FF4FA591B491EC91E12331E020E099
:102BA00009F430E0832F922F21E082278170D8131F
:102BB00035C01092900180918F01882309F443C0A1
:102BC00080915B028F5F8430E1F180935B0261E66C
:102BD00071E080E692E00E940C1540915B0250E0AB
:102BE00070E060E02AE080E692E00E941B156EE54E
:102BF00071E080E692E00E940C1510928F016091C6
:102C00008E0181E0682760938E0189E0DF91CF918A
:102C10001F910C94C40690E080E0C6CF8091900193
:102C20008F5F809390018C3030F281E0D827D09371
:102C3000910110929001DD2309F4BDCF80938F01A3
:102C4000BACF81E0C2CFDF91CF911F91089520913B
:102C50006D0330916E03C901079697FD079623E037
:102C6000959587952A95E1F720916B0330916C0338
:102C7000829FA001839F500D929F500D112470E000
:102C800060E080918603909187030C947922CF9322
:102C9000DF93EC0180914F03909150030097E9F08E
:102CA0006881798161157105B1F0409151035091AE
:102CB00052032C813D814217530768F00E94802205
:102CC0008C819D8190935403809353031D821C82B9
:102CD000DF91CF9108950E94252188819981909359
:102CE000500380934F038A819B819093520380937A
:102CF00051038C819D8190935403809353031982D7
:102D000018821B821A82E2CFFC0180819181009798
:102D100011F00C9425210895CF93DF93EC010E94CC
:102D2000CC14CE01DF91CF910C9425210E946B220F
:102D30000F931F93CF93DF93EC01888199810097C4
:102D400059F02A813B812617370730F081E0DF9167
:102D5000CF911F910F9108958B016F5F7F4F0E945C
:102D6000AE21009759F0998388831B830A832C81B5
:102D70003D81232B59F7FC011082E8CF80E0E7CF9B
:102D8000EF92FF920F931F93CF93DF93EC017B01A0
:102D90008A01BA010E94981628813981811114C0D4
:102DA0002115310519F0C9010E94252119821882C7
:102DB0001D821C821B821A82CE01DF91CF911F914E
:102DC0000F91FF90EF9008951D830C83B701C90107
:102DD0000E948022F1CFFC011182108213821282A4
:102DE0001582148250E040E060E671E00C94C01659
:102DF000EF92FF920F931F93CF93DF9300D0CDB745
:102E0000DEB78C0180E692E00E94EC0518161906E8
:102E10000CF040C050E040E060E671E085E593E0F2
:102E20000E94C01680E692E00E94EC051816190672
:102E300074F580E692E00E94CA0589831A82E090C8
:102E40005903F0905A038FEFE81AF80AB70185E5A5
:102E500093E00E949816882399F0209155033091B1
:102E600056038091590390915A03BE016F5F7F4FC3
:102E7000820F931F0E948022F0925A03E09259031E
:102E800062E070E080E090E00E944807CBCF81E0F4
:102E90008093920180919201882329F110929201EE
:102EA000F801118210821382128215821482F3E0DB
:102EB00005351F0771F06091550370915603611538
:102EC000710539F04091590350915A03C8010E948D
:102ED000C016C8010F900F90DF91CF911F910F91F5
:102EE000FF90EF900895C8010E94EB16F2CF85ED98
:102EF0008093BC008091D4019091D501A091D6011E
:102F0000B091D7010796A11DB11D23E0B695A795F5
:102F1000979587952A95D1F72091BC0024FD03C091
:102F200010921D0208954091D4015091D5016091F5
:102F3000D6017091D701452B462B472B69F300979B
:102F4000A105B10541F025E32A95F1F700000197AD
:102F5000A109B109E1CF8091D3010C9415101F9202
:102F60000F920FB60F9211242F933F934F935F93BD
:102F70006F937F938F939F93AF93BF93EF93FF9341
:102F800080E692E00E940C06FF91EF91BF91AF9115
:102F90009F918F917F916F915F914F913F912F9171
:102FA0000F900FBE0F901F9018951F920F920FB6A3
:102FB0000F9211242F938F939F93EF93FF93E091A0
:102FC0007002F09171028081E0917602F0917702B7
:102FD00082FD1BC09081809179028F5F8F73209159
:102FE0007A02821741F0E0917902F0E0E05AFD4F59
:102FF000958F80937902FF91EF919F918F912F91FF
:103000000F900FBE0F901F9018958081F4CF1F92E4
:103010000F920FB60F9211242F933F938F939F938C
:10302000AF93BF938091FD029091FE02A091FF02A9
:10303000B09100033091430223E0230F2D3758F560
:103040000196A11DB11D209343028093FD02909330
:10305000FE02A093FF02B09300038091440290917E
:103060004502A0914602B09147020196A11DB11DF3
:103070008093440290934502A0934602B093470286
:10308000BF91AF919F918F913F912F910F900FBE64
:103090000F901F90189526E8230F0296A11DB11DD1
:1030A000D2CF1F920F920FB60F9211242F933F93FE
:1030B0004F935F936F937F938F939F93AF93BF9340
:1030C000EF93FF938091B900887F803609F44AC05E
:1030D000F0F5883209F4A7C018F5803109F49BC0D7
:1030E000B8F4882309F4F9C0883009F494C0FF913A
:1030F000EF91BF91AF919F918F917F916F915F9170
:103100004F913F912F910F900FBE0F901F901895E8
:10311000883109F488C0803251F780931C0214C0B2
:10312000803409F49DC040F48033B9F38833F9F654
:1031300080931C0285ECB0C0803509F485C08835C9
:1031400009F496C0883499F60E947717D0CF883951
:1031500009F48CC038F5883729F050F4883611F01E
:10316000803729F683E080931D0210921B0257C01E
:10317000883809F47BC0803919F0803809F0B7CF5E
:1031800080911B02803208F071C0E0911B0281E047
:103190008E0F80931B028091BB00F0E0E550FE4F44
:1031A00080833DC0803B39F0E0F4803A09F479C077
:1031B000883A09F09CCF84E080931D021092FA01B6
:1031C0001092F901E0914B02F0914C020995809127
:1031D000F90181110FC081E08093F9011092D901AA
:1031E00009C0803C09F4A6CF883C09F4A3CF883BF2
:1031F00009F07DCFE091FA0181E08E0F8093FA0112
:10320000F0E0E752FE4F80818093BB009091FA017D
:103210008091F90129C0809142028093BB0085EC26
:103220008093BC0064CF9091410280914002981736
:1032300058F5E091410281E08E0F80934102F0E069
:10324000E05EFD4F8081E9CFE091410281E08E0F89
:10325000809341028091BB00F0E0E05EFD4F8083EF
:1032600090914102809140029817C8F285E8D8CF2A
:10327000E091410281E08E0F809341028091BB007A
:10328000F0E0E05EFD4F808380911F0281115CCFF2
:1032900081E080931E0284EA8093BC0010921D029C
:1032A00026CF85EC8093BC0010921D0280911B02FA
:1032B000803230F4E0911B02F0E0E550FE4F1082C6
:1032C00060911B0270E0E0914902F0914A028BEF9D
:1032D00091E0099510921B020ACF10921C0234CF84
:1032E000FC0185A196A1892BD9F41092AE0387EA3F
:1032F00093E096A385A38091A7039091A803892BBF
:1033000081F4F093A803E093A70312A211A214A2E0
:1033100013A2F093AA03E093A90381E08093AE0384
:103320000895A091A903B091AA03B2A3A1A3949672
:10333000FC93EE939397EBCFCF92DF92EF92FF92B5
:10334000E0E6F2E01382128288EEC82E83E0D82EE7
:10335000E12CF12CC482D582E682F7828AE091E0EA
:103360009183808385EC90E09587848784EC90E05E
:103370009787868780EC90E0918B808B81EC90E042
:10338000938B828B82EC90E0958B848B86EC90E023
:10339000978B868B118E128E138E148EABE5B3E055
:1033A00013961C921E9212971496CD92DD92ED9276
:1033B000FC9217978CE191E011969C938E93E7EA2B
:1033C000F3E0178211821082138212821582148216
:1033D000168281E08783E7E6F3E01382128240E8F9
:1033E00050E05583448320E430E0378326835187BF
:1033F000408733872287168A158614861786168695
:10340000858B848B2FEF3FEF338B228B318B208B7F
:10341000878B108E128E118E8EE291E091838083C5
:10342000148E138EB68FA58F10A2178E8FEF84A3E4
:1034300085A386A387A380A780E89AE1A6E0B0E0F1
:1034400085AB96ABA7ABB0AF80EA96E8A1E0B0E061
:1034500081AF92AFA3AFB4AF80E586AF17AE85E57D
:1034600093E00E94EB168FE493E00E94EB16E8E2F3
:10347000F3E08AE591E091838083AAE2B3E02C91A6
:103480002E7F2C932C912D7F2C932C912B7F2C9382
:103490001386148615861686138214821582168268
:1034A000178210861186128612A211A214A213A2EC
:1034B00016A215A2178A108E118E128E21E735E002
:1034C000348F238F168E158E10A2178EC382D4824E
:1034D000E582F682438154816581768147835087F6
:1034E000618772872FB7F8944091FD025091FE02D8
:1034F0006091FF02709100032FBF43875487658757
:1035000076874FEF5FEFBA014787508B618B728BE5
:10351000438B548B658B768BE1E0F3E09183808362
:10352000A3E0B3E08C918E7F8C938C918D7F8C93F4
:103530008C918B7F8C931386148615861686138246
:10354000148215821682178210861186128612A2A4
:1035500011A214A213A216A215A2178A108E118E00
:10356000128E80EB95E1948F838F168E158E10A2AC
:10357000178E82E090E0A0E0B0E083839483A5837F
:10358000B68383819481A581B68187839087A18743
:10359000B2872FB7F8948091FD029091FE02A0911E
:1035A000FF02B09100032FBF83879487A587B6875A
:1035B0004787508B618B728B438B548B658B768BDB
:1035C000FF90EF90DF90CF900895CF93DF93CDB72A
:1035D000DEB728970FB6F894DEBF0FBECDBF789444
:1035E00084B5826084BD84B5816084BD85B5826008
:1035F00085BD85B5816085BD80916E0081608093B9
:103600006E00109281008091810082608093810021
:103610008091810081608093810080918000816031
:10362000809380008091B10084608093B10080918C
:10363000B00081608093B00080917A0084608093B4
:103640007A0080917A00826080937A0080917A007B
:10365000816080937A0080917A00806880937A00FC
:103660001092C100E0917002F091710282E08083BB
:10367000E0916C02F0916D021082E0916E02F09187
:103680006F028FEC808310927802E0917402F091C7
:10369000750286E08083E0917202F091730280816E
:1036A00080618083E0917202F09173028081886072
:1036B0008083E0917202F091730280818068808340
:1036C000E0917202F091730280818F7D80838091FE
:1036D000860390918703892B11F520916D0330911A
:1036E0006E03C901079697FD0796B3E095958795F8
:1036F000BA95E1F720916B0330916C03AC01429FC6
:10370000C001439F900D529F900D11240E9489206B
:103710009093870380938603892B09F4B9C20E9492
:10372000271620916D0330916E0380916B03909169
:103730006C03B901213231050CF4A1C16054710947
:1037400077FF02C06F5F7F4F75956795825591092E
:1037500097FD019600E410E022E530E044EC57E0EC
:10376000959587950E94C20E82E08093890380918F
:10377000840390918503892B09F494C18CE3809391
:10378000880310924E0210924D0210925D02109228
:103790005C020E94F70F8BE895E090934C028093B7
:1037A0004B028CE895E090934A0280934902809105
:1037B0008F0387FD1EC061E00E94F20661E08091E8
:1037C0008F030E94C40661E070E080E090E00E94F8
:1037D000480760E080918F030E94C4066AE070E0B1
:1037E00080E090E00E94480761E080918F030E9492
:1037F000C4068091840390918503892B09F411C23A
:1038000020919C0330919D0340919E0350919F0312
:1038100060E074E284EF90E00E9461202051310961
:103820004109510956954795379527952093B8003A
:1038300064E08EEA95E00E94A21160916D036150F0
:1038400087E693E00E94571264E08AEA95E00E94BE
:10385000A2118091890364E1813009F460E187E677
:1038600093E00E94571264E086EA95E00E94A2115C
:103870008FE88093A40380916B0390916C03803850
:10388000910509F0E7C180916D0390916E0380343A
:10389000910509F0EFC180918903813009F4D8C105
:1038A0008FEC8093A40312E16AED87E693E00E9417
:1038B0005712612F87E693E00E94571261E887E66E
:1038C00093E00E9457126091A40387E693E00E9460
:1038D000571269ED87E693E00E94571280918903A1
:1038E00061EF813009F462E287E693E00E945712AB
:1038F00066E080EA95E00E94A21180918403909195
:103900008503892B09F4BAC12091A0033091A1034A
:103910004091A2035091A30360E074E284EF90E031
:103920000E9461202051310941095109569547955E
:10393000379527952093B8000E94271682E0809340
:103940007B0380937C0381E090E090937A038093E3
:103950007903909378038093770380937F0362E0E9
:1039600084E00E94F20661E089E00E94F20688E2AB
:1039700093E00E94701981E093E00E94701981E049
:1039800093E00E946E1480E0282E80E0382E11E033
:103990009AE0E92EF12C24E1C22ED12C02E0809194
:1039A000A7039091A8039093AC038093AB0310926C
:1039B000AF031092B0031092B1031092B2031092B1
:1039C000B3031092B4031092B5031092B603109291
:1039D000B7031092B8031092B9031092BA03809102
:1039E000AE03882309F4C8C18091AD038111C4C11D
:1039F000E091AB03F091AC03309709F4BDC1809125
:103A0000B3039091B403A091B503B091B6030196AE
:103A1000A11DB11D8093B3039093B403A093B5038C
:103A2000B093B60383A194A198878F83828180FF8E
:103A30001FC08091AF039091B003A091B103B091EA
:103A4000B2030196A11DB11D8093AF039093B00303
:103A5000A093B103B093B20387859089A189B289FD
:103A6000892B8A2B8B2B09F014C1CF010E944314A0
:103A70004F8158855093AC034093AB03B5CF605250
:103A8000710977FF02C06F5F7F4F75956795835708
:103A9000910997FD019600E210E023E730E044EE43
:103AA00055E05ECE61E080918D030E94F20661E0F8
:103AB00080918E030E94F20680918D03082E000CE7
:103AC000990BFC01E053FA4FE491F0E0EE0FFF1F79
:103AD000EA53FA4F25913491309395032093940340
:103AE000FC01EE54FA4FE491E0939A0380918E0327
:103AF000082E000C990BFC01E053FA4FE491F0E022
:103B0000EE0FFF1FEA53FA4FA591B491B0939703BC
:103B1000A0939603FC01EE54FA4FE491E0939B03CB
:103B20008C91E82BEC938091820390918303892BF5
:103B300009F434C01FB7F89480914802811127C05E
:103B4000EAEDF5E08491ECEBF5E09491E82FF0E0FC
:103B5000EE0FFF1FEA56FA4FA591B491EC91E923BD
:103B600021F461E08AE00E94C40661E08AE00E94DC
:103B7000F2068CB580618CBD8CB580648CBD61E033
:103B80008DE00E94F20661E08BE00E94F2068091D7
:103B900048028F5F809348021FBF09CE61E0809189
:103BA0008B030E94F20661E080918C030E94F20672
:103BB00080918B03082E000C990BFC01E053FA4F07
:103BC000E491F0E0EE0FFF1FEA53FA4F2591349194
:103BD0003093910320939003FC01EE54FA4FE4914B
:103BE000E093980380918C03082E000C990BFC0144
:103BF000E053FA4FE491F0E0EE0FFF1FEA53FA4F63
:103C0000A591B491B0939303A0939203FC01EE5459
:103C1000FA4FE491E09399038C91E095E823EC93BB
:103C2000C6CD8091820390918303892B31F08091DE
:103C3000A5039091A6030E94D809E0919603F09104
:103C40009703908180919B03809589238083F0CD99
:103C50008FE927CE8036910569F480916D039091AC
:103C60006E03409739F480918903813029F08FEAFF
:103C70008093A40312E018CE80E1FACFE09196037E
:103C8000F0919703808190919B03892B808354CE80
:103C9000FFCF2FB7F8948091FD029091FE02A09182
:103CA000FF02B09100032FBFE091AB03F091AC0392
:103CB000438154816581768183849484A584B6840C
:103CC000478050846184728488199909AA09BB09C4
:103CD00084159505A605B70508F4CACE8785908991
:103CE000A189B289181619061A061B065CF4878585
:103CF0009089A189B2890197A109B1098787908B21
:103D0000A18BB28B8789908DA18DB28D0196A11D5B
:103D1000B11D878B908FA18FB28F83859485A585E8
:103D2000B6854780508461847284840D951DA61DDC
:103D3000B71D83879487A587B68747835087618798
:103D40007287038CF48DE02D309709F491CE09959C
:103D50008091B7039091B803A091B903B091BA03D1
:103D60000196A11DB11D8093B7039093B803A09352
:103D7000B903B093BA037CCE90905B0252E09516E3
:103D800009F447C083E0981609F49AC091E09912AB
:103D900034C010925A028091590281111CC088E2ED
:103DA00093E00E946E140E94271600937B030093F9
:103DB0007C034EE150E05093740340937303D09220
:103DC0007603C092750389E691E00E949D1590925A
:103DD00059020E94B91280915802833070F088E233
:103DE00093E00E9443141092580280915B0281304C
:103DF00021F40E9427160E94B9122114310409F4FB
:103E0000CECD0E94F805882309F4C9CD0E94000098
:103E1000C6CD1092580280915702811140C00E9475
:103E20002716CE0101960E94F816CE0101960E9437
:103E30004716CE0101960E9484160E9477058823BA
:103E400071F110937B0310937C0310927403109212
:103E5000730310927603109275038FE691E00E942F
:103E60009D1580914F0390915003009729F10E9476
:103E7000EE1F609353027093540280935502909307
:103E800056021092740310927303F0927603E0923C
:103E900075030E9467150E94B91210935702CE0154
:103EA00001960E94F816CE0101960E944716CE0197
:103EB00001960E948416A1CF60E070E0CB01D9CFBB
:103EC000109259021092570280915A028111E7CF45
:103ED0000E94271610937B0310937C03CE0101965A
:103EE0000E94F816CE0101960E944716CE01019657
:103EF0000E9484160E947705882389F21092740329
:103F000010927303109276031092750388E791E084
:103F10000E949D1580914F03909150030097D9F115
:103F20000E94EE1F60934F027093500280935102E3
:103F3000909352021092740310927303F0927603DE
:103F4000E09275030E946715109274031092730338
:103F5000D0927603C092750381E891E00E949D158E
:103F600060915302709154028091550290915602D3
:103F700040904F0250905002609051027090520257
:103F800064197509860997090E9467150E94B9127C
:103F900010935A0284CF60E070E0CB01C3CF81E080
:103FA00093E00E94CC1488E293E00E94CC148FE44A
:103FB00093E00E94841685E593E00E9484168EE2C9
:103FC00091E09093680380936703809186039091BA
:103FD0008703009711F00C94252108951F93FC018D
:103FE00099278827BC01E89411911032E9F3193020
:103FF00010F01E30C8F31B3251F01D3249F46894A2
:1040000006C00E941520610F711D811D911D119127
:1040100010531A30B0F33EF49095809570956195E9
:104020007F4F8F4F9F4F1F910895592F482F372F44
:10403000262F660F771F881F991F660F771F881F0F
:10404000991F620F731F841F951F660F771F881FAC
:10405000991F08952F923F924F925F926F927F9295
:104060008F929F92AF92BF92CF92DF92EF92FF9288
:104070000F931F93CF93DF93CDB7DEB7CA1BDB0B34
:104080000FB6F894DEBF0FBECDBF09942A883988D9
:1040900048885F846E847D848C849B84AA84B984E0
:1040A000C884DF80EE80FD800C811B81AA81B981EC
:1040B000CE0FD11D0FB6F894DEBF0FBECDBFED0100
:1040C0000895A1E21A2EAA1BBB1BFD010DC0AA1F59
:1040D000BB1FEE1FFF1FA217B307E407F50720F071
:1040E000A21BB30BE40BF50B661F771F881F991FEC
:1040F0001A9469F760957095809590959B01AC0135
:10410000BD01CF010895EE0FFF1F0590F491E02D42
:1041100009940F931F93CF93DF938230910510F48E
:1041200082E090E0E091BD03F091BE0330E020E03A
:10413000B0E0A0E0309799F42115310509F44AC0A8
:10414000281B390B24303105D8F58A819B816115F4
:10415000710589F1FB0193838283FE0111C04081C7
:1041600051810281138148175907E0F04817590718
:1041700099F4109761F012960C93129713961C9372
:104180003296CF01DF91CF911F910F910895009347
:10419000BD031093BE03F4CF2115310551F0421732
:1041A000530738F0A901DB019A01BD01DF01F801D5
:1041B000C1CFEF01F9CF9093BE038093BD03CDCF64
:1041C000FE01E20FF31F819391932250310939834D
:1041D0002883D7CF2091BB033091BC03232B41F41C
:1041E00020910201309103013093BC032093BB0363
:1041F00020910001309101012115310541F42DB7C5
:104200003EB74091040150910501241B350BE0910C
:10421000BB03F091BC03E217F307A0F42E1B3F0B86
:104220002817390778F0AC014E5F5F4F2417350728
:1042300048F04E0F5F1F5093BC034093BB03819324
:1042400091939FCFF0E0E0E09CCFCF93DF93009776
:10425000E9F0FC01329713821282A091BD03B09164
:10426000BE03ED0130E020E01097A1F42081318100
:10427000820F931F2091BB033091BC03281739078D
:1042800009F061C0F093BC03E093BB03DF91CF91D1
:104290000895EA01CE17DF07E8F54A815B819E01A8
:1042A00041155105B1F7E901FB83EA834991599121
:1042B000C40FD51FEC17FD0761F480819181029630
:1042C000840F951FE90199838883828193819B8361
:1042D0008A83F0E0E0E012968D919C91139700970D
:1042E000B9F52D913C911197CD010296820F931F44
:1042F0002091BB033091BC032817390739F630975A
:1043000051F51092BE031092BD03B093BC03A0936D
:10431000BB03BCCFD383C28340815181840F951FDF
:10432000C817D90761F44E5F5F4F88819981480FA4
:10433000591F518340838A819B81938382832115F6
:10434000310509F0B0CFF093BE03E093BD039ECFDB
:10435000FD01DC01C0CF13821282D7CFB0E0A0E014
:10436000E4EBF1E20C942C208C01009751F4CB018A
:104370000E9489208C01C801CDB7DEB7E0E10C9422
:104380004820FC01E60FF71F9C0122503109E2177B
:10439000F30708F49DC0D901CD91DC911197C617A0
:1043A000D70798F0C530D10530F3CE0104978617B2
:1043B000970708F3C61BD70B2297C193D1936D9330
:1043C0007C93CF010E942521D6CF5B01AC1ABD0A98
:1043D0004C018C0E9D1EA091BD03B091BE03512CCB
:1043E000412CF12CE12C109731F58091BB03909179
:1043F000BC038815990509F05CC04616570608F0FD
:1044000058C08091000190910101009741F48DB74F
:104410009EB74091040150910501841B950BE8174C
:10442000F90708F055C0F093BC03E093BB03F90112
:1044300071836083A0CF8D919C91119712966C909F
:10444000129713967C901397A815B90559F56C012E
:1044500042E0C40ED11CCA14DB0420F1AC014A199D
:104460005B09DA011296159780F06282738251839C
:104470004083D9016D937C93E114F10471F0D7016D
:104480001396FC93EE93129776CF22968C0F9D1F76
:10449000F90191838083F301EFCFF093BE03E093A2
:1044A000BD0369CF4816590608F42C017D01D301DC
:1044B0009ACFCB010E9489207C01009749F0AE0180
:1044C000B8010E947022C8010E942521870153CFA4
:1044D00010E000E050CF81E090E0F8940C94872247
:1044E000FB01DC0102C001900D9241505040D8F711
:1044F0000895DC0101C06D9341505040E0F70895EC
:10450000FB01DC0101900D920020E1F7089515E018
:10451000C6E4D5E004C0FE010E9483202196C73482
:08452000D107C9F7F894FFCFA1
:104528000000BF038000000000002E068E05BB05BA
:104538007B06EC05CA05DE05000000008C105F1044
:1045480040148A0558104510361000000000160C5B
:104558008E0540148D0521098A05BB0E930EAF0EFA
:10456800A30E230F8A05DC09EA139108DA08DC0D8B
:10457800BF0D470DE80C00000000CC148C160D0A86
:1045880000636C69636B733D00537461727400441B
:104598006973742031203D00446973742032203DD2
:0E45A80000446966666572656E6365203D00BD
:00000001FF
