:100000000C9454050C947C050C947C050C947C0594
:100010000C947C050C947C050C947C050C947C055C
:100020000C947C050C947C050C947C050C947C054C
:100030000C947C050C947C050C947C050C947C053C
:100040000C94F4170C947C050C94C2170C949C1718
:100050000C947C050C947C050C947C050C947C051C
:100060000C943E180C947C05000000002300260030
:10007000290000000000003E5B4F5B3E3E6B4F6B73
:100080003E1C3E7C3E1C183C7E3C181C577D571C79
:100090001C5E7F5E1C00183C1800FFE7C3E7FF00F2
:1000A00018241800FFE7DBE7FF30483A060E262940
:1000B000792926407F050507407F05253F5A3CE703
:1000C0003C5A7F3E1C1C08081C1C3E7F14227F22C9
:1000D000145F5F005F5F06097F017F006689956A94
:1000E000606060606094A2FFA29408047E0408101F
:1000F000207E201008082A1C08081C2A08081E1048
:100100001010100C1E0C1E0C30383E3830060E3EFF
:100110000E06000000000000005F0000000700075E
:1001200000147F147F14242A7F2A12231308646288
:1001300036495620500008070300001C22410000E9
:1001400041221C002A1C7F1C2A08083E0808008047
:1001500070300008080808080000606000201008DF
:1001600004023E5149453E00427F400072494949E0
:10017000462141494D331814127F10274545453912
:100180003C4A494931412111090736494949364616
:100190004949291E000014000000403400000008F6
:1001A0001422411414141414004122140802015999
:1001B00009063E415D594E7C1211127C7F49494926
:1001C000363E414141227F4141413E7F49494941BB
:1001D0007F090909013E414151737F0808087F00EA
:1001E000417F41002040413F017F081422417F4070
:1001F0004040407F021C027F7F0408107F3E414147
:10020000413E7F090909063E4151215E7F091929B6
:1002100046264949493203017F01033F4040403FA0
:100220001F2040201F3F4038403F631408146303E1
:10023000047804036159494D43007F414141020460
:10024000081020004141417F040201020440404067
:100250004040000307080020545478407F2844445D
:10026000383844444428384444287F385454541877
:1002700000087E090218A4A49C787F080404780072
:10028000447D40002040403D007F10284400004154
:100290007F40007C047804787C0804047838444467
:1002A0004438FC1824241818242418FC7C0804045E
:1002B00008485454542404043F44243C4040207CC7
:1002C0001C2040201C3C4030403C44281028444C1A
:1002D0009090907C4464544C4400083641000000E7
:1002E000770000004136080002010204023C262388
:1002F000263C1EA1A161123A4040207A3854545540
:100300005921555579412254547842215554784009
:1003100020545579400C1E52721239555555593991
:100320005454545939555454580000457C410002E6
:10033000457D420001457C407D1211127DF028254B
:1003400028F07C545545002054547C547C0A097F85
:100350004932494949323A4444443A324A48483099
:100360003A4141217A3A42402078009DA0A07D3D4B
:100370004242423D3D4040403D3C24FF2424487ED3
:100380004943662B2FFC2F2BFF0929F620C0887EBE
:10039000090320545479410000447D413048484AC3
:1003A00032384040227A007A0A0A727D0D19317D76
:1003B0002629292F28262929292630484D4020384A
:1003C0000808080808080808382F10C8ACBA2F1009
:1003D0002834FA00007B000008142A142222142A70
:1003E00014085500550055AA55AA55AAFF55FF55A2
:1003F000FF000000FF00101010FF00141414FF0095
:100400001010FF00FF1010F010F0141414FC001472
:1004100014F700FF0000FF00FF1414F404FC141490
:1004200017101F10101F101F1414141F001010108D
:10043000F0000000001F101010101F10101010F01E
:1004400010000000FF101010101010101010FF10FE
:10045000000000FF140000FF00FF00001F10170045
:1004600000FC04F414141710171414F404F400001E
:10047000FF00F714141414141414F700F7141414D0
:10048000171410101F101F141414F4141010F0106F
:10049000F000001F101F0000001F14000000FC14DB
:1004A0000000F010F01010FF10FF141414FF1410CF
:1004B00010101F00000000F010FFFFFFFFFFF0F022
:1004C000F0F0F0FFFFFF0000000000FFFF0F0F0F34
:1004D0000F0F3844443844FC4A4A4A347E0202062C
:1004E00006027E027E0263554941633844443C045F
:1004F000407E201E2006027E020299A5E7A5991CD7
:100500002A492A1C4C7201724C304A4D4D303048F9
:10051000784830BC625A463D3E494949007E010157
:10052000017E2A2A2A2A2A44445F444440514A44EC
:100530004040444A51400000FF0103E080FF0000BA
:1005400008086B6B083612362436060F090F0600B2
:100550000018180000001010003040FF0101001FBB
:1005600001011E00191D1712003C3C3C3C0000001C
:100570000000000103070F1F3F7F0080C0E0F0F87C
:10058000FCFE000000080002010000030407000058
:1005900000000000000000000000240027002A00E6
:1005A000DB40A4A62EAF2000A1C8D300408DAED55D
:1005B00080A80102040810204080010204081020D5
:1005C00001020408102000000000250028002B0074
:1005D00004040404040404040202020202020303E9
:1005E000030303030000600000000000000000009F
:1005F0000000000000E0000000000000000000001B
:1006000000000001E0000000000000000000000009
:10061000000001F0000000000000000000000000E9
:100620000003F000000000000000000000000000D7
:1006300007F00000000000000000000000000007BC
:10064000F8000000000000000000000000000FF8AB
:1006500000000003C0007E000001E0007F0FF800F2
:10066000000003C000FE000001E000FFEFF8000002
:100670000003C000FE000001E000FFFFF8000000E2
:1006800003C000F00000000F007FFE7FC0000003E9
:10069000C000F00000000F003FFE7FF83FF1FBCFED
:1006A000FCFEF3BC3DEFE01FFE7FFF7FFBFFDFFEA4
:1006B000FEFFBC3DEFE01FC6FFFF7FFBFFDFFEFE3E
:1006C000FFBC3DEFE00FE3C7FE787BC3DE1EF0FF0B
:1006D000BC3DEF0007FF87FC787BC3DE1EF0F83CD3
:1006E0003DEF0001FFFFF0007BC3C01EF0F03C3D7A
:1006F000EF0001F37FE03FFBC3CFFEF0F03C3DEFA6
:100700000003E33F807FFBC3DFFEF0F03C3DEF00E2
:1007100007E73C00787BC3DE1EF0F03C3DEF0007AE
:10072000FFBE00787BC3DE1EF0F03C3DEF0007FF0C
:10073000FE00787BC3DE1EF0F03C3DEF000FFFFEB5
:10074000007FFBFFDFFEF0F03FFDEFE00FFFFF005B
:100750007FFBFFDFFEF0F03FFDEFE00FF9FF003E13
:1007600079F9CF9EF0F01F3DE7E01FF1FF00000098
:100770000000000000000000001F80FF007FFFFF5E
:10078000FFFFFFFFFFFFFFE01C007F007FFFFFFF79
:10079000FEB46D888D18E000001F007FFFFFFFFE94
:1007A00095AD7DB577E000000F007FFFFFFFFEA550
:1007B000AD9D8D19E0000006007FFFFFFFFEB5AD87
:1007C000EDB57EE0000000000001800000000000A8
:1007D000000000000380000000000000000000078F
:1007E000C000000000000000000007C00000000082
:1007F00000000000000FC00000000000000000002A
:100800001FE00000000000000000001FE0000000EA
:100810000000000000003FE00000000000000000B9
:10082000003FF00000000000000000007FF000002A
:1008300000000000001FF87FF00000000000000032
:100840003FFE7FF0000000000000003FFF7FF0004F
:100850000000000000001FFFFBE00000000000009F
:10086000000FFFF9FFC00000000000000FFFF9FFBC
:10087000F800000000000007FFF1FFFF000000008B
:10088000000003FC73FFFF80000000000001FE3F3A
:10089000FFFF80000000000000FF1E0FFF000000AF
:1008A000000000007FFE1FFC000000000000003F71
:1008B000FFFFF8000000000000000FDFFFE0000075
:1008C00000000000001F19FFC00000000000000031
:1008D0003F3CFF00000000000000007E7CF80000AC
:1008E0000000000000007FFE7C000000000000000F
:1008F00000FFFFFC0000000000000000FFFFFE0002
:1009000000000000000000FFFFFE000000000000EB
:100910000001FFEFFE0000000000000001FFCFFE1D
:100920000000000000000003FF07FE0000000000C0
:10093000000003FC07FE0000000000000003F003BD
:10094000FE00000000000000018000FE000000002A
:100950000000000000007E00000000000000000019
:10096000003E000000000000000000000C0000003D
:10097000000000078000FC000003C00000000780AA
:1009800001FC000003C0000000078001FC00000320
:10099000C0000000078001E00000001E000000070A
:1009A0008001E00000001E007FE3F79FF9FDE7787B
:1009B0007BDFC0FFF7FFBFFDFDFF787BDFC0FFF7E8
:1009C000FFBFFDFDFF787BDFC0F0F787BC3DE1FF97
:1009D000787BDE00F0F787BC3DE1F0787BDE00003D
:1009E000F787803DE1E0787BDE007FF7879FFDE1C0
:1009F000E0787BDE00FFF787BFFDE1E0787BDE007B
:100A0000F0F787BC3DE1E0787BDE00F0F787BC3D86
:100A1000E1E0787BDE00F0F787BC3DE1E0787BDE4B
:100A200000FFF7FFBFFDE1E07FFBDFC0FFF7FFBF87
:100A3000FDE1E07FFBDFC07CF3F39F3DE1E03E7B27
:100A4000CFC00000000000000000000000FFFFFF1A
:100A5000FFFFFFFFFFFFFFC0FFFFFFFFFD68DB1190
:100A60001A31C0FFFFFFFFFD2B5AFB6AEFC0FFFFEB
:100A7000FFFFFD4B5B3B1A33C0FFFFFFFFFD6B5BCE
:100A8000DB6AFDC05353443133303620616C6C6FE8
:100A9000636174696F6E206661696C656400220031
:100AA000FF2100005D194C1F11241FBECFEFD8E0BD
:100AB000DEBFCDBF23E0A2E7B1E001C01D92AB399C
:100AC000B207E1F711E0A0E0B1E0EAEAF3E402C026
:100AD00005900D92A237B107D9F715E0C3E5D5E02F
:100AE00004C02197FE010E94C41FC235D107C9F777
:100AF0000E94A61A0C94C8210C9400008091350223
:100B00008F5F809335020895FC0185A196A1892B02
:100B1000D9F410928A0383E893E096A385A3809189
:100B2000830390918403892B81F4F0938403E093F1
:100B3000830312A211A214A213A2F0938603E093DE
:100B4000850381E080938A030895A0918503B09185
:100B50008603B2A3A1A39496FC93EE939397EBCF55
:100B60000895089508950895AF92BF92CF92DF92AD
:100B7000EF92FF920F931F93CF93DF936C017B0152
:100B80008B01040F151FEB015E01AE18BF08C017E3
:100B9000D10759F06991D601ED91FC910190F08156
:100BA000E02DC6010995892B79F7C501DF91CF9119
:100BB0001F910F91FF90EF90DF90CF90BF90AF907B
:100BC0000895FC01538D448D252F30E0842F90E053
:100BD000821B930B541710F0CF9608950197089538
:100BE000FC01918D828D981761F0A28DAE0FBF2F01
:100BF000B11D5D968C91928D9F5F9F73928F90E057
:100C000008958FEF9FEF0895FC01918D828D9817C5
:100C100031F0828DE80FF11D858D90E008958FEF02
:100C20009FEF0895FC01918D228D892F90E0805CCB
:100C30009F4F821B91098F73992708958CE392E04F
:100C40000E94120621E0892B09F420E0822F0895EA
:100C500080E090E0892B29F00E941E0681110C94FF
:100C600000000895FC01A48DA80FB92FB11DA35A4F
:100C7000BF4F2C91848D90E001968F739927848FBC
:100C8000A689B7892C93A089B1898C9183708064DF
:100C90008C93938D848D981306C00288F389E02D80
:100CA00080818F7D80830895EF92FF920F931F9331
:100CB000CF93DF93EC0181E0888F9B8D8C8D98130F
:100CC0001AC0E889F989808185FF15C09FB7F8941B
:100CD000EE89FF896083E889F98980818370806467
:100CE00080839FBF81E090E0DF91CF911F910F91B2
:100CF000FF90EF900895F62E0B8D10E00F5F1F4FC1
:100D00000F731127E02E8C8D8E110CC00FB607FCCF
:100D1000FACFE889F989808185FFF5CFCE010E945D
:100D20003206F1CFEB8DEC0FFD2FF11DE35AFF4F93
:100D3000F0829FB7F8940B8FEA89FB8980818062EB
:100D4000CFCFCF93DF93EC01888D8823B9F0AA89A8
:100D5000BB89E889F9898C9185FD03C0808186FD76
:100D60000DC00FB607FCF7CF8C9185FFF2CF8081C5
:100D700085FFEDCFCE010E943206E9CFDF91CF9102
:100D80000895833081F028F4813099F08230A9F001
:100D900008958730A9F08830C9F08430B1F480918B
:100DA00080008F7D03C0809180008F7780938000CA
:100DB000089584B58F7784BD089584B58F7DFBCF6A
:100DC0008091B0008F778093B00008958091B0003B
:100DD0008F7DF9CF1F93CF93DF93282F30E0F90158
:100DE000EE57FA4F8491F901EE54FA4FD491F9017C
:100DF000E053FA4FC491CC23A9F0162F81110E9421
:100E0000C106EC2FF0E0EE0FFF1FEA53FA4FA59159
:100E1000B4918FB7F894EC91111108C0D095DE23EE
:100E2000DC938FBFDF91CF911F910895DE2BF8CF18
:100E3000CF93DF9390E0FC01EE54FA4F249180535E
:100E40009A4FFC0184918823D1F090E0880F991F7C
:100E5000FC01EA56FA4FA591B491FC01EA53FA4F0E
:100E6000C591D491623071F49FB7F8943C91822F70
:100E7000809583238C93E8812E2B28839FBFDF915D
:100E8000CF9108958FB7F894EC912E2B2C938FBFB0
:100E9000F6CF3FB7F8948091280290912902A09153
:100EA0002A02B0912B0226B5A89B05C02F3F19F04E
:100EB0000196A11DB11D3FBFBA2FA92F982F8827DA
:100EC000BC01CD01620F711D811D911D42E0660FB5
:100ED000771F881F991F4A95D1F708958F929F9287
:100EE000AF92BF92CF92DF92EF92FF924B015C01E3
:100EF0000E9449076B017C010E9449076C197D091A
:100F00008E099F09683E734081059105A8F321E091
:100F1000821A9108A108B10888EEC80E83E0D81E95
:100F2000E11CF11C81149104A104B10429F7FF9084
:100F3000EF90DF90CF90BF90AF909F908F900895EB
:100F4000EF92FF920F931F93CF93DF93EC01EC800E
:100F5000FD806E157F050CF070C057FF04C0240F94
:100F6000351F50E040E08E819F81FA01E20FF31FB0
:100F70008E179F071CF49C01241B350B12161306B9
:100F80000CF05BC0922F842F8695869586958E9D5A
:100F9000D0018F9DB00D11246A0F7B1FAF8DB8A1BA
:100FA000A60FB71F477049F188E0841B482F682FB0
:100FB00070E0FB01E658FA4FE491281708F063C08F
:100FC000621B71092FEF30E002C0359527956A95B5
:100FD000E2F7E2230130110539F0B0F102301105DA
:100FE00061F58C91E82702C08C91E82BEC93941763
:100FF00020F12C813D81A20FB31FE92FE41BE830C3
:1010000078F00230110521F58E2F9C9190959C93DC
:101010002C813D81A20FB31F88508830B0F7E77054
:10102000EE2359F0F0E0EE58FA4FE491013011054B
:10103000F9F010F10230110519F1DF91CF911F91F4
:101040000F91FF90EF900895E0958C91E823CECF1B
:1010500081E00115110509F480E081959E2F8C93A4
:101060002C813D81A20FB31F98509830C0F7D7CF85
:101070008C91E82BEC93E1CFE0958C91E823FACFAB
:101080008C91E827F7CF0130110509F4ADCFE0F2DC
:101090000230110509F4A5CFAE0DBF1DAECF0F93E1
:1010A0001F93CF93DF9377FF04C0260F371F70E0A5
:1010B00060E0DC011496CD91DC91FB01E20FF31F9F
:1010C000CE17DF071CF49E01261B370B12161306E2
:1010D0004CF5FA0157FD3796A3E0F595E795AA95EB
:1010E000E1F7EC9FD001ED9FB00DFC9FB00D1124F6
:1010F0006A0F7B1FDC015F96ED91FC91E60FF71FF5
:101100004770552781E090E001C0880F4A95EAF7C3
:10111000482F0130110559F0A8F02E0F3F1F023063
:101120001105E1F0DF91CF911F910F9108952E0FDE
:101130003F1FE217F307B1F38191DF011197842B71
:101140008C93F7CF80952E0F3F1FE217F30751F3D3
:101150009191DF01119798239C93F7CFE217F30742
:1011600009F38191DF01119784278C93F7CF0F93B7
:101170001F93FA01DC0156964C9156974230E9F0E4
:101180004330A1F1413061F514964D915C91DA0143
:10119000AE1BBF0BFD01E21BF30B77FD0BC0DC01A7
:1011A00016964D915C916417750724F4AB01BF014D
:1011B0000E944F081F910F91089514964D915C91D4
:1011C000DA01A61BB70BBD0161507109DC0116964F
:1011D0004D915C91DA01AE1BBF0BFD01E21BF30BDD
:1011E00077FDE8CFAF010E94A007E4CF16964D919E
:1011F0005C91DA01A61BB70BBD0161507109CDCF1F
:101200000F931F93FA01DC0156964C91569742308A
:10121000A9F0433091F1413019F514964D915C914C
:10122000DA01AE1BBF0BFD013197F7FD04C0AB0126
:10123000BF010E94A0071F910F91089514964D9130
:101240005C91DA01A61BB70BBD01DC0116964D912E
:101250005C91DA01AE1BBF0BFD013197621B730B72
:10126000F7FDE9CFDC0116964D915C91E417F50787
:1012700014F7AF010E944F08DECF16964D915C9196
:10128000DA01A61BB70BBD01621B730BCECFFC01AD
:1012900077FD64C080859185681779070CF05EC082
:1012A00057FD5CC082859385481759070CF056C0DE
:1012B00086898230B1F0833029F1813041F4848114
:1012C0009581841B950BAB01BC01615071092130E4
:1012D000310509F108F443C02230310509F463C037
:1012E000089584819581DC01A61BB70BBD01615077
:1012F000710986819781DC01A41BB50BAD014150BA
:101300005109E5CF86819781861B970BBA01AC0105
:1013100041505109DCCFCA0157FD0796A3E09595CE
:101320008795AA95E1F7A481B5818A9F90018B9F4B
:10133000300D9A9F300D1124620F731F078CF0A19E
:10134000E02DE60FF71F4770552721E030E001C080
:10135000220F4A95EAF78081822B80830895CA0183
:1013600057FD079633E0959587953A95E1F7A48167
:10137000B5818A9F90018B9F300D9A9F300D11246B
:10138000620F731F078CF0A1E02DE60FF71F477067
:10139000552781E090E001C0880F4A95EAF78095D3
:1013A00090818923DACFCA0157FD079623E09595EE
:1013B00087952A95E1F7A481B5818A9F90018B9F3B
:1013C000300D9A9F300D1124620F731F078CF0A10E
:1013D000E02DE60FF71F4770552721E030E001C0F0
:1013E000220F4A95EAF780818227B7CF08958EBDF4
:1013F00000000DB407FEFDCF8EB508958CBD9DBDD8
:1014000008950895FC016370668B8481958126811F
:101410003781613039F0633029F0918780873387D5
:1014200022870895318720879387828708952F9296
:101430003F924F925F926F927F928F929F92AF9264
:10144000BF92CF92DF92EF92FF920F931F93CF93B1
:10145000DF93CDB7DEB76A970FB6F894DEBF0FBE45
:10146000CDBF9A8F898F7A8369834A01D22E1887DC
:101470000F833701BC2CDC0159962D913C915A9772
:101480002115310509F015C118968D919C91199778
:10149000681779070CF0D7C11A968D919C9148175F
:1014A00059070CF0D0C14C2C512CB6E0CB9E600DEE
:1014B000711D11247C876B87161617060CF0C3C1AB
:1014C000EA2DF0E0FA87E98793E0EE0FFF1F9A9587
:1014D000E1F7F88BEF87CF01840F951F18161906D7
:1014E0000CF0B1C1A98DBA8D58968C91811104C0B0
:1014F000BFEABD1508F4D394A98DBA8DED91FC9186
:1015000011970284F385E02DCD010995B5E0DB9EAE
:10151000C0011124E981FA81FC83EB83312C212C59
:101520009C012E583F4F388F2F8B4A2D50E05E8BF9
:101530004D8BEF89F88DE20DF31D44919E828D82D3
:10154000D12CC12C69817A81620D731D7A8B698BD4
:10155000842F90E09C8B8B8BE98DFA8DA081B181DB
:1015600040FF82C0F1E0BF126FC0AF126DC01C9689
:10157000ED91FC912F813885A4014C0D5D1D698989
:101580007A89898D9A8D0995EB89FC89F595E7957E
:101590004E2F5FEFC51AD50A6D817E818D899E8998
:1015A000680F791F7E836D8398E0C916D10481F698
:1015B000AFEF2A1A3A0AEB81FC81E40DF51DFC839A
:1015C000EB83F5E02F16310409F0B3CF2F81388576
:1015D00026153705B9F0A98DBA8DED91FC91B1E0D2
:1015E000BB1257C0AB1255C069817A816B5F7F4FC8
:1015F0000088F189E02D830128E030E0A401898D85
:101600009A8D0995A98DBA8DED91FC911197068857
:10161000F789E02DCD016A960FB6F894DEBF0FBEB4
:10162000CDBFDF91CF911F910F91FF90EF90DF9091
:10163000CF90BF90AF909F908F907F906F905F9072
:101640004F903F902F9009941E96ED91FC91EF8062
:10165000F88409851A8592014D815E816B817C81B8
:10166000898D9A8D099590CF2F813885261537055C
:1016700009F48ACF31E0B31207C0A31205C01C964B
:10168000ED91FC91930178CF1E96ED91FC91730141
:10169000E0CF6B857C85641975090684F785E02D9C
:1016A00073010F8518899201A401898D9A8D09957E
:1016B000A9CFF90134969491329745915491D91A52
:1016C000B7E0DB9E400D511D1124F90125913491A5
:1016D0003C8B2B8BFA0125903490FA013296749052
:1016E00031963491398B329664903196449041E032
:1016F0004C1518F04A1508F07FC0662D062C000C1A
:10170000770B7C836B83842D042C000C990B9E83B8
:101710008D83A98DBA8DED91FC9111970284F3858B
:10172000E02DCD010995512CD12CC12CEA2DF0E0F2
:10173000FA87E9872B2D30E03C872B87A401440DE5
:10174000511D47FC5A95588F4F8B69817A81660DE0
:10175000711D67FC7A957E876D877989C71608F0B9
:1017600051CF2C2D30E04D815E81420F531FA98552
:10177000BA854A9FC0014B9F900D5A9F900D11242E
:10178000FC01E80DF91DF88BEF87852D612C4F8941
:10179000588D420F531F5E8B4D8B671408F050C05D
:1017A00044244394480E877041F4C1010196EB89AB
:1017B000FC89E20DF31DD4901C01D7FE19C0A98D40
:1017C000BA8DED91FC91662D70E0B1E0BB1219C0AD
:1017D000AB1217C02D853E85620F731F0484F585FB
:1017E000E02D2F8138854D895E89898D9A8D0995E7
:1017F000DD0C6394842DD1CF1E821D821C821B823E
:1018000088CF4B815C81640F751FAB85BC856A9F57
:10181000C0016B9F900D7A9F900D112469817A8190
:10182000680F791F0684F785E02DEF80F88409851D
:101830001A859D014F855889898D9A8D0995D8CF34
:10184000570CC3948ACF6A960FB6F894DEBF0FBECA
:10185000CDBFDF91CF911F910F91FF90EF90DF905F
:10186000CF90BF90AF909F908F907F906F905F9040
:101870004F903F902F9008958F929F92AF92CF926A
:10188000EF92FF920F931F93CF93DF93EC01262FDC
:10189000898D9A8D009709F051C06A30D1F41D8668
:1018A0001C868D8948E0849F900111248E859F8538
:1018B000820F931F9F878E8781E090E0DF91CF9109
:1018C0001F910F91FF90EF90CF90AF909F908F90CE
:1018D00008956D3089F3CC88AD888F898823C1F055
:1018E0008C859D8536E0C39E800D911D1124488511
:1018F00059854817590764F44E855F851D861C86F7
:1019000038E0A39EC0011124840F951F9F878E8706
:10191000EA88FB88088919894E855F856C857D85F5
:10192000CE010E94170A2C898C859D8546E0249F54
:10193000800D911D11249D878C87BECF6A3069F47C
:101940001D861C86FC013896E4912D898E859F8525
:10195000E29F800D911D1124ADCF6D3009F4ACCF05
:10196000FC0134963491631708F4A6CF3296E491C3
:10197000E61708F4A1CFFC01329685909490462F8B
:10198000431B342F47E0349F800C911C1124F40139
:10199000329634913196E4913323A9F1EE2399F1F3
:1019A000CC88F4013596E491AD884F89442301F148
:1019B0000E2E000CFF0BE30FF11DCE9EA001CF9E5B
:1019C000500D11246C857D85460F571F68857985DC
:1019D000641775076CF44E855F851D861C86FC01B7
:1019E0003896E491AE9E400D511D11245F874E87BD
:1019F000EA88FB88088919894E855F856C857D8515
:101A0000CE010E94170AF4013496E4912C898C854A
:101A10009D85E29F800D911D11248DCF6F927F9245
:101A20008F929F92AF92BF92CF92DF92EF92FF92EE
:101A30000F931F93CF93DF93EC016B015A01390190
:101A40004801E881F9810284F385E02D0995E88158
:101A5000F9810288F389E02D87019301A501B60180
:101A6000CE010995A501480D591D41505109E88144
:101A7000F9810288F389E02D9301B601CE01099521
:101A8000E881F9810088F189E02D9401A501B60172
:101A9000CE010995C60CD71CB60161507109E881C9
:101AA000F9810088F189E02D9401A501CE01099505
:101AB000E881F9810688F789E02DCE01DF91CF9189
:101AC0001F910F91FF90EF90DF90CF90BF90AF905C
:101AD0009F908F907F906F9009946F927F928F92DA
:101AE0009F92AF92BF92CF92DF92EF92FF920F93AD
:101AF0001F93CF93DF935C01EB016A014901380129
:101B00008701DC01ED91FC916217730719F56416EA
:101B100075062CF0962D872D3A01C92ED82E9601E8
:101B2000261937092F5F3F4F048CF58DE02DA30157
:101B3000BE01C5010995DF91CF911F910F91FF90D3
:101B4000EF90DF90CF90BF90AF909F908F907F905D
:101B50006F9008954615570591F42617370724F01E
:101B6000892D4B01C22FD82F9E01281939092F5FCB
:101B70003F4F068CF78DE02DA601B401DACF028429
:101B8000F385E02D0995D501ED91FC910488F58947
:101B9000E02D83019401A601BE01C5010995D5017F
:101BA000ED91FC910688F789E02DC501DF91CF9179
:101BB0001F910F91FF90EF90DF90CF90BF90AF906B
:101BC0009F908F907F906F900994EF92FF920F9368
:101BD0001F93DC011A960D911C911B9718962D915D
:101BE0003C911997ED91FC9100A0F1A1E02D7B01B2
:101BF00050E040E070E060E009951F910F91FF9088
:101C0000EF9008954F925F926F927F928F929F9282
:101C1000AF92BF92CF92DF92EF92FF920F931F93FA
:101C2000CF93DF936C012B015A0139014801DC018C
:101C3000ED91FC910284F385E02D0995E201640C9D
:101C4000751CD601ED91FC91C615D7055CF4008892
:101C5000F189E02D87019401A501BE01C601099516
:101C60002196EFCF0688F789E02DC601DF91CF914D
:101C70001F910F91FF90EF90DF90CF90BF90AF90AA
:101C80009F908F907F906F905F904F9009948F926C
:101C90009F92AF92BF92CF92DF92EF92FF920F93FB
:101CA0001F93CF93DF93EC015B014A016901E88147
:101CB000F9810284F385E02D099595012C0D3D1DD8
:101CC00021503109E881F9810488F589E02D7801F6
:101CD0008401A401B501CE010995E881F981068846
:101CE000F789E02DCE01DF91CF911F910F91FF90E9
:101CF000EF90DF90CF90BF90AF909F908F9009941E
:101D00008F929F92AF92BF92CF92DF92EF92FF920B
:101D10000F931F93CF93DF93EC015B014A0169019D
:101D20007801E881F9810284F385E02D0995C80CDA
:101D3000D91C860101501109E881F9810488F589CF
:101D4000E02D9501A401B501CE010995E881F98145
:101D50000688F789E02DCE01DF91CF911F910F9179
:101D6000FF90EF90DF90CF90BF90AF909F908F90BB
:101D70000994EF92FF920F931F93DC01ED91FC9178
:101D800000A0F1A1E02D09951F910F91FF90EF9018
:101D900008950F931F93DC01ED91FC91068CF78D54
:101DA000E02D09951F910F9108950F931F93DC016A
:101DB000ED91FC91048CF58DE02D09951F910F910B
:101DC0000895DC01ED91FC910084F185E02D0994EA
:101DD0003F924F925F926F927F928F929F92AF92BB
:101DE000BF92CF92DF92EF92FF920F931F93CF9308
:101DF000DF935C017B014A016901390187E0680ECC
:101E0000711C93E0759467949A95E1F72B01400E4D
:101E1000511E10E000E0312CD0E0C0E0CE01877010
:101E20009927330C892B59F4FE0183E0F595E7954A
:101E30008A95E1F7E00FF11FE80DF91D349037FEA8
:101E40000AC021E030E0A701B5016C0F7D1F83E4DB
:101E500093E00E94E10E2196CC16DD06F9F68FEF95
:101E6000E81AF80A060D171DE414F504A9F6DF9127
:101E7000CF911F910F91FF90EF90DF90CF90BF9087
:101E8000AF909F908F907F906F905F904F903F901A
:101E900008952F923F924F925F926F927F928F920E
:101EA0009F92AF92BF92CF92DF92EF92FF920F93E9
:101EB0001F93CF93DF9300D000D000D0CDB7DEB713
:101EC0003C016A013E832D83FC82EB825801A41AF7
:101ED000B50AB7FE03C0B194A194B1088D809E806D
:101EE000861A970A97FE03C09194819491088A14E8
:101EF0009B045CF0902F812F0D811E819D838E832A
:101F00009C2D8D2D6B01692F782F0C151D055CF014
:101F10009D818E817E836D83692F782F902F812FF5
:101F20008601C92ED82E1601201A310A2B012D81C7
:101F30003E81421A530A57FE03C0519441945108FE
:101F4000710137FE03C03FEFE31AF30AF594E794FB
:101F50008D819E81861797075CF5A1E0B0E0BA837A
:101F6000A983C016D1064CF1D301ED91FC910484F4
:101F7000F585E02D2B813C81A8016D817E818A143D
:101F80009B041CF04D815E81B801C3010995E418E2
:101F9000F508F7FE0AC02D813E8189819A81280FBC
:101FA000391F3E832D83E20CF31C0F5F1F4FD9CFE7
:101FB0002FEF3FEF3A832983D4CF26960FB6F894BC
:101FC000DEBF0FBECDBFDF91CF911F910F91FF906C
:101FD000EF90DF90CF90BF90AF909F908F907F90C9
:101FE0006F905F904F903F902F9008952091DD016A
:101FF000260F3327331F21323105ECF420910102E3
:10200000FC0190E080E0243069F082E00895A09126
:10201000DD012191AC0143545E4FA40FB52FB11DDA
:102020002C930196861798F38091DD01680F6093D9
:10203000DD0180E0089581E008951092010281E0C1
:10204000809303021092020261E082E10E94EA069C
:1020500061E083E10E94EA06E9EBF0E080818E7F97
:10206000808380818D7F808388E48093B80085E4BD
:102070008093BC000895CF93DF9391E09093BC01CF
:102080008823B9F0C091B800D091BA008091BC000B
:102090008A7B8093BC0060E082E10E94EA0660E0F7
:1020A00083E10E94EA060E941D10D093BA00C093FB
:1020B000B800DF91CF910895E09132028091310212
:1020C000E81730F4F0E0E956FE4F808190E0089583
:1020D0008FEF9FEF089590913202809131022FEFA0
:1020E0003FEF981748F4E92FF0E0E956FE4F2081C2
:1020F00030E09F5F90933202C901089580913102D0
:1021000090913202891B990B0895CF92DF92EF9242
:10211000FF920F931F93CF93DF937C01CB018A0132
:1021200020913B02222389F0EB016B01C40ED51EE6
:10213000CC15DD0569F06991D701ED91FC91019015
:10214000F081E02DC7010995F3CF642F0E94F60FAF
:10215000C801DF91CF911F910F91FF90EF90DF9019
:10216000CF900895CF93DF931F92CDB7DEB76983E9
:1021700020913B022223F9F020913802203258F0BE
:1021800021E030E0FC013383228390E080E00F9077
:10219000DF91CF91089580913902E82FF0E0E9585E
:1021A000FE4F998190838F5F80933902809338022C
:1021B00081E090E0ECCF61E0CE0101960E94F60F45
:1021C000F7CFCF92DF92EF92FF920F931F93CF93AF
:1021D000DF93D091380281E0D13208F09CC0C091E9
:1021E0003A020E9449076B017C0180910102811132
:1021F0006CC082E08093010281E0809303028FEF44
:102200008093000210922502D0932402A7E7B1E048
:10221000E4E0F2E080E0D8138DC0109226028091B5
:102220002602CC0FC82BC093260280910202813077
:1022300009F084C0109202020E9449076B017C01E0
:10224000809126028093BB008091B8019091B901E2
:10225000A091BA01B091BB01892B8A2B8B2BA1F0E5
:102260000E9449070091B8011091B9012091BA016B
:102270003091BB016C197D098E099F09061717075C
:102280002807390708F442C08091BC0083FDD8CFED
:1022900085EC8093BC000E9449076B017C01809112
:1022A0000102823009F44CC0809100028F3F09F492
:1022B00069C080910002803209F466C080910002FA
:1022C000803309F463C084E026C08091B801909106
:1022D000B901A091BA01B091BB01892B8A2B8B2B3C
:1022E00009F483CF0E9449070091B8011091B90108
:1022F0002091BA013091BB016C197D098E099F09AB
:10230000061717072807390708F06FCF8091B70124
:102310000E943B1085E01092390210923802109210
:102320003B02DF91CF911F910F91FF90EF90DF90D3
:10233000CF9008959D9191938F5F6DCF85EEA9CF3A
:102340008091B8019091B901A091BA01B091BB01FF
:10235000892B8A2B8B2B09F4A2CF0E94490700916D
:10236000B8011091B9012091BA013091BB016C19EB
:102370007D098E099F09061717072807390708F0F6
:102380008ECFC4CF80E0C7CF82E0C5CF83E0C3CF7C
:10239000EF92FF920F931F93CF93DF937C01C62F91
:1023A0008091600390916103009709F459C02091D6
:1023B000640331E030933B0220933A0210923902D9
:1023C00010923802DC01ED91FC910190F081E02D3A
:1023D00060E009958701EE24E394F12CD1E0C1502F
:1023E0008091600390916103CF3F91F1B0E2EB16D1
:1023F000F104D8F00E94E110809160039091610394
:1024000020916403D0933B0220933A021092390248
:1024100010923802DC01ED91FC910190F081E02DE9
:1024200060E00995EE24E394F12C80916003909193
:102430006103F8016491DC01ED91FC910190F08160
:10244000E02D0995BFEFEB1AFB0A0F5F1F4FC7CFB7
:10245000DF91CF911F910F91FF90EF900C94E110BD
:10246000E0917003F09171039081809176038095E3
:10247000892380838701C15008F438C0F801849112
:1024800020915E0330915F03232B29F00E94F7090E
:102490000F5F1F4FF0CF28E030E040E8E0916C0381
:1024A000F0916D0390917403582F5423D9F050810B
:1024B000952B9083E0916E03F0916F039081509182
:1024C0007503952B9083E0916E03F0916F0350811B
:1024D00090917503909595239083469521503109ED
:1024E000E9F6D6CF508190959523E3CFDF91CF9138
:1024F0001F910F91FF90EF9008951F93CF93DF935B
:10250000EC018D8D9E8D009721F1162F29A131E0D0
:1025100030933B0220933A02109239021092380213
:10252000DC01ED91FC910190F081E02D60E00995D6
:102530008D8D9E8DDC01ED91FC910190F081E02D5F
:10254000612F09958D8D9E8DDF91CF911F910C94F8
:10255000E110ADA5BEA59C918BA9809589238C9394
:102560008B8D9C8D892B31F0862FDF91CF911F9120
:102570000C94F70928E030E080E8A9A5BAA599A94C
:10258000462F4823C1F04C91942B9C93ABA5BCA53E
:102590009C914AA9942B9C93ABA5BCA54C919AA95C
:1025A000909594239C9386952150310931F7DF91C2
:1025B000CF911F9108954C9190959423E6CFDF928F
:1025C000EF92FF920F931F93CF93DF93809160035D
:1025D00090916103892B09F498C020917803309180
:1025E000790340917A0350917B0360E074E284EFB9
:1025F00090E00E94A21F20513109410951095695CE
:102600004795379527952093B80065E08EE99AE0C5
:102610000E94C81160914703615083E493E00E94D7
:102620007D122091490330914A03C901079697FD15
:10263000079633E0959587953A95E1F72091470302
:1026400030914803829F8001839F100D929F100D4F
:102650001124C0916203D091630380916003909133
:1026600061030C0F1D1F009709F48FC020916403B4
:1026700031E030933B0220933A02109239021092DB
:102680003802DC01ED91FC910190F081E02D60E4D5
:102690000995EE24E394F12CDD24D394809160031A
:1026A000909161030C171D0709F446C0B0E2EB16C8
:1026B000F104D8F00E94E1108091600390916103D1
:1026C00020916403D0923B0220933A021092390287
:1026D00010923802DC01ED91FC910190F081E02D27
:1026E00060E40995EE24E394F12C809160039091CD
:1026F00061036991DC01ED91FC910190F081E02D85
:102700000995BFEFEB1AFB0AC9CF80915E03909148
:102710005F03892B31F080918103909182030E94A5
:10272000FE09E0917203F091730390818091770329
:1027300080958923808369CF0E94E1108091600396
:1027400090916103892B09F461C020917C03309141
:102750007D0340917E0350917F0360E074E284EF3B
:1027600090E00E94A21F205131094109510956955C
:102770004795379527952093B800DF91CF911F910A
:102780000F91FF90EF90DF900895E0917003F0912A
:102790007103808190917603892B80830C171D072C
:1027A00069F2899120915E0330915F03232B19F028
:1027B0000E94F709F3CF28E030E040E8E0916C0395
:1027C000F0916D0390917403582F5423D9F05081E8
:1027D000952B9083E0916E03F0916F03908150915F
:1027E0007503952B9083E0916E03F0916F035081F8
:1027F00090917503909595239083469521503109CA
:10280000E9F6CCCF508190959523E3CFE091720308
:10281000F0917303808190917703892B8083ADCFF2
:102820001F93CF93DF93EC01162F8D8D9E8D892BF7
:10283000B1F12DA93EA94FA958AD60E074E284EF33
:1028400090E00E94A21F205131094109510956957B
:102850004795379527952093B80066EA111167EAE6
:10286000CE010E947D128D8D9E8D892B41F129AD67
:102870003AAD4BAD5CAD60E074E284EF90E00E9455
:10288000A21F2051310941095109569547953795A5
:1028900027952093B800DF91CF911F9108958B8DDC
:1028A0009C8D892B21F08EAD9FAD0E94FE09EFA576
:1028B000F8A990818CA9809589238083CECFEFA53C
:1028C000F8A980819CA9892B8083E5CF90E080E0E6
:1028D0000895EF92FF921F93CF93DF93EC018A81CB
:1028E0009A819E7F9A839A819D7F9A83182F117077
:1028F00080FF13C0EF8DF8A1309779F0ADA1BEA194
:102900001496ED90FC9015971596DC93CE93149742
:102910000995EDA1FEA1F582E482812FDF91CF918F
:102920001F91FF90EF9008950F931F93CF93DF9324
:10293000FC01A5A1B6A1109709F452C0EC01178AB9
:10294000108E118E128E82818B7F8283058CF68D84
:10295000E02D309709F440C08A8181FD3DC0149676
:102960000D911C9115971596DC93CE9314978A813F
:1029700082608A8309959A8180FB90F99A838A8183
:102980008D7F8A83EDA1FEA1158304838B819C81B9
:10299000AD81BE818F839887A987BA872FB7F894B6
:1029A0008091D9029091DA02A091DB02B091DC0211
:1029B0002FBF4F81588569857A85841B950BA60B9F
:1029C000B70B8B879C87AD87BE878A818170DF912B
:1029D000CF911F910F9108958A8181608A83D6CF0C
:1029E00080E0F5CFCF93DF93EC018AE591E0998306
:1029F00088838A8180FF03C0CE010E946914EDA103
:102A0000FEA1309789F017821EA21DA2A9A1BAA12A
:102A10008BA19CA1109799F4009749F41182108220
:102A20001382128281E08783DF91CF910895DC01C8
:102A300092961C921E92919791838083F3CF009778
:102A400039F494961C921E929397B383A283EACF93
:102A500094969C938E9393970BA0DCA1C02DBAA360
:102A6000A9A3E0CFFB0101900020E9F73197AF0166
:102A7000461B570BDC01ED91FC910280F381E02DA8
:102A800009948F929F92AF92BF920F931F93CF930F
:102A9000DF93CDB7DEB7A1970FB6F894DEBF0FBEB8
:102AA000CDBF19A2423008F44AE08E010F5D1F4FDE
:102AB000842E912CB12CA12CA50194010E94A21F5F
:102AC000E62FB901CA01EA3004F5E05DD801EE93C2
:102AD0008D01232B242B252B79F790E080E0109794
:102AE00029F0BD018CE392E00E943215A1960FB649
:102AF000F894DEBF0FBECDBFDF91CF911F910F9134
:102B0000BF90AF909F908F900895E95CDFCFCF93F7
:102B1000DF93EBE2F3E0448155816081718183E4CE
:102B200093E00E94B405EC016EE571E083E493E06C
:102B30000E9432158C0F9D1FDF91CF9108951F9336
:102B4000CF93DF93D0917501E6E8F5E08491E6EB51
:102B5000F5E01491E4EDF5E0C491CC2309F448C00C
:102B600081110E94C106EC2FF0E0EE0FFF1FE85923
:102B7000FF4FA591B491EC91E12331E020E009F4FD
:102B800030E0832F922F21E082278170D81333C049
:102B90001092740180917301882309F441C08091DF
:102BA00037028F5F8430D1F18093370261E671E0A4
:102BB0008CE392E00E9432156091370270E090E061
:102BC00080E04AE00E9441156EE571E08CE392E0FE
:102BD0000E943215109273016091720181E06827A2
:102BE0006093720189E0DF91CF911F910C94EA0606
:102BF00090E080E0C8CF809174018F5F8093740172
:102C00008C3040F281E0D827D09375011092740186
:102C1000DD2309F4BFCF80937301BCCF81E0C4CF23
:102C2000DF91CF911F9108952091490330914A037C
:102C3000C901079697FD079623E0959587952A95F4
:102C4000E1F72091470330914803829FA001839FC1
:102C5000500D929F500D112470E060E0809162034E
:102C6000909163030C94BA21CF93DF93EC01809190
:102C70002B0390912C030097E9F06881798161150D
:102C80007105B1F040912D0350912E032C813D81AF
:102C90004217530768F00E94C1218C819D81909357
:102CA000300380932F031D821C82DF91CF91089502
:102CB0000E9466208881998190932C0380932B0336
:102CC0008A819B8190932E0380932D038C819D811B
:102CD0009093300380932F03198218821B821A82EB
:102CE000E2CFFC0180819181009711F00C94662065
:102CF0000895CF93DF93EC010E94F214CE01DF918F
:102D0000CF910C9466200E94AC210F931F93CF9318
:102D1000DF93EC0188819981009759F02A813B81EA
:102D20002617370730F081E0DF91CF911F910F9187
:102D300008958B016F5F7F4F0E94EF20009759F03D
:102D4000998388831B830A832C813D81232B59F728
:102D5000FC011082E8CF80E0E7CFEF92FF920F9363
:102D60001F93CF93DF93EC017B018A01BA010E948C
:102D7000851628813981811114C02115310519F07A
:102D8000C9010E946620198218821D821C821B8242
:102D90001A82CE01DF91CF911F910F91FF90EF909A
:102DA00008951D830C83B701C9010E94C121F1CF91
:102DB000FC0111821082138212821582148250E06B
:102DC00040E060E671E00C94AD16EF92FF920F9335
:102DD0001F93CF93DF9300D0CDB7DEB78C018CE388
:102DE00092E00E941206181619060CF040C050E03E
:102DF00040E060E671E081E393E00E94AD168CE371
:102E000092E00E9412061816190674F58CE392E0FF
:102E10000E94F00589831A82E0903503F090360312
:102E20008FEFE81AF80AB70181E393E00E94851654
:102E3000882399F02091310330913203809135033A
:102E400090913603BE016F5F7F4F820F931F0E94E8
:102E5000C121F0923603E092350362E070E080E039
:102E600090E00E946E07CBCF81E080937601809145
:102E70007601882329F110927601F80111821082DF
:102E80001382128215821482F3E001331F0771F05E
:102E900060913103709132036115710539F04091F1
:102EA000350350913603C8010E94AD16C8010F903A
:102EB0000F90DF91CF911F910F91FF90EF900895A8
:102EC000C8010E94D816F2CF85ED8093BC00809196
:102ED000B8019091B901A091BA01B091BB010796D8
:102EE000A11DB11D23E0B695A795979587952A95C5
:102EF000D1F72091BC0024FD03C010920102089577
:102F00004091B8015091B9016091BA017091BB0133
:102F1000452B462B472B69F30097A105B10541F0DE
:102F200025E32A95F1F700000197A109B109E1CF46
:102F30008091B7010C943B101F920F920FB60F9225
:102F400011242F933F934F935F936F937F938F93AE
:102F50009F93AF93BF93EF93FF938CE392E00E9414
:102F60003206FF91EF91BF91AF919F918F917F9129
:102F70006F915F914F913F912F910F900FBE0F90E6
:102F80001F9018951F920F920FB60F9211242F9336
:102F90008F939F93EF93FF93E0914C02F0914D023A
:102FA0008081E0915202F091530282FD1BC090811A
:102FB000809155028F5F8F7320915602821741F0E6
:102FC000E0915502F0E0E45CFD4F958F809355024F
:102FD000FF91EF919F918F912F910F900FBE0F90C6
:102FE0001F9018958081F4CF1F920F920FB60F9209
:102FF00011242F933F938F939F93AF93BF9380910F
:10300000D9029091DA02A091DB02B091DC023091FA
:10301000270223E0230F2D3758F50196A11DB11D7E
:10302000209327028093D9029093DA02A093DB02C7
:10303000B093DC028091280290912902A0912A028B
:10304000B0912B020196A11DB11D8093280290938F
:103050002902A0932A02B0932B02BF91AF919F91B6
:103060008F913F912F910F900FBE0F901F90189549
:1030700026E8230F0296A11DB11DD2CF1F920F92F9
:103080000FB60F9211242F933F934F935F936F933B
:103090007F938F939F93AF93BF93EF93FF93809111
:1030A000B900887F803609F44AC0F0F5883209F407
:1030B000A7C018F5803109F49BC0B8F4882309F43F
:1030C000F9C0883009F494C0FF91EF91BF91AF919E
:1030D0009F918F917F916F915F914F913F912F9130
:1030E0000F900FBE0F901F901895883109F488C07B
:1030F000803251F78093000214C0803409F49DC0DF
:1031000040F48033B9F38833F9F68093000285ECFC
:10311000B0C0803509F485C0883509F496C088347C
:1031200099F60E946417D0CF883909F48CC038F51D
:10313000883729F050F4883611F0803729F683E07B
:10314000809301021092FF0157C0883809F47BC0B8
:10315000803919F0803809F0B7CF8091FF018032B3
:1031600008F071C0E091FF0181E08E0F8093FF01B4
:103170008091BB00F0E0E152FE4F80833DC0803B78
:1031800039F0E0F4803A09F479C0883A09F09CCF2C
:1031900084E0809301021092DE011092DD01E09143
:1031A0002F02F091300209958091DD0181110FC04D
:1031B00081E08093DD011092BD0109C0803C09F4DB
:1031C000A6CF883C09F4A3CF883B09F07DCFE091DE
:1031D000DE0181E08E0F8093DE01F0E0E354FE4FCC
:1031E00080818093BB009091DE018091DD0129C038
:1031F000809126028093BB0085EC8093BC0064CF55
:103200009091250280912402981758F5E0912502AB
:1032100081E08E0F80932502F0E0EC5FFD4F80810E
:10322000E9CFE091250281E08E0F80932502809105
:10323000BB00F0E0EC5FFD4F808390912502809110
:1032400024029817C8F285E8D8CFE091250281E0E2
:103250008E0F809325028091BB00F0E0EC5FFD4F64
:1032600080838091030281115CCF81E08093020210
:1032700084EA8093BC001092010226CF85EC8093F3
:10328000BC00109201028091FF01803230F4E09185
:10329000FF01F0E0E152FE4F10826091FF0170E00B
:1032A000E0912D02F0912E028FED91E009951092A0
:1032B000FF010ACF1092000234CFCF92DF92EF923B
:1032C000FF92ECE3F2E01382128288EEC82E83E0D4
:1032D000D82EE12CF12CC482D582E682F7828AE0D6
:1032E00091E09183808385EC90E09587848784ECDE
:1032F00090E09787868780EC90E0918B808B81ECC3
:1033000090E0938B828B82EC90E0958B848B86ECA3
:1033100090E0978B868B118E128E138E148EA7E3FE
:10332000B3E013961C921E9212971496CD92DD92E2
:10333000ED92FC9217978CE191E011969C938E93FD
:10334000E3E8F3E017821182108213821282158261
:103350001482168281E08783E3E4F3E01382128211
:1033600040E850E05583448320E430E037832683EF
:103370005187408733872287168A158614861786D9
:103380001686858B848B2FEF3FEF338B228B318B0F
:10339000208B878B108E128E118E8EE291E091839E
:1033A0008083148E138EB68FA58F10A2178E8FEF89
:1033B00084A385A386A387A380A780E89AE1A6E0DB
:1033C000B0E085AB96ABA7ABB0AF80EA96E8A1E0E2
:1033D000B0E081AF92AFA3AFB4AF80E586AF17AED8
:1033E00081E393E00E94D8168BE293E00E94D81606
:1033F000E4E0F3E08AE591E091838083A6E0B3E026
:103400002C912E7F2C932C912D7F2C932C912B7F04
:103410002C931386148615861686138214821582C1
:103420001682178210861186128612A211A214A289
:1034300013A216A215A2178A108E118E128E2EE7D5
:1034400035E0348F238F168E158E10A2178EC3820F
:10345000D482E582F68243815481658176814783F7
:103460005087618772872FB7F8944091D9025091A5
:10347000DA026091DB027091DC022FBF4387548730
:10348000658776874FEF5FEFBA014787508B618B77
:10349000728B438B548B658B768BEDEDF2E09183D1
:1034A0008083AFEDB2E08C918E7F8C938C918D7F79
:1034B0008C938C918B7F8C9313861486158616863D
:1034C0001382148215821682178210861186128644
:1034D00012A211A214A213A216A215A2178A108E6C
:1034E000118E128E8FE995E1948F838F168E158E33
:1034F00010A2178E82E090E0A0E0B0E08383948376
:10350000A583B68383819481A581B68187839087C3
:10351000A187B2872FB7F8948091D9029091DA02EF
:10352000A091DB02B091DC022FBF83879487A5872F
:10353000B6874787508B618B728B438B548B658B1F
:10354000768BFF90EF90DF90CF900895CF93DF932D
:1035500000D000D000D0CDB7DEB7789484B58260BB
:1035600084BD84B5816084BD85B5826085BD85B527
:10357000816085BD80916E00816080936E001092A5
:103580008100809181008260809381008091810020
:1035900081608093810080918000816080938000B1
:1035A0008091B10084608093B1008091B00081600F
:1035B0008093B00080917A00846080937A0080913B
:1035C0007A00826080937A0080917A008160809393
:1035D0007A0080917A00806880937A001092C1000E
:1035E000E0914C02F0914D0282E08083E09148022C
:1035F000F09149021082E0914A02F0914B028FEC67
:10360000808310925402E0915002F091510286E0C2
:103610008083E0914E02F0914F028081806180832F
:10362000E0914E02F0914F02808188608083E091AA
:103630004E02F0914F02808180688083E0914E02BB
:10364000F0914F0280818F7D808380916203909101
:103650006303892B11F10E941416209149033091C4
:103660004A038091470390914803213231050CF0C1
:103670004BC0B9016052710977FF02C06F5F7F4F85
:10368000759567958357910997FD019600E210E0C3
:1036900023E730E044EE55E04AC0209149033091E1
:1036A0004A03C901079697FD0796B3E0959587955C
:1036B000BA95E1F72091470330914803AC01429F4E
:1036C000C001439F900D529F900D11240E94CA1F6C
:1036D0009093630380936203892B09F0BCCF04E8C5
:1036E0001AE0F8016491662341F08CE392E00E94B5
:1036F00054060F5F1F4F892BA1F76EE571E08CE335
:1037000092E00E943215FFCFB9016054710977FF32
:1037100002C06F5F7F4F759567958255910997FD40
:10372000019600E410E022E530E044EC57E0959586
:1037300087950E94E80E82E0809365038091600384
:1037400090916103892B09F475C18CE38093640324
:103750001092320210923102109239021092380205
:103760000E941D1081EB95E09093300280932F0210
:1037700082EB95E090932E0280932D0280916B0353
:1037800087FD1EC061E00E94180761E080916B0315
:103790000E94EA0661E070E080E090E00E946E071F
:1037A00060E080916B030E94EA066AE070E080E0CE
:1037B00090E00E946E0761E080916B030E94EA0630
:1037C0008091600390916103892B09F4F2C12091EB
:1037D00078033091790340917A0350917B0360E044
:1037E00074E284EF90E00E94A21F20513109410948
:1037F000510956954795379527952093B80064E071
:103800008EEA95E00E94C81160914903615083E4FB
:1038100093E00E947D1264E08AEA95E00E94C8115C
:103820008091650364E1813009F460E183E493E011
:103830000E947D1264E086EA95E00E94C8118FE83C
:1038400080938003809147039091480380389105CD
:1038500009F0C8C18091490390914A0380349105D1
:1038600009F0D0C180916503813009F4B9C18FECB2
:103870008093800312E16AED83E493E00E947D125D
:10388000612F83E493E00E947D1261E883E493E07A
:103890000E947D126091800383E493E00E947D1278
:1038A00069ED83E493E00E947D128091650361EFEE
:1038B000813009F462E283E493E00E947D1266E0C5
:1038C00080EA95E00E94C8118091600390916103A5
:1038D000892B09F49BC120917C0330917D03409199
:1038E0007E0350917F0360E074E284EF90E00E94D9
:1038F000A21F205131094109510956954795379525
:1039000027952093B8000E94141682E080935703F5
:103910008093580381E090E0909356038093550381
:10392000909354038093530380935B0362E084E09D
:103930000E94180761E089E00E94180784E093E084
:103940000E9484058DED92E00E9484058DED92E049
:103950000E94941400E010E0EE24E394809183032D
:1039600090918403909388038093870310928B0334
:1039700010928C0310928D0310928E0310928F037D
:10398000109290031092910310929203109293035D
:1039900010929403109295031092960380918A03DB
:1039A000882309F4B0C1809189038111ACC1E091F1
:1039B0008703F0918803309709F4A5C180918F03A4
:1039C00090919003A0919103B09192030196A11D53
:1039D000B11D80938F0390939003A0939103B093B4
:1039E0009203C3A0D4A0828180FF1FC080918B036B
:1039F00090918C03A0918D03B0918E030196A11D2F
:103A0000B11D80938B0390938C03A0938D03B0938F
:103A10008E0387859089A189B289892B8A2B8B2B6C
:103A200009F0FEC0CF010E946914D0928803C092B1
:103A30008703B9CF61E0809169030E94180761E0B4
:103A400080916A030E94180780916903082E000C78
:103A5000990BFC01E053FA4FE491F0E0EE0FFF1FE9
:103A6000EA53FA4F259134913093710320937003F8
:103A7000FC01EE54FA4FE491E093760380916A03DF
:103A8000082E000C990BFC01E053FA4FE491F0E092
:103A9000EE0FFF1FEA53FA4FA591B491B093730351
:103AA000A0937203FC01EE54FA4FE491E093770384
:103AB0008C91E82BEC9380915E0390915F03892BAE
:103AC00009F434C01FB7F89480912C02811127C0EB
:103AD000EAEDF5E08491ECEBF5E09491E82FF0E06D
:103AE000EE0FFF1FEA56FA4FA591B491EC91E9232E
:103AF00021F461E08AE00E94EA0661E08AE00E9427
:103B000018078CB580618CBD8CB580648CBD61E07C
:103B10008DE00E94180761E08BE00E9418078091F9
:103B20002C028F5F80932C021FBF28CE61E0809112
:103B300067030E94180761E0809168030E941807DC
:103B400080916703082E000C990BFC01E053FA4F9B
:103B5000E491F0E0EE0FFF1FEA53FA4F2591349104
:103B600030936D0320936C03FC01EE54FA4FE49103
:103B7000E093740380916803082E000C990BFC01FC
:103B8000E053FA4FE491F0E0EE0FFF1FEA53FA4FD3
:103B9000A591B491B0936F03A0936E03FC01EE5412
:103BA000FA4FE491E09375038C91E095E823EC9350
:103BB000E5CD80915E0390915F03892B31F0809178
:103BC0008103909182030E94FE09E0917203F091BB
:103BD00073039081809177038095892380830FCE32
:103BE0008FE946CE8036910569F480914903909122
:103BF0004A03409739F480916503813029F08FEAB8
:103C00008093800312E037CE80E1FACFE091720317
:103C1000F0917303808190917703892B808373CE19
:103C20002FB7F8948091D9029091DA02A091DB022B
:103C3000B091DC022FBFE0918703F09188034381AC
:103C40005481658176814384548465847684878039
:103C50009084A184B28484199509A609B7098815AE
:103C60009905AA05BB0508F4E0CE87859089A1894E
:103C7000B289181619061A061B065CF48785908906
:103C8000A189B2890197A109B1098787908BA18B7E
:103C9000B28B8789908DA18DB28D0196A11DB11D2A
:103CA000878B908FA18FB28F83859485A585B685EC
:103CB00087809084A184B284880D991DAA1DBB1DA4
:103CC00083879487A587B6874783508761877287E4
:103CD000038CF48DE02D309709F4A7CE09958091DF
:103CE000930390919403A0919503B091960301964C
:103CF000A11DB11D8093930390939403A09395030A
:103D0000B093960392CEF0903702F2E0FF1609F4DA
:103D100053C043E0F41609F48BC051E0F51240C0E3
:103D20008091360281111EC084E093E00E949414B9
:103D30000E9414161092500310924F0310925203D7
:103D40001092510369E671E083E493E00E9432151A
:103D50006EE571E083E493E00E943215F092360242
:103D60000E94DF12609135026330D0F070E090E085
:103D700080E04AE00E9441156EE571E08CE392E03C
:103D80000E94321584E093E00E946914109235027B
:103D900080913702813021F40E9414160E94DF12B4
:103DA0000115110509F4DACD0E941E06882309F4D5
:103DB000D5CD0E940000D2CD109235028091340200
:103DC0008111EECF0E941416CE0101960E94E516D5
:103DD000CE0101960E943416CE0101960E94711602
:103DE00080912F0390913003892BD1F2E0912B0326
:103DF000F0912C038081882399F26FE671E08CE3C7
:103E000092E00E9432156EE571E08CE392E00E9430
:103E100032151092500310924F03109252031092D9
:103E200051030E9487150E94DF12E0923402B8CF3E
:103E30001092360210923402809133028111B0CF79
:103E40000E941416CE0101960E94E516CE0101963D
:103E50000E943416CE0101960E94711680912F03A4
:103E600090913003892B09F49BCFE0912B03F091C3
:103E70002C038081882309F493CF10925003109271
:103E80004F0310925203109251030E9487150E9413
:103E9000DF12E092330284CF8DED92E00E94F214A3
:103EA00084E093E00E94F2148BE293E00E9471168A
:103EB00081E393E00E9471168EE291E090934403B7
:103EC000809343038091620390916303009711F004
:103ED0000C94662008952F923F924F925F926F92BA
:103EE0007F928F929F92AF92BF92CF92DF92EF928A
:103EF000FF920F931F93CF93DF93CDB7DEB7CA1B0B
:103F0000DB0B0FB6F894DEBF0FBECDBF09942A8835
:103F1000398848885F846E847D848C849B84AA84DD
:103F2000B984C884DF80EE80FD800C811B81AA816A
:103F3000B981CE0FD11D0FB6F894DEBF0FBECDBF35
:103F4000ED010895A1E21A2EAA1BBB1BFD010DC0B5
:103F5000AA1FBB1FEE1FFF1FA217B307E407F50739
:103F600020F0A21BB30BE40BF50B661F771F881F15
:103F7000991F1A9469F760957095809590959B01AB
:103F8000AC01BD01CF010895EE0FFF1F0590F49124
:103F9000E02D09940F931F93CF93DF938230910507
:103FA00010F482E090E0E0919903F0919A0330E000
:103FB00020E0B0E0A0E0309799F42115310509F434
:103FC0004AC0281B390B24303105D8F58A819B81E2
:103FD0006115710589F1FB0193838283FE0111C094
:103FE000408151810281138148175907E0F0481739
:103FF000590799F4109761F012960C931297139643
:104000001C933296CF01DF91CF911F910F910895AC
:104010000093990310939A03F4CF2115310551F0C1
:104020004217530738F0A901DB019A01BD01DF01F6
:10403000F801C1CFEF01F9CF90939A0380939903D0
:10404000CDCFFE01E20FF31F8193919322503109EE
:1040500039832883D7CF2091970330919803232B5E
:1040600041F4209102013091030130939803209391
:10407000970320910001309101012115310541F490
:104080002DB73EB74091040150910501241B350B1B
:10409000E0919703F0919803E217F307A0F42E1B29
:1040A0003F0B2817390778F0AC014E5F5F4F24179C
:1040B000350748F04E0F5F1F5093980340939703C6
:1040C000819391939FCFF0E0E0E09CCFCF93DF937B
:1040D0000097E9F0FC01329713821282A0919903B4
:1040E000B0919A03ED0130E020E01097A1F4208117
:1040F0003181820F931F20919703309198032817E5
:10410000390709F061C0F0939803E0939703DF91BA
:10411000CF910895EA01CE17DF07E8F54A815B8168
:104120009E0141155105B1F7E901FB83EA834991ED
:104130005991C40FD51FEC17FD0761F4808191815F
:104140000296840F951FE901998388838281938168
:104150009B838A83F0E0E0E012968D919C91139707
:104160000097B9F52D913C911197CD010296820FE0
:10417000931F20919703309198032817390739F638
:10418000309751F510929A0310929903B0939803C7
:10419000A0939703BCCFD383C28340815181840F06
:1041A000951FC817D90761F44E5F5F4F88819981C9
:1041B000480F591F518340838A819B819383828357
:1041C0002115310509F0B0CFF0939A03E0939903DC
:1041D0009ECFFD01DC01C0CF13821282D7CFB0E0A9
:1041E000A0E0E5EFF0E20C946D1F8C01009751F414
:1041F000CB010E94CA1F8C01C801CDB7DEB7E0E138
:104200000C94891FFC01E60FF71F9C012250310915
:10421000E217F30708F49DC0D901CD91DC91119705
:10422000C617D70798F0C530D10530F3CE010497F3
:104230008617970708F3C61BD70B2297C193D19314
:104240006D937C93CF010E946620D6CF5B01AC1AA0
:10425000BD0A4C018C0E9D1EA0919903B0919A034A
:10426000512C412CF12CE12C109731F580919703C2
:10427000909198038815990509F05CC04616570679
:1042800008F058C08091000190910101009741F41D
:104290008DB79EB74091040150910501841B950B89
:1042A000E817F90708F055C0F0939803E0939703D7
:1042B000F90171836083A0CF8D919C911197129623
:1042C0006C90129713967C901397A815B90559F521
:1042D0006C0142E0C40ED11CCA14DB0420F1AC0115
:1042E0004A195B09DA011296159780F0628273828F
:1042F00051834083D9016D937C93E114F10471F0F3
:10430000D7011396FC93EE93129776CF22968C0FDB
:104310009D1FF90191838083F301EFCFF0939A03FE
:10432000E093990369CF4816590608F42C017D01E2
:10433000D3019ACFCB010E94CA1F7C01009749F09C
:10434000AE01B8010E94B121C8010E946620870118
:1043500053CF10E000E050CF81E090E0F8940C944F
:10436000C821FB01DC0102C001900D924150504078
:10437000D8F70895DC0101C06D9341505040E0F73B
:104380000895FB01DC0101900D920020E1F70895F2
:1043900015E0C3E5D5E004C0FE010E94C41F2196CC
:0A43A000C435D107C9F7F894FFCF28
:1043AA0000009B038000000000005406B405E105EC
:1043BA00A1061206F005040600000000B2108510DE
:1043CA006614B0057E106B105C10000000003C0CF7
:1043DA00B4056614B3054709B005E10EB90ED50E4A
:1043EA00C90E490FB005020A1014B7080009020ED7
:1043FA00E50D6D0D0E0D00000000F21479160D0A80
:10440A0000636C69636B733D005374617274006678
:02441A0032006E
:00000001FF
