:100000000C9447050C946F050C946F050C946F05C8
:100010000C946F050C946F050C946F050C946F0590
:100020000C946F050C946F050C946F050C946F0580
:100030000C946F050C946F050C946F050C946F0570
:100040000C9429180C946F050C94F7170C94D11785
:100050000C946F050C946F050C946F050C946F0550
:100060000C9473180C946F05000000002300260008
:10007000290000000000003E5B4F5B3E3E6B4F6B73
:100080003E1C3E7C3E1C183C7E3C181C577D571C79
:100090001C5E7F5E1C00183C1800FFE7C3E7FF00F2
:1000A00018241800FFE7DBE7FF30483A060E262940
:1000B000792926407F050507407F05253F5A3CE703
:1000C0003C5A7F3E1C1C08081C1C3E7F14227F22C9
:1000D000145F5F005F5F06097F017F006689956A94
:1000E000606060606094A2FFA29408047E0408101F
:1000F000207E201008082A1C08081C2A08081E1048
:100100001010100C1E0C1E0C30383E3830060E3EFF
:100110000E06000000000000005F0000000700075E
:1001200000147F147F14242A7F2A12231308646288
:1001300036495620500008070300001C22410000E9
:1001400041221C002A1C7F1C2A08083E0808008047
:1001500070300008080808080000606000201008DF
:1001600004023E5149453E00427F400072494949E0
:10017000462141494D331814127F10274545453912
:100180003C4A494931412111090736494949364616
:100190004949291E000014000000403400000008F6
:1001A0001422411414141414004122140802015999
:1001B00009063E415D594E7C1211127C7F49494926
:1001C000363E414141227F4141413E7F49494941BB
:1001D0007F090909013E414151737F0808087F00EA
:1001E000417F41002040413F017F081422417F4070
:1001F0004040407F021C027F7F0408107F3E414147
:10020000413E7F090909063E4151215E7F091929B6
:1002100046264949493203017F01033F4040403FA0
:100220001F2040201F3F4038403F631408146303E1
:10023000047804036159494D43007F414141020460
:10024000081020004141417F040201020440404067
:100250004040000307080020545478407F2844445D
:10026000383844444428384444287F385454541877
:1002700000087E090218A4A49C787F080404780072
:10028000447D40002040403D007F10284400004154
:100290007F40007C047804787C0804047838444467
:1002A0004438FC1824241818242418FC7C0804045E
:1002B00008485454542404043F44243C4040207CC7
:1002C0001C2040201C3C4030403C44281028444C1A
:1002D0009090907C4464544C4400083641000000E7
:1002E000770000004136080002010204023C262388
:1002F000263C1EA1A161123A4040207A3854545540
:100300005921555579412254547842215554784009
:1003100020545579400C1E52721239555555593991
:100320005454545939555454580000457C410002E6
:10033000457D420001457C407D1211127DF028254B
:1003400028F07C545545002054547C547C0A097F85
:100350004932494949323A4444443A324A48483099
:100360003A4141217A3A42402078009DA0A07D3D4B
:100370004242423D3D4040403D3C24FF2424487ED3
:100380004943662B2FFC2F2BFF0929F620C0887EBE
:10039000090320545479410000447D413048484AC3
:1003A00032384040227A007A0A0A727D0D19317D76
:1003B0002629292F28262929292630484D4020384A
:1003C0000808080808080808382F10C8ACBA2F1009
:1003D0002834FA00007B000008142A142222142A70
:1003E00014085500550055AA55AA55AAFF55FF55A2
:1003F000FF000000FF00101010FF00141414FF0095
:100400001010FF00FF1010F010F0141414FC001472
:1004100014F700FF0000FF00FF1414F404FC141490
:1004200017101F10101F101F1414141F001010108D
:10043000F0000000001F101010101F10101010F01E
:1004400010000000FF101010101010101010FF10FE
:10045000000000FF140000FF00FF00001F10170045
:1004600000FC04F414141710171414F404F400001E
:10047000FF00F714141414141414F700F7141414D0
:10048000171410101F101F141414F4141010F0106F
:10049000F000001F101F0000001F14000000FC14DB
:1004A0000000F010F01010FF10FF141414FF1410CF
:1004B00010101F00000000F010FFFFFFFFFFF0F022
:1004C000F0F0F0FFFFFF0000000000FFFF0F0F0F34
:1004D0000F0F3844443844FC4A4A4A347E0202062C
:1004E00006027E027E0263554941633844443C045F
:1004F000407E201E2006027E020299A5E7A5991CD7
:100500002A492A1C4C7201724C304A4D4D303048F9
:10051000784830BC625A463D3E494949007E010157
:10052000017E2A2A2A2A2A44445F444440514A44EC
:100530004040444A51400000FF0103E080FF0000BA
:1005400008086B6B083612362436060F090F0600B2
:100550000018180000001010003040FF0101001FBB
:1005600001011E00191D1712003C3C3C3C0000001C
:100570000000000103070F1F3F7F0080C0E0F0F87C
:10058000FCFE000000080002010000030407000058
:1005900000000000000000000000240027002A00E6
:1005A000DB40A4A62EAF2000A1C8D300408DAED55D
:1005B00080A80102040810204080010204081020D5
:1005C00001020408102000000000250028002B0074
:1005D00004040404040404040202020202020303E9
:1005E000030303030000600000000000000000009F
:1005F0000000000000E0000000000000000000001B
:1006000000000001E0000000000000000000000009
:10061000000001F0000000000000000000000000E9
:100620000003F000000000000000000000000000D7
:1006300007F00000000000000000000000000007BC
:10064000F8000000000000000000000000000FF8AB
:1006500000000003C0007E000001E0007F0FF800F2
:10066000000003C000FE000001E000FFEFF8000002
:100670000003C000FE000001E000FFFFF8000000E2
:1006800003C000F00000000F007FFE7FC0000003E9
:10069000C000F00000000F003FFE7FF83FF1FBCFED
:1006A000FCFEF3BC3DEFE01FFE7FFF7FFBFFDFFEA4
:1006B000FEFFBC3DEFE01FC6FFFF7FFBFFDFFEFE3E
:1006C000FFBC3DEFE00FE3C7FE787BC3DE1EF0FF0B
:1006D000BC3DEF0007FF87FC787BC3DE1EF0F83CD3
:1006E0003DEF0001FFFFF0007BC3C01EF0F03C3D7A
:1006F000EF0001F37FE03FFBC3CFFEF0F03C3DEFA6
:100700000003E33F807FFBC3DFFEF0F03C3DEF00E2
:1007100007E73C00787BC3DE1EF0F03C3DEF0007AE
:10072000FFBE00787BC3DE1EF0F03C3DEF0007FF0C
:10073000FE00787BC3DE1EF0F03C3DEF000FFFFEB5
:10074000007FFBFFDFFEF0F03FFDEFE00FFFFF005B
:100750007FFBFFDFFEF0F03FFDEFE00FF9FF003E13
:1007600079F9CF9EF0F01F3DE7E01FF1FF00000098
:100770000000000000000000001F80FF007FFFFF5E
:10078000FFFFFFFFFFFFFFE01C007F007FFFFFFF79
:10079000FEB46D888D18E000001F007FFFFFFFFE94
:1007A00095AD7DB577E000000F007FFFFFFFFEA550
:1007B000AD9D8D19E0000006007FFFFFFFFEB5AD87
:1007C000EDB57EE0000000000001800000000000A8
:1007D000000000000380000000000000000000078F
:1007E000C000000000000000000007C00000000082
:1007F00000000000000FC00000000000000000002A
:100800001FE00000000000000000001FE0000000EA
:100810000000000000003FE00000000000000000B9
:10082000003FF00000000000000000007FF000002A
:1008300000000000001FF87FF00000000000000032
:100840003FFE7FF0000000000000003FFF7FF0004F
:100850000000000000001FFFFBE00000000000009F
:10086000000FFFF9FFC00000000000000FFFF9FFBC
:10087000F800000000000007FFF1FFFF000000008B
:10088000000003FC73FFFF80000000000001FE3F3A
:10089000FFFF80000000000000FF1E0FFF000000AF
:1008A000000000007FFE1FFC000000000000003F71
:1008B000FFFFF8000000000000000FDFFFE0000075
:1008C00000000000001F19FFC00000000000000031
:1008D0003F3CFF00000000000000007E7CF80000AC
:1008E0000000000000007FFE7C000000000000000F
:1008F00000FFFFFC0000000000000000FFFFFE0002
:1009000000000000000000FFFFFE000000000000EB
:100910000001FFEFFE0000000000000001FFCFFE1D
:100920000000000000000003FF07FE0000000000C0
:10093000000003FC07FE0000000000000003F003BD
:10094000FE00000000000000018000FE000000002A
:100950000000000000007E00000000000000000019
:10096000003E000000000000000000000C0000003D
:10097000000000078000FC000003C00000000780AA
:1009800001FC000003C0000000078001FC00000320
:10099000C0000000078001E00000001E000000070A
:1009A0008001E00000001E007FE3F79FF9FDE7787B
:1009B0007BDFC0FFF7FFBFFDFDFF787BDFC0FFF7E8
:1009C000FFBFFDFDFF787BDFC0F0F787BC3DE1FF97
:1009D000787BDE00F0F787BC3DE1F0787BDE00003D
:1009E000F787803DE1E0787BDE007FF7879FFDE1C0
:1009F000E0787BDE00FFF787BFFDE1E0787BDE007B
:100A0000F0F787BC3DE1E0787BDE00F0F787BC3D86
:100A1000E1E0787BDE00F0F787BC3DE1E0787BDE4B
:100A200000FFF7FFBFFDE1E07FFBDFC0FFF7FFBF87
:100A3000FDE1E07FFBDFC07CF3F39F3DE1E03E7B27
:100A4000CFC00000000000000000000000FFFFFF1A
:100A5000FFFFFFFFFFFFFFC0FFFFFFFFFD68DB1190
:100A60001A31C0FFFFFFFFFD2B5AFB6AEFC0FFFFEB
:100A7000FFFFFD4B5B3B1A33C0FFFFFFFFFD6B5BCE
:100A8000DB6AFDC02200FF210000AF196B2011249A
:100A90001FBECFEFD8E0DEBFCDBF23E0A6E8B1E0B8
:100AA00001C01D92A13EB207E1F711E0A0E0B1E064
:100AB000E8E6F6E402C005900D92A638B107D9F732
:100AC00015E0C6E4D5E004C02197FE010E94232171
:100AD000C534D107C9F70E940F1B0C9427230C942F
:100AE0000000809153028F5F80935302089580919C
:100AF000750390917603892B59F0E0917103F09181
:100B0000720381E09081911180E091E0892708953E
:100B100081E0FBCF0895089508950895AF92BF92A4
:100B2000CF92DF92EF92FF920F931F93CF93DF93B9
:100B30006C017B018B01040F151FEB015E01AE18E8
:100B4000BF08C017D10759F06991D601ED91FC910A
:100B50000190F081E02DC6010995892B79F7C50137
:100B6000DF91CF911F910F91FF90EF90DF90CF9089
:100B7000BF90AF900895FC01538D448D252F30E038
:100B8000842F90E0821B930B541710F0CF9608959A
:100B900001970895FC01918D828D981761F0A28DC7
:100BA000AE0FBF2FB11D5D968C91928D9F5F9F738D
:100BB000928F90E008958FEF9FEF0895FC01918D43
:100BC000828D981731F0828DE80FF11D858D90E0B0
:100BD00008958FEF9FEF0895FC01918D228D892F4D
:100BE00090E0805C9F4F821B91098F739927089535
:100BF0008FE592E00E94EC0521E0892B09F420E0CA
:100C0000822F089580E090E0892B29F00E94F8055A
:100C100081110C9400000895FC01A48DA80FB92F38
:100C2000B11DA35ABF4F2C91848D90E001968F7314
:100C30009927848FA689B7892C93A089B1898C9133
:100C4000837080648C93938D848D981306C0028882
:100C5000F389E02D80818F7D80830895EF92FF924C
:100C60000F931F93CF93DF93EC0181E0888F9B8DCF
:100C70008C8D98131AC0E889F989808185FF15C089
:100C80009FB7F894EE89FF896083E889F9898081AC
:100C90008370806480839FBF81E090E0DF91CF917B
:100CA0001F910F91FF90EF900895F62E0B8D10E09D
:100CB0000F5F1F4F0F731127E02E8C8D8E110CC00C
:100CC0000FB607FCFACFE889F989808185FFF5CF57
:100CD000CE010E940C06F1CFEB8DEC0FFD2FF11D24
:100CE000E35AFF4FF0829FB7F8940B8FEA89FB8994
:100CF00080818062CFCFCF93DF93EC01888D8823F2
:100D0000B9F0AA89BB89E889F9898C9185FD03C06E
:100D1000808186FD0DC00FB607FCF7CF8C9185FF53
:100D2000F2CF808185FFEDCFCE010E940C06E9CF86
:100D3000DF91CF910895833081F028F4813099F0CC
:100D40008230A9F008958730A9F08830C9F0843046
:100D5000B1F4809180008F7D03C0809180008F77F7
:100D600080938000089584B58F7784BD089584B5FD
:100D70008F7DFBCF8091B0008F778093B000089576
:100D80008091B0008F7DF9CF1F93CF93DF93282FF1
:100D900030E0F901EE57FA4F8491F901EE54FA4F21
:100DA000D491F901E053FA4FC491CC23A9F0162F46
:100DB00081110E949B06EC2FF0E0EE0FFF1FEA531B
:100DC000FA4FA591B4918FB7F894EC91111108C026
:100DD000D095DE23DC938FBFDF91CF911F910895D3
:100DE000DE2BF8CFCF93DF9390E0FC01EE54FA4F67
:100DF000249180539A4FFC0184918823C9F090E09C
:100E0000880F991FFC01EA56FA4FA591B491FC0195
:100E1000EA53FA4FC591D49161110DC09FB7F89470
:100E20008C91209582238C938881282328839FBFCF
:100E3000DF91CF910895623051F49FB7F8943C91BF
:100E4000822F809583238C93E8812E2BEFCF8FB751
:100E5000F894EC912E2B2C938FBFEACF3FB7F894E8
:100E600080913B0290913C02A0913D02B0913E02E4
:100E700026B5A89B05C02F3F19F00196A11DB11DF5
:100E80003FBFBA2FA92F982F8827BC01CD01620F31
:100E9000711D811D911D42E0660F771F881F991FEC
:100EA0004A95D1F708958F929F92AF92BF92CF92B9
:100EB000DF92EF92FF924B015C010E942E076B01C3
:100EC0007C010E942E076C197D098E099F09683EDE
:100ED000734081059105A8F321E0821A9108A108C9
:100EE000B10888EEC80E83E0D81EE11CF11C811405
:100EF0009104A104B10429F7FF90EF90DF90CF9007
:100F0000BF90AF909F908F900895EF92FF920F93B4
:100F10001F93CF93DF93EC01EC80FD806E157F056E
:100F20000CF070C057FF04C0240F351F50E040E0A4
:100F30008E819F81FA01E20FF31F8E179F071CF429
:100F40009C01241B350B121613060CF05BC0922F6C
:100F5000842F8695869586958E9DD0018F9DB00DA8
:100F600011246A0F7B1FAF8DB8A1A60FB71F477062
:100F700049F188E0841B482F682F70E0FB01E65898
:100F8000FA4FE491281708F063C0621B71092FEF34
:100F900030E002C0359527956A95E2F7E2230130EB
:100FA000110539F0B0F10230110561F58C91E82797
:100FB00002C08C91E82BEC93941720F12C813D8199
:100FC000A20FB31FE92FE41BE83078F002301105BF
:100FD00021F58E2F9C9190959C932C813D81A20FA1
:100FE000B31F88508830B0F7E770EE2359F0F0E077
:100FF000EE58FA4FE49101301105F9F010F102308A
:10100000110519F1DF91CF911F910F91FF90EF9092
:101010000895E0958C91E823CECF81E0011511056C
:1010200009F480E081959E2F8C932C813D81A20F45
:10103000B31F98509830C0F7D7CF8C91E82BEC9322
:10104000E1CFE0958C91E823FACF8C91E827F7CF98
:101050000130110509F4ADCFE0F20230110509F4B9
:10106000A5CFAE0DBF1DAECF0F931F93CF93DF93D0
:1010700077FF04C0260F371F70E060E0DC01149694
:10108000CD91DC91FB01E20FF31FCE17DF071CF4BB
:101090009E01261B370B121613064CF5FA0157FD5D
:1010A0003796A3E0F595E795AA95E1F7EC9FD00177
:1010B000ED9FB00DFC9FB00D11246A0F7B1FDC016A
:1010C0005F96ED91FC91E60FF71F4770552781E081
:1010D00090E001C0880F4A95EAF7482F01301105CA
:1010E00059F0A8F02E0F3F1F02301105E1F0DF91FB
:1010F000CF911F910F9108952E0F3F1FE217F30715
:10110000B1F38191DF011197842B8C93F7CF8095F8
:101110002E0F3F1FE217F30751F39191DF01119753
:1011200098239C93F7CFE217F30709F38191DF012E
:10113000119784278C93F7CF0F931F93FA01DC014B
:1011400056964C9156974230E9F04330A1F1413028
:1011500061F514964D915C91DA01AE1BBF0BFD0158
:10116000E21BF30B77FD0BC0DC0116964D915C91F1
:101170006417750724F4AB01BF010E9434081F9166
:101180000F91089514964D915C91DA01A61BB70B4F
:10119000BD0161507109DC0116964D915C91DA0137
:1011A000AE1BBF0BFD01E21BF30B77FDE8CFAF01D8
:1011B0000E948507E4CF16964D915C91DA01A61B3B
:1011C000B70BBD0161507109CDCF0F931F93FA0189
:1011D000DC0156964C9156974230A9F0433091F17C
:1011E000413019F514964D915C91DA01AE1BBF0B9D
:1011F000FD013197F7FD04C0AB01BF010E948507D7
:101200001F910F91089514964D915C91DA01A61BE0
:10121000B70BBD01DC0116964D915C91DA01AE1B56
:10122000BF0BFD013197621B730BF7FDE9CFDC01AA
:1012300016964D915C91E417F50714F7AF010E94E3
:101240003408DECF16964D915C91DA01A61BB70BE0
:10125000BD01621B730BCECFFC0177FD64C080859E
:101260009185681779070CF05EC057FD5CC08285D8
:101270009385481759070CF056C086898230B1F023
:10128000833029F1813041F484819581841B950B51
:10129000AB01BC01615071092130310509F108F43D
:1012A00043C02230310509F463C0089584819581DB
:1012B000DC01A61BB70BBD016150710986819781C6
:1012C000DC01A41BB50BAD0141505109E5CF86816E
:1012D0009781861B970BBA01AC0141505109DCCFB5
:1012E000CA0157FD0796A3E095958795AA95E1F762
:1012F000A481B5818A9F90018B9F300D9A9F300DFC
:101300001124620F731F078CF0A1E02DE60FF71F69
:101310004770552721E030E001C0220F4A95EAF7D7
:101320008081822B80830895CA0157FD079633E0A0
:10133000959587953A95E1F7A481B5818A9F9001AB
:101340008B9F300D9A9F300D1124620F731F078CF5
:10135000F0A1E02DE60FF71F4770552781E090E0E0
:1013600001C0880F4A95EAF7809590818923DACFEA
:10137000CA0157FD079623E0959587952A95E1F7D1
:10138000A481B5818A9F90018B9F300D9A9F300D6B
:101390001124620F731F078CF0A1E02DE60FF71FD9
:1013A0004770552721E030E001C0220F4A95EAF747
:1013B00080818227B7CF08958EBD00000DB407FE4F
:1013C000FDCF8EB508958CBD9DBD08950895FC0197
:1013D0006370668B8481958126813781613039F015
:1013E000633029F09187808733872287089531877A
:1013F00020879387828708952F923F924F925F9222
:101400006F927F928F929F92AF92BF92CF92DF9214
:10141000EF92FF920F931F93CF93DF93CDB7DEB779
:101420006A970FB6F894DEBF0FBECDBF9A8F898F33
:101430007A8369834A01D22E18870F833701BC2C27
:10144000DC0159962D913C915A972115310509F0EF
:1014500015C118968D919C911997681779070CF012
:10146000D7C11A968D919C91481759070CF0D0C19D
:101470004C2C512CB6E0CB9E600D711D11247C8745
:101480006B87161617060CF0C3C1EA2DF0E0FA8739
:10149000E98793E0EE0FFF1F9A95E1F7F88BEF874E
:1014A000CF01840F951F181619060CF0B1C1A98D34
:1014B000BA8D58968C91811104C0BFEABD1508F40D
:1014C000D394A98DBA8DED91FC9111970284F38587
:1014D000E02DCD010995B5E0DB9EC0011124E98125
:1014E000FA81FC83EB83312C212C9C012E583F4F39
:1014F000388F2F8B4A2D50E05E8B4D8BEF89F88D06
:10150000E20DF31D44919E828D82D12CC12C698104
:101510007A81620D731D7A8B698B842F90E09C8B8E
:101520008B8BE98DFA8DA081B18140FF82C0F1E003
:10153000BF126FC0AF126DC01C96ED91FC912F8150
:101540003885A4014C0D5D1D69897A89898D9A8D34
:101550000995EB89FC89F595E7954E2F5FEFC51A44
:10156000D50A6D817E818D899E89680F791F7E8362
:101570006D8398E0C916D10481F6AFEF2A1A3A0AB2
:10158000EB81FC81E40DF51DFC83EB83F5E02F1668
:10159000310409F0B3CF2F81388526153705B9F00E
:1015A000A98DBA8DED91FC91B1E0BB1257C0AB1281
:1015B00055C069817A816B5F7F4F0088F189E02D8A
:1015C000830128E030E0A401898D9A8D0995A98DC9
:1015D000BA8DED91FC9111970688F789E02DCD0128
:1015E0006A960FB6F894DEBF0FBECDBFDF91CF91E4
:1015F0001F910F91FF90EF90DF90CF90BF90AF9031
:101600009F908F907F906F905F904F903F902F9022
:1016100009941E96ED91FC91EF80F88409851A8556
:1016200092014D815E816B817C81898D9A8D0995B6
:1016300090CF2F8138852615370509F48ACF31E000
:10164000B31207C0A31205C01C96ED91FC91930143
:1016500078CF1E96ED91FC917301E0CF6B857C8570
:10166000641975090684F785E02D73010F851889C3
:101670009201A401898D9A8D0995A9CFF90134961B
:101680009491329745915491D91AB7E0DB9E400D61
:10169000511D1124F901259134913C8B2B8BFA01BA
:1016A00025903490FA013296749031963491398BAA
:1016B000329664903196449041E04C1518F04A15EA
:1016C00008F07FC0662D062C000C770B7C836B83A3
:1016D000842D042C000C990B9E838D83A98DBA8DCB
:1016E000ED91FC9111970284F385E02DCD010995D0
:1016F000512CD12CC12CEA2DF0E0FA87E9872B2D53
:1017000030E03C872B87A401440D511D47FC5A95BE
:10171000588F4F8B69817A81660D711D67FC7A95B0
:101720007E876D877989C71608F051CF2C2D30E060
:101730004D815E81420F531FA985BA854A9FC00122
:101740004B9F900D5A9F900D1124FC01E80DF91D3F
:10175000F88BEF87852D612C4F89588D420F531FD1
:101760005E8B4D8B671408F050C044244394480EA0
:10177000877041F4C1010196EB89FC89E20DF31DEC
:10178000D4901C01D7FE19C0A98DBA8DED91FC91A2
:10179000662D70E0B1E0BB1219C0AB1217C02D85E9
:1017A0003E85620F731F0484F585E02D2F813885F7
:1017B0004D895E89898D9A8D0995DD0C6394842D00
:1017C000D1CF1E821D821C821B8288CF4B815C81FF
:1017D000640F751FAB85BC856A9FC0016B9F900D20
:1017E0007A9F900D112469817A81680F791F068490
:1017F000F785E02DEF80F88409851A859D014F85D6
:101800005889898D9A8D0995D8CF570CC3948ACF62
:101810006A960FB6F894DEBF0FBECDBFDF91CF91B1
:101820001F910F91FF90EF90DF90CF90BF90AF90FE
:101830009F908F907F906F905F904F903F902F90F0
:1018400008958F929F92AF92CF92EF92FF920F9353
:101850001F93CF93DF93EC01262F898D9A8D0097EC
:1018600009F051C06A30D1F41D861C868D8948E08C
:10187000849F900111248E859F85820F931F9F87DF
:101880008E8781E090E0DF91CF911F910F91FF90C3
:10189000EF90CF90AF909F908F9008956D3089F327
:1018A000CC88AD888F898823C1F08C859D8536E0F2
:1018B000C39E800D911D11244885598548175907ED
:1018C00064F44E855F851D861C8638E0A39EC001AA
:1018D0001124840F951F9F878E87EA88FB880889CB
:1018E00019894E855F856C857D85CE010E94FC0936
:1018F0002C898C859D8546E0249F800D911D1124A7
:101900009D878C87BECF6A3069F41D861C86FC01DA
:101910003896E4912D898E859F85E29F800D911DDB
:101920001124ADCF6D3009F4ACCFFC013496349165
:10193000631708F4A6CF3296E491E61708F4A1CF16
:10194000FC01329685909490462F431B342F47E03C
:10195000349F800C911C1124F401329634913196FD
:10196000E4913323A9F1EE2399F1CC88F401359663
:10197000E491AD884F89442301F10E2E000CFF0B3A
:10198000E30FF11DCE9EA001CF9E500D11246C855A
:101990007D85460F571F68857985641775076CF438
:1019A0004E855F851D861C86FC013896E491AE9EAF
:1019B000400D511D11245F874E87EA88FB880889F6
:1019C00019894E855F856C857D85CE010E94FC0955
:1019D000F4013496E4912C898C859D85E29F800DDD
:1019E000911D11248DCF6F927F928F929F92AF9213
:1019F000BF92CF92DF92EF92FF920F931F93CF93FC
:101A0000DF93EC016B015A0139014801E881F9814A
:101A10000284F385E02D0995E881F9810288F38934
:101A2000E02D87019301A501B601CE010995A5011D
:101A3000480D591D41505109E881F9810288F38907
:101A4000E02D9301B601CE010995E881F981008866
:101A5000F189E02D9401A501B601CE010995C60CCE
:101A6000D71CB60161507109E881F9810088F189BC
:101A7000E02D9401A501CE010995E881F981068840
:101A8000F789E02DCE01DF91CF911F910F91FF904B
:101A9000EF90DF90CF90BF90AF909F908F907F900E
:101AA0006F9009946F927F928F929F92AF92BF92A4
:101AB000CF92DF92EF92FF920F931F93CF93DF931A
:101AC0005C01EB016A01490138018701DC01ED91FC
:101AD000FC916217730719F5641675062CF0962DA4
:101AE000872D3A01C92ED82E9601261937092F5F66
:101AF0003F4F048CF58DE02DA301BE01C501099572
:101B0000DF91CF911F910F91FF90EF90DF90CF90D9
:101B1000BF90AF909F908F907F906F9008954615E3
:101B2000570591F42617370724F0892D4B01C22F52
:101B3000D82F9E01281939092F5F3F4F068CF78D4A
:101B4000E02DA601B401DACF0284F385E02D0995DA
:101B5000D501ED91FC910488F589E02D8301940174
:101B6000A601BE01C5010995D501ED91FC9106883C
:101B7000F789E02DC501DF91CF911F910F91FF9063
:101B8000EF90DF90CF90BF90AF909F908F907F901D
:101B90006F900994EF92FF920F931F93DC011A96B6
:101BA0000D911C911B9718962D913C911997ED91D1
:101BB000FC9100A0F1A1E02D7B0150E040E070E03D
:101BC00060E009951F910F91FF90EF9008954F925B
:101BD0005F926F927F928F929F92AF92BF92CF92BD
:101BE000DF92EF92FF920F931F93CF93DF936C01DD
:101BF0002B015A0139014801DC01ED91FC9102846D
:101C0000F385E02D0995E201640C751CD601ED9178
:101C1000FC91C615D7055CF40088F189E02D870199
:101C20009401A501BE01C60109952196EFCF068852
:101C3000F789E02DC601DF91CF911F910F91FF90A1
:101C4000EF90DF90CF90BF90AF909F908F907F905C
:101C50006F905F904F9009948F929F92AF92BF9236
:101C6000CF92DF92EF92FF920F931F93CF93DF9368
:101C7000EC015B014A016901E881F9810284F38585
:101C8000E02D099595012C0D3D1D21503109E8816C
:101C9000F9810488F589E02D78018401A401B5015A
:101CA000CE010995E881F9810688F789E02DCE01FA
:101CB000DF91CF911F910F91FF90EF90DF90CF9028
:101CC000BF90AF909F908F9009948F929F92AF9208
:101CD000BF92CF92DF92EF92FF920F931F93CF9319
:101CE000DF93EC015B014A0169017801E881F98128
:101CF0000284F385E02D0995C80CD91C860101509A
:101D00001109E881F9810488F589E02D9501A40184
:101D1000B501CE010995E881F9810688F789E02DA2
:101D2000CE01DF91CF911F910F91FF90EF90DF9047
:101D3000CF90BF90AF909F908F900994EF92FF92B9
:101D40000F931F93DC01ED91FC9100A0F1A1E02D18
:101D500009951F910F91FF90EF9008950F931F9396
:101D6000DC01ED91FC91068CF78DE02D09951F911A
:101D70000F9108950F931F93DC01ED91FC91048C5A
:101D8000F58DE02D09951F910F910895DC01ED91DE
:101D9000FC910084F185E02D09943F924F925F926F
:101DA0006F927F928F929F92AF92BF92CF92DF926B
:101DB000EF92FF920F931F93CF93DF935C017B0110
:101DC0004A016901390187E0680E711C93E075943E
:101DD00067949A95E1F72B01400E511E10E000E048
:101DE000312CD0E0C0E0CE0187709927330C892BCD
:101DF00059F4FE0183E0F595E7958A95E1F7E00F48
:101E0000F11FE80DF91D349037FE0AC021E030E0E3
:101E1000A701B5016C0F7D1F89E893E00E94C60EF3
:101E20002196CC16DD06F9F68FEFE81AF80A060DB2
:101E3000171DE414F504A9F6DF91CF911F910F91BE
:101E4000FF90EF90DF90CF90BF90AF909F908F90DA
:101E50007F906F905F904F903F9008952F923F92A8
:101E60004F925F926F927F928F929F92AF92BF92AA
:101E7000CF92DF92EF92FF920F931F93CF93DF9356
:101E800000D000D000D0CDB7DEB73C016A013E8360
:101E90002D83FC82EB825801A41AB50AB7FE03C059
:101EA000B194A194B1088D809E80861A970A97FEFE
:101EB00003C09194819491088A149B045CF0902F44
:101EC000812F0D811E819D838E839C2D8D2D6B0115
:101ED000692F782F0C151D055CF09D818E817E8306
:101EE0006D83692F782F902F812F8601C92ED82ED0
:101EF0001601201A310A2B012D813E81421A530A04
:101F000057FE03C0519441945108710137FE03C03C
:101F10003FEFE31AF30AF594E7948D819E818617CB
:101F200097075CF5A1E0B0E0BA83A983C016D1069B
:101F30004CF1D301ED91FC910484F585E02D2B81CA
:101F40003C81A8016D817E818A149B041CF04D8127
:101F50005E81B801C3010995E418F508F7FE0AC0CF
:101F60002D813E8189819A81280F391F3E832D83DF
:101F7000E20CF31C0F5F1F4FD9CF2FEF3FEF3A83D7
:101F80002983D4CF26960FB6F894DEBF0FBECDBFFF
:101F9000DF91CF911F910F91FF90EF90DF90CF9045
:101FA000BF90AF909F908F907F906F905F904F9079
:101FB0003F902F9008952091F001260F3327331F73
:101FC00021323105ECF420911402FC0190E080E014
:101FD000243069F082E00895A091F0012191AC01D4
:101FE00040535E4FA40FB52FB11D2C930196861759
:101FF00098F38091F001680F6093F00180E00895FC
:1020000081E008951092140281E0809316021092EC
:10201000150261E082E10E94C40661E083E10E9452
:10202000C406E9EBF0E080818E7F808380818D7F24
:10203000808388E48093B80085E48093BC00089591
:10204000CF93DF9391E09093CF018823B9F0C091B3
:10205000B800D091BA008091BC008A7B8093BC000C
:1020600060E082E10E94C40660E083E10E94C40651
:102070000E940210D093BA00C093B800DF91CF91B4
:102080000895E091450280914402E81730F4F0E0B1
:10209000E655FE4F808190E008958FEF9FEF089501
:1020A00090914502809144022FEF3FEF981748F43A
:1020B000E92FF0E0E655FE4F208130E09F5F9093DE
:1020C0004502C90108958091440290914502891BFF
:1020D000990B0895CF92DF92EF92FF920F931F9387
:1020E000CF93DF937C01CB018A0120915A022223F6
:1020F00089F0EB016B01C40ED51ECC15DD0569F02E
:102100006991D701ED91FC910190F081E02DC7011B
:102110000995F3CF642F0E94DB0FC801DF91CF91A7
:102120001F910F91FF90EF90DF90CF900895CF9384
:10213000DF931F92CDB7DEB7698320915A02222325
:10214000F9F020915702203258F021E030E0FC01F4
:102150003383228390E080E00F90DF91CF91089548
:1021600080915802E82FF0E0E657FE4F9981908366
:102170008F5F809358028093570281E090E0ECCF0C
:1021800061E0CE0101960E94DB0FF7CFCF92DF9284
:10219000EF92FF920F931F93CF93DF93D09157024B
:1021A00081E0D13208F09CC0C09159020E942E07F4
:1021B0006B017C018091140281116CC082E08093DC
:1021C000140281E0809316028FEF80931302109225
:1021D0003802D0933702AAE8B1E0E7E1F2E080E00C
:1021E000D8138DC01092390280913902CC0FC82BC0
:1021F000C093390280911502813009F084C0109299
:1022000015020E942E076B017C0180913902809398
:10221000BB008091CB019091CC01A091CD01B091F8
:10222000CE01892B8A2B8B2BA1F00E942E070091C7
:10223000CB011091CC012091CD013091CE016C19D0
:102240007D098E099F09061717072807390708F423
:1022500042C08091BC0083FDD8CF85EC8093BC0048
:102260000E942E076B017C0180911402823009F4D8
:102270004CC0809113028F3F09F469C08091130212
:10228000803209F466C080911302803309F463C080
:1022900084E026C08091CB019091CC01A091CD012A
:1022A000B091CE01892B8A2B8B2B09F483CF0E940E
:1022B0002E070091CB011091CC012091CD013091DE
:1022C000CE016C197D098E099F090617170728078B
:1022D000390708F06FCF8091CA010E94201085E075
:1022E000109258021092570210925A02DF91CF9129
:1022F0001F910F91FF90EF90DF90CF9008959D91E7
:1023000091938F5F6DCF85EEA9CF8091CB01909196
:10231000CC01A091CD01B091CE01892B8A2B8B2BC2
:1023200009F4A2CF0E942E070091CB011091CC019D
:102330002091CD013091CE016C197D098E099F0944
:10234000061717072807390708F08ECFC4CF80E09B
:10235000C7CF82E0C5CF83E0C3CFEF92FF920F9348
:102360001F93CF93DF937C01C62F8091A60390919A
:10237000A703009709F459C02091AA0331E03093D4
:102380005A02209359021092580210925702DC010F
:10239000ED91FC910190F081E02D60E009958701BD
:1023A000EE24E394F12CD1E0C1508091A6039091EA
:1023B000A703CF3F91F1B0E2EB16F104D8F00E94F1
:1023C000C6108091A6039091A7032091AA03D093F1
:1023D0005A02209359021092580210925702DC01BF
:1023E000ED91FC910190F081E02D60E00995EE24E3
:1023F000E394F12C8091A6039091A703F8016491D6
:10240000DC01ED91FC910190F081E02D0995BFEF89
:10241000EB1AFB0A0F5F1F4FC7CFDF91CF911F91C0
:102420000F91FF90EF900C94C610E091B603F091DD
:10243000B70390818091BC038095892380838701B5
:10244000C15008F438C0F80184912091A403309160
:10245000A503232B29F00E94DC090F5F1F4FF0CF4B
:1024600028E030E040E8E091B203F091B3039091AE
:10247000BA03582F5423D9F05081952B9083E091C3
:10248000B403F091B50390815091BB03952B9083D9
:10249000E091B403F091B50350819091BB03909506
:1024A00095239083469521503109E9F6D6CF508186
:1024B00090959523E3CFDF91CF911F910F91FF90DE
:1024C000EF9008951F93CF93DF93EC018D8D9E8D38
:1024D000009721F1162F29A131E030935A02209361
:1024E00059021092580210925702DC01ED91FC91B2
:1024F0000190F081E02D60E009958D8D9E8DDC01CD
:10250000ED91FC910190F081E02D612F09958D8D69
:102510009E8DDF91CF911F910C94C610ADA5BEA5E5
:102520009C918BA9809589238C938B8D9C8D892B75
:1025300031F0862FDF91CF911F910C94DC0928E0B8
:1025400030E080E8A9A5BAA599A9462F4823C1F093
:102550004C91942B9C93ABA5BCA59C914AA9942B20
:102560009C93ABA5BCA54C919AA9909594239C9360
:1025700086952150310931F7DF91CF911F91089550
:102580004C9190959423E6CFDF92EF92FF920F93B8
:102590001F93CF93DF938091A6039091A703892B7C
:1025A00009F498C02091BE033091BF034091C0034D
:1025B0005091C10360E074E284EF90E00E94012139
:1025C000205131094109510956954795379527956D
:1025D0002093B80065E084E89AE00E94AD11609114
:1025E0008D03615089E893E00E94621220918F036D
:1025F00030919003C901079697FD079633E09595B2
:1026000087953A95E1F720918D0330918E03829F53
:102610008001839F100D929F100D1124C091A8037B
:10262000D091A9038091A6039091A7030C0F1D1FC1
:10263000009709F48FC02091AA0331E030935A0229
:10264000209359021092580210925702DC01ED912A
:10265000FC910190F081E02D60E40995EE24E39473
:10266000F12CDD24D3948091A6039091A7030C173D
:102670001D0709F446C0B0E2EB16F104D8F00E9441
:10268000C6108091A6039091A7032091AA03D0922F
:102690005A02209359021092580210925702DC01FC
:1026A000ED91FC910190F081E02D60E40995EE241C
:1026B000E394F12C8091A6039091A7036991DC012A
:1026C000ED91FC910190F081E02D0995BFEFEB1A9F
:1026D000FB0AC9CF8091A4039091A503892B31F007
:1026E0008091C7039091C8030E94E309E091B80369
:1026F000F091B90390818091BD03809589238083F7
:1027000069CF0E94C6108091A6039091A703892BE0
:1027100009F461C02091C2033091C3034091C40306
:102720005091C50360E074E284EF90E00E940121C3
:1027300020513109410951095695479537952795FB
:102740002093B800DF91CF911F910F91FF90EF90F0
:10275000DF900895E091B603F091B70380819091E6
:10276000BC03892B80830C171D0769F28991209186
:10277000A4033091A503232B19F00E94DC09F3CFA9
:1027800028E030E040E8E091B203F091B30390918B
:10279000BA03582F5423D9F05081952B9083E091A0
:1027A000B403F091B50390815091BB03952B9083B6
:1027B000E091B403F091B50350819091BB039095E3
:1027C00095239083469521503109E9F6CCCF50816D
:1027D00090959523E3CFE091B803F091B903808100
:1027E0009091BD03892B8083ADCF1F93CF93DF934F
:1027F000EC01162F8D8D9E8D892BB1F12DA93EA94F
:102800004FA958AD60E074E284EF90E00E9401218E
:10281000205131094109510956954795379527951A
:102820002093B80066EA111167EACE010E94621295
:102830008D8D9E8D892B41F129AD3AAD4BAD5CADAF
:1028400060E074E284EF90E00E94012120513109A0
:102850004109510956954795379527952093B8001A
:10286000DF91CF911F9108958B8D9C8D892B21F045
:102870008EAD9FAD0E94E309EFA5F8A990818CA9C8
:10288000809589238083CECFEFA5F8A980819CA96C
:10289000892B8083E5CF90E080E008951F93CF934C
:1028A000DF93D0918801E6E8F5E08491E6EBF5E06E
:1028B0001491E4EDF5E0C491CC2359F181110E940B
:1028C0009B06EC2FF0E0EE0FFF1FE859FF4FA5919C
:1028D000B491EC91E12331E020E009F430E0832F62
:1028E000922F21E082278170D81316C010928701A1
:1028F00080918601882349F0809156028F5F843051
:10290000E9F08093560210928601DF91CF911F91DA
:10291000089590E080E0E5CF809187018F5F8093FC
:1029200087018C3028F381E0D827D093880110925A
:102930008701DD23E9F280938601DACF81E0E1CFE0
:10294000EF92FF921F93CF93DF93EC018A819A81DC
:102950009E7F9A839A819D7F9A83182F117080FFA2
:1029600013C0EF8DF8A1309779F0ADA1BEA11496F8
:10297000ED90FC9015971596DC93CE9314970995DE
:10298000EDA1FEA1F582E482812FDF91CF911F910D
:10299000FF90EF9008950F931F93CF93DF93FC0167
:1029A000A5A1B6A1109709F452C0EC01178A108EA8
:1029B000118E128E82818B7F8283058CF68DE02DA5
:1029C000309709F440C08A8181FD3DC014960D9175
:1029D0001C9115971596DC93CE9314978A8182608B
:1029E0008A8309959A8180FB90F99A838A818D7FE9
:1029F0008A83EDA1FEA1158304838B819C81AD8127
:102A0000BE818F839887A987BA872FB7F894809162
:102A10005B0290915C02A0915D02B0915E022FBFBB
:102A20004F81588569857A85841B950BA60BB70B5A
:102A30008B879C87AD87BE878A818170DF91CF911C
:102A40001F910F9108958A8181608A83D6CF80E09B
:102A5000F5CFCF93DF93EC018AE591E099838883EA
:102A60008A8180FF03C0CE010E94A014EDA1FEA1C7
:102A7000309789F017821EA21DA2A9A1BAA18BA12D
:102A80009CA1109799F4009749F411821082138247
:102A9000128281E08783DF91CF910895DC019296C5
:102AA0001C921E92919791838083F3CF009739F403
:102AB00094961C921E929397B383A283EACF949626
:102AC0009C938E9393970BA0DCA1C02DBAA3A9A3CE
:102AD000E0CFFB0101900020E9F73197AF01461BE1
:102AE000570BDC01ED91FC910280F381E02D0994FC
:102AF0008F929F92AF92BF92EF92FF920F931F938C
:102B0000CF93DF93CDB7DEB7A1970FB6F894DEBFB2
:102B10000FBECDBF7C01FA01CB0119A2223008F40F
:102B20002AE08E010F5D1F4F822E912CB12CA12C1B
:102B3000BF01A50194010E940121F901CA016A3077
:102B40000CF5605DD8016E938D01232B242B252B72
:102B500079F790E080E0109721F0BD01C7010E9455
:102B60006915A1960FB6F894DEBF0FBECDBFDF91F9
:102B7000CF911F910F91FF90EF90BF90AF909F90DA
:102B80008F900895695CDECFCF92DF92EF92FF9233
:102B9000CF93DF936B017C01F7FE23C06DE289E8E0
:102BA00093E00E94210CEC0144275527BA014C19EF
:102BB0005D096E097F092AE089E893E00E94781593
:102BC000C80FD91F6EE571E089E893E00E9469158E
:102BD0008C0F9D1FDF91CF91FF90EF90DF90CF90F2
:102BE00008952AE0BC01A60189E893E00E947815C7
:102BF000EC01E8CFCF93DF93BC0189E893E00E941A
:102C00006915EC016EE571E089E893E00E946915B1
:102C10008C0F9D1FDF91CF910895CF92DF92EF929D
:102C2000FF9283E480937C0080917A00806480939B
:102C30007A0080917A0086FDFCCF90917800809197
:102C400079008927982789276C01092E000CEE0846
:102C5000FF082AE0B701A60197FF0DC06DE28FE5DE
:102C600092E00E942E0644275527BA014C195D09AF
:102C70006E097F092AE08FE592E00E9478156EE5E3
:102C800071E08FE592E0FF90EF90DF90CF900C9491
:102C9000691520918F0330919003C901079697FD24
:102CA000079623E0959587952A95E1F720918D0366
:102CB00030918E03829FA001839F500D929F500DF3
:102CC000112470E060E08091A8039091A9030C9416
:102CD0001923CF93DF93EC018091710390917203DC
:102CE0000097E9F06881798161157105B1F0409133
:102CF0007303509174032C813D814217530768F090
:102D00000E9420238C819D8190937603809375038C
:102D10001D821C82DF91CF9108950E94C521888178
:102D2000998190937203809371038A819B81909320
:102D30007403809373038C819D81909376038093B9
:102D40007503198218821B821A82E2CFFC018081EE
:102D50009181009711F00C94C5210895CF93DF93D2
:102D6000EC010E942915CE01DF91CF910C94C52171
:102D70000E940B230F931F93CF93DF93EC01888165
:102D80009981009759F02A813B812617370730F047
:102D900081E0DF91CF911F910F9108958B016F5FBB
:102DA0007F4F0E944E22009759F0998388831B839E
:102DB0000A832C813D81232B59F7FC011082E8CF37
:102DC00080E0E7CFEF92FF920F931F93CF93DF93B3
:102DD000EC017B018A01BA010E94BA16288139816F
:102DE000811114C02115310519F0C9010E94C521B6
:102DF000198218821D821C821B821A82CE01DF91E9
:102E0000CF911F910F91FF90EF9008951D830C8338
:102E1000B701C9010E942023F1CFFC011182108269
:102E2000138212821582148250E040E060E671E065
:102E30000C94E216EF92FF920F931F93CF93DF93C0
:102E400000D0CDB7DEB78C018FE592E00E94EC0593
:102E5000181619060CF040C050E040E060E671E042
:102E600087E793E00E94E2168FE592E00E94EC056E
:102E70001816190674F58FE592E00E94CA05898339
:102E80001A82E0907B03F0907C038FEFE81AF80A37
:102E9000B70187E793E00E94BA16882399F0209142
:102EA00077033091780380917B0390917C03BE017E
:102EB0006F5F7F4F820F931F0E942023F0927C034D
:102EC000E0927B0362E070E080E090E00E945307B4
:102ED000CBCF81E08093890180918901882329F1FA
:102EE00010928901F80111821082138212821582D8
:102EF0001482F3E007371F0771F060917703709138
:102F000078036115710539F040917B0350917C0382
:102F1000C8010E94E216C8010F900F90DF91CF9177
:102F20001F910F91FF90EF900895C8010E940D1717
:102F3000F2CF85ED8093BC008091CB019091CC01C4
:102F4000A091CD01B091CE010796A11DB11D23E046
:102F5000B695A795979587952A95D1F72091BC00AE
:102F600024FD03C01092140208954091CB015091AA
:102F7000CC016091CD017091CE01452B462B472BA2
:102F800069F30097A105B10541F025E32A95F1F712
:102F900000000197A109B109E1CF8091CA010C9409
:102FA00020101F920F920FB60F9211242F933F9370
:102FB0004F935F936F937F938F939F93AF93BF9341
:102FC000EF93FF938FE592E00E940C06FF91EF9143
:102FD000BF91AF919F918F917F916F915F914F9131
:102FE0003F912F910F900FBE0F901F9018951F9239
:102FF0000F920FB60F9211242F938F939F93EF93FD
:10300000FF93E0916F02F09170028081E091750270
:10301000F091760282FD1BC09081809178028F5FD3
:103020008F7320917902821741F0E0917802F0E0ED
:10303000E15AFD4F958F80937802FF91EF919F9118
:103040008F912F910F900FBE0F901F901895808138
:10305000F4CF1F920F920FB60F9211242F933F932C
:103060008F939F93AF93BF9380915B0290915C028B
:10307000A0915D02B0915E0230913A0223E0230FED
:103080002D3758F50196A11DB11D20933A0280936A
:103090005B0290935C02A0935D02B0935E0280910C
:1030A0003B0290913C02A0913D02B0913E020196FC
:1030B000A11DB11D80933B0290933C02A0933D0261
:1030C000B0933E02BF91AF919F918F913F912F910D
:1030D0000F900FBE0F901F90189526E8230F0296B1
:1030E000A11DB11DD2CF1F920F920FB60F921124C6
:1030F0002F933F934F935F936F937F938F939F9300
:10310000AF93BF93EF93FF938091B900887F803690
:1031100009F44AC0F0F5883209F4A7C018F58031E7
:1031200009F49BC0B8F4882309F4F9C0883009F485
:1031300094C0FF91EF91BF91AF919F918F917F913B
:103140006F915F914F913F912F910F900FBE0F9014
:103150001F901895883109F488C0803251F7809308
:10316000130214C0803409F49DC040F48033B9F3D5
:103170008833F9F68093130285ECB0C0803509F4EA
:1031800085C0883509F496C0883499F60E9499174D
:10319000D0CF883909F48CC038F5883729F050F43D
:1031A000883611F0803729F683E08093140210925C
:1031B000120257C0883809F47BC0803919F0803872
:1031C00009F0B7CF80911202803208F071C0E0910F
:1031D000120281E08E0F809312028091BB00F0E01A
:1031E000EE50FE4F80833DC0803B39F0E0F4803AE2
:1031F00009F479C0883A09F09CCF84E080931402E6
:103200001092F1011092F001E0914202F09143021C
:1032100009958091F00181110FC081E08093F00148
:103220001092D00109C0803C09F4A6CF883C09F473
:10323000A3CF883B09F07DCFE091F10181E08E0FB3
:103240008093F101F0E0E053FE4F80818093BB005A
:103250009091F1018091F00129C080913902809311
:10326000BB0085EC8093BC0064CF909138028091C4
:103270003702981758F5E091380281E08E0F80935D
:103280003802F0E0E95EFD4F8081E9CFE09138023D
:1032900081E08E0F809338028091BB00F0E0E95E00
:1032A000FD4F808390913802809137029817C8F2C1
:1032B00085E8D8CFE091380281E08E0F8093380204
:1032C0008091BB00F0E0E95EFD4F808380911602A3
:1032D00081115CCF81E08093150284EA8093BC0069
:1032E0001092140226CF85EC8093BC001092140239
:1032F00080911202803230F4E0911202F0E0EE5040
:10330000FE4F10826091120270E0E0914002F09155
:10331000410282EF91E00995109212020ACF1092B9
:10332000130234CFFC014383548365837683838106
:103330009481A581B68187839087A187B2872FB7B3
:10334000F89480915B0290915C02A0915D02B09133
:103350005E022FBF83879487A587B6870895CF9293
:10336000DF92EF92FF920F931F93CF93DF93EFE5DE
:10337000F2E01382128248EE53E060E070E0448392
:103380005583668377838AE091E09183808385EC1F
:1033900090E09587848784EC90E09787868780EC1F
:1033A00090E0918B808B81EC90E0938B828B82EC10
:1033B00090E0958B848B86EC90E0978B868B118EBA
:1033C000128E138E148EADE7B3E013961C921E92EC
:1033D000129714964D935D936D937C9317978CE1A0
:1033E00091E011969C938E93E9ECF3E017821182A1
:1033F00010821382128215821482168281E08783E2
:10340000E9E8F3E01382128240E850E055834483F8
:1034100020E430E037832683518740873387228733
:10342000168A1586148617861686858B848B2FEF51
:103430003FEF338B228B318B208B878B108E128E3C
:10344000118E8EE291E091838083148E138EB68F5D
:10345000A58F10A2178E8FEF84A385A386A387A3C1
:1034600080A780E89AE1A6E0B0E085AB96ABA7AB79
:10347000B0AF80EA96E8A1E0B0E081AF92AFA3AF31
:10348000B4AF80E586AF17AE87E793E00E940D17D3
:1034900081E793E00E940D17CAE4D3E00AE511E04A
:1034A00019830883ECE4F3E080818E7F8083808140
:1034B0008D7F808380818B7F80831B861C861D8609
:1034C0001E861B821C821D821E821F821886198600
:1034D0001A861AA219A21CA21BA21EA21DA21F8A32
:1034E000188E198E1A8E81E795E09C8F8B8F1E8E19
:1034F0001D8E18A21F8E48EE53E060E070E0CE01F2
:103500000E949219CC24CA94DC2C7601CF86D88AEA
:10351000E98AFA8ACB8ADC8AED8AFE8AC3E2D3E0A2
:1035200019830883E5E2F3E080818E7F80838081C8
:103530008D7F808380818B7F80831B861C861D8688
:103540001E861B821C821D821E821F82188619867F
:103550001A861AA219A21CA21BA21EA21DA21F8AB1
:10356000188E198E1A8E8EE494E19C8F8B8F1E8E8E
:103570001D8E18A21F8E42E050E060E070E0CE0188
:103580000E949219CF86D88AE98AFA8ACB8ADC8A85
:10359000ED8AFE8ACCEFD2E019830883EEEFF2E0E9
:1035A00080818E7F808380818D7F808380818B7FEF
:1035B00080831B861C861D861E861B821C821D82A4
:1035C0001E821F82188619861A861AA219A21CA2A8
:1035D0001BA21EA21DA21F8A188E198E1A8E8DE0A4
:1035E00096E19C8F8B8F1E8E1D8E18A21F8E4EE52E
:1035F00051E060E070E0CE010E949219CF86D88A37
:10360000E98AFA8ACB8ADC8AED8AFE8ADF91CF9139
:103610001F910F91FF90EF90DF90CF900895CF937F
:10362000DF93CDB7DEB728970FB6F894DEBF0FBE95
:10363000CDBF789484B5826084BD84B5816084BD3B
:1036400085B5826085BD85B5816085BD80916E0040
:10365000816080936E001092810080918100826071
:1036600080938100809181008160809381008091AE
:1036700080008160809380008091B100846080939D
:10368000B1008091B00081608093B00080917A0099
:10369000846080937A0080917A00826080937A00BF
:1036A00080917A00816080937A0080917A008068AE
:1036B00080937A001092C100E0916F02F091700245
:1036C00082E08083E0916B02F0916C021082E091C5
:1036D0006D02F0916E028FEC808310927702E09180
:1036E0007302F091740286E08083E0917102F091A0
:1036F0007202808180618083E0917102F091720298
:10370000808188608083E0917102F09172028081F3
:1037100080688083E0917102F091720280818F7DD8
:1037200080838091A8039091A903892B11F52091A2
:103730008F0330919003C901079697FD0796B3E078
:1037400095958795BA95E1F720918D0330918E0379
:10375000AC01429FC001439F900D529F900D1124D8
:103760000E9429219093A9038093A803892B09F42F
:10377000C9C20E94491620918F0330919003809115
:103780008D0390918E03B901213231050CF4B1C142
:103790006054710977FF02C06F5F7F4F7595679521
:1037A0008255910997FD019600E410E022E530E092
:1037B00044EC57E0959587950E94CD0E82E080936A
:1037C000AB038091A6039091A703892B09F4A4C1B0
:1037D0008CE38093AA031092450210924402109247
:1037E0005802109257020E9402108BE895E09093C5
:1037F0004302809342028CE895E0909341028093CB
:1038000040028091B10387FD1EC061E00E94F20674
:1038100061E08091B1030E94C40661E070E080E045
:1038200090E00E94530760E08091B1030E94C406BB
:103830006AE070E080E090E00E94530761E08091D0
:10384000B1030E94C4068091A6039091A703892B1F
:1038500009F421C22091BE033091BF034091C003FF
:103860005091C10360E074E284EF90E00E94012176
:1038700020513109410951095695479537952795AA
:103880002093B80064E08EEA95E00E94AD1160914B
:103890008F03615089E893E00E94621264E08AEA33
:1038A00095E00E94AD118091AB0364E1813009F491
:1038B00060E189E893E00E94621264E086EA95E0A4
:1038C0000E94AD118FE88093C60380918D03909183
:1038D0008E038038910509F0F7C180918F03909194
:1038E00090038034910509F0FFC18091AB038130D2
:1038F00009F4E8C18FEC8093C60312E16AED89E810
:1039000093E00E946212612F89E893E00E946212A4
:1039100061E889E893E00E9462126091C60389E839
:1039200093E00E94621269ED89E893E00E946212BE
:103930008091AB0361EF813009F462E289E893E0A2
:103940000E94621266E080EA95E00E94AD118091CB
:10395000A6039091A703892B09F4CAC12091C20341
:103960003091C3034091C4035091C50360E074E2F9
:1039700084EF90E00E940121205131094109510951
:1039800056954795379527952093B8000E9449167C
:1039900082E080939D0380939E0381E090E090936A
:1039A0009C0380939B0390939A0380939903809345
:1039B000A10362E084E00E94F20661E089E00E94D7
:1039C000F20661E08AE00E94F20660E081E10E9476
:1039D000F2068AE493E00E943F2083E293E00E9493
:1039E0003F208CEF92E00E943F2083E293E00E9410
:1039F000CB148CEF92E00E94CB1480E0282E80E064
:103A0000382E11E09AE0E92EF12C24E1C22ED12CBF
:103A100002E08091C9039091CA039093CE038093F2
:103A2000CD031092D1031092D2031092D3031092BF
:103A3000D4031092D5031092D6031092D70310929C
:103A4000D8031092D9031092DA031092DB0310927C
:103A5000DC038091D003882309F4C8C18091CF038F
:103A60008111C4C1E091CD03F091CE03309709F4E8
:103A7000BDC18091D5039091D603A091D703B09199
:103A8000D8030196A11DB11D8093D5039093D60351
:103A9000A093D703B093D80383A194A198878F8371
:103AA000828180FF1FC08091D1039091D203A091A9
:103AB000D303B091D4030196A11DB11D8093D1030E
:103AC0009093D203A093D303B093D40387859089B6
:103AD000A189B289892B8A2B8B2B09F014C1CF01C4
:103AE0000E94A0144F8158855093CE034093CD037C
:103AF000B5CF6052710977FF02C06F5F7F4F759538
:103B000067958357910997FD019600E210E023E73E
:103B100030E044EE55E04ECE61E08091AF030E946C
:103B2000F20661E08091B0030E94F2068091AF033B
:103B3000082E000C990BFC01E053FA4FE491F0E0E1
:103B4000EE0FFF1FEA53FA4F259134913093B703DC
:103B50002093B603FC01EE54FA4FE491E093BC03CA
:103B60008091B003082E000C990BFC01E053FA4F32
:103B7000E491F0E0EE0FFF1FEA53FA4FA591B491E4
:103B8000B093B903A093B803FC01EE54FA4FE4914B
:103B9000E093BD038C91E82BEC938091A40390916A
:103BA000A503892B09F434C01FB7F89480913F0214
:103BB000811127C0EAEDF5E08491ECEBF5E09491FA
:103BC000E82FF0E0EE0FFF1FEA56FA4FA591B491EF
:103BD000EC91E92321F461E08AE00E94C40661E0EF
:103BE0008AE00E94F2068CB580618CBD8CB5806441
:103BF0008CBD61E08DE00E94F20661E08BE00E94E6
:103C0000F20680913F028F5F80933F021FBFF9CD84
:103C100061E08091AD030E94F20661E08091AE0305
:103C20000E94F2068091AD03082E000C990BFC0156
:103C3000E053FA4FE491F0E0EE0FFF1FEA53FA4F22
:103C4000259134913093B3032093B203FC01EE54D9
:103C5000FA4FE491E093BA038091AE03082E000C72
:103C6000990BFC01E053FA4FE491F0E0EE0FFF1FD7
:103C7000EA53FA4FA591B491B093B503A093B4035E
:103C8000FC01EE54FA4FE491E093BB038C91E09574
:103C9000E823EC93B6CD8091A4039091A503892BE2
:103CA00031F08091C7039091C8030E94E309E0912D
:103CB000B803F091B90390818091BD038095892369
:103CC0008083E0CD8FE917CE8036910569F480912D
:103CD0008F0390919003409739F48091AB0381302A
:103CE00029F08FEA8093C60312E008CE80E1FACF74
:103CF000E091B803F091B90380819091BD03892BC5
:103D0000808344CEFFCF2FB7F89480915B029091CF
:103D10005C02A0915D02B0915E022FBFE091CD03E5
:103D2000F091CE03438154816581768183849484AC
:103D3000A584B68447805084618472848819990967
:103D4000AA09BB0984159505A605B70508F4CACECE
:103D500087859089A189B289181619061A061B064B
:103D60005CF487859089A189B2890197A109B1097D
:103D70008787908BA18BB28B8789908DA18DB28D17
:103D80000196A11DB11D878B908FA18FB28F838566
:103D90009485A585B6854780508461847284840D9E
:103DA000951DA61DB71D83879487A587B687478372
:103DB000508761877287038CF48DE02D309709F46A
:103DC00091CE09958091D9039091DA03A091DB03FC
:103DD000B091DC030196A11DB11D8093D90390938E
:103DE000DA03A093DB03B093DC037CCE9090560201
:103DF00052E0951609F447C083E0981609F49AC07A
:103E000091E0991234C010925502809154028111B0
:103E10001CC08AE493E00E94CB140E9449160093D0
:103E20009D0300939E034EE150E050939603409310
:103E30009503D0929803C092970381E691E00E9487
:103E4000FA15909254020E94C4128091530283305A
:103E500070F08AE493E00E94A014109253028091C3
:103E60005602813021F40E9449160E94C412211486
:103E7000310409F4CECD0E94F805882309F4C9CD98
:103E80000E940000C6CD109253028091520281110F
:103E900040C00E944916CE0101960E941A17CE0119
:103EA00001960E946916CE0101960E94A6160E94F4
:103EB0007705882371F110939D0310939E03109250
:103EC000960310929503109298031092970387E639
:103ED00091E00E94FA15809171039091720300970E
:103EE00029F10E948E2060934E0270934F028093BE
:103EF0005002909351021092960310929503F09203
:103F00009803E09297030E94C4150E94C412109374
:103F10005202CE0101960E941A17CE0101960E940C
:103F20006916CE0101960E94A616A1CF60E070E04E
:103F3000CB01D9CF109254021092520280915502B7
:103F40008111E7CF0E94491610939D0310939E03A1
:103F5000CE0101960E941A17CE0101960E946916A1
:103F6000CE0101960E94A6160E947705882389F249
:103F70001092960310929503109298031092970353
:103F800080E791E00E94FA1580917103909172038D
:103F9000009709F45EC00E948E2060934A027093DD
:103FA0004B0280934C0290934D0210929603109214
:103FB0009503F0929803E09297030E94C415109223
:103FC000960310929503D0929803C092970389E7C5
:103FD00091E00E94FA1560914A0270914B02809123
:103FE0004C0290914D0240904E0250904F026090D2
:103FF00050027090510264197509860997096093FF
:1040000046027093470280934802909349020E94AF
:10401000C4150E94C41210935502809146029091DB
:104020004702A0914802B0914902AC01BD014E5136
:10403000510961097109493251056105710568F439
:1040400060E089E00E94C40661E08AE00E94C40644
:1040500060CF60E070E0CB01A0CF87349105A1056F
:10406000B10514F061E0EDCF4E97A105B1050CF05C
:1040700050CF61E089E00E94C40660E0E6CFFC0119
:1040800085A196A1892BD9F41092D00389EC93E0F5
:1040900096A385A38091C9039091CA03892B81F4CB
:1040A000F093CA03E093C90312A211A214A213A2AF
:1040B000F093CC03E093CB0381E08093D003089589
:1040C000A091CB03B091CC03B2A3A1A39496FC938F
:1040D000EE939397EBCF8CEF92E00E94291583E249
:1040E00093E00E9429158AE493E00E94291581E754
:1040F00093E00E94A61687E793E00E94A6168EE240
:1041000091E090938A03809389038091A803909112
:10411000A903009711F00C94C52108951F93FC0189
:1041200099278827BC01E89411911032E9F31930DE
:1041300010F01E30C8F31B3251F01D3249F4689460
:1041400006C00E94B520610F711D811D911D119146
:1041500010531A30B0F33EF49095809570956195A8
:104160007F4F8F4F9F4F1F910895592F482F372F03
:10417000262F660F771F881F991F660F771F881FCE
:10418000991F620F731F841F951F660F771F881F6B
:10419000991F08952F923F924F925F926F927F9254
:1041A0008F929F92AF92BF92CF92DF92EF92FF9247
:1041B0000F931F93CF93DF93CDB7DEB7CA1BDB0BF3
:1041C0000FB6F894DEBF0FBECDBF09942A88398898
:1041D00048885F846E847D848C849B84AA84B9849F
:1041E000C884DF80EE80FD800C811B81AA81B981AB
:1041F000CE0FD11D0FB6F894DEBF0FBECDBFED01BF
:104200000895A1E21A2EAA1BBB1BFD010DC0AA1F17
:10421000BB1FEE1FFF1FA217B307E407F50720F02F
:10422000A21BB30BE40BF50B661F771F881F991FAA
:104230001A9469F760957095809590959B01AC01F3
:10424000BD01CF010895EE0FFF1F0590F491E02D01
:1042500009940F931F93CF93DF938230910510F44D
:1042600082E090E0E091DF03F091E00330E020E0B5
:10427000B0E0A0E0309799F42115310509F44AC067
:10428000281B390B24303105D8F58A819B816115B3
:10429000710589F1FB0193838283FE0111C0408186
:1042A00051810281138148175907E0F048175907D7
:1042B00099F4109761F012960C93129713961C9331
:1042C0003296CF01DF91CF911F910F910895009306
:1042D000DF031093E003F4CF2115310551F04217AD
:1042E000530738F0A901DB019A01BD01DF01F80194
:1042F000C1CFEF01F9CF9093E0038093DF03CDCFDF
:10430000FE01E20FF31F819391932250310939830B
:104310002883D7CF2091DD033091DE03232B41F496
:1043200020910201309103013093DE032093DD03DD
:1043300020910001309101012115310541F42DB783
:104340003EB74091040150910501241B350BE091CB
:10435000DD03F091DE03E217F307A0F42E1B3F0B01
:104360002817390778F0AC014E5F5F4F24173507E7
:1043700048F04E0F5F1F5093DE034093DD0381939F
:1043800091939FCFF0E0E0E09CCFCF93DF93009735
:10439000E9F0FC01329713821282A091DF03B09101
:1043A000E003ED0130E020E01097A1F4208131819D
:1043B000820F931F2091DD033091DE032817390708
:1043C00009F061C0F093DE03E093DD03DF91CF914C
:1043D0000895EA01CE17DF07E8F54A815B819E0167
:1043E00041155105B1F7E901FB83EA8349915991E0
:1043F000C40FD51FEC17FD0761F4808191810296EF
:10440000840F951FE90199838883828193819B831F
:104410008A83F0E0E0E012968D919C9113970097CB
:10442000B9F52D913C911197CD010296820F931F02
:104430002091DD033091DE032817390739F63097D4
:1044400051F51092E0031092DF03B093DE03A093C6
:10445000DD03BCCFD383C28340815181840F951F7C
:10446000C817D90761F44E5F5F4F88819981480F63
:10447000591F518340838A819B81938382832115B5
:10448000310509F0B0CFF093E003E093DF039ECF56
:10449000FD01DC01C0CF13821282D7CFB0E0A0E0D3
:1044A000E4E5F2E20C94CC208C01009751F4CB01AE
:1044B0000E9429218C01C801CDB7DEB7E0E10C9440
:1044C000E820FC01E60FF71F9C0122503109E2179A
:1044D000F30708F49DC0D901CD91DC911197C6175F
:1044E000D70798F0C530D10530F3CE010497861771
:1044F000970708F3C61BD70B2297C193D1936D93EF
:104500007C93CF010E94C521D6CF5B01AC1ABD0AB6
:104510004C018C0E9D1EA091DF03B091E003512C45
:10452000412CF12CE12C109731F58091DD03909115
:10453000DE038815990509F05CC04616570608F099
:1045400058C08091000190910101009741F48DB70E
:104550009EB74091040150910501841B950BE8170B
:10456000F90708F055C0F093DE03E093DD03F9018D
:1045700071836083A0CF8D919C91119712966C905E
:10458000129713967C901397A815B90559F56C01ED
:1045900042E0C40ED11CCA14DB0420F1AC014A195C
:1045A0005B09DA011296159780F06282738251835B
:1045B0004083D9016D937C93E114F10471F0D7012C
:1045C0001396FC93EE93129776CF22968C0F9D1F35
:1045D000F90191838083F301EFCFF093E003E0933F
:1045E000DF0369CF4816590608F42C017D01D30179
:1045F0009ACFCB010E9429217C01009749F0AE019E
:10460000B8010E941023C8010E94C521870153CF21
:1046100010E000E050CF81E090E0F8940C94272364
:10462000FB01DC0102C001900D9241505040D8F7CF
:104630000895DC0101C06D9341505040E0F70895AA
:10464000FB01DC0101900D920020E1F7089515E0D7
:10465000C6E4D5E004C0FE010E9423212196C734A0
:08466000D107C9F7F894FFCF60
:104668000000E1038000000000002E068E05BB0557
:104678007B06EC05CA05DE050000000097106A10ED
:104688004B148A0563105010411000000000210CE3
:104698008E054B148D052C098A05C60E9E0EBA0E82
:1046A800AE0E2E0F8A05E709F5139C08E508E70DFD
:1046B800CA0D520DF30C000000002915AE160D0AA4
:1046C80000537461727400446973742031203D0092
:1046D800446973742032203D0044696666657265DA
:0646E8006E6365203D0039
:00000001FF
