:100000000C9454050C947C050C947C050C947C0594
:100010000C947C050C947C050C947C050C947C055C
:100020000C947C050C947C050C947C050C947C054C
:100030000C947C050C947C050C947C050C947C053C
:100040000C9423170C947C050C94F1160C94CB168D
:100050000C947C050C947C050C947C050C947C051C
:100060000C946D170C947C05000000002300260002
:10007000290000000000003E5B4F5B3E3E6B4F6B73
:100080003E1C3E7C3E1C183C7E3C181C577D571C79
:100090001C5E7F5E1C00183C1800FFE7C3E7FF00F2
:1000A00018241800FFE7DBE7FF30483A060E262940
:1000B000792926407F050507407F05253F5A3CE703
:1000C0003C5A7F3E1C1C08081C1C3E7F14227F22C9
:1000D000145F5F005F5F06097F017F006689956A94
:1000E000606060606094A2FFA29408047E0408101F
:1000F000207E201008082A1C08081C2A08081E1048
:100100001010100C1E0C1E0C30383E3830060E3EFF
:100110000E06000000000000005F0000000700075E
:1001200000147F147F14242A7F2A12231308646288
:1001300036495620500008070300001C22410000E9
:1001400041221C002A1C7F1C2A08083E0808008047
:1001500070300008080808080000606000201008DF
:1001600004023E5149453E00427F400072494949E0
:10017000462141494D331814127F10274545453912
:100180003C4A494931412111090736494949364616
:100190004949291E000014000000403400000008F6
:1001A0001422411414141414004122140802015999
:1001B00009063E415D594E7C1211127C7F49494926
:1001C000363E414141227F4141413E7F49494941BB
:1001D0007F090909013E414151737F0808087F00EA
:1001E000417F41002040413F017F081422417F4070
:1001F0004040407F021C027F7F0408107F3E414147
:10020000413E7F090909063E4151215E7F091929B6
:1002100046264949493203017F01033F4040403FA0
:100220001F2040201F3F4038403F631408146303E1
:10023000047804036159494D43007F414141020460
:10024000081020004141417F040201020440404067
:100250004040000307080020545478407F2844445D
:10026000383844444428384444287F385454541877
:1002700000087E090218A4A49C787F080404780072
:10028000447D40002040403D007F10284400004154
:100290007F40007C047804787C0804047838444467
:1002A0004438FC1824241818242418FC7C0804045E
:1002B00008485454542404043F44243C4040207CC7
:1002C0001C2040201C3C4030403C44281028444C1A
:1002D0009090907C4464544C4400083641000000E7
:1002E000770000004136080002010204023C262388
:1002F000263C1EA1A161123A4040207A3854545540
:100300005921555579412254547842215554784009
:1003100020545579400C1E52721239555555593991
:100320005454545939555454580000457C410002E6
:10033000457D420001457C407D1211127DF028254B
:1003400028F07C545545002054547C547C0A097F85
:100350004932494949323A4444443A324A48483099
:100360003A4141217A3A42402078009DA0A07D3D4B
:100370004242423D3D4040403D3C24FF2424487ED3
:100380004943662B2FFC2F2BFF0929F620C0887EBE
:10039000090320545479410000447D413048484AC3
:1003A00032384040227A007A0A0A727D0D19317D76
:1003B0002629292F28262929292630484D4020384A
:1003C0000808080808080808382F10C8ACBA2F1009
:1003D0002834FA00007B000008142A142222142A70
:1003E00014085500550055AA55AA55AAFF55FF55A2
:1003F000FF000000FF00101010FF00141414FF0095
:100400001010FF00FF1010F010F0141414FC001472
:1004100014F700FF0000FF00FF1414F404FC141490
:1004200017101F10101F101F1414141F001010108D
:10043000F0000000001F101010101F10101010F01E
:1004400010000000FF101010101010101010FF10FE
:10045000000000FF140000FF00FF00001F10170045
:1004600000FC04F414141710171414F404F400001E
:10047000FF00F714141414141414F700F7141414D0
:10048000171410101F101F141414F4141010F0106F
:10049000F000001F101F0000001F14000000FC14DB
:1004A0000000F010F01010FF10FF141414FF1410CF
:1004B00010101F00000000F010FFFFFFFFFFF0F022
:1004C000F0F0F0FFFFFF0000000000FFFF0F0F0F34
:1004D0000F0F3844443844FC4A4A4A347E0202062C
:1004E00006027E027E0263554941633844443C045F
:1004F000407E201E2006027E020299A5E7A5991CD7
:100500002A492A1C4C7201724C304A4D4D303048F9
:10051000784830BC625A463D3E494949007E010157
:10052000017E2A2A2A2A2A44445F444440514A44EC
:100530004040444A51400000FF0103E080FF0000BA
:1005400008086B6B083612362436060F090F0600B2
:100550000018180000001010003040FF0101001FBB
:1005600001011E00191D1712003C3C3C3C0000001C
:100570000000000103070F1F3F7F0080C0E0F0F87C
:10058000FCFE000000080002010000030407000058
:1005900000000000000000000000240027002A00E6
:1005A000DB40A4A62EAF2000A1C8D300408DAED55D
:1005B00080A80102040810204080010204081020D5
:1005C00001020408102000000000250028002B0074
:1005D00004040404040404040202020202020303E9
:1005E000030303030000600000000000000000009F
:1005F0000000000000E0000000000000000000001B
:1006000000000001E0000000000000000000000009
:10061000000001F0000000000000000000000000E9
:100620000003F000000000000000000000000000D7
:1006300007F00000000000000000000000000007BC
:10064000F8000000000000000000000000000FF8AB
:1006500000000003C0007E000001E0007F0FF800F2
:10066000000003C000FE000001E000FFEFF8000002
:100670000003C000FE000001E000FFFFF8000000E2
:1006800003C000F00000000F007FFE7FC0000003E9
:10069000C000F00000000F003FFE7FF83FF1FBCFED
:1006A000FCFEF3BC3DEFE01FFE7FFF7FFBFFDFFEA4
:1006B000FEFFBC3DEFE01FC6FFFF7FFBFFDFFEFE3E
:1006C000FFBC3DEFE00FE3C7FE787BC3DE1EF0FF0B
:1006D000BC3DEF0007FF87FC787BC3DE1EF0F83CD3
:1006E0003DEF0001FFFFF0007BC3C01EF0F03C3D7A
:1006F000EF0001F37FE03FFBC3CFFEF0F03C3DEFA6
:100700000003E33F807FFBC3DFFEF0F03C3DEF00E2
:1007100007E73C00787BC3DE1EF0F03C3DEF0007AE
:10072000FFBE00787BC3DE1EF0F03C3DEF0007FF0C
:10073000FE00787BC3DE1EF0F03C3DEF000FFFFEB5
:10074000007FFBFFDFFEF0F03FFDEFE00FFFFF005B
:100750007FFBFFDFFEF0F03FFDEFE00FF9FF003E13
:1007600079F9CF9EF0F01F3DE7E01FF1FF00000098
:100770000000000000000000001F80FF007FFFFF5E
:10078000FFFFFFFFFFFFFFE01C007F007FFFFFFF79
:10079000FEB46D888D18E000001F007FFFFFFFFE94
:1007A00095AD7DB577E000000F007FFFFFFFFEA550
:1007B000AD9D8D19E0000006007FFFFFFFFEB5AD87
:1007C000EDB57EE0000000000001800000000000A8
:1007D000000000000380000000000000000000078F
:1007E000C000000000000000000007C00000000082
:1007F00000000000000FC00000000000000000002A
:100800001FE00000000000000000001FE0000000EA
:100810000000000000003FE00000000000000000B9
:10082000003FF00000000000000000007FF000002A
:1008300000000000001FF87FF00000000000000032
:100840003FFE7FF0000000000000003FFF7FF0004F
:100850000000000000001FFFFBE00000000000009F
:10086000000FFFF9FFC00000000000000FFFF9FFBC
:10087000F800000000000007FFF1FFFF000000008B
:10088000000003FC73FFFF80000000000001FE3F3A
:10089000FFFF80000000000000FF1E0FFF000000AF
:1008A000000000007FFE1FFC000000000000003F71
:1008B000FFFFF8000000000000000FDFFFE0000075
:1008C00000000000001F19FFC00000000000000031
:1008D0003F3CFF00000000000000007E7CF80000AC
:1008E0000000000000007FFE7C000000000000000F
:1008F00000FFFFFC0000000000000000FFFFFE0002
:1009000000000000000000FFFFFE000000000000EB
:100910000001FFEFFE0000000000000001FFCFFE1D
:100920000000000000000003FF07FE0000000000C0
:10093000000003FC07FE0000000000000003F003BD
:10094000FE00000000000000018000FE000000002A
:100950000000000000007E00000000000000000019
:10096000003E000000000000000000000C0000003D
:10097000000000078000FC000003C00000000780AA
:1009800001FC000003C0000000078001FC00000320
:10099000C0000000078001E00000001E000000070A
:1009A0008001E00000001E007FE3F79FF9FDE7787B
:1009B0007BDFC0FFF7FFBFFDFDFF787BDFC0FFF7E8
:1009C000FFBFFDFDFF787BDFC0F0F787BC3DE1FF97
:1009D000787BDE00F0F787BC3DE1F0787BDE00003D
:1009E000F787803DE1E0787BDE007FF7879FFDE1C0
:1009F000E0787BDE00FFF787BFFDE1E0787BDE007B
:100A0000F0F787BC3DE1E0787BDE00F0F787BC3D86
:100A1000E1E0787BDE00F0F787BC3DE1E0787BDE4B
:100A200000FFF7FFBFFDE1E07FFBDFC0FFF7FFBF87
:100A3000FDE1E07FFBDFC07CF3F39F3DE1E03E7B27
:100A4000CFC00000000000000000000000FFFFFF1A
:100A5000FFFFFFFFFFFFFFC0FFFFFFFFFD68DB1190
:100A60001A31C0FFFFFFFFFD2B5AFB6AEFC0FFFFEB
:100A7000FFFFFD4B5B3B1A33C0FFFFFFFFFD6B5BCE
:100A8000DB6AFDC05353443133303620616C6C6FE8
:100A9000636174696F6E206661696C656400220031
:100AA000FF2100008C18051F11241FBECFEFD8E0D6
:100AB000DEBFCDBF23E0ACE9B1E001C01D92A33C95
:100AC000B207E1F711E0A0E0B1E0ECE1F3E402C02D
:100AD00005900D92AC39B107D9F715E0C3E5D5E023
:100AE00004C02197FE010E947D1FC235D107C9F7BE
:100AF0000E94EB190C9481210C94000080915C02FF
:100B00008F5F80935C020895FC0185A196A1892BDB
:100B1000D9F41092B2038BEA93E096A385A3809157
:100B2000AB039091AC03892B81F4F093AC03E09379
:100B3000AB0312A211A214A213A2F093AE03E0938E
:100B4000AD0381E08093B2030895A091AD03B0910D
:100B5000AE03B2A3A1A39496FC93EE939397EBCF2D
:100B60000895089508950895AF92BF92CF92DF92AD
:100B7000EF92FF920F931F93CF93DF936C017B0152
:100B80008B01040F151FEB015E01AE18BF08C017E3
:100B9000D10759F06991D601ED91FC910190F08156
:100BA000E02DC6010995892B79F7C501DF91CF9119
:100BB0001F910F91FF90EF90DF90CF90BF90AF907B
:100BC0000895FC01538D448D252F30E0842F90E053
:100BD000821B930B541710F0CF9608950197089538
:100BE000FC01918D828D981761F0A28DAE0FBF2F01
:100BF000B11D5D968C91928D9F5F9F73928F90E057
:100C000008958FEF9FEF0895FC01918D828D9817C5
:100C100031F0828DE80FF11D858D90E008958FEF02
:100C20009FEF0895FC01918D228D892F90E0805CCB
:100C30009F4F821B91098F739927089584E692E054
:100C40000E94120621E0892B09F420E0822F0895EA
:100C500080E090E0892B29F00E941E0681110C94FF
:100C600000000895FC01A48DA80FB92FB11DA35A4F
:100C7000BF4F2C91848D90E001968F739927848FBC
:100C8000A689B7892C93A089B1898C9183708064DF
:100C90008C93938D848D981306C00288F389E02D80
:100CA00080818F7D80830895EF92FF920F931F9331
:100CB000CF93DF93EC0181E0888F9B8D8C8D98130F
:100CC0001AC0E889F989808185FF15C09FB7F8941B
:100CD000EE89FF896083E889F98980818370806467
:100CE00080839FBF81E090E0DF91CF911F910F91B2
:100CF000FF90EF900895F62E0B8D10E00F5F1F4FC1
:100D00000F731127E02E8C8D8E110CC00FB607FCCF
:100D1000FACFE889F989808185FFF5CFCE010E945D
:100D20003206F1CFEB8DEC0FFD2FF11DE35AFF4F93
:100D3000F0829FB7F8940B8FEA89FB8980818062EB
:100D4000CFCFCF93DF93EC01888D8823B9F0AA89A8
:100D5000BB89E889F9898C9185FD03C0808186FD76
:100D60000DC00FB607FCF7CF8C9185FFF2CF8081C5
:100D700085FFEDCFCE010E943206E9CFDF91CF9102
:100D80000895833081F028F4813099F08230A9F001
:100D900008958730A9F08830C9F08430B1F480918B
:100DA00080008F7D03C0809180008F7780938000CA
:100DB000089584B58F7784BD089584B58F7DFBCF6A
:100DC0008091B0008F778093B00008958091B0003B
:100DD0008F7DF9CF1F93CF93DF93282F30E0F90158
:100DE000EE57FA4F8491F901EE54FA4FD491F9017C
:100DF000E053FA4FC491CC23A9F0162F81110E9421
:100E0000C106EC2FF0E0EE0FFF1FEA53FA4FA59159
:100E1000B4918FB7F894EC91111108C0D095DE23EE
:100E2000DC938FBFDF91CF911F910895DE2BF8CF18
:100E3000CF93DF9390E0FC01EE54FA4F249180535E
:100E40009A4FFC0184918823D1F090E0880F991F7C
:100E5000FC01EA56FA4FA591B491FC01EA53FA4F0E
:100E6000C591D491623071F49FB7F8943C91822F70
:100E7000809583238C93E8812E2B28839FBFDF915D
:100E8000CF9108958FB7F894EC912E2B2C938FBFB0
:100E9000F6CF3FB7F8948091510290915202A09101
:100EA0005302B091540226B5A89B05C02F3F19F0FC
:100EB0000196A11DB11D3FBFBA2FA92F982F8827DA
:100EC000BC01CD01620F711D811D911D42E0660FB5
:100ED000771F881F991F4A95D1F708958F929F9287
:100EE000AF92BF92CF92DF92EF92FF924B015C01E3
:100EF0000E9449076B017C010E9449076C197D091A
:100F00008E099F09683E734081059105A8F321E091
:100F1000821A9108A108B10888EEC80E83E0D81E95
:100F2000E11CF11C81149104A104B10429F7FF9084
:100F3000EF90DF90CF90BF90AF909F908F900895EB
:100F4000EF92FF920F931F93CF93DF93EC01EC800E
:100F5000FD806E157F050CF070C057FF04C0240F94
:100F6000351F50E040E08E819F81FA01E20FF31FB0
:100F70008E179F071CF49C01241B350B12161306B9
:100F80000CF05BC0922F842F8695869586958E9D5A
:100F9000D0018F9DB00D11246A0F7B1FAF8DB8A1BA
:100FA000A60FB71F477049F188E0841B482F682FB0
:100FB00070E0FB01E658FA4FE491281708F063C08F
:100FC000621B71092FEF30E002C0359527956A95B5
:100FD000E2F7E2230130110539F0B0F102301105DA
:100FE00061F58C91E82702C08C91E82BEC93941763
:100FF00020F12C813D81A20FB31FE92FE41BE830C3
:1010000078F00230110521F58E2F9C9190959C93DC
:101010002C813D81A20FB31F88508830B0F7E77054
:10102000EE2359F0F0E0EE58FA4FE491013011054B
:10103000F9F010F10230110519F1DF91CF911F91F4
:101040000F91FF90EF900895E0958C91E823CECF1B
:1010500081E00115110509F480E081959E2F8C93A4
:101060002C813D81A20FB31F98509830C0F7D7CF85
:101070008C91E82BEC93E1CFE0958C91E823FACFAB
:101080008C91E827F7CF0130110509F4ADCFE0F2DC
:101090000230110509F4A5CFAE0DBF1DAECF0F93E1
:1010A0001F93CF93DF9377FF04C0260F371F70E0A5
:1010B00060E0DC011496CD91DC91FB01E20FF31F9F
:1010C000CE17DF071CF49E01261B370B12161306E2
:1010D0004CF5FA0157FD3796A3E0F595E795AA95EB
:1010E000E1F7EC9FD001ED9FB00DFC9FB00D1124F6
:1010F0006A0F7B1FDC015F96ED91FC91E60FF71FF5
:101100004770552781E090E001C0880F4A95EAF7C3
:10111000482F0130110559F0A8F02E0F3F1F023063
:101120001105E1F0DF91CF911F910F9108952E0FDE
:101130003F1FE217F307B1F38191DF011197842B71
:101140008C93F7CF80952E0F3F1FE217F30751F3D3
:101150009191DF01119798239C93F7CFE217F30742
:1011600009F38191DF01119784278C93F7CF0F93B7
:101170001F93FA01DC0156964C9156974230E9F0E4
:101180004330A1F1413061F514964D915C91DA0143
:10119000AE1BBF0BFD01E21BF30B77FD0BC0DC01A7
:1011A00016964D915C916417750724F4AB01BF014D
:1011B0000E944F081F910F91089514964D915C91D4
:1011C000DA01A61BB70BBD0161507109DC0116964F
:1011D0004D915C91DA01AE1BBF0BFD01E21BF30BDD
:1011E00077FDE8CFAF010E94A007E4CF16964D919E
:1011F0005C91DA01A61BB70BBD0161507109CDCF1F
:101200000F931F93FA01DC0156964C91569742308A
:10121000A9F0433091F1413019F514964D915C914C
:10122000DA01AE1BBF0BFD013197F7FD04C0AB0126
:10123000BF010E94A0071F910F91089514964D9130
:101240005C91DA01A61BB70BBD01DC0116964D912E
:101250005C91DA01AE1BBF0BFD013197621B730B72
:10126000F7FDE9CFDC0116964D915C91E417F50787
:1012700014F7AF010E944F08DECF16964D915C9196
:10128000DA01A61BB70BBD01621B730BCECFFC01AD
:1012900077FD64C080859185681779070CF05EC082
:1012A00057FD5CC082859385481759070CF056C0DE
:1012B00086898230B1F0833029F1813041F4848114
:1012C0009581841B950BAB01BC01615071092130E4
:1012D000310509F108F443C02230310509F463C037
:1012E000089584819581DC01A61BB70BBD01615077
:1012F000710986819781DC01A41BB50BAD014150BA
:101300005109E5CF86819781861B970BBA01AC0105
:1013100041505109DCCFCA0157FD0796A3E09595CE
:101320008795AA95E1F7A481B5818A9F90018B9F4B
:10133000300D9A9F300D1124620F731F078CF0A19E
:10134000E02DE60FF71F4770552721E030E001C080
:10135000220F4A95EAF78081822B80830895CA0183
:1013600057FD079633E0959587953A95E1F7A48167
:10137000B5818A9F90018B9F300D9A9F300D11246B
:10138000620F731F078CF0A1E02DE60FF71F477067
:10139000552781E090E001C0880F4A95EAF78095D3
:1013A00090818923DACFCA0157FD079623E09595EE
:1013B00087952A95E1F7A481B5818A9F90018B9F3B
:1013C000300D9A9F300D1124620F731F078CF0A10E
:1013D000E02DE60FF71F4770552721E030E001C0F0
:1013E000220F4A95EAF780818227B7CF08958EBDF4
:1013F00000000DB407FEFDCF8EB508958CBD9DBDD8
:1014000008950895FC016370668B8481958126811F
:101410003781613039F0633029F0918780873387D5
:1014200022870895318720879387828708952F9296
:101430003F924F925F926F927F928F929F92AF9264
:10144000BF92CF92DF92EF92FF920F931F93CF93B1
:10145000DF93CDB7DEB76A970FB6F894DEBF0FBE45
:10146000CDBF9A8F898F7A8369834A01D22E1887DC
:101470000F833701BC2CDC0159962D913C915A9772
:101480002115310509F015C118968D919C91199778
:10149000681779070CF0D7C11A968D919C9148175F
:1014A00059070CF0D0C14C2C512CB6E0CB9E600DEE
:1014B000711D11247C876B87161617060CF0C3C1AB
:1014C000EA2DF0E0FA87E98793E0EE0FFF1F9A9587
:1014D000E1F7F88BEF87CF01840F951F18161906D7
:1014E0000CF0B1C1A98DBA8D58968C91811104C0B0
:1014F000BFEABD1508F4D394A98DBA8DED91FC9186
:1015000011970284F385E02DCD010995B5E0DB9EAE
:10151000C0011124E981FA81FC83EB83312C212C59
:101520009C012E583F4F388F2F8B4A2D50E05E8BF9
:101530004D8BEF89F88DE20DF31D44919E828D82D3
:10154000D12CC12C69817A81620D731D7A8B698BD4
:10155000842F90E09C8B8B8BE98DFA8DA081B181DB
:1015600040FF82C0F1E0BF126FC0AF126DC01C9689
:10157000ED91FC912F813885A4014C0D5D1D698989
:101580007A89898D9A8D0995EB89FC89F595E7957E
:101590004E2F5FEFC51AD50A6D817E818D899E8998
:1015A000680F791F7E836D8398E0C916D10481F698
:1015B000AFEF2A1A3A0AEB81FC81E40DF51DFC839A
:1015C000EB83F5E02F16310409F0B3CF2F81388576
:1015D00026153705B9F0A98DBA8DED91FC91B1E0D2
:1015E000BB1257C0AB1255C069817A816B5F7F4FC8
:1015F0000088F189E02D830128E030E0A401898D85
:101600009A8D0995A98DBA8DED91FC911197068857
:10161000F789E02DCD016A960FB6F894DEBF0FBEB4
:10162000CDBFDF91CF911F910F91FF90EF90DF9091
:10163000CF90BF90AF909F908F907F906F905F9072
:101640004F903F902F9009941E96ED91FC91EF8062
:10165000F88409851A8592014D815E816B817C81B8
:10166000898D9A8D099590CF2F813885261537055C
:1016700009F48ACF31E0B31207C0A31205C01C964B
:10168000ED91FC91930178CF1E96ED91FC91730141
:10169000E0CF6B857C85641975090684F785E02D9C
:1016A00073010F8518899201A401898D9A8D09957E
:1016B000A9CFF90134969491329745915491D91A52
:1016C000B7E0DB9E400D511D1124F90125913491A5
:1016D0003C8B2B8BFA0125903490FA013296749052
:1016E00031963491398B329664903196449041E032
:1016F0004C1518F04A1508F07FC0662D062C000C1A
:10170000770B7C836B83842D042C000C990B9E83B8
:101710008D83A98DBA8DED91FC9111970284F3858B
:10172000E02DCD010995512CD12CC12CEA2DF0E0F2
:10173000FA87E9872B2D30E03C872B87A401440DE5
:10174000511D47FC5A95588F4F8B69817A81660DE0
:10175000711D67FC7A957E876D877989C71608F0B9
:1017600051CF2C2D30E04D815E81420F531FA98552
:10177000BA854A9FC0014B9F900D5A9F900D11242E
:10178000FC01E80DF91DF88BEF87852D612C4F8941
:10179000588D420F531F5E8B4D8B671408F050C05D
:1017A00044244394480E877041F4C1010196EB89AB
:1017B000FC89E20DF31DD4901C01D7FE19C0A98D40
:1017C000BA8DED91FC91662D70E0B1E0BB1219C0AD
:1017D000AB1217C02D853E85620F731F0484F585FB
:1017E000E02D2F8138854D895E89898D9A8D0995E7
:1017F000DD0C6394842DD1CF1E821D821C821B823E
:1018000088CF4B815C81640F751FAB85BC856A9F57
:10181000C0016B9F900D7A9F900D112469817A8190
:10182000680F791F0684F785E02DEF80F88409851D
:101830001A859D014F855889898D9A8D0995D8CF34
:10184000570CC3948ACF6A960FB6F894DEBF0FBECA
:10185000CDBFDF91CF911F910F91FF90EF90DF905F
:10186000CF90BF90AF909F908F907F906F905F9040
:101870004F903F902F9008958F929F92AF92CF926A
:10188000EF92FF920F931F93CF93DF93EC01262FDC
:10189000898D9A8D009709F051C06A30D1F41D8668
:1018A0001C868D8948E0849F900111248E859F8538
:1018B000820F931F9F878E8781E090E0DF91CF9109
:1018C0001F910F91FF90EF90CF90AF909F908F90CE
:1018D00008956D3089F3CC88AD888F898823C1F055
:1018E0008C859D8536E0C39E800D911D1124488511
:1018F00059854817590764F44E855F851D861C86F7
:1019000038E0A39EC0011124840F951F9F878E8706
:10191000EA88FB88088919894E855F856C857D85F5
:10192000CE010E94170A2C898C859D8546E0249F54
:10193000800D911D11249D878C87BECF6A3069F47C
:101940001D861C86FC013896E4912D898E859F8525
:10195000E29F800D911D1124ADCF6D3009F4ACCF05
:10196000FC0134963491631708F4A6CF3296E491C3
:10197000E61708F4A1CFFC01329685909490462F8B
:10198000431B342F47E0349F800C911C1124F40139
:10199000329634913196E4913323A9F1EE2399F1F3
:1019A000CC88F4013596E491AD884F89442301F148
:1019B0000E2E000CFF0BE30FF11DCE9EA001CF9E5B
:1019C000500D11246C857D85460F571F68857985DC
:1019D000641775076CF44E855F851D861C86FC01B7
:1019E0003896E491AE9E400D511D11245F874E87BD
:1019F000EA88FB88088919894E855F856C857D8515
:101A0000CE010E94170AF4013496E4912C898C854A
:101A10009D85E29F800D911D11248DCF6F927F9245
:101A20008F929F92AF92BF92CF92DF92EF92FF92EE
:101A30000F931F93CF93DF93EC016B015A01390190
:101A40004801E881F9810284F385E02D0995E88158
:101A5000F9810288F389E02D87019301A501B60180
:101A6000CE010995A501480D591D41505109E88144
:101A7000F9810288F389E02D9301B601CE01099521
:101A8000E881F9810088F189E02D9401A501B60172
:101A9000CE010995C60CD71CB60161507109E881C9
:101AA000F9810088F189E02D9401A501CE01099505
:101AB000E881F9810688F789E02DCE01DF91CF9189
:101AC0001F910F91FF90EF90DF90CF90BF90AF905C
:101AD0009F908F907F906F9009946F927F928F92DA
:101AE0009F92AF92BF92CF92DF92EF92FF920F93AD
:101AF0001F93CF93DF935C01EB016A014901380129
:101B00008701DC01ED91FC916217730719F56416EA
:101B100075062CF0962D872D3A01C92ED82E9601E8
:101B2000261937092F5F3F4F048CF58DE02DA30157
:101B3000BE01C5010995DF91CF911F910F91FF90D3
:101B4000EF90DF90CF90BF90AF909F908F907F905D
:101B50006F9008954615570591F42617370724F01E
:101B6000892D4B01C22FD82F9E01281939092F5FCB
:101B70003F4F068CF78DE02DA601B401DACF028429
:101B8000F385E02D0995D501ED91FC910488F58947
:101B9000E02D83019401A601BE01C5010995D5017F
:101BA000ED91FC910688F789E02DC501DF91CF9179
:101BB0001F910F91FF90EF90DF90CF90BF90AF906B
:101BC0009F908F907F906F900994EF92FF920F9368
:101BD0001F93DC011A960D911C911B9718962D915D
:101BE0003C911997ED91FC9100A0F1A1E02D7B01B2
:101BF00050E040E070E060E009951F910F91FF9088
:101C0000EF9008954F925F926F927F928F929F9282
:101C1000AF92BF92CF92DF92EF92FF920F931F93FA
:101C2000CF93DF936C012B015A0139014801DC018C
:101C3000ED91FC910284F385E02D0995E201640C9D
:101C4000751CD601ED91FC91C615D7055CF4008892
:101C5000F189E02D87019401A501BE01C601099516
:101C60002196EFCF0688F789E02DC601DF91CF914D
:101C70001F910F91FF90EF90DF90CF90BF90AF90AA
:101C80009F908F907F906F905F904F9009948F926C
:101C90009F92AF92BF92CF92DF92EF92FF920F93FB
:101CA0001F93CF93DF93EC015B014A016901E88147
:101CB000F9810284F385E02D099595012C0D3D1DD8
:101CC00021503109E881F9810488F589E02D7801F6
:101CD0008401A401B501CE010995E881F981068846
:101CE000F789E02DCE01DF91CF911F910F91FF90E9
:101CF000EF90DF90CF90BF90AF909F908F9009941E
:101D00008F929F92AF92BF92CF92DF92EF92FF920B
:101D10000F931F93CF93DF93EC015B014A0169019D
:101D20007801E881F9810284F385E02D0995C80CDA
:101D3000D91C860101501109E881F9810488F589CF
:101D4000E02D9501A401B501CE010995E881F98145
:101D50000688F789E02DCE01DF91CF911F910F9179
:101D6000FF90EF90DF90CF90BF90AF909F908F90BB
:101D70000994EF92FF920F931F93DC01ED91FC9178
:101D800000A0F1A1E02D09951F910F91FF90EF9018
:101D900008950F931F93DC01ED91FC91068CF78D54
:101DA000E02D09951F910F9108950F931F93DC016A
:101DB000ED91FC91048CF58DE02D09951F910F910B
:101DC0000895DC01ED91FC910084F185E02D0994EA
:101DD0003F924F925F926F927F928F929F92AF92BB
:101DE000BF92CF92DF92EF92FF920F931F93CF9308
:101DF000DF935C017B014A016901390187E0680ECC
:101E0000711C93E0759467949A95E1F72B01400E4D
:101E1000511E10E000E0312CD0E0C0E0CE01877010
:101E20009927330C892B59F4FE0183E0F595E7954A
:101E30008A95E1F7E00FF11FE80DF91D349037FEA8
:101E40000AC021E030E0A701B5016C0F7D1F8BE6D1
:101E500093E00E94E10E2196CC16DD06F9F68FEF95
:101E6000E81AF80A060D171DE414F504A9F6DF9127
:101E7000CF911F910F91FF90EF90DF90CF90BF9087
:101E8000AF909F908F907F906F905F904F903F901A
:101E900008952F923F924F925F926F927F928F920E
:101EA0009F92AF92BF92CF92DF92EF92FF920F93E9
:101EB0001F93CF93DF9300D000D000D0CDB7DEB713
:101EC0003C016A013E832D83FC82EB825801A41AF7
:101ED000B50AB7FE03C0B194A194B1088D809E806D
:101EE000861A970A97FE03C09194819491088A14E8
:101EF0009B045CF0902F812F0D811E819D838E832A
:101F00009C2D8D2D6B01692F782F0C151D055CF014
:101F10009D818E817E836D83692F782F902F812FF5
:101F20008601C92ED82E1601201A310A2B012D81C7
:101F30003E81421A530A57FE03C0519441945108FE
:101F4000710137FE03C03FEFE31AF30AF594E794FB
:101F50008D819E81861797075CF5A1E0B0E0BA837A
:101F6000A983C016D1064CF1D301ED91FC910484F4
:101F7000F585E02D2B813C81A8016D817E818A143D
:101F80009B041CF04D815E81B801C3010995E418E2
:101F9000F508F7FE0AC02D813E8189819A81280FBC
:101FA000391F3E832D83E20CF31C0F5F1F4FD9CFE7
:101FB0002FEF3FEF3A832983D4CF26960FB6F894BC
:101FC000DEBF0FBECDBFDF91CF911F910F91FF906C
:101FD000EF90DF90CF90BF90AF909F908F907F90C9
:101FE0006F905F904F903F902F9008952091060240
:101FF000260F3327331F21323105ECF420912A02BA
:10200000FC0190E080E0243069F082E00895A09126
:1020100006022191AC014A515E4FA40FB52FB11DAC
:102020002C930196861798F380910602680F6093AF
:10203000060280E0089581E0089510922A0281E06E
:1020400080932C0210922B0261E082E10E94EA064A
:1020500061E083E10E94EA06E9EBF0E080818E7F97
:10206000808380818D7F808388E48093B80085E4BD
:102070008093BC000895CF93DF9391E09093E501A6
:102080008823B9F0C091B800D091BA008091BC000B
:102090008A7B8093BC0060E082E10E94EA0660E0F7
:1020A00083E10E94EA060E941D10D093BA00C093FB
:1020B000B800DF91CF910895E0915B0280915A02C0
:1020C000E81730F4F0E0E054FE4F808190E008958E
:1020D0008FEF9FEF089590915B0280915A022FEF4E
:1020E0003FEF981748F4E92FF0E0E054FE4F2081CD
:1020F00030E09F5F90935B02C901089580915A027E
:1021000090915B02891B990B0895CF92DF92EF9219
:10211000FF920F931F93CF93DF937C01CB018A0132
:1021200020916302222389F0EB016B01C40ED51EBE
:10213000CC15DD0569F06991D701ED91FC91019015
:10214000F081E02DC7010995F3CF642F0E94F60FAF
:10215000C801DF91CF911F910F91FF90EF90DF9019
:10216000CF900895CF93DF931F92CDB7DEB76983E9
:10217000209163022223F9F020916002203258F06E
:1021800021E030E0FC013383228390E080E00F9077
:10219000DF91CF91089580916102E82FF0E0E05641
:1021A000FE4F998190838F5F8093610280936002DC
:1021B00081E090E0ECCF61E0CE0101960E94F60F45
:1021C000F7CFCF92DF92EF92FF920F931F93CF93AF
:1021D000DF93D091600281E0D13208F09CC0C091C1
:1021E00062020E9449076B017C0180912A028111E1
:1021F0006CC082E080932A0281E080932C028FEFF2
:102200008093290210924E02D0934D02A0EAB1E0D1
:10221000EDE2F2E080E0D8138DC010924F02809181
:102220004F02CC0FC82BC0934F0280912B028130FC
:1022300009F084C010922B020E9449076B017C01B7
:1022400080914F028093BB008091E1019091E20167
:10225000A091E301B091E401892B8A2B8B2BA1F093
:102260000E9449070091E1011091E2012091E301F0
:102270003091E4016C197D098E099F090617170733
:102280002807390708F442C08091BC0083FDD8CFED
:1022900085EC8093BC000E9449076B017C01809112
:1022A0002A02823009F44CC0809129028F3F09F440
:1022B00069C080912902803209F466C080912902A8
:1022C000803309F463C084E026C08091E1019091DD
:1022D000E201A091E301B091E401892B8A2B8B2BC1
:1022E00009F483CF0E9449070091E1011091E201B6
:1022F0002091E3013091E4016C197D098E099F0959
:10230000061717072807390708F06FCF8091E001FB
:102310000E943B1085E010926102109260021092C0
:102320006302DF91CF911F910F91FF90EF90DF90AB
:10233000CF9008959D9191938F5F6DCF85EEA9CF3A
:102340008091E1019091E201A091E301B091E4015B
:10235000892B8A2B8B2B09F4A2CF0E94490700916D
:10236000E1011091E2012091E3013091E4016C1947
:102370007D098E099F09061717072807390708F0F6
:102380008ECFC4CF80E0C7CF82E0C5CF83E0C3CF7C
:10239000EF92FF920F931F93CF93DF937C01C62F91
:1023A0008091880390918903009709F459C0209186
:1023B0008C0331E030936302209362021092610239
:1023C00010926002DC01ED91FC910190F081E02D12
:1023D00060E009958701EE24E394F12CD1E0C1502F
:1023E0008091880390918903CF3F91F1B0E2EB1681
:1023F000F104D8F00E94E110809188039091890344
:1024000020918C03D09363022093620210926102A8
:1024100010926002DC01ED91FC910190F081E02DC1
:1024200060E00995EE24E394F12C8091880390916B
:102430008903F8016491DC01ED91FC910190F08138
:10244000E02D0995BFEFEB1AFB0A0F5F1F4FC7CFB7
:10245000DF91CF911F910F91FF90EF900C94E110BD
:10246000E0919803F0919903908180919E0380956B
:10247000892380838701C15008F438C0F801849112
:102480002091860330918703232B29F00E94F709BE
:102490000F5F1F4FF0CF28E030E040E8E091940359
:1024A000F091950390919C03582F5423D9F05081BB
:1024B000952B9083E0919603F09197039081509132
:1024C0009D03952B9083E0919603F09197035081A3
:1024D00090919D03909595239083469521503109C5
:1024E000E9F6D6CF508190959523E3CFDF91CF9138
:1024F0001F910F91FF90EF9008951F93CF93DF935B
:10250000EC018D8D9E8D009721F1162F29A131E0D0
:102510003093630220936202109261021092600273
:10252000DC01ED91FC910190F081E02D60E00995D6
:102530008D8D9E8DDC01ED91FC910190F081E02D5F
:10254000612F09958D8D9E8DDF91CF911F910C94F8
:10255000E110ADA5BEA59C918BA9809589238C9394
:102560008B8D9C8D892B31F0862FDF91CF911F9120
:102570000C94F70928E030E080E8A9A5BAA599A94C
:10258000462F4823C1F04C91942B9C93ABA5BCA53E
:102590009C914AA9942B9C93ABA5BCA54C919AA95C
:1025A000909594239C9386952150310931F7DF91C2
:1025B000CF911F9108954C9190959423E6CFDF928F
:1025C000EF92FF920F931F93CF93DF938091880335
:1025D00090918903892B09F498C02091A003309130
:1025E000A1034091A2035091A30360E074E284EF41
:1025F00090E00E945B1F2051310941095109569515
:102600004795379527952093B80065E08EE99AE0C5
:102610000E94C81160916F0361508BE693E00E94A5
:102620007D122091710330917203C901079697FDC5
:10263000079633E0959587953A95E1F720916F03DA
:1026400030917003829F8001839F100D929F100D27
:102650001124C0918A03D0918B03809188039091BB
:1026600089030C0F1D1F009709F48FC020918C0364
:1026700031E0309363022093620210926102109263
:102680006002DC01ED91FC910190F081E02D60E4AD
:102690000995EE24E394F12CDD24D39480918803F2
:1026A000909189030C171D0709F446C0B0E2EB16A0
:1026B000F104D8F00E94E110809188039091890381
:1026C00020918C03D09263022093620210926102E7
:1026D00010926002DC01ED91FC910190F081E02DFF
:1026E00060E40995EE24E394F12C809188039091A5
:1026F00089036991DC01ED91FC910190F081E02D5D
:102700000995BFEFEB1AFB0AC9CF80918603909120
:102710008703892B31F08091A9039091AA030E942D
:10272000FE09E0919A03F0919B03908180919F03B1
:1027300080958923808369CF0E94E110809188036E
:1027400090918903892B09F461C02091A4033091F1
:10275000A5034091A6035091A70360E074E284EFC3
:1027600090E00E945B1F20513109410951095695A3
:102770004795379527952093B800DF91CF911F910A
:102780000F91FF90EF90DF900895E0919803F09102
:102790009903808190919E03892B80830C171D07DC
:1027A00069F289912091860330918703232B19F0D8
:1027B0000E94F709F3CF28E030E040E8E09194036D
:1027C000F091950390919C03582F5423D9F0508198
:1027D000952B9083E0919603F0919703908150910F
:1027E0009D03952B9083E0919603F0919703508180
:1027F00090919D03909595239083469521503109A2
:10280000E9F6CCCF508190959523E3CFE0919A03E0
:10281000F0919B03808190919F03892B8083ADCFA2
:102820001F93CF93DF93EC01162F8D8D9E8D892BF7
:10283000B1F12DA93EA94FA958AD60E074E284EF33
:1028400090E00E945B1F20513109410951095695C2
:102850004795379527952093B80066EA111167EAE6
:10286000CE010E947D128D8D9E8D892B41F129AD67
:102870003AAD4BAD5CAD60E074E284EF90E00E9455
:102880005B1F2051310941095109569547953795EC
:1028900027952093B800DF91CF911F9108958B8DDC
:1028A0009C8D892B21F08EAD9FAD0E94FE09EFA576
:1028B000F8A990818CA9809589238083CECFEFA53C
:1028C000F8A980819CA9892B8083E5CF90E080E0E6
:1028D0000895EF92FF921F93CF93DF93EC018A81CB
:1028E0009A819E7F9A839A819D7F9A83182F117077
:1028F00080FF13C0EF8DF8A1309779F0ADA1BEA194
:102900001496ED90FC9015971596DC93CE93149742
:102910000995EDA1FEA1F582E482812FDF91CF918F
:102920001F91FF90EF9008950F931F93CF93DF9324
:10293000FC01A5A1B6A1109709F452C0EC01178AB9
:10294000108E118E128E82818B7F8283058CF68D84
:10295000E02D309709F440C08A8181FD3DC0149676
:102960000D911C9115971596DC93CE9314978A813F
:1029700082608A8309959A8180FB90F99A838A8183
:102980008D7F8A83EDA1FEA1158304838B819C81B9
:10299000AD81BE818F839887A987BA872FB7F894B6
:1029A0008091010390910203A0910303B09104036D
:1029B0002FBF4F81588569857A85841B950BA60B9F
:1029C000B70B8B879C87AD87BE878A818170DF912B
:1029D000CF911F910F9108958A8181608A83D6CF0C
:1029E00080E0F5CFCF93DF93EC018AE591E0998306
:1029F00088838A8180FF03C0CE010E946914EDA103
:102A0000FEA1309789F017821EA21DA2A9A1BAA12A
:102A10008BA19CA1109799F4009749F41182108220
:102A20001382128281E08783DF91CF910895DC01C8
:102A300092961C921E92919791838083F3CF009778
:102A400039F494961C921E929397B383A283EACF93
:102A500094969C938E9393970BA0DCA1C02DBAA360
:102A6000A9A3E0CFFB0101900020E9F73197AF0166
:102A7000461B570BDC01ED91FC910280F381E02DA8
:102A80000994CF92DF92EF92FF920F931F93CF930F
:102A9000DF93CDB7DEB7A1970FB6F894DEBF0FBEB8
:102AA000CDBF282F30E050E040E019A28E010F5D2D
:102AB0001F4F8AE0C82ED12CE12CF12CCA01B9019C
:102AC000A70196010E945B1F605DF80162938F0170
:102AD000211531054105510589F73097E9F0BF010E
:102AE00084E692E00E9432158C016EE571E084E686
:102AF00092E00E943215800F911FA1960FB6F894B4
:102B0000DEBF0FBECDBFDF91CF911F910F91FF9020
:102B1000EF90DF90CF90089510E000E0E6CF0F93A4
:102B20001F93CF93DF93EC010E9432158C016EE569
:102B300071E0CE010E943215800F911FDF91CF917D
:102B40001F910F9108951F93CF93DF93D0919F0111
:102B5000E6E8F5E08491E6EBF5E01491E4EDF5E0CC
:102B6000C491CC2309F43DC081110E94C106EC2F11
:102B7000F0E0EE0FFF1FE859FF4FA591B491EC91E3
:102B8000E12331E020E009F430E0832F922F21E0AF
:102B900082278170D81328C010929E0180919D01D8
:102BA0008823B1F180915F028F5F843079F1809347
:102BB0005F0261E671E084E692E00E943215809146
:102BC0005F020E94411510929D0160919C0181E07D
:102BD000682760939C0189E0DF91CF911F910C944D
:102BE000EA0690E080E0D3CF80919E018F5F8093D2
:102BF0009E018C3098F281E0D827D0939F011092EB
:102C00009E01DD2359F280939D01C8CF81E0CFCF93
:102C1000DF91CF911F91089520917103309172033C
:102C2000C901079697FD079623E0959587952A9504
:102C3000E1F720916F0330917003829FA001839F81
:102C4000500D929F500D112470E060E080918A0336
:102C500090918B030C947321FC01808191810097EA
:102C600011F00C941F200895CF93DF93EC010E9484
:102C7000F214CE01DF91CF910C941F200E946521A8
:102C80000F931F93CF93DF93EC0188819981009775
:102C900059F02A813B812617370730F081E0DF9118
:102CA000CF911F910F9108958B016F5F7F4F0E940D
:102CB000A820009759F0998388831B830A832C816D
:102CC0003D81232B59F7FC011082E8CF80E0E7CF4C
:102CD000EF92FF920F931F93CF93DF93EC017B0151
:102CE0008A01BA010E94401628813981811114C0DD
:102CF0002115310519F0C9010E941F20198218827F
:102D00001D821C821B821A82CE01DF91CF911F91FE
:102D10000F91FF90EF9008951D830C83B701C901B7
:102D20000E947A21F1CF85ED8093BC008091E10172
:102D30009091E201A091E301B091E4010796A11DF9
:102D4000B11D23E0B695A795979587952A95D1F75C
:102D50002091BC0024FD03C010922A0208954091E6
:102D6000E1015091E2016091E3017091E401452B92
:102D7000462B472B69F30097A105B10541F025E3E8
:102D80002A95F1F700000197A109B109E1CF8091DF
:102D9000E0010C943B101F920F920FB60F9211247A
:102DA0002F933F934F935F936F937F938F939F9353
:102DB000AF93BF93EF93FF9384E692E00E943206B5
:102DC000FF91EF91BF91AF919F918F917F916F9103
:102DD0005F914F913F912F910F900FBE0F901F90D9
:102DE00018951F920F920FB60F9211242F938F9365
:102DF0009F93EF93FF93E0917402F09175028081AD
:102E0000E0917A02F0917B0282FD1BC0908180915B
:102E10007D028F5F8F7320917E02821741F0E091D7
:102E20007D02F0E0EC59FD4F958F80937D02FF917C
:102E3000EF919F918F912F910F900FBE0F901F9048
:102E400018958081F4CF1F920F920FB60F92112424
:102E50002F933F938F939F93AF93BF9380910103E1
:102E600090910203A0910303B091040330915002AA
:102E700023E0230F2D3758F50196A11DB11D209396
:102E800050028093010390930203A0930303B09335
:102E900004038091510290915202A0915302B0918B
:102EA00054020196A11DB11D8093510290935202CC
:102EB000A0935302B0935402BF91AF919F918F9111
:102EC0003F912F910F900FBE0F901F90189526E8FD
:102ED000230F0296A11DB11DD2CF1F920F920FB6E4
:102EE0000F9211242F933F934F935F936F937F9390
:102EF0008F939F93AF93BF93EF93FF938091B9000C
:102F0000887F803609F44AC0F0F5883209F4A7C0FA
:102F100018F5803109F49BC0B8F4882309F4F9C08E
:102F2000883009F494C0FF91EF91BF91AF919F91C8
:102F30008F917F916F915F914F913F912F910F9062
:102F40000FBE0F901F901895883109F488C0803209
:102F500051F78093290214C0803409F49DC040F4D5
:102F60008033B9F38833F9F68093290285ECB0C039
:102F7000803509F485C0883509F496C0883499F6FF
:102F80000E949316D0CF883909F48CC038F5883761
:102F900029F050F4883611F0803729F683E08093C9
:102FA0002A021092280257C0883809F47BC0803961
:102FB00019F0803809F0B7CF80912802803208F0EC
:102FC00071C0E091280281E08E0F809328028091E9
:102FD000BB00F0E0E85FFD4F80833DC0803B39F0EF
:102FE000E0F4803A09F479C0883A09F09CCF84E093
:102FF00080932A021092070210920602E091580272
:10300000F091590209958091060281110FC081E06B
:10301000809306021092E60109C0803C09F4A6CF15
:10302000883C09F4A3CF883B09F07DCFE0910702EB
:1030300081E08E0F80930702F0E0EA51FE4F80811D
:103040008093BB00909107028091060229C0809175
:103050004F028093BB0085EC8093BC0064CF9091BD
:103060004E0280914D02981758F5E0914E0281E092
:103070008E0F80934E02F0E0E35DFD4F8081E9CF3B
:10308000E0914E0281E08E0F80934E028091BB0052
:10309000F0E0E35DFD4F808390914E0280914D0200
:1030A0009817C8F285E8D8CFE0914E0281E08E0FE4
:1030B00080934E028091BB00F0E0E35DFD4F808382
:1030C00080912C0281115CCF81E080932B0284EAF5
:1030D0008093BC0010922A0226CF85EC8093BC001E
:1030E00010922A0280912802803230F4E091280266
:1030F000F0E0E85FFD4F10826091280270E0E091FF
:103100005602F091570288E092E009951092280249
:103110000ACF1092290234CFCF92DF92EF92FF9222
:10312000E4E6F2E01382128288EEC82E83E0D82E05
:10313000E12CF12CC482D582E682F7828AE091E00C
:103140009183808385EC90E09587848784EC90E080
:103150009787868780EC90E0918B808B81EC90E064
:10316000938B828B82EC90E0958B848B86EC90E045
:10317000978B868B118E128E138E148EAFE5B3E073
:1031800013961C921E9212971496CD92DD92ED9298
:10319000FC9217978CE191E011969C938E93EBEA49
:1031A000F3E0178211821082138212821582148238
:1031B000168281E08783EBE6F3E01382128240E817
:1031C00050E05583448320E430E0378326835187E1
:1031D000408733872287168A1586148617861686B7
:1031E000858B848B2FEF3FEF338B228B318B208BA2
:1031F000878B108E128E118E8EE291E091838083E8
:10320000148E138EB68FA58F10A2178E8FEF84A306
:1032100085A386A387A380A780E89AE1A6E0B0E013
:1032200085AB96ABA7ABB0AF80EA96E8A1E0B0E083
:1032300081AF92AFA3AFB4AF80E586AF17AEE9E53B
:10324000F3E011821082138212821582148250E000
:1032500040E060E671E0CF010E946816E3E5F3E02C
:1032600011821082138212821582148250E040E093
:1032700060E671E0CF010E946816ECE2F3E08AE5B7
:1032800091E091838083AEE2B3E02C912E7F2C936A
:103290002C912D7F2C932C912B7F2C9313861486AD
:1032A000158616861382148215821682178210865E
:1032B0001186128612A211A214A213A216A215A29E
:1032C000178A108E118E128E2EE735E0348F238FE1
:1032D000168E158E10A2178EC382D482E582F682D6
:1032E00043815481658176814783508761877287E6
:1032F0002FB7F894409101035091020360910303AA
:10330000709104032FBF43875487658776874FEFFB
:103310005FEFBA014787508B618B728B438B548B65
:10332000658B768BE5E0F3E091838083A7E0B3E0E3
:103330008C918E7F8C938C918D7F8C938C918B7FD5
:103340008C93138614861586168613821482158232
:103350001682178210861186128612A211A214A25A
:1033600013A216A215A2178A108E118E128E83EA4E
:1033700095E1948F838F168E158E10A2178E82E0A2
:1033800090E0A0E0B0E083839483A583B68383813B
:103390009481A581B68187839087A187B2872FB753
:1033A000F8948091010390910203A0910303B091DE
:1033B00004032FBF83879487A587B6874787508BE1
:1033C000618B728B438B548B658B768BFF90EF9068
:1033D000DF90CF900895CF93DF9300D000D000D03E
:1033E000CDB7DEB7789484B5826084BD84B5816042
:1033F00084BD85B5826085BD85B5816085BD8091C0
:103400006E00816080936E00109281008091810037
:10341000826080938100809181008160809381002F
:10342000809180008160809380008091B1008460F1
:103430008093B1008091B00081608093B000809152
:103440007A00846080937A0080917A008260809311
:103450007A0080917A00816080937A0080917A006E
:10346000806880937A001092C100E0917402F0911C
:10347000750282E08083E0917002F0917102108207
:10348000E0917202F091730280E1808310927C02DD
:10349000E0917802F091790286E08083E0917602F3
:1034A000F0917702808180618083E0917602F091D3
:1034B0007702808188608083E0917602F0917702C4
:1034C000808180688083E0917602F091770280812C
:1034D0008F7D808380918A0390918B03892B11F1DA
:1034E0000E940C16209171033091720380916F033A
:1034F00090917003213231050CF04BC0B90160523C
:10350000710977FF02C06F5F7F4F7595679583578D
:10351000910997FD019600E210E023E730E044EEC8
:1035200055E04AC02091710330917203C90107969A
:1035300097FD0796B3E095958795BA95E1F72091A9
:103540006F0330917003AC01429FC001439F900D07
:10355000529F900D11240E94831F90938B038093A0
:103560008A03892B09F0BCCF04E81AE0F8016491C2
:10357000662341F084E692E00E9454060F5F1F4FDD
:10358000892BA1F76EE571E084E692E00E94321586
:10359000FFCFB9016054710977FF02C06F5F7F4FA1
:1035A000759567958255910997FD019600E410E0A5
:1035B00022E530E044EC57E0959587950E94E80EAF
:1035C00082E080938D038091880390918903892BF9
:1035D00009F469C18CE380938C0310925B02109212
:1035E0005A0210926102109260020E941D1081EB3B
:1035F00095E0909359028093580282EB95E0909366
:103600005702809356028091930387FD1EC061E0AC
:103610000E94180761E0809193030E94EA0661E02E
:1036200070E080E090E00E946E0760E0809193037C
:103630000E94EA066AE070E080E090E00E946E0777
:1036400061E0809193030E94EA0680918803909143
:103650008903892B09F4E6C12091A0033091A103CD
:103660004091A2035091A30360E074E284EF90E0E4
:103670000E945B1F20513109410951095695479518
:10368000379527952093B80064E08EEA95E00E9474
:10369000C8116091710361508BE693E00E947D1226
:1036A00064E08AEA95E00E94C81180918D0360E190
:1036B000813009F064E18BE693E00E947D1264E0C2
:1036C00086EA95E00E94C8118FE88093A803809154
:1036D0006F03909170038038910509F0BCC180910F
:1036E0007103909172038034910509F0C4C18091F7
:1036F0008D03813009F0ADC18FE98093A80312E1F9
:103700006AED8BE693E00E947D12612F8BE693E0D9
:103710000E947D1261E88BE693E00E947D12609129
:10372000A8038BE693E00E947D1269ED8BE693E09F
:103730000E947D1280918D0362E2813009F061EF79
:103740008BE693E00E947D1266E080EA95E00E949D
:10375000C8118091880390918903892B09F48FC146
:103760002091A4033091A5034091A6035091A70393
:1037700060E074E284EF90E00E945B1F2051310909
:103780004109510956954795379527952093B800DB
:103790000E940C1662E084E00E94180761E089E054
:1037A0000E9418078CE293E00E94840585E093E074
:1037B0000E94840585E093E00E94941480E0C82E66
:1037C00080E0D82E33243394EE24E394F12C8091BE
:1037D000AB039091AC039093B0038093AF0310922E
:1037E000B3031092B4031092B5031092B603109273
:1037F000B7031092B8031092B9031092BA03109253
:10380000BB031092BC031092BD031092BE038091C3
:10381000B203882309F4B0C18091B1038111ACC116
:10382000E091AF03F091B003309709F4A5C1809106
:10383000B7039091B803A091B903B091BA03019670
:10384000A11DB11D8093B7039093B803A093B90352
:10385000B093BA0303A114A1828180FF1FC080919D
:10386000B3039091B403A091B503B091B603019650
:10387000A11DB11D8093B3039093B403A093B5032E
:10388000B093B60387859089A189B289892B8A2B49
:103890008B2B09F0FEC0CF010E9469141093B00376
:1038A0000093AF03B9CF61E0809191030E941807A4
:1038B00061E0809192030E94180780919103082E85
:1038C000000C990BFC01E053FA4FE491F0E0EE0F8D
:1038D000FF1FEA53FA4F25913491309399032093B7
:1038E0009803FC01EE54FA4FE491E0939E0380911B
:1038F0009203082E000C990BFC01E053FA4FE4915F
:10390000F0E0EE0FFF1FEA53FA4FA591B491B09388
:103910009B03A0939A03FC01EE54FA4FE491E093C9
:103920009F038C91E82BEC93809186039091870301
:10393000892B09F434C01FB7F89480915502811186
:1039400027C0EAEDF5E08491ECEBF5E09491E82FE7
:10395000F0E0EE0FFF1FEA56FA4FA591B491EC91FB
:10396000E92321F461E08AE00E94EA0661E08AE04E
:103970000E9418078CB580618CBD8CB580648CBDAD
:1039800061E08DE00E94180761E08BE00E9418075B
:10399000809155028F5F809355021FBF34CE61E046
:1039A00080918F030E94180761E0809190030E942C
:1039B000180780918F03082E000C990BFC01E0532F
:1039C000FA4FE491F0E0EE0FFF1FEA53FA4F259112
:1039D00034913093950320939403FC01EE54FA4FF5
:1039E000E491E0939C0380919003082E000C990BC6
:1039F000FC01E053FA4FE491F0E0EE0FFF1FEA53B1
:103A0000FA4FA591B491B0939703A0939603FC014C
:103A1000EE54FA4FE491E0939D038C91E095E823F6
:103A2000EC93F1CD8091860390918703892B31F03F
:103A30008091A9039091AA030E94FE09E0919A0344
:103A4000F0919B03908180919F03809589238083CF
:103A50001BCE8FEC52CE8036910569F480917103B4
:103A600090917203409739F480918D03813029F44D
:103A700080E18093A80312E043CE8FEAFACFE09171
:103A80009A03F0919B03808190919F03892B8083FF
:103A90007FCE2FB7F8948091010390910203A091FB
:103AA0000303B09104032FBFE091AF03F091B00383
:103AB000438154816581768183849484A584B6840E
:103AC000478050846184728488199909AA09BB09C6
:103AD00084159505A605B70508F4E0CE878590897D
:103AE000A189B289181619061A061B065CF4878587
:103AF0009089A189B2890197A109B1098787908B23
:103B0000A18BB28B8789908DA18DB28D0196A11D5D
:103B1000B11D878B908FA18FB28F83859485A585EA
:103B2000B6854780508461847284840D951DA61DDE
:103B3000B71D83879487A587B6874783508761879A
:103B40007287038CF48DE02D309709F4A7CE099588
:103B50008091BB039091BC03A091BD03B091BE03C3
:103B60000196A11DB11D8093BB039093BC03A0934C
:103B7000BD03B093BE0392CE10915F02123009F4E0
:103B80006EC0133009F43EC1113009F05CC0809161
:103B90005E02811136C08CE293E00E94941469E6C3
:103BA00071E084E692E00E948F150E940C1610933B
:103BB0007F0310938003F0927E03E0927D03F092E6
:103BC0007C03E0927B0310927803109277031092AB
:103BD0007A0310927903109383036BE771E08BE60D
:103BE00093E00E948F1510935E020E94DF1261E83D
:103BF00071E084E692E00E94321580915C020E949E
:103C0000411580915C028330F0F061E871E084E658
:103C100092E00E94321580915C020E9441158CE274
:103C200093E00E94691410925C0280915F028130DF
:103C300051F40E940C160E94DF1269E871E084E6DC
:103C400092E00E948F15C114D10409F4C0CD0E94E6
:103C50001E06882309F4BBCD0E940000B8CD84E67F
:103C600092E00E94120618161906F4F550E040E0A2
:103C700060E671E089E593E00E94681684E692E0D0
:103C80000E941206181619066CF584E692E00E944E
:103C9000F00589831A8200915D0310915E030F5F26
:103CA0001F4FB80189E593E00E944016882399F0E0
:103CB0002091590330915A0380915D0390915E03E6
:103CC000BE016F5F7F4F820F931F0E947A21109376
:103CD0005E0300935D0362E070E080E090E00E948C
:103CE0006E07CCCF30925D0280915D02882309F48B
:103CF00061C010925D021A8219821C821B821E8290
:103D00001D826091590370915A0340915D03509157
:103D10005E036115710509F057C0809153039091BE
:103D20005403009709F457C069817A8161157105C0
:103D300009F44FC040915503509156032D813E81A7
:103D40004217530708F445C00E947A218D819E8155
:103D500090935803809357031E821D82CE010196D3
:103D60000E942C168091570390915803892B09F4D7
:103D70006ACFE0915303F09154038081882309F4C2
:103D800062CF62E971E084E692E00E9432154091D0
:103D9000570350915803609153037091540384E684
:103DA00092E00E94B4056EE571E084E692E00E9424
:103DB000321549CF1A8219821C821B821E821D82F3
:103DC00050E040E060E671E0CE0101960E94681686
:103DD000A4CF0E941F2089819A81909354038093DD
:103DE00053038B819C8190935603809355038D815F
:103DF0009E8190935803809357031A8219821C82E4
:103E00001B82AACF10925E021ECF85E093E00E9433
:103E1000F2148CE293E00E94F21483E593E00E9496
:103E20002C1689E593E00E942C168EE291E0909387
:103E30006C0380936B0380918A0390918B030097AE
:103E400011F00C941F2008952F923F924F925F9291
:103E50006F927F928F929F92AF92BF92CF92DF929A
:103E6000EF92FF920F931F93CF93DF93CDB7DEB7FF
:103E7000CA1BDB0B0FB6F894DEBF0FBECDBF099493
:103E80002A88398848885F846E847D848C849B84EA
:103E9000AA84B984C884DF80EE80FD800C811B81F8
:103EA000AA81B981CE0FD11D0FB6F894DEBF0FBE27
:103EB000CDBFED010895A1E21A2EAA1BBB1BFD0187
:103EC0000DC0AA1FBB1FEE1FFF1FA217B307E407F9
:103ED000F50720F0A21BB30BE40BF50B661F771F51
:103EE000881F991F1A9469F7609570958095909531
:103EF0009B01AC01BD01CF010895EE0FFF1F05909E
:103F0000F491E02D09940F931F93CF93DF938230A8
:103F1000910510F482E090E0E091C103F091C203BA
:103F200030E020E0B0E0A0E0309799F421153105B1
:103F300009F44AC0281B390B24303105D8F58A8191
:103F40009B816115710589F1FB0193838283FE01D9
:103F500011C0408151810281138148175907E0F057
:103F60004817590799F4109761F012960C9312971D
:103F700013961C933296CF01DF91CF911F910F9131
:103F800008950093C1031093C203F4CF21153105A6
:103F900051F04217530738F0A901DB019A01BD0126
:103FA000DF01F801C1CFEF01F9CF9093C2038093F5
:103FB000C103CDCFFE01E20FF31F819391932250F5
:103FC000310939832883D7CF2091BF033091C003B3
:103FD000232B41F420910201309103013093C0035F
:103FE0002093BF032091000130910101211531057B
:103FF00041F42DB73EB74091040150910501241BB7
:10400000350BE091BF03F091C003E217F307A0F472
:104010002E1B3F0B2817390778F0AC014E5F5F4F1E
:104020002417350748F04E0F5F1F5093C00340938D
:10403000BF03819391939FCFF0E0E0E09CCFCF93BB
:10404000DF930097E9F0FC01329713821282A0916E
:10405000C103B091C203ED0130E020E01097A1F45C
:1040600020813181820F931F2091BF033091C003C3
:104070002817390709F061C0F093C003E093BF032C
:10408000DF91CF910895EA01CE17DF07E8F54A8165
:104090005B819E0141155105B1F7E901FB83EA837C
:1040A00049915991C40FD51FEC17FD0761F4808128
:1040B00091810296840F951FE901998388838281FB
:1040C00093819B838A83F0E0E0E012968D919C912E
:1040D00013970097B9F52D913C911197CD01029658
:1040E000820F931F2091BF033091C0032817390717
:1040F00039F6309751F51092C2031092C103B09374
:10410000C003A093BF03BCCFD383C283408151813E
:10411000840F951FC817D90761F44E5F5F4F8881E0
:104120009981480F591F518340838A819B819383D2
:1041300082832115310509F0B0CFF093C203E093DB
:10414000C1039ECFFD01DC01C0CF13821282D7CF05
:10415000B0E0A0E0EEEAF0E20C94261F8C0100979C
:1041600051F4CB010E94831F8C01C801CDB7DEB78B
:10417000E0E10C94421FFC01E60FF71F9C01225066
:104180003109E217F30708F49DC0D901CD91DC9104
:104190001197C617D70798F0C530D10530F3CE0177
:1041A00004978617970708F3C61BD70B2297C1936E
:1041B000D1936D937C93CF010E941F20D6CF5B01DA
:1041C000AC1ABD0A4C018C0E9D1EA091C103B0918A
:1041D000C203512C412CF12CE12C109731F5809128
:1041E000BF039091C0038815990509F05CC046167D
:1041F000570608F058C08091000190910101009786
:1042000041F48DB79EB74091040150910501841B84
:10421000950BE817F90708F055C0F093C003E09339
:10422000BF03F90171836083A0CF8D919C91119799
:1042300012966C90129713967C901397A815B90557
:1042400059F56C0142E0C40ED11CCA14DB0420F104
:10425000AC014A195B09DA011296159780F0628267
:10426000738251834083D9016D937C93E114F104EF
:1042700071F0D7011396FC93EE93129776CF2296A6
:104280008C0F9D1FF90191838083F301EFCFF09391
:10429000C203E093C10369CF4816590608F42C0104
:1042A0007D01D3019ACFCB010E94831F7C0100972F
:1042B00049F0AE01B8010E946A21C8010E941F2086
:1042C000870153CF10E000E050CF81E090E0F894F8
:1042D0000C948121FB01DC0102C001900D92415040
:1042E0005040D8F70895DC0101C06D934150504013
:1042F000E0F70895FB01DC0101900D920020E1F749
:10430000089515E0C3E5D5E004C0FE010E947D1FBD
:0C4310002196C435D107C9F7F894FFCFFF
:10431C000000C3038000000000005406B405E10552
:10432C00A1061206F005040600000000B21085106C
:10433C006614B0057E106B105C10000000003C0C85
:10434C00B4056614B3054709B005E10EB90ED50ED8
:10435C00C90E490FB005020A1014B7080009020E65
:10436C00E50D6D0D0E0D00000000F21434160D0A53
:10437C0000636C69636B733D0053746172742074D9
:10438C0061736B2073637265656E00537461727434
:10439C0000736372436E743D00436C6561726564B7
:0C43AC002100726563697665643D0000C5
:00000001FF
